:0200000407FCF7
:10000000388DFC072501FC072D01FC074501FC0785
:1000100000000000000000000000000000000000E0
:100020000000000000000000000000005D01FC076F
:1000300000000000000000005F01FC076101FC07F8
:100040005D0EFC074D3AFC07A526F0076301FC078F
:100050006301FC076301FC07210EFC076301FC0739
:100060002D0EFC076301FC07E90EFC07F30EFC07ED
:10007000FD0EFC07070FFC07110FFC076301FC07CF
:100080001911FC076301FC076301FC076301FC070E
:100090006301FC076301FC076301FC076301FC07C4
:0800A00000008E070E000000B5
:0200000407FCF7
:100110000348854600F062FE00480047F129FC07CD
:10012000388DFC070F4880470F4800470420714670
:10013000084203D0EFF309800C490847EFF3088029
:100140000A49084704207146084203D0EFF30980AA
:1001500007490847EFF3088005490847FEE7FEE72F
:10016000FEE7FEE71D76FC071101FC072510FC07E2
:100170000D10FC07F8B50746012000230246009049
:100180001946032049F73EF90446022180300170E8
:10019000FB4DFA482A6843881146FF31F7310B8638
:1001A00080884886F748066A0123DB069E431E4383
:1001B0000662FF320020FF32383250829082D082B5
:1001C0001D200882F0484884F048C882F04808831F
:1001D00000204882384649F755FC01462868FF3020
:1001E000F730C28B920992010A43C283E948416801
:1001F00000208847002C02D0204648F7ECFC20461F
:10020000F8BDF1B598B0189842F721FC044618984B
:1002100005210079E04A4006C00F09906846018434
:10022000618B08460A38904277D2E08A062874D358
:100230001922D201904270D8228BFF23F5339A42C3
:100240006BD8521C9300D2184243521C0A235210FE
:1002500059438A4261DC217F00290CD1617F00294A
:1002600009D1A17F002906D1E17F002903D12021F6
:10027000095DC90651D0274620377978C906C90ECD
:10028000491F0C2949D2A18A814246D8E17C002924
:1002900043D0421E082A01D9082000E0401E8142B6
:1002A0003BD8684646F794FC002836D1B34D062269
:1002B000286221460BA85EF71FFFA8792E46803ED4
:1002C00000287DD06079800901280AD00BA80999FF
:1002D0004CF74DFF010003D03820405C002870D05F
:1002E0009CE0F06A807A012808D0042806D00BA888
:1002F0004CF7AAFF286200284FD055E0686A062212
:100300000BA932305EF71CFF002807D00BA84CF772
:100310009BFF2862002803D013E0EDE0686AF8E74D
:1003200000210BA84CF7A6FF2862F16A897A0129FF
:1003300005D18B071A6849068A430A431A600028C8
:1003400011D0F16A286A0622253010315EF7F8FED6
:10035000002808D1286AF16A2030C07AC97B884217
:1003600001D1286A1EE08D488D490088C96880B295
:1003700006225043081842F76FFB014614A80622D4
:1003800002305EF7B9FE13AA00213C2042F731FE8D
:100390000121B06D48F758F8AAE011A90BA84CF755
:1003A00069FF2862002839D001460A9006220FA86A
:1003B00025315EF7A1FE0A9908AA2031C97A01E029
:1003C00042E025E00FA84CF7B5FD002812D0286ABE
:1003D0002030C07A002809D168467249008C4BF75A
:1003E0001CFD08AA01216F484CF7A4FD68460BA923
:1003F000008C0AE008AA012111A84CF79BFD0028F7
:100400000CD0296A6846008C32314BF71CFD05E0A0
:100410000A18527D002A08D010286DDBF06A407A55
:10042000022806D0032804D00EE0401C1028EFDB81
:10043000F4E76846008C052806D308AA0BA809999A
:100440004CF778FD002857D00022694620464CF72B
:100450001AFE002850D1F06A407A02280BD00328F7
:1004600009D00023684602880BA809994CF72CFE96
:10047000002802D02FE00123F4E7E18A68460181D9
:10048000218B4181618B8181787806224109684600
:1004900081757878C106C90E6846417521460E30CF
:1004A0005EF72AFE189800794006C10F684601756C
:1004B0000388214602A8B26D47F76CFB0146B06580
:1004C00002A842F7E4FD0020B065214668461C31D1
:1004D000008846F7D0FB49F74FFC284C2034207A9F
:1004E000002805D0002109205CF70DFE00202072B5
:1004F000002108465CF7AFFC19B0F0BDF8B52A4CF6
:10050000064685000F4660594C21095C24290ED10E
:1005100040691022791D2E305EF7EEFD61592520CD
:100520004031087300221146304654F7BAFC605936
:100530004C21095C0C291FD140691022791D2E30F5
:100540005EF7DAFD60595F214069095C090746D40E
:1005500001462E3110221E305EF7F2FD002825D014
:100560006059092140300173304655F7B7F901460B
:100570000022304654F714F8F8BD000030BCFC07E8
:100580004CB9FC07C0000040108000002941000069
:100590007671000058BFFC07770C000068B9FC07B3
:1005A00060BBFC0750F5F1073CBEFC070421684620
:1005B00001706A460521304654F79CF96846017877
:1005C0006020014368460170304655F787F90146BF
:1005D000684602780123304654F7F7F8CCE73046F6
:1005E00055F77CF9012809D0605907214030017383
:1005F00000221146304654F754FCBDE761590020F3
:100600004969C031887160590421426930461E32FF
:1006100054F770F9605941694031897F002907D04A
:100620001A21403001730021304654F7C4FCA3E77F
:100630001B2140300173304654F712FD9CE7F8B59A
:10064000614C05468600A0594C22125C192A93D1B0
:1006500040224D30491D5EF74FFDA05940225B49B5
:100660004D305EF76DFD002805D0584928462039E9
:100670005BF7D1FE80E70B21684601706A460521D1
:10068000284654F737F968460178602001436846E8
:100690000170284655F722F9014668460278012381
:1006A000284654F792F867E7FFB581B003980C46E7
:1006B000060A00255CF7E4FB002818D0132816D0A2
:1006C000142814D04248B700C0592030407BC006DF
:1006D00028D503985CF7D4FB15280CD0A07942F7F5
:1006E000A9F9304647F744FA032806D015E0A07967
:1006F00042F7A0F91FE002251DE03548C05920301F
:10070000407B400704D53D21304642F791FE04E08E
:100710003D220021304642F79AFE3D21304646F701
:100720006FFA08E0204610382A49018146812046A8
:100730004EF758FF0125284605B0F0BD2648522245
:10074000006864308188C37E5143244A1268891846
:10075000FF225F32525AFF31120AD21A01310B8C3A
:10076000D2B2DB0B09D00B8C5B045B0C0B84002A30
:1007700003D180881A4A012111547047FFB51746EA
:10078000140A81B0124A0298A100515840780026FC
:10079000134D002907D0295D002905D0002803D179
:1007A000204644F7A9F82E553A46049B0299019831
:1007B00045F733F8C0E70C480A4901600B4941602E
:1007C00070477047704700003CBEFC07FCBDFC074B
:1007D00078BBFC070608000084BBFC074CB9FC078B
:1007E0003396FC070459F007C0000840490C00BFCD
:1007F0007FB5E6486B460188428889186A461180B1
:1008000001214C0022181546403DED8F065B5288B1
:10081000AD19AA18491CC9B21A530729F1D3818905
:10082000C089081881B2D981D888002821D01889B8
:10083000002820D0988800281FD0588900281ED072
:10084000988900281DD0588800281CD000291CD069
:10085000188800280BD00720062254001C5B8C420D
:1008600001D22146D0B2521E52B2002AF5DA04B0AB
:1008700070BD0320FBE70420F9E70220F7E705201D
:10088000F5E70620F3E70120F1E70720EFE7F0B5F1
:1008900095B0EFF310801190012080F31088BC48D0
:1008A000816B4A07520F69460A800A92816B0122C6
:1008B000C908C9008163B7498B8869464B80022407
:1008C000B44B00219980C16A09078B0F69468B8060
:1008D0001093C16A0C2399430831C16205210907AD
:1008E00009880906CB0F6946CB80052109070993C2
:1008F00009888023194305231B071980A649898A83
:100900004906CB0F69460B81A3490893898A402386
:100910001943A14B9982016A09074B0F69464B8124
:100920000C93036A0E218B4303629D4D9B486860C4
:100930009F20A8602888A04328809A4841680B0718
:100940001B0F69468B810B93416809090901083126
:100950004160416849064B0F6946CB81029341686B
:1009600070239943603141608948403801688904A7
:10097000CB0F69460B820D93016843141943016044
:100980000168CB07DB0F69464B820E930168114368
:10099000016041688903CA0D69468A8203924168F1
:1009A000CA05D20D6946CA82049281688903CA0DBC
:1009B00069460A830F928168CA05D20D69464A8347
:1009C00001924168784A11400322D203891841609C
:1009D0004168490A4902FF31413141608168724AE8
:1009E00011400322D203891881608168490A4902B3
:1009F000FF3141318160642000F032F9A8896946F5
:100A00008007C00F8883A8892043A881002400267E
:100A100002256348614F01880122114301800A20A9
:100A200000F01EF9614AA0203968114200D0761CFE
:100A3000401E3F1D0004000CF6D15948818A8904EC
:100A4000FCD16D1E2D062D0EE3D15149886B651C1E
:100A5000C208D2006807400F02438A630A2000F0F0
:100A6000FFF860004949ECB20E52082CCFD3484839
:100A70000A99826BD208D2000A4382636946454ACA
:100A80004988918010998A00C16A0C2399431143C7
:100A9000C1620999CA010521090709888023994380
:100AA000114305221207118008998A013A49898A5F
:100AB000402399431143384A91820C994A00016AB4
:100AC0000E2399431143016236480B99426812097B
:100AD00012010A43426002990A0141687023994356
:100AE000114341600D9841032948403800680122B4
:100AF0005203904308432649403908600E9809681C
:100B000049084900014322484038016003984202E5
:100B10001F48403840682449084010431C4A403A66
:100B2000506004985268520A5202024318484038F2
:100B300042600F98420216484038806808401449C5
:100B400010434039886001988968490A4902014385
:100B50000F48403881601198002800D0012080F3B0
:100B6000108815B0F0BD10B5114C2078002808D0C1
:100B7000FFF78DFEFFF73CFE0E4908700020207045
:100B800010BD02F043FE0120F9E7000098B7FC0712
:100B900080100040001200402030005018B5FC07C3
:100BA0000035005040200040FF01FCFFC0C0C0C025
:100BB000D89AFC07D69AFC0710B5FF2215490132D6
:100BC0000A60BFF34F8FBFF36F8F13490A60134959
:100BD0000B6840241B0A1B0223430B601049898ABF
:100BE0000021C30700D03521830702D57D231B02D6
:100BF0001943430702D575231B041943000702D587
:100C00003D20000601430648203801630148803832
:100C1000026010BD80E100E080E200E008E400E056
:100C2000A010004010B5062000F01AF810BD10B555
:100C3000092000F015F810BD10B5812000F010F863
:100C400010BD10B5044800F00BF810BD10B50348F6
:100C500000F006F810BD00000102000001080000CD
:100C600000280CD000BF00BF00BF00BF00BF00BF06
:100C700000BF00BF00BF00BF00BF401EF0D17047E3
:100C8000421C0178401C0029FBD1801A704710B526
:100C9000002200E0521C835C8C5CA34201D1002B3B
:100CA000F8D1D8B2E1B2401A10BD03460A780270FA
:100CB000401C491C002AF9D118467047F7B5009C22
:100CC0000F4600262578641C002D05D000F02EF874
:100CD0000068405DC007F5D12B2D02D02D2D18D016
:100CE000641E39462046029A00F024F8002F04D0F2
:100CF0003968A14201D100993960710502240029A7
:100D00000BDA4042002803DD06F034FC0460A00743
:100D1000FEBD012080020643E3E70028F8DA06F072
:100D200029FC04600048FEBDFFFFFF7F00487047BC
:100D3000EC76FC07F7B582B0029C00272078641C93
:100D400015460197302802D0002D15D015E02078E7
:100D50000127641C782804D0582802D0002D09D01F
:100D60000BE0002D01D0102D07D100271025207891
:100D7000641C02E0082500E00A250026009610E029
:100D80000099012769430818020C294680B2714373
:100D900000908E183804864201D3012001902078FB
:100DA000641C294600F02CF80028E9DA0398002892
:100DB00005D0002F01D0641E00E0029C0460019861
:100DC000002806D006F0D6FB02210160C81E05B03F
:100DD000F0BD009930040843F9E70000064C0125F6
:100DE000064E05E0E36807CC2B430C3C98471034D3
:100DF000B442F7D3FFF790F9BC84FC070C85FC07DD
:100E00003A2800D23038202302469A43412A01D39F
:100E100010463738884201D30020C0437047000095
:100E200001480121018070470E1500500A48011F3A
:100E30000988CA0706D0028807239A43C64B9B7BC2
:100E400013430380490706D5018807229143C24A0C
:100E5000527C0A4302807047B8100040B0B50520AC
:100E60000007027833210A4302701B4A13885B078C
:100E7000FCD40378CC2213400370B74CE38E43803C
:100E8000238F9D1E154B5D8007251D8005780D4322
:100E9000057019884907FCD4017811400170418917
:100EA000890703D04189032291434181018980222E
:100EB0000A430281018A042291430182818A8907BF
:100EC000FCD541F72EFAE06D054908600548016838
:100ED00001684907FCD5B0BD08330050001600502A
:100EE000080200401000004080B50A2000F06CF8B5
:100EF00080BD80B50B2000F067F880BD80B50C2068
:100F000000F062F880BD80B50D2000F05DF880BD76
:100F100080B50E2000F058F880BD0000B0B5012566
:100F20008540054C002B01D0258000E065800A43F8
:100F3000400020188280B0BD02300050F8B516463F
:100F40000D4600901C488489402738461B49884735
:100F5000BC431948848184893F273846174988470C
:100F60001649BC4314488481048A202084430F46D8
:100F700088478640264310480682048A0126B443E7
:100F80003046B847854025430B480582048805460E
:100F90000F208443B8470099491C81402143298090
:100FA000FF20000406490A688243F0051018086013
:100FB000B00204490860F8BD00140050CD28FC07B9
:100FC00008E400E000E100E0F8B5C4B226460A3EBD
:100FD00001252846B0400B490F88874380B201F0B5
:100FE00075FC29468140394306480180B000064916
:100FF0000818C06B002801D08047F8BDA5401348F1
:101000000560F8BD0E140050489BFC070348C8213A
:101010000180034808210180FEE7C04600310050EE
:10102000023300506E48018904220A43028101887C
:1010300040220A430280054901220A604189044A8C
:1010400011408918091D41817047C04680E200E0C7
:10105000FC7F00007047000070B52D4C8D4D2D4E6B
:1010600020890F210140481E0B28F9D878440079C7
:10107000400087444B06052005232A050505053158
:10108000EEE72A8DA88D904232D2A96C9042E7D229
:101090002289C0231340C02B03D13288920703D486
:1010A000DEE7A28A9206DBD5421CAA85085C208076
:1010B0002A8DA88DEAE703F02DFED1E72A6D002ADC
:1010C000CED0A08A9E21014003E02A6D002AC7D01D
:1010D000012120469047C3E703F01CFEA0880121B0
:1010E0008843A080A96D0029BAD0A88E8847B7E7A9
:1010F000A08802218843A080A08880218843A08006
:10110000696D0029ACD0288D8847A9E770BDC0461D
:10111000001000507C10005080B5052000070178B9
:10112000CC220A4002708088C00611D50948818807
:10113000C9070DD0018809060AD5012181800188DF
:101140008022914301805348406C002800D08047A2
:1011500080BDC04600010050C89AFC07F8B506469D
:101160002120124F3C5C002C1CD001253D8405F051
:1011700049FD442000213954B965002E04D00C48A3
:101180000621002203F0E4FD03F0C6FE03F08EFC0E
:10119000FF200230482178525B2080003D542846D1
:1011A00006F0FAF8601E84412046F8BDA898FC07B6
:1011B000F380FC0780B500210A46FFF77FFD80BD64
:1011C000F24801880020090609D5F1490968090497
:1011D00005D4044800880121014048424841704735
:1011E0000800005054BAFC0770B50C4809210424CB
:1011F000182322465BF7FEFB05461B202870FD26C0
:10120000304662F749FA0021A982E96029616C60E1
:101210006E80687028465BF708FC70BD1B0D0000EF
:101220001FB51446002202920192069A00921A46B5
:10123000234662F75DF804B010BD0000B0B5154854
:10124000C27C1549D4B20C236343CD5CFF2D0AD078
:10125000012C02D10222C274F4E7521CC274C818D5
:10126000406880470EE0017D0C4ACCB21C236343EA
:10127000D45CFF2C08D0491C0175D318DB68002B07
:10128000F3D098470020B0BD0021C1740175012042
:10129000B0BDC046C89AFC07E47DFC07DC7AFC07B9
:1012A00010B50E480921042252235BF7A3FB044624
:1012B0002B2000212154E172A172FF2008302081EF
:1012C0000748E080A080617020460B3022460C3237
:1012D0000D21044B62F71EF9204610BD0D0D0000D4
:1012E0004C040000D883FC07B0B5174D2C68002CC7
:1012F00019D10E48092104222C235BF77BFB0446FD
:101300002860412020840A482080002565802046EE
:101310000A3011215DF709FF2585E5846584E583A1
:10132000A5832020E0762046B0BDC046040D000015
:10133000030A000080B5FFF7D7FF5BF776FB024892
:101340000021016080BDC046D096FC0710B50B4C53
:101350002068002800D010BDFFF7A2FF20600C21FC
:10136000017010BD10B5054C2068002800D010BDDC
:10137000FFF796FF20600D21017010BDC896FC0795
:1013800070B504467A2060430B490E187820315C12
:10139000012520462A4662F7A7F8204600F0CAFE3B
:1013A0000570317F4174B11C401C10225DF7A4FE12
:1013B000204600F013F870BD2C98FC0780B500F0B3
:1013C000CFFEFF2805D07A214143034840180C3056
:1013D00080BD002080BDC0469C97FC0710B5044628
:1013E00000F0A8FE5BF721FBA000024900220A5092
:1013F00010BDC046F096FC0710B5044600F09AFEFA
:10140000002101702046FFF7E9FF204662F7B8F897
:1014100010BD0000FEB5029301920E468100114AF4
:1014200057585518002F0AD101020A310E480424DA
:101430001E2322465BF7DEFA074604702860BC1CB8
:10144000102120465DF771FE20463146019A5DF776
:1014500053FE0298787038465BF7E7FA0020286060
:10146000FEBDC046EC96FC07140E0000B0B5002887
:101470000FD002461248824212D825483830002444
:1014800023460A2B19D00568002D10D0001D5B1CC7
:10149000F7E70C48C82101800B4808210180FEE7CE
:1014A0000848C8210180084808210180FEE7016042
:1014B0005C1CE0B2114600F0BFFBE0B2B0BDC0461C
:1014C000FCFF3F000031005002330050F8B50446E5
:1014D000401E09281AD8A0000D494718786B00282B
:1014E00014D00C4DA84211D034370B482018401CA2
:1014F000042631465BF707FE3D600823F948314674
:1015000032465BF777FA04705BF78FFAF8BDC04696
:10151000C09BFC07714AFC0702040000FEB50546AB
:101520000805090B002800D0491C002900D1012121
:1015300028480540FF200024144F154E01918C428D
:1015400020D0284602F0F8FD00281BD10295002586
:1015500002F08AFEC0070CD038880006F8D5306843
:101560000004F5D40B4885420BD06D1C5BF745FF9A
:10157000EEE7029804490818451C641C00200199F4
:10158000DDE7FF2040B2FEBDFF0F00000800005065
:101590003000004080841E007CB514460D4606468F
:1015A0000C480840884202D12846214608E06119CB
:1015B0000A466A40120B05D0012212038018091A4C
:1015C000FFF7ACFF01AB30462946224602F088FE09
:1015D0007CBDC04600F0FFFFF0B585B01446072281
:1015E00055020A9AA8420FD10D7804AE35704D7895
:1015F00003AF3D703578092D06D003AD2D78002D51
:1016000002D00020107008E00E250295044D0195CF
:1016100000921A46234661F76BFE05B0F0BDC04646
:101620004478FC0710B5014601200B4A914211D3C2
:10163000121D91420ED8029CF231C8B280004E4970
:101640000918086D002803D0503100220A60804735
:101650000020207010BDC0460E040000E0B5D24B43
:101660001B7E132B03D101AB02F0C8FD8CBD002003
:10167000C0438CBD1FB5144607220292044A019252
:10168000069A00921A46234661F732FE04B010BD56
:10169000D078FC07E0B502F0F5FD01A802F0F4FCFB
:1016A00002F062FD8CBD000070B50B4804240921D6
:1016B00022460B465BF79EF905461B202870FC2648
:1016C000304661F7E9FF002129726C606E80687016
:1016D00028465BF7AAF970BD1B0D00001FB5144624
:1016E00004220292044A0192069A00921A46234664
:1016F00061F7FEFD04B010BD0879FC07F8B51E497E
:10170000C9680A05120F009201231D4695401B4C23
:10171000A61E3580A51C1A4CA61C57007E530F260A
:101720000E401F46B740154A17807700144A521CD6
:101730007A530A03170F1A46BA40104C22807A00D7
:101740000F4C54530A01120F93400C4C238053004A
:101750001A245C53C6710B0F0371CBB21B09837142
:101760004271C7700A02120F8270009A4270090417
:10177000090F0170F8BDC046489BFC0704300050BB
:101780001B030000B0B5EF48017E032911D1EFF330
:101790001082012181F31088094B1C88094D2540D6
:1017A0001D80002A02D081F3108802E0002181F31D
:1017B000108814210176002001F020FEB0BDC04643
:1017C00004000050FFFB0000B0B50C4643498842BE
:1017D00020D0434A90422AD0424988423BD12078C7
:1017E000401E092854D88000424909188A6B444B8E
:1017F0009A4269D0404882426BD13948042108237B
:101800000A465BF7F7F821780170616841605BF781
:101810000CF95EE06268002A48D0334882424CD21C
:1018200020782F49401804215BF723FC51E02078F1
:10183000411ECAB2092A32D889002E4A5218936B27
:101840002D4DAB4245D138322C4B5958116061684F
:1018500000F0F2F93DE0531C012198423CD30A32DA
:10186000904239D8C01EC0B2411E8A0021498B184F
:10187000996B00292DD0204CA1422AD0204CA142A6
:1018800027D038331D4C0025A5501D60884720E027
:101890001648C8210180164808210180FEE7134838
:1018A000C8210180124808210180FEE70F48C821A5
:1018B00001800F4808210180FEE70C48C821018003
:1018C0000B4808210180FEE738310C4A00231350F1
:1018D0000B600498002101700846B0BD01040000AF
:1018E0000304000002040000FDFF3F00003100502F
:1018F00002330050C09BFC07734AFC07F496FC07B8
:10190000714AFC07EFF31081012080F31088084A28
:101910001288120603D4074A138803431380002950
:1019200002D080F310887047002080F31088704741
:10193000080000500833005082488178491C8170AB
:101940000178002900D0704718490022CA70184950
:101950000B780A70012B01D0012100E002210170F7
:101960007047C04677488178002904D0491E8170AD
:10197000090600D070474178002904D00022427047
:101980000322114003E0017800290AD0491E0022F9
:101990000270C8B20128EDD104480121C170044889
:1019A00000E0002101707047C89AFC0754BAFC0798
:1019B000B4BAFC0782B070B5C2B00C460546469278
:1019C000479346AB41930120010201AE30462246C7
:1019D0005FF734F828463146FFF767F942B070BC2C
:1019E00001BC02B00047000080B5AE21884A515CBE
:1019F000002904D080000249085802F0C3F880BDD5
:101A00007884FC07FEB50024E543002814D0064680
:101A10000078002810D0002A0ED00F46009205F062
:101A2000A9FD0190046002A930463A46FFF746F945
:101A300002990A78002A01D02846FEBD019AB142D7
:101A4000FAD011680229F7D00028F5D4009908606F
:101A50002546F1E7B0B50C460025202D04D040F70F
:101A60004EFF60556D1CF8E70020B0BD10B507486B
:101A70000188074A1368114C2340591811604088A7
:101A8000516821400818506010BDC0461830004011
:101A90008CACFC0710B507480188074A1368074C4F
:101AA000234059181160408851682140081850603F
:101AB00010BDC0463830004098ACFC070000FFFF66
:101AC000B0B50446114D8C2128465DF72EFB8820C9
:101AD0000349295203482880204600F019F8B0BD78
:101AE000224300003512000010B503460748421893
:101AF000AA2494707A22514340180C3019465DF79D
:101B0000FBFA012000F004F810BDC0469C97FC07CA
:101B100080B50249103100F04BFE80BD1085FC07F6
:101B200007481E214180018803220A430280018860
:101B300004220A4302809A480121C1707047C046BE
:101B400000160050C89AFC07F8B50D4604462F4E03
:101B5000B06BF0631E48012100910160016800290B
:101B6000FCD11C480068B0634127F15D002908D012
:101B70004020305CFFF7AAFC442000213154F1558D
:101B8000B06BF16B411A706A814201D800281DD1F7
:101B9000E8B203281AD12C20315C2078884215D174
:101BA0006178814212D1A17881420FD1B06A0128B7
:101BB0000ADB009CF45500090749FFF757FC442154
:101BC000745440217054F8BD00F008F8F8BDC046C8
:101BD000FC0000401C000040DD1BFC07B0B52020CD
:101BE0000A4C0025255405F009FC0948456005709C
:101BF00004F0CAFF04F0C6FD04F052FB4420255453
:101C000004A001F0BFFF41202554B0BDA898FC07F7
:101C1000189AFC074F4B0D0A0000000080B50548DC
:101C200000F0B2FD80BDC04680B5024900F0C0FDA5
:101C300080BDC0462C85FC0770B50C4605460C4E91
:101C4000FFF7BEFA002806D07019801C0421224636
:101C50005BF70FFA70BDFFF755FE042108233046ED
:101C60000A465AF7C7FE446005705AF7DEFE70BD9B
:101C7000010400007047000070B514460D46104680
:101C80005BF7FEF801282FD1287801020831AA79E4
:101C90001648002A0CD089B2062322465AF7AAFE1B
:101CA0000646A87860F7C2FB3080A879307114E04E
:101CB000AA8889B2921D93B222465AF79BFE064625
:101CC000A87860F7B3FB002131713080A88870805C
:101CD000701DAA88E91D5DF70FFA30465AF7A5FE78
:101CE000002120465BF7B7F8002070BD140C0000FF
:101CF000FD2801D00020704700487047DC7AFC07BF
:101D00007047704780B5FFF777FB80BD10B504467C
:101D1000891D02201022FFF751FB00280BD001463D
:101D20007A2220465043B74B18185DF7E5F9204654
:101D3000FFF726FB10BD2046FFF75EFB10BDC04637
:101D4000F8B50446800016490F18BD6F7837002D8E
:101D500020D121020A31134804221E235AF74AFED9
:101D600083214900018038607A256543A5484419DC
:101D70005134102620463146324661F7F1FAA14A25
:101D8000505D0821014351553D68A81C214632464B
:101D90005DF7B2F928465AF748FE00203860F8BDD2
:101DA000C89AFC07140E0000FEB505460C206843D7
:101DB000784A16183B20305C2C46002815D00020AD
:101DC000019000907A2068438E4A125C01201040F6
:101DD0000A88002A06D100285ED0881C694608229D
:101DE0005DF7AEF9002857D14DE0088800281DD0D6
:101DF00000200222FFF7E2FA00284DD006467A22A0
:101E000055438048401931465DF776F92046FFF783
:101E1000B7FA7920305C002838D1F3488178AA29B4
:101E200034D141684A1C42608160FEBD3420305C80
:101E3000FE21014035360327022916D03178727809
:101E400012025118B278F3781B029A181204511832
:101E5000327973791B029A1861F76CFA022803D35E
:101E600015D0042801D017E0012706223846314654
:101E7000FFF7A4FA00280FD001467A2255436148A3
:101E800040195DF739F92046FFF77AFAFEBDD64DC5
:101E9000287B4007C70F03D12046FFF7ADFAFEBDF0
:101EA0003B0108330D48092104225AF7A3FD0446DB
:101EB000477017202070A01C062231465DF71CF9E0
:101EC000287B400706D52046083046351022294693
:101ED0005DF712F920465AF7A8FDFEBD140D00006B
:101EE0005D49C98E0180704780B55B490A7D0270EB
:101EF000401C15315DF700F980BDC0467D21C180D1
:101F0000002181801021418008210180704700005C
:101F1000FEB57A2402904443EE4807194E783E7786
:101F20003D461435082128460A4661F719FA384615
:101F30001C300190102E04D8B81C1022314661F7D5
:101F40000FFA40F7DCFCE34B195D01220A431A55F6
:101F50007882029E304600F031FD019909780177C0
:101F6000798A418269882A88EB88AC880483438314
:101F70008282C182B91C801C10225DF7BDF83046F8
:101F800000F01CFD5AF751FDB000F14900220A5043
:101F9000FEBDC046489BFC077CB57A214143EB4817
:101FA00044187820205CC00714D001AA00251570C1
:101FB0006E46FF2030702046314600F0F5F830784C
:101FC000FF2808D186218848415C002902D1806819
:101FD000401C09D17CBD01A90978002903D08249A0
:101FE000091886228D54054679202554A8007E497B
:101FF00008184A688260501C486020462946FFF74E
:1020000073FD7CBD2C98FC070178242909D1407808
:10201000972806D1F448C8210180F448082101809E
:10202000FEE7704710B50C46017801290BD0002956
:102030000ED14288084B1A751533011DD2B21846CD
:102040005DF75AF802E040880349C886002000E0A6
:102050004820207010BDC046C09BFC07002088802F
:10206000488001200870704770B51A4C40202080CD
:10207000194E268205F0C2F9184DA888C00702D073
:1020800002F0ACFDF9E7164800214160017004F050
:1020900053FD01F0E5FD2120C1001248415C0029FB
:1020A00012D085214900415C012213468B402380D8
:1020B0004900231D1236CE5243218900405C8240E4
:1020C000228040001321C1522220286006A001F086
:1020D00059FD70BD02300050020300001010005086
:1020E000189AFC07A898FC070D0A2B4157414B454D
:1020F0000D0A000080B55CF7EDFF80BD80B55CF790
:10210000F2FF80BD80B5084800210160FEF794FD14
:10211000064800781F214901054A13688B43C00611
:10212000800DC018106080BDAC100040D8B7FC070F
:102130004C12004010B58200074B9958002909D174
:102140009C1801020A310548042212235AF752FC56
:1021500001462060084610BDF096FC07180E0000EE
:1021600080B503281BD8800001A318588746C046B5
:102170008121FC078721FC078D21FC079321FC07A7
:1021800019481E3007E018487D3004E016484630F4
:1021900001E0154856305CF7D3FF002801D0FF203E
:1021A00080BD002080BDC046F8B515460C460E49DE
:1021B0008E780027AA2E10D102780B7B13405A0785
:1021C00003D53A304631102202E071307D310722CA
:1021D0005CF7B6FF002800D0FF27AA3E701E86419C
:1021E0002E702770F8BDC0469C97FC0770B50C7820
:1021F000A51E052D33D81C0A7D442D796D00AF44F2
:1022000002242E313F4D7A2060438C4A151888787D
:1022100078216854C0070DD071350C206043814986
:102220000E1831463531062228465CF765FF34200A
:10223000305CA8712046FFF7AFFE0C20604379495F
:1022400008183B210022425442E00C2060437549AB
:1022500009183B220020885404F074FF38E004F091
:102260002FF835E07A256543744C60193A30891CA3
:1022700017225CF741FF605D04210143615527E0AF
:102280007A2565436D4E70196130891C10242246F1
:102290005CF732FF705D2043705519E07A2060438F
:1022A000664A14188B1C488A002808D020461E3025
:1022B0001C2219465CF720FF2078022106E0A01CB2
:1022C0001C2219465CF718FF207801210143217078
:1022D000002070BD2C98FC0710B50A78072A24D876
:1022E000180A920001A39A589746C0460D23FC078E
:1022F0002B23FC072B23FC072B23FC073923FC078C
:102300004923FC073F23FC074523FC077A2242436D
:102310004A4B00249C540C224243424B9A183B23C4
:102320000124D45402F0B6FE0EE0B048C82101806A
:10233000AF4808210180FEE702F0F0FE04E0FFF75D
:10234000FFFC01E0FFF7E4FD002010BD2C98FC0726
:10235000489BFC0710B50C78092C04D1487800285C
:1023600004F016FF01E003F0ABFF002010BD0000F9
:10237000F8B51C4610460D465AF782FD02282BD1AF
:10238000240A0C20604327490F1832203C54FF2CAC
:102390001DD03E46303601200090F070042003210D
:1023A0005AF759FD28883886687A307135370A35EA
:1023B0000622384629465CF79FFE7A2060431F4973
:1023C00008187821415C2046009A61F78DF8204674
:1023D00004F04EFD0020F8BDE648C8210180E64823
:1023E00008210180FEE7C046003100500233005052
:1023F00010B51C4610465AF743FD03280AD1200A9F
:102400000C21414307484018FF21418604F026FE75
:10241000002010BDD748C8210180D748082101807D
:10242000FEE7C046489BFC07180A7A22424303484D
:102430008018097878228154002070472C98FC0776
:1024400080B5180AFFF7B0FC002080BDF0B58BB056
:102450001D460878022829D0012836D0002840D10E
:102460000192224F3E7D00211F2E029101D8202093
:10247000811B03ACA01900945CF757FE153720466A
:10248000394632465CF738FE33460A331648294649
:10249000019A5AF7AFFA0446468002982070201D30
:1024A000009932465CF728FE204618E00E480A23C1
:1024B00029465AF79FFA7D2101810021C180102110
:1024C000818008214180022108E00848C68E064824
:1024D0000A2329465AF78EFA4680012101705AF7DD
:1024E000A4FA00200BB0F0BD0B0E0000C09BFC074F
:1024F00080B5FF206630E849085C042809D105480A
:102500000921042201235AF775FA022101705AF7B2
:102510008CFA80BD030D000080B5180AFFF7F6FBAA
:10252000002080BDB0B50C78641E162C22D8C046A1
:102530007C4424796400A744131D201D1D1D1D1D0E
:102540001D1D1D0B0B3C3C1D0F0F2A1D1D1D3000BA
:10255000002004F05DFC2CE0002004F0E9FE28E0FF
:102560004878002820D08348C8210180824808216B
:102570000180FEE703F0A4FE1BE04878002816D097
:102580007C48C82101807C4808210180FEE748780A
:1025900044280ED104F04AFC0BE04878472808D1C3
:1025A000180AFEF729FF04E0FEF7C4FE01E004F07C
:1025B000F3FC0020B0BDC04610B510465AF760FCD1
:1025C000002806D06B48C82101806B480821018093
:1025D000FEE7084809210422012423465AF70AFA93
:1025E00004705AF722FA002010BDC0460031005096
:1025F00002330050020D0000002070470020704799
:10260000F0B589B01D4616460C46FD205EF7F0FD7C
:10261000002813D007460296039508A900260E70DD
:1026200020885FF711FF0546608800280DD05148CB
:10263000C8210180504808210180FEE74D48C8218B
:1026400001804D4808210180FEE7002D0DD04D4846
:1026500004230399029A5AF7CDF9857021880180E5
:102660005AF7E3F9002009B0F0BDFD20FFF740FB69
:1026700000284FD001460398000A019008A800786E
:10268000142242434B689D182D79022D23D19A586C
:1026900012883A4B9A421ED100200590049020885F
:1026A0005FF76DFE00285DD007A9002204AB4EF74E
:1026B0005BFC0120400207990140480A21465FF770
:1026C00049FEC5B2002D2DD1E28808A801780198F5
:1026D00060F71BF826E089690029354605D0A288F5
:1026E000A31D0D460021A84705460596049620889F
:1026F00004A94EF7B4F9002D14D108200499085EFE
:1027000000280ED46288A1882088A31D4EF711FAF4
:10271000054607E01748C8210180174808210180B5
:10272000FEE70025002D92D13846019D29465EF72F
:102730007DFD0146A088801D83B21148029A5AF798
:1027400059F90646801DA288A11D5CF7D5FC08A892
:1027500000787080A088B080357030465AF765F9EF
:10276000002574E70348C82101800348082101803F
:10277000FEE7C0460031005002330050022900003D
:102780000AFD0000160C00001CB5044600F007F816
:1027900007CC01AB01F032FD01F01EFD1CBDE0B520
:1027A00001F070FD01A801F06FFC01F0DDFC8CBDB3
:1027B000F0B585B00C460290FFF7F1FFA068010567
:1027C000020B002900D0521C00946068254E064080
:1027D0000024274D644F0192944239D0029800287A
:1027E0001AD0304601F0A8FC002836D10020039012
:1027F00001F03AFDC00725D028880006F8D53868D2
:102800000004F5D41B480399814226D00398401C4C
:1028100003905AF7F2FDEBE701F0D4FC00281CD13D
:1028200001F0C8FD002818D1104A10887C2101430E
:10283000118001204007304301F0DCFD01F03CFD38
:1028400000280AD108488019461C641C019AC3E775
:10285000009A07CA04AB01F043FD01F0BDFC05B0CE
:10286000F0BDC04600F0FFFFFF0F00000412005053
:102870000800005080841E0010B5BC2006490022CC
:102880000A5406480A210424012322465AF7B2F8C2
:1028900004705AF7CAF810BDA898FC07050E00008E
:1028A00010B50120840206480460BFF34F8FBFF3C8
:1028B0006F8F02F017F9034804600348046010BDED
:1028C00080E100E080E200E000E100E0054941181D
:1028D000414049080020090402D0401C490CFAE795
:1028E00080B27047FFFF010080B504205AF7C8FA94
:1028F000C11E4842484180BD80B5103080B20221DF
:1029000059F722FF80BD000070B5174EB06800F087
:102910002DF827490A6E00230B661518084C284627
:1029200021465CF76FFB706106494143481901D0AD
:10293000201A80B23061306808210143316070BDD7
:10294000710200008FFDFFFF80B506480021016085
:1029500001F004FB0120C00703490A6882430A60B2
:1029600080BDC046A8B9FC073000004080B50246D3
:10297000C00B09D00E48006F00210B465CF76CFBC2
:102980008905800A401880BD0948006F4243900ABB
:1029900080BDC04680B5FFF7E9FF80BD80B5044922
:1029A000896E41430348081803495CF72BFB80BD3F
:1029B000C89AFC0720A1070040420F0010B501464D
:1029C0008200094B9858002800D010BD9C180902BD
:1029D0000A31064804221E235AF70CF8FF21083159
:1029E0000180206010BDC046489BFC07140E00000B
:1029F00000B59BB0D54CC0200F90208208F072FB30
:102A00007920C100D2485CF790FB012001020E90B2
:102A1000820710681191084310921060CD4800277A
:102A20000771C770CC4D0D222A75CC4E3763776382
:102A3000B76328461530CA495CF75EFBEF8604256C
:102A4000C84928465AF7D5F90C95284613973946B0
:102A50005AF701FA30462030C34906225CF770FB72
:102A6000002804D0B08C19A98880306A03E019A826
:102A7000BE498180BE481990BE48183019A9062267
:102A80005CF73AFB139931617161B161BA4D2977F5
:102A9000BA4801601420287660F72AFE28780028BA
:102AA00002D08120687004E00120AA49C870B449AE
:102AB0000870AE20B3490E9A0A54AD200A54202063
:102AC000B14F139E18903E542520C000AF49395293
:102AD0005920800001903E52B32040003E542120F6
:102AE000C00016903E54AA483863AA48B8856420AE
:102AF0000A90B862FA754520B882A748386138460E
:102B00002C302B21817019208001786295204000A3
:102B10003818A2A11C225CF7EFFA2920C000092175
:102B20003954A3204000A4493952FF2528464A3091
:102B300038188B490D225CF7DFFA284668300E9969
:102B4000395464350F2078558E48466001709B4893
:102B50001030FFF719FE8820089099480188994A9B
:102B6000914204D10899405A9749884202D00020E6
:102B7000FEF7A6FFFFF752F8784E0A98335A35460B
:102B80006435924A92499342109F02D16B8A8B42DC
:102B90000ED00A9832528F4A8F4BB2667E48F0664A
:102BA00033676982139828820C216980FFF73CF80B
:102BB000FFF734F874480A303146663110225CF76A
:102BC0009BFAFFF7C1FE0520FDF7F6FF8348C821F9
:102BD0001791018082480821149141800E99480282
:102BE0000290C520800009903F2080020B907D203C
:102BF000C0000390C8031590564E2088000600D4EC
:102C0000F7E1386B1599084200D0F2E13088C0072F
:102C100000D0EEE15AF7F1FB0020129000F034FDF5
:102C20005548C07B042800D00EE10E9800F02CFD22
:102C30000025199519A804214AF780FF002800D122
:102C400002E101226748026001680029FCD10D926F
:102C5000F9694948C26B914201D2C5632A468A1A72
:102C6000D309027C182B02D8002A00D1ECE0002AFC
:102C700006D04149086C401C086400F065FEE3E0A2
:102C80003D48C163584E3088079070880690B088E0
:102C90000590F08804904021544801605422544823
:102CA000825A344B5A80BFF34F8FBFF36F8F3288F5
:102CB00050480240434B0B33134333804E487080DF
:102CC000B180B1713121C9430D9B002904D000BFEF
:102CD00000BF00BF491CF8E73188194331800999CA
:102CE000EB3132890A402448428472890A40828446
:102CF00031890B9A11400298014331817189114049
:102D000001437181318802220A4332803188890768
:102D1000FCD4F381308A17494988174D6A8C33896E
:102D20000B9E33401343304A1381AA8C2E4B5B8990
:102D3000334013432C4A5381401A039941430028DE
:102D40005EDC2E4A8918C01708405BE0080000507E
:102D5000D0B0FC0754BAFC07C09BFC07489BFC079B
:102D6000D883FC073478FC07E439F20723480000D5
:102D70000500F435A8B7FC07C89AFC071C97FC07A8
:102D8000B4BAFC07189AFC07A898FC074C0400008A
:102D90002B2B2B002B2B0000410045001107B75CAB
:102DA00049D204A34071A0B535853EB08307030224
:102DB000F5FE0508434C76321C0E00001085FC071A
:102DC0009C97FC0735120000224300005734000096
:102DD000446500000000C4094500010100310050B5
:102DE00000330050FC0000400015005080E100E07E
:102DF0003896FC0784E90000841F00002BFDFFFFCC
:102E0000DB480818DB495CF713F985091935DA4EF8
:102E100070797F280DD0281A41B2C9114840401A54
:102E200040B2082806DBD44E306C401C306400F001
:102E30008BFD7571D148069941800599818004996F
:102E4000C18007990180CE4E1898CE49085C0028B1
:102E500000D1CCE0886D022838D0002800D0C6E030
:102E6000FFF742FDC749002800D1C0E0C420085A3E
:102E7000FFF742FDC34A0A99515C012500290E99CA
:102E800001D068400146002920D11698105C002826
:102E900004D0BD48BD49C16301F024FEBC4801F027
:102EA0003FFEB548BB49016501F0C2FE85204000E8
:102EB000B449085C8540B84A158040001018099A4A
:102EC00082802220B54AD0600220886501F0A4FAF1
:102ED000AC4B80201E58B08A00283AD08C2159581B
:102EE00081423AD108995858401C58500628129DE2
:102EF00038D3D0201958491C1950A84A10880121EC
:102F00008843108010880C9988431080CC20195871
:102F1000B28A891819501D4648350020129028643D
:102F2000EFF3108072B6A96B184668303FF7CCFDFE
:102F300062B6B18A16363046FEF706FE1298A863CE
:102F4000054603F037FC002801D101F071FE8D4BDE
:102F500008E090201858451C04E019464831129D9D
:102F60000D64486490201D504420185C0028844E55
:102F70001AD0C420185AFFF7BFFC002835D0EFF351
:102F8000108072B67F49086F00282DD1C86C0128C7
:102F90002AD10020C86422258048C56062B601F0AD
:102FA00047FE7E48C56020E04820185C0028E0D03D
:102FB000EFF3108072B6186F62B60028D9D0D86FC0
:102FC0000028D6D1EFF3108072B6184668303FF76C
:102FD0005FFDF749C86762B60198085C052800D014
:102FE00020E101F041FA1FE162B601F025FF5DF733
:102FF00097FEEFF3108072B61898ED4A105C002827
:1030000039D01698105C002828D0F048008AC007F4
:1030100021D1D06F002821D180269059808A0028A4
:103020001CD1DF4800790228139802D0EB480068D1
:10303000806A1990DC480079012870D10120E049AC
:10304000086008680028FCD1F869DA4949688842B4
:1030500062D20025A6E0902013991150D249087839
:10306000002803D080204870CD4E04E00020CC4ED4
:10307000F070CE4908703079022803D0D748006834
:10308000806A00E000201990CC480089C00700D079
:1030900076E159F77EFA002800D171E1F078002836
:1030A00034D0A089C00700D015E1308800282DD188
:1030B000CB48806A002803D0C8480068806A19900D
:1030C00000F04CFFB17819A85AF75BF800281DD022
:1030D000386940061AD4B17819A84AF72FFD00289C
:1030E00014D00B98FF30BA4AD18E01401198014399
:1030F000D186199A002A00D198E0386AB949401857
:10310000DA2800D993E0521E199290E0AB48149946
:10311000018030BF418033E10020A349087159F795
:1031200038FA00283CD0A089C0070C9DCA4A39D182
:103130009B4800880125002834D1A948806A0028CE
:1031400003D0A6480068806A19909548817819A82C
:103150005AF717F80028C04A24D09148817819A856
:103160004AF7ECFC002800D00FE1012519E0C04629
:10317000D5020000AA050000C89AFC0700150050FF
:1031800054BAFC07A898FC07489BFC07A128FC0739
:10319000DC7CFC07A174FC070230005004100050D6
:1031A0000025AD4A042D00D058E79C201058002877
:1031B00000D053E7106F002800D04FE78348008805
:1031C000800700D54AE701F0FDFDF749002800D04F
:1031D00044E790254859022800D23FE7002012908A
:1031E00001F0FEFD002800D138E701F05FFCEE4958
:1031F0008859002804D059F742FCEB4912988851AD
:1032000003981830734A1060BFF34F8FBFF36F8F6E
:10321000129848518865D4490878002800D1B6E052
:10322000812020E701F03EF9DF4BA2E60022CE48E4
:10323000008FCF4DE96808182861F86B6A4B184079
:103240000843F863F86B69490840696989020143DA
:10325000F963F86B66490840296949050818F8635D
:103260006448824200D394E04E49886AC96A0023C8
:103270005BF7F2FE0903000D41186869821C8A425F
:1032800000D0481E31794A1E914146F76DFB5A48DD
:10329000C06A80471599386B0842FCD01199B24E2C
:1032A000484F38680842FCD038688025A843386009
:1032B00042484089452804D84621404A5181081A8D
:1032C00030663FF702F8B868F06538680006FCD54C
:1032D0002088A843208020890426304320813E494D
:1032E000086830430860384908880127B8430880D7
:1032F0000F982082608C1199084206D19B4A108851
:10330000402101431898814311802F4A108B40259A
:103310002843189988431083A08BB843A0830D20BD
:10332000FDF79EFC608838430221884360806088F6
:103330004006FCD5A01F32210180A089C00602D51D
:103340001E481499018030BFA089C00602D51B48D1
:1033500014994180854B1888189A1043E943084016
:103360001880194B188B10430840188300F076F82A
:103370008E48077018490868B0430860109F084ECF
:1033800062B60D481799018037E4042509E701204A
:103390006DE6094817990180084814994180FEE7B5
:1033A00054BAFC07489BFC07C89AFC07B4BAFC0750
:1033B000A898FC071085FC0700310050003300502E
:1033C000FC000040000200400C03005004100050BC
:1033D0000230005080E100E010ED00E058B9FC0739
:1033E00074BEFC07C8FEFFFF00FCFFFFFF03E0FF09
:1033F000FFFF1F0040420F0058BFFC071CB50446EA
:1034000000F040FF01A800F03FFE002C00D01CBDE2
:1034100000F0E2FE1CBD000010B55D21F348415CE8
:10342000103000228A4204D218C81C600030521C9E
:10343000F8E710BD59208100CB48415C052904D133
:103440004288002A01D0012070470A394A424A4185
:10345000007A10407047C046A898FC07F8B5404C69
:10346000012525803F4EF08CC00519D53E48407B94
:10347000012803D101F0D8FA1B2811D83B4F388816
:10348000C00400D4208CFF201C30394908801B2048
:1034900001F0D4FAF88D2843F885F08C4007FCD56C
:1034A000344835A118225BF727FE39A03B498CC868
:1034B0008CC1FDF780F93A483A490160FF206A3033
:1034C000A949085C2027C95D014307D103F096FF95
:1034D000364800214160017003F054F9EFF3108089
:1034E00085F31088A90232880A433280002802D06E
:1034F00085F3108802E0002080F310882C480780B4
:1035000081881C220A4360218A43828082880321A9
:103510008A438280828880239A438280124A167B63
:10352000FE24344014730024848104891C430481E4
:10353000137BF1241C40A31C137302890A437C21D2
:103540008A43028101884022914301800188B94366
:10355000018000F0D7FB0249888928438881F8BDA3
:103560000003005004000050C89AFC0752000050AD
:10357000A8B7FC0720000840F99DF00700000000F4
:10358000E3A1F107000000004FA4F10700000000D4
:103590000302FC07FD04FC073F06FC07C000FC0714
:1035A0000000084007001000A898FC07189AFC07C4
:1035B0000012005003480188034A11408918091D70
:1035C0000180704712000050FC7F0000F8B50446EF
:1035D0000026234F302E0FD0BD19E88AFD2801D1D7
:1035E000064969605DF78AFE002803D08268284694
:1035F000214690471836EDE7F8BDC046687CFC07C9
:10360000B0B50025164C002815D0012D27D8E08A2A
:103610005DF774FE002802D04168204688470020EC
:10362000E0816060A060FF20E082207D59F73BFCD4
:1036300018346D1CE9E7012D11D8FF20E08200202D
:1036400020606060A060E060206128461030C0B259
:10365000A082214659F7CDFB18346D1CEBE7B0BDB5
:103660009896FC0780B5014605480068002803D0FD
:1036700004A05DF743FB80BD084601F05FFC80BD00
:103680002898FC0725630000B0B5EF4DE9780129C3
:1036900022D11249002803D008884007FCD402E058
:1036A0000888400718D40023EB70C8888988000474
:1036B00044181F204006492122465FF7D1FE084AE0
:1036C0009062D16264214143080CA86605486043BA
:1036D000800B401C40082867B0BDC0460016005053
:1036E000489BFC071111010080B5FFF7A3FE0028DD
:1036F0000AD0B520400005490A5C002A04D1012205
:103700000A5403A000F03EFA80BDC046A898FC070A
:103710002B434F4D4D414E44204D4F444520535572
:1037200050504F525445440D0A00000080B55920B6
:1037300081000D48415C052904D1828B002A01D00B
:10374000012104E00A394A424A41417A11400029E4
:1037500009D0FF216C31425C002A04D1012242547D
:1037600002A000F00FFA80BDA898FC072B42494E3A
:10377000415259204D4F444520535550504F5254BB
:1037800045440D0A0000000010B500F035F85C213A
:103790001648415C00228A4204D218C81C600030DE
:1037A000521CF8E7FFF738FE00F04CFB01F0CEFBAF
:1037B0000F4908880F4A024001204302D2180A80AC
:1037C0004105EA4A13688B431360810700224A6768
:1037D0001F2212044B6F934340041818486708686F
:1037E000E0220243102082430A6010BD3896FC0795
:1037F00038300050FFFC000010B5DE4C082020706F
:103800001120FDF72DFA0320607010BDF0B585B0D2
:1038100040480321029101703F4E30461438016840
:1038200014220A436B218A430260B06A009001228D
:10383000D743781CB06230683849084030607068FF
:10384000374908400392910201914018403070605E
:10385000B0693449084034494018B06143203071A0
:10386000029D012F3DD002202A4C6070FDF7DAF94D
:103870002F4A10688005C00E2E4908701F20400195
:1038800011688143116003986070284908682843D3
:103890000860FDF7D1F9FDF7D4F9257026480468D2
:1038A000002F03D0FEF72EFCFDF7C1F9306804901D
:1038B0000498224908400490E005410C0818049936
:1038C0000143049104983060002F08D041203071EA
:1038D00013487030716801400198014371607F1C8A
:1038E000BFE770680399884370600098B0623068E1
:1038F0000A4908401C2101433160B0690949084068
:103900000F490143B161FEF7FDFBFDF790F905B0EA
:10391000F0BDC0460510004018300040C07FFFFFDA
:103920008FF9FFFF00F0FFC018060016AC10004032
:103930004C120040D8B7FC07883000403F807F0021
:103940009E07001C7047000080B5FFF755FFFFF78A
:1039500063FD00F077FA01F0F9FAFDF704F9FEF7DC
:1039600085F88448022181700021018080BDC04615
:10397000002070477047000080B51F20000401211F
:103980008A07536F8343480418185067106807214B
:10399000884310600848018808220A430280FFF724
:1039A000F3FEFEF777F87348022181700021018051
:1039B0000520FDF701F980BD08000050704780B573
:1039C000E62800D3E620282800D82820F9214A003C
:1039D00042437D20C10010465BF714FB7F38C0B224
:1039E00080BD00000548016807220A4302600120EB
:1039F00080045E490A6882430A60704730000040D4
:103A0000022901D001290AD100280FD0FF2811D0A6
:103A10000B48C82101800B4808210180FEE70848B7
:103A2000C8210180074808210180FEE7022901D151
:103A30000C2070475248807C002800D00920704735
:103A40000031005002330050C89AFC07F8B54748CF
:103A50000168C90703D0016802220A4302600124F9
:103A60000168490203D5A10502680A4302602602E3
:103A700065023F490095084608380768002F74D052
:103A8000380618D58020086049F701FF5B208000C8
:103A9000E94A105C401E4142414159208000105CBF
:103AA000401F421E9041084034490968711808853A
:103AB000FEF736F82E49B80704D50220086045F70E
:103AC000E4FD2B49380714D508200860FCF736FEC2
:103AD000354626460024204645F790FD244904201B
:103AE000274AD0730220234A9070148034462E4611
:103AF000009D374204D00E60012045F77FFD1C4930
:103B00002F4203D00D6049F72BFF1949780604D5E1
:103B10004020086045F76DFD1549F80604D51020D2
:103B2000086044F729F9124978070FD50420086086
:103B300011490888A043088059F7C6FC3EF780FD6C
:103B4000FDF7EEFF0A490020EB4AD073F80707D0D3
:103B50000C6059F7D5FC49F79AFE0549E648C4734D
:103B6000B80688D52020086085E7F8BD000200402F
:103B70001800004004100040083300504CB9FC0706
:103B8000C89AFC0710B504460120FDF7E7FA0028A3
:103B900005D103A021465DF7B1F85DF7C1F810BD6E
:103BA0000D0A257300000000F8B50446FEF79CFEE0
:103BB000002813D0592087009F4EF05D052814D1AE
:103BC00075882046FDF75CF800210091401C82B208
:103BD0000C232846214603F063FBF8BD0720FDF7C0
:103BE00003FF1B48FFF7CEFFF8BD002C1AD020467C
:103BF000FDF746F8002812D0401C002158F7ECFDD4
:103C000000280CD005462146FDF74FF8082000217A
:103C100058F7E2FD014645600E483EF755FFF05D5E
:103C20000528E1D0FD203EF7CEFD01460A480422DA
:103C3000072358F7DFFE012141703022074B9A5CC1
:103C40000270817181800621418058F7EEFEF8BD37
:103C5000F380FC07C09BFC0706FD0000489BFC07A7
:103C600027484021418008490182FF216A31724A78
:103C7000515C002903D020210180002102E0202195
:103C800041800121C181704702030000F8B5009016
:103C90000B20C44303200602002C30D025460C35EF
:103CA00065480019FF2110314718387B092811D1C8
:103CB000E8B20A215BF7A6F901208840009A002AA1
:103CC00002D00F4A108001E00D4A508048001018C1
:103CD0008680387B0A2810D1E8B20A215BF792F976
:103CE00001208840009A002A02D0054A508001E055
:103CF000034A1080480010188680641CCCE7F8BD89
:103D000002300050FEB5FFF7ABFFFF2210466A30CD
:103D10004949085C00902120C000085C01900B20FC
:103D2000C4434648871C032000020290002C00D1A7
:103D30006CE04148051910461C30285C411E0D29D5
:103D40005DD826460C36C0467944097949008F442F
:103D5000060606160E0E2027565656562E3B0121F5
:103D6000B140364B1980D1430002401846E0032E83
:103D700045D80120B040314908800F203EE00120A5
:103D8000B04011462831695C002934D02B49891E86
:103D900032E00120B04029490880029809302DE026
:103DA0000120B0402549088002980A3026E0019899
:103DB000002824D00120B0400099002922D01F49BA
:103DC000891E0880002019E00198002817D02020C3
:103DD0001949085C0121B140184B9B1E19800099BC
:103DE00008430AD1029814303880154B1868022114
:103DF0008843186003E01149088002983880641CE9
:103E0000BF1C93E70D4908801320F7E70B4A901E6B
:103E100002210180029908461D30908010201080F8
:103E200008461C305081012010801B315180082031
:103E300010801A201081FEBDA898FC0704300050A5
:103E400010100050B0B50020254948280AD00A18A3
:103E5000536892680C5825689D431A405219226095
:103E60000C30F2E700201F4980280AD00A189388F6
:103E70000C5825889D43D2881A4052192280083058
:103E8000F2E719481949018019481A4901607D482B
:103E9000807C002802D1C120410100E01749184868
:103EA000016005218902174A1180491D9180FF2177
:103EB0006C310B46C9331385134B1C460E34948565
:103EC000124C14869386E31D1387114A114B1380FD
:103ED000114A11802131918010494166B0BDC04620
:103EE000747DFC07F47CFC072230004088880000C9
:103EF0008000004059055C07C89AFC07201800099B
:103F00000010004028130040260A0000510800005D
:103F10002C200040070F000000120040500150010B
:103F2000042809D806A1095C074A917307A1095C16
:103F3000117208A1095C9172034908707047C0466C
:103F400005020100050000001085FC0700000303C6
:103F5000000000000D0501010D000000F8B556201D
:103F600010490E5A474FBC6E304660430E49401808
:103F70000E495BF747F8054638873C3666430A48E2
:103F800030180A495BF73EF8001D0949C860281837
:103F9000C01D4861FEF7EAFC0649401880B259F797
:103FA000BDFAF8BD3896FC0720A1070040420F007B
:103FB000A8B7FC07E204000010B5BE498A88520683
:103FC000D20E1CD0530813439C081C4312092243F1
:103FD000130A13431A0C1A43D24353081F4C1C40B4
:103FE000121B1F4B94081A401C4012191309D218B7
:103FF0001C4B13401C4A5A43120E1D3A00E0032288
:104000000B881F24A3430B800B8802241C430C80C5
:104010000B8804241C430C800B8801241C430C8057
:10402000D3175A40D21AD2B2022A01D3030C0B85FD
:104030000884088BC004FCD4022A02D3088D020431
:1040400002E0002A03D00022888B104301E0888B15
:10405000C0B218228A5E002AFBD410BD55555555B2
:10406000333333330F0F0F0F01010101E94801888A
:104070002022914301800349097B0907490F81846C
:104080007047C046C89AFC07FEB50446234D287801
:10409000002800D0FEBD00F095F80028FAD1204A93
:1040A00090881C210143602081439180FFF7DEFF4F
:1040B0009F201C4FB84700263046B8470290304634
:1040C000B84701903046B847154A96841188134680
:1040D00020220A431A8002990906090A019A120647
:1040E000120C5118C0B20818D4D0EF21CB430E499E
:1040F0001A460C320ED0CB18F4269B599842134620
:10410000F7D188180146E4314CC94CC5E421405C24
:104110002070FEBD05A00EC80EC5FEBDDCB7FC07B5
:1041200000120050B93FFC07F076FC0700000000C9
:10413000000000000000040010B5044600F042F842
:10414000002800D010BD00F035F90028FAD1A848A9
:1041500001887C220A430280012040070443204654
:1041600000F048F9002010BD10B500F02BF8002831
:1041700000D010BD00F01EF90028FAD100F074F84C
:1041800004468B480078142803D12007800F03D100
:10419000EFE76006C00EECD000F014F80028E8D17C
:1041A000934801883C220A4340218A4302808320AD
:1041B000044001200002201800F01CF900F07CF8F7
:1041C00010BDC04680B500F04FF8012101404842C3
:1041D0000D21884380BD000080B5FFF7F3FF002864
:1041E00000D080BD824801881C220A4360218A4396
:1041F0000280B92000F0FEF880BDC046F8B51C462C
:1042000017460E460546FFF7DDFF002800D0F8BD33
:10421000804A90887C2101439180B9196448806864
:10422000814200D9871B2760FFF720FF032000068B
:1042300006433046FFF7C0FE764FB8881C21014385
:1042400060208143B98000262068864205D2002084
:10425000FFF7B2FEA855761CF6E70020B88439882F
:1042600020220A433A80F8BD80B5614801883C228B
:104270000A4340218A4302800520000200F0BAF878
:1042800080B280BD80B5FFF7F1FE624800218184D5
:10429000018820220A43028081881C220A4360216F
:1042A0008A438280AB2000F0A5F84B208000FCF709
:1042B000D7FC80BD00120050B0B50025074C611C32
:1042C000A94205D06D1CFFF7CFFFC007F7D1691ECB
:1042D0000020A14200D9C043B0BDC0467F841E006B
:1042E000F0B587B000930E460490414F38881C21EA
:1042F000039108436021029188433880FF242C48B1
:104300008068831B934200D31346344300251A462A
:1043100001939D4246D29019A04201D8069202E034
:10432000A01B401C0690FFF74DFF00283DD100F078
:1043300041F8002839D1059438887C21014339801F
:10434000FFF794FE0124600606433046FFF734FE73
:10435000388803990843029988433880069886B2C2
:10436000FF2E00D9260204984719300405D038786A
:10437000FFF722FE761E7F1CF7E700201C4F3884D3
:10438000381F018820220A430280FFF795FF00288A
:104390000BD106984519019B5A1B200205990C1850
:1043A0004E1CB6E700980560002007B0F0BDC0467F
:1043B000DCB7FC0780B5FFF705FF002815D10C48D6
:1043C00001881C220A4360218A430280062000F0F3
:1043D00011F8FFF771FF002807D1FFF745FF8007AD
:1043E00001D5002001E00B20C04340B280BDC04693
:1043F0000412005010B50446FFF738FE2046FFF7C0
:10440000DBFD044900228A840A88202313430B80A1
:1044100010BDC04600120050B0B5EFF3108072B668
:10442000A825344C6059002801D062B6B0BD9C204C
:104430002058002814D0204694303EF729FB6051C4
:10444000EC22A358818A5B18A350F022A3585B1C6E
:10445000A3503F4A034B53651630012200F078FC0D
:1044600062B6B0BDB54EFC07BCB5224CE56FA88A5C
:10447000FEF742FA002812D0AA8A608B0849009100
:10448000294616310D2302F00BFFE0202158491C6C
:104490002150DC202158AA8A89182150BCBDFEE792
:1044A00032FE000070B5134DEE6FB08AFEF724FAAD
:1044B000B08A00F0DFFA0446103884216850B28ACE
:1044C00031461631A01D5AF717FEDC202958B28A52
:1044D00089182950E0202958491C29500120607072
:1044E000A2800A20608000202070204658F79DFAA4
:1044F00070BDC046A898FC0770B50C460546FCF791
:10450000BFFB06462046FCF7BBFB301A28182146A5
:10451000FCF7BDFB4142484170BD000080B5887882
:10452000002812D04868E249C860E048007E014691
:104530001239022909D3801E012803D8002000F077
:104540004FFA02E0082000F05DFA002080BDC0466E
:10455000C89AFC07F0B59BB0D448077E0820132FFB
:1045600000D9C5E00D468978002900D1C2E0D04EBF
:1045700034690523002C1FD0F90600D4B8E0EA788E
:104580007669B018802819D80893B9488019291D70
:104590005AF7B2FDE8783018C54E7061844200D0F9
:1045A000A2E0C24B187F0021B14D8C4208D06A5C5A
:1045B00050401877491CF8E7184699E0072097E023
:1045C000132F6CD109A8FDF799F8FDF763F8776907
:1045D000B069002F65D0002863D11225402F79D310
:1045E000A3490878702875D14878512872D14C6851
:1045F00020464030F0611F2001030BA80C22FDF77C
:104600002DF81622002864D40BA8007814257028F1
:1046100060D10BA8407852285CD11325002C59D0CA
:104620000D980C990790401A4038844252D815468C
:104630000BA840220291FDF711F800284AD40BA8DC
:10464000817800230124AA290594039306930493F7
:1046500001975BD10BA90A7800230693702A50D1E9
:1046600049785129059C069903910491D94E4DD161
:10467000C0780490D8480C300BA90C3110225AF79E
:104680005FFD0024002838D1D348C06912998842C0
:1046900033D10021059806900C46039135E008259A
:1046A0001DE0C219F1694B1C0625934212D39142B9
:1046B00001D20F1A7761B1680918C7483A46FCF76A
:1046C0006BFF002806D47069B1690818B061022533
:1046D00000E0154600207061B06900F081F92846BD
:1046E00000F090F9346970690899A042084601D930
:1046F00000F088F900201BB0F0BD069405980390E7
:1047000003E0059C069803900490B24E0BA840224B
:104710000799FCF7A3FF0028DCD40BA881780025BB
:10472000AA291AD10BA90A780025702A15D149782F
:10473000512912D1C678A8480C300BA90C3110228F
:104740005AF7FEFC002100280BD1A348C069129A39
:10475000904206D100210D4605E0059905952E46AB
:1047600001E0059D0591002C11D00BA8801C3E2175
:10477000FF225AF7D3FC0698002813D195480299D6
:1047800081600598054304960695079128E0002965
:104790000AD00BA8801C3E21FF225AF7BFFC0598C7
:1047A000002816D0152556E0304604990840FF2809
:1047B000DBD00498FF2801D1002ED6D00498002821
:1047C0004BD1FF2E49D10BA84021FF225AF7A6FC5E
:1047D000E5E78048079981600398069901430691AF
:1047E0000698002801D1012401E00498441C78486F
:1047F000007E062513282ED101210798FCF78EFE96
:10480000002828D10BA8C470734B59689A680C9182
:104810000D9219460C3102460C32D8C9D8C220215B
:104820006D4B5A5C425419880180D8691290EA484D
:10483000007E13280FD1674881680BA84022FCF73F
:10484000ABFE002807D4634EB16863484030019A3C
:10485000403A403133E75F4E3CE70BA8801C3E21D5
:10486000FF225AF75BFC0498B04284D997E7C04610
:104870001C97FC0780B5887800280DD08888002810
:1048800007D0EA49097E132906D8C90606D40820AC
:1048900000E0052000F0B6F8002080BD812801D39B
:1048A0000720F7E74B490861F6E7C046C89AFC07BE
:1048B000489BFC071FB58878002800D185E049682F
:1048C000080E8A0E042A11D8F04A107689B2414A9D
:1048D0009160002801D0012802D13F497C319160CC
:1048E000FE220240122A01D1032920D201461039AA
:1048F000022911D30146123902290FD3FD281AD0FB
:10490000FE2824D0FF2828D1FCF73CFF31480021A5
:104910000161416103200BE0082009E00120FEF75E
:104920006DFDDA4C207EC0061ED510201DE0112042
:1049300000F068F846E032202649085CFF281DD0C8
:104940002021F24A012353545EF71AFE3AE0EF4861
:10495000017F002916D004202BE0082000F052F837
:10496000EA48142101762DE0082000F04BF81948A0
:104970000021016141618161217723E017483DF702
:10498000F5FE1FE003A9AA220A70007E13280FD1AA
:1049900001A8FCF7B3FEFCF77DFE0E488068811C81
:1049A00003A80122FCF7F8FD010602D1022000E075
:1049B0000620C0B200F026F8FCF7E4FE054800210E
:1049C00001614161002000F00BF8002004B010BD2F
:1049D000C89AFC07489BFC071C97FC071111111192
:1049E00010B50446FC203DF7EEFE014604480422C3
:1049F000134657F7FFFF046058F717F810BDC0467D
:104A000004FC000010B50446FC203DF7DCFE014626
:104A100004480422134657F7EDFF847058F705F851
:104A200010BDC04605FC00000E4801888909182207
:104A30000A4000888004400F8018704710B51F217D
:104A4000490282010A4007490B88074C1C40144365
:104A50000C800A88054B13404007800C181808800A
:104A600010BDC04654000050FFF90000FFC7000011
:104A70007047704710B50446FD203DF7A4FE01467F
:104A8000A01D83B20648042257F7B4FF002800D0C7
:104A900010BD0448C8210180034808210180FEE7B9
:104AA00006FD0000003100500233005010B50A49E5
:104AB00001200880EFF3108180F31088434A1388A7
:104AC0008024A3431380002902D080F3108810BDF6
:104AD000002080F3108810BD8810005080B500F0D1
:104AE0001BFA80BDF8B543208600DC4FB85D0B494A
:104AF0000988C1400124C80705D001F0D1FBB85D89
:104B00000022214606E000257D6500F095F9B85D9C
:104B100029462246FCF712FAF8BDC0460030005084
:104B200070B5EFF31082012181F31088274C25889E
:104B300080231D432580002A02D081F3108802E0E3
:104B4000002181F3108822490A8804687F4A9589E8
:104B50001D439581E5B21F4E3580A5B22D0A158003
:104B6000240CE4B2948094899C4394810368DC0E05
:104B700004252540DB00DB0E2B4393810368DB0F0C
:104B80008B830368002B16D55B0E20242340158AE7
:104B9000A543EB18138203685B0F02242340158A98
:104BA000A543EB18138202791207920F0A84027947
:104BB000032313408B848168DF4A1172C168116539
:104BC000016951654069906570BDC04604000050A0
:104BD0007C100050C0100050C89AFC07DA48818A47
:104BE000C907FCD00088704710B5D34AD0640020B4
:104BF000908611866F4904200860BFF34F8FBFF382
:104C00006F8F6D490B8801241C430C800B88034374
:104C10000B80FF210904694B1C688C43117A8907BA
:104C2000090A611819606649086010BDC89AFC0736
:104C3000B0B5C425B64C605BFDF75EFE00281AD007
:104C4000605BFFF717FF002181804834E26E521C41
:104C5000E2660246103AEFF3108372B6A26362B6C0
:104C600021646164A164B449294A8A65801D0821D0
:104C7000FFF7BAFFB0BD0120E064EFF3108072B619
:104C8000002000F0ADF862B6B0BDC046C89AFC077F
:104C900070B58025E54E7459002C35D0D42172585A
:104CA000521C7250A18A0818A082C421715A091A94
:104CB00089B280B207291ED8CC21725810187050C2
:104CC000D0203158491C3150EFF3108072B6715921
:104CD000304668303DF7F8FE62B600207051A18A78
:104CE00016342046FCF730FF01F064FD00280BD19C
:104CF000FFF79EFF70BD10348F49054A8A65201862
:104D0000801D0821FFF770FF70BDC046C89AFC07E0
:104D1000914CFC0770B58848028E848EC36C8A491A
:104D2000944208D28D8AED070ED00D88661C8686C7
:104D30001D553446F4E78A8801239A438A80816DA1
:104D4000002901D0808E884770BDC04600100050F9
:104D5000B0B50D460446EF48018500218185012A42
:104D60000AD0002A05D0B0BD207800F0E7F86D1E0B
:104D7000641C2804F8D1F6E70E4A0421116084640B
:104D8000BFF34F8FBFF36F8F0B4A138802241C436E
:104D90001480138880241C431480FF221204074BC4
:104DA0001C689443007A8007000A201818600448A1
:104DB0000160B0BD80E100E00410005000E400E0BC
:104DC00000E100E057490A880120520606D50A880A
:104DD000920603D50988C90700D100207047C04654
:104DE00010B5044600280AD02120C000F949085C0B
:104DF000002818D00F4800680221884316E0FFF70A
:104E0000E1FF002801D0002412E02120C000F14978
:104E1000095C0848002903D001680222914301601F
:104E20008088C00701D1012402E0222001490860E6
:104E3000204610BD1010005080B5F448416D012986
:104E40000BD09C214158012907D8016D012904D1BB
:104E500000210165012002F09FFA80BDA898FC079F
:104E600010B5002811D0E420E84C2158491C2150ED
:104E7000E06F002806D0EFF3108072B6E06F57F7AE
:104E8000FEFD62B60020E06710BDE821FA484258F6
:104E9000521C42504821415C002909D05921890007
:104EA000405C052802D1FFF7DFFA10BDFFF7FAFAE0
:104EB00010BDC046B0B5F04C25464835286E57F7B2
:104EC000DEFD00202866686D00281ED0EFF31080FC
:104ED00072B6204694303DF7DBFDA821605062B6E3
:104EE000F0202258521C2250F4202258521C2250EA
:104EF000EC22A3586058818A5B18A350854A054B61
:104F0000536516300122FFF723FFFFF795FFB0BD71
:104F1000A898FC07B54EFC07024801884906FCD555
:104F20007047C0461410005080B57A4B5A6589B25C
:104F30000122FFF70DFF80BDC89AFC0702498A8A4B
:104F40009206FCD5088070470010005018B508483C
:104F5000016800910099074A009B1A40FF2424042D
:104F60000C40D9B20919044BC9181143016018BD8E
:104F70008000004000FF00FF0A000A00F8B5FF258E
:104F80002F466837D04EF05D002802D0FCF7EAF9D2
:104F900001E0FCF7DBF90446A3204000315CE1723C
:104FA000325C95204000311820460C305AF7A4F8A6
:104FB00028466430315C00290DD0F25D002A0AD009
:104FC0002B22A154325C28464830311820462C3020
:104FD0005AF792F802E02B20002121542520C0002E
:104FE000305AE080A080F05D002809D00120607276
:104FF000FCF7B8F957F719FD0D48002101600DE0E5
:1050000003206072FCF7A2F957F70FFD0848002152
:105010000160042057F734FF032803D00420022145
:1050200057F719FF663501207055F8BDA898FC07A1
:10503000C896FC07F8B5054659208600F64FFCF7E0
:1050400053F90446BD5545700320207010491831AE
:10505000201D06225AF750F82A2000252554412009
:105060002084A57620460A3010215AF75EF82046A3
:1050700057F7DBFC01480560F8BDC046D096FC0739
:1050800080B50349183106225AF736F880BDC0466C
:10509000A8B7FC07F8B504460878002811D148786D
:1050A00001070ED41A49097804290AD101254007BD
:1050B00001D5284600E00220FEF732FF21201549E5
:1050C0000D54A00013490E18756F7436002D19D1B8
:1050D00021020A31104804221E2357F78BFC054693
:1050E000012404703060801C094F394608310722C2
:1050F0005AF702F8787A012803D1B87AF7210140EB
:1051000029716C70284657F790FC00203060F8BD7C
:105110001085FC07C89AFC07140E0000B0B586B0D5
:10512000044648780022032815D0022819D0012807
:10513000134611D13DF7E3FB0E4959F763FF0E48C3
:105140000A1805926D460DA12846FCF733FC284647
:10515000FEF718FD0422012305A92046FCF75AF9A1
:1051600004E0B3204000024901220A5406B0B0BD59
:10517000A898FC07A0BB0D00A08601000D0A2B50CB
:10518000494E3A253036750D0A000000F8B50090FA
:105190000B22D2430E48041DFA4D002A11D0AE183E
:1051A000FF271037F619377B8F4207D117460C3788
:1051B000002333730126BE4006802380521CA41CAA
:1051C000EBE700982818FF2210328154F8BDC04642
:1051D00002300050A898FC0770B504463420FB4DFF
:1051E000295C00290FD000262E544220285CFCF7B1
:1051F0006DF94320295C002905D02E5402F07CF87B
:10520000FF2066302E540120E07570BDA898FC0781
:1052100070B5044659208000EC4E305C0A2801D05D
:10522000022828D1FF206630305C002823D1A07AE4
:105230000221014303291ED1FDF756FB00281AD194
:10524000E07A01280FD100252046294601F0D0FC44
:1052500081B264390A4A91420CD80005000C0A2137
:1052600059F7D0FE00E005482521C9007052FFF72C
:1052700085FE0125E57570BDA898FC074C0400006B
:10528000540B0000B0B5044659208000CF4D285C77
:105290000A2801D0022816D1FF206630285C012898
:1052A00011D1A07A0221014303290CD1FDF71CFB87
:1052B000002808D15EF782F9FF20663000212954CA
:1052C00001200002E082B0BDA898FC07FEB50D46A3
:1052D000009013484768006801A98F800190052459
:1052E000002012A6002C0BD401A90A5DC0B2281818
:1052F0003146FCF75FFB2846FBF7C2FC641EF1E772
:10530000401EC0B22818F90301D407A100E005A18E
:10531000032259F7F1FE01200099C875FEBDC04671
:10532000240000402C5200002C5000002530325840
:105330003A0000007CB50446C07A032816D0002845
:105340003ED10D46214E716A1F4848437D21C90058
:1053500059F76EFE0246B06A0A214143336B009151
:105360001EA12846FCF726FB01252AE00021204645
:1053700001F03EFC7D21C9004843134959F742FE24
:10538000124D68620221204601F032FC0A2159F7D1
:1053900039FEA8622068617B4018FBF70BFF2C21C7
:1053A0006854010C2A462C329170010A517028630E
:1053B000A07A0125022804D105A0FEF7E3FB00E056
:1053C0000025E5757CBDC04671020000A898FC0769
:1053D0002B455343205345510D0A000025692025D4
:1053E000782025690D0A000010B504460068A17AEE
:1053F000012907D1FEF7D8FB87204000734901221D
:105400000A5405E0801CFEF7BDFB5648FEF7BAFBC8
:105410000120E07510BDC046A898FC077FB5044682
:1054200059208000694E305C05280DD1FDF75CFAEB
:1054300005462068A17A01291CD1FEF7B5FB87201B
:105440004000012131541BE0FD205BF7D1FE808834
:10545000801D80B25CF7B9FF002833D001A95CF74A
:10546000F3FF002835D02B48C82101802A480821A5
:105470000180FEE7801CFEF785FB3A48FEF782FBC1
:10548000002D0AD002F058F8FFF746FD234D28887A
:10549000C00704D0FFF7A2FBF9E7012510E00125C2
:1054A00028023084A07A022807D0FDF7C3FF002825
:1054B00003D087204000355402E00020FBF74EFE69
:1054C000E5757FBD1348C82101801348082101807C
:1054D000FEE701A8007803AD02AA29465DF7D7F8D8
:1054E0002888002807D0029800280BD00078C00731
:1054F0009CD10025E4E70748C8210180064808211F
:105500000180FEE70348C82101800348082101808B
:10551000FEE7C04600310050023300501410005026
:1055200010B50446807A012808D12068FEF73CFBBC
:1055300087204000CB4901220A5410E02020C949AD
:10554000085C002804D001F071FB01F00DFE06E0BC
:105550002068801CFEF716FB0248FEF713FB0120B3
:10556000E07510BD0181FC0710B50446FDF7BCF9DC
:10557000002804D02121BB4A0120505400E0002023
:10558000E07510BDA898FC07B0B50446592080000E
:10559000FB4D285C0A2801D0022804D1FF20663088
:1055A000285C002800D0B0BDA07A0128FBD1FDF70F
:1055B0009BF90028F7D1FF206830002129540520ED
:1055C000FFF738FD01200002E082B0BDA898FC077B
:1055D000FEB50446C07A022811D00D46002848D1F5
:1055E000002D4DD0344EB7782846FBF749FB2818DC
:1055F000AA2F47D18621735C34A1012545E0207B89
:10560000617B22680026029651180191101802AAA7
:105610003146FCF7F7F9012500282F46314608D11D
:105620000298FF2803D001282F46314601D1C1B28C
:105630000027009102AA01983146FCF7E3F902998C
:1056400001292A4600D832460028284600D11046B3
:10565000002813D1002F11D10098FF2819D1164826
:105660008278AA2A01D1862281542846FCF750FA72
:1056700020E01849184A2846FCF79CF9002519E053
:10568000012517E00DA101250EA32A46FCF792F98A
:1056900010E0012601280CD107488278AA2A08D1F7
:1056A0008622835CCFB2BB4203D081542846FCF7EC
:1056B0002FFA3546E575FEBD9C97FC0725642C2521
:1056C000730D0A003C656D7074793E0025642C25CD
:1056D000640D0A006983FC070481FC07BCB504461D
:1056E000C07A01280CD1207B21680025019508187B
:1056F00001AA2946FCF786F9002804D0E575BCBD4F
:105700000020E075BCBD0198012806D0FF28F5D126
:1057100001252846FCF7D4F9F0E7064800218170FE
:1057200008307F2159F701FD01252846FCF7F0F9E3
:10573000E4E7C0469C97FC07F0B589B00C460546E7
:10574000FDF7D2F80121E975E97A04290DD0002985
:105750007AD1444883894289C189807D0091019032
:1057600042A12046FCF726F975E00890002728465C
:10577000394601F03DFA049081B2062902D3374838
:10578000814200D3EF7506910121284601F030FADD
:10579000039080B2059080087D2800D3EF75022623
:1057A0002846314601F024FA84B2642C02D32C48F6
:1057B000844200D3EF7507970A27384660431921C2
:1057C000069A514359F71EFC06900294204639462A
:1057D000079F59F717FC002904D10698401E059928
:1057E000814200D9EF750321284601F001FA0446F1
:1057F0000004800C00D0EF7526407042704108997B
:10580000084324D0E87D002823D001210C40154D09
:10581000AC750298E8810398A88104986881002EED
:105820000E4603D02E76002001F0D0FC002C12D0C2
:105830002F760D4866300A351022294659F75CFC50
:105840003046FCF7F1F906E00020E87503E010208F
:1058500000E00E20287609B0F0BDC046810C0000A3
:10586000017D0000A898FC07489BFC0725692025BE
:10587000692025692025690D0A000000F0B585B072
:105880000446C07A032813D000281DD1FF20024609
:105890000A323B4DAB5C2122D200AA5C0C30285C62
:1058A000009039A508462946FCF784F801200CE051
:1058B00000252046294601F09BF90106490E07D034
:1058C0000E202076E57501E00020E07505B0F0BD02
:1058D000C0B2411E02468A412121C900284E72549D
:1058E000002839D001212046049101F081F90746B2
:1058F0000221204601F07CF90146F8B20C28DFD8DD
:10590000CAB20D2ADCD20292FF2213460C33F154A4
:105910000A32B754432292000392B15485214D00BC
:1059200077550E21FFF732FC0D210298FFF72EFC70
:10593000705D049D29468140124A11804000911CEF
:10594000C5239B0043520398305C2B468340138051
:10595000400013224252B5E7FF2738460A30305C38
:105960002946FFF713FC0C37F05D2946FFF70EFCC4
:1059700043208000355485204000355496E7C046CA
:10598000A898FC0704300050256920256920256966
:105990000D0A0000F0B589B004463E495920800048
:1059A000085C052873D1FF276637C85D00286ED1D3
:1059B000A07A01286BD1FCF797FF002867D1607BA4
:1059C0002168085C02210143522960D1607C1128C2
:1059D0005DD131A0FEF7D6F8607B2168085C0390AA
:1059E000207B06AA0026967045181035062E0ED08C
:1059F000297806A84170691E0978017000211022DB
:105A0000FBF75CF907A98855ED1E761CEEE704A9A3
:105A1000019108988880079804902348092104255B
:105A20001D232A4656F7E6FF0646012002903075F0
:105A3000304615300622019959F75EFB0399523919
:105A400048424841F0760A207081452171823182B6
:105A500030810020B0814B208000F08117200002AF
:105A6000F0800320C002B08013203080304656F70B
:105A7000DCFF0221284657F7EEF90648C5551920E4
:105A800040010A49FBF7F2FC02980002E08209B0EB
:105A9000F0BDC046A898FC07434F4E4E45435449BD
:105AA0004E470D0A00000000110D0000F124FC0714
:105AB000B0B50446FCF718FF002815D00BA0FEF780
:105AC00061F8FF206630FB4906220A540B480A2180
:105AD0000422022356F78EFF132141700125057021
:105AE00056F7A3FF2802E082B0BDC04644495343A5
:105AF0004F4E4E454354494E470D0A00040E0000D8
:105B000070B50446154D59208000285C052824D125
:105B1000FF266636A85D00281FD1A07A01281CD177
:105B2000FCF7E2FE002818D10DA0FEF72BF80220AA
:105B3000A8550E48092104220C2356F75BFF0125C6
