:0200000407FCF7
:10000000D087FC072501FC072D01FC074501FC07F3
:1000100000000000000000000000000000000000E0
:100020000000000000000000000000005D01FC076F
:1000300000000000000000005F01FC076101FC07F8
:10004000F112FC070139FC07A526F0076301FC0744
:100050006301FC076301FC07B512FC076301FC07A1
:10006000C112FC076301FC077D13FC078713FC0723
:100070009113FC079B13FC07A513FC076301FC0706
:100080002115FC076301FC076301FC076301FC0702
:100090006301FC076301FC076301FC076301FC07C4
:0800A00000008E070E000000B5
:0200000407FCF7
:100110000348854600F07CFE00480047392CFC0768
:10012000D087FC070F4880470F48004704207146DE
:10013000084203D0EFF309800C490847EFF3088029
:100140000A49084704207146084203D0EFF30980AA
:1001500007490847EFF3088005490847FEE7FEE72F
:10016000FEE7FEE73171FC071101FC072D14FC07C7
:100170001514FC07F8B5074601200023024600903D
:100180001946032049F73EF90446022180300170E8
:10019000FB4DFA482A6843881146FF31F7310B8638
:1001A00080884886F748066A0123DB069E431E4383
:1001B0000662FF320020FF32383250829082D082B5
:1001C0001D200882F0484884F048C882F04808831F
:1001D00000204882384649F755FC01462868FF3020
:1001E000F730C28B920992010A43C283E948416801
:1001F00000208847002C02D0204648F7ECFC20461F
:10020000F8BDF1B598B0189842F721FC044618984B
:1002100005210079E04A4006C00F09906846018434
:10022000618B08460A38904277D2E08A062874D358
:100230001922D201904270D8228BFF23F5339A42C3
:100240006BD8521C9300D2184243521C0A235210FE
:1002500059438A4261DC217F00290CD1617F00294A
:1002600009D1A17F002906D1E17F002903D12021F6
:10027000095DC90651D0274620377978C906C90ECD
:10028000491F0C2949D2A18A814246D8E17C002924
:1002900043D0421E082A01D9082000E0401E8142B6
:1002A0003BD8684646F794FC002836D1B34D062269
:1002B000286221460BA85EF71FFFA8792E46803ED4
:1002C00000287DD06079800901280AD00BA80999FF
:1002D0004CF74DFF010003D03820405C002870D05F
:1002E0009CE0F06A807A012808D0042806D00BA888
:1002F0004CF7AAFF286200284FD055E0686A062212
:100300000BA932305EF71CFF002807D00BA84CF772
:100310009BFF2862002803D013E0EDE0686AF8E74D
:1003200000210BA84CF7A6FF2862F16A897A0129FF
:1003300005D18B071A6849068A430A431A600028C8
:1003400011D0F16A286A0622253010315EF7F8FED6
:10035000002808D1286AF16A2030C07AC97B884217
:1003600001D1286A1EE08D488D490088C96880B295
:1003700006225043081842F76FFB014614A80622D4
:1003800002305EF7B9FE13AA00213C2042F731FE8D
:100390000121B06D48F758F8AAE011A90BA84CF755
:1003A00069FF2862002839D001460A9006220FA86A
:1003B00025315EF7A1FE0A9908AA2031C97A01E029
:1003C00042E025E00FA84CF7B5FD002812D0286ABE
:1003D0002030C07A002809D168467249008C4BF75A
:1003E0001CFD08AA01216F484CF7A4FD68460BA923
:1003F000008C0AE008AA012111A84CF79BFD0028F7
:100400000CD0296A6846008C32314BF71CFD05E0A0
:100410000A18527D002A08D010286DDBF06A407A55
:10042000022806D0032804D00EE0401C1028EFDB81
:10043000F4E76846008C052806D308AA0BA809999A
:100440004CF778FD002857D00022694620464CF72B
:100450001AFE002850D1F06A407A02280BD00328F7
:1004600009D00023684602880BA809994CF72CFE96
:10047000002802D02FE00123F4E7E18A68460181D9
:10048000218B4181618B8181787806224109684600
:1004900081757878C106C90E6846417521460E30CF
:1004A0005EF72AFE189800794006C10F684601756C
:1004B0000388214602A8B26D47F76CFB0146B06580
:1004C00002A842F7E4FD0020B065214668461C31D1
:1004D000008846F7D0FB49F74FFC284C2034207A9F
:1004E000002805D0002109205CF70DFE00202072B5
:1004F000002108465CF7AFFC19B0F0BDF8B52A4CF6
:10050000064685000F4660594C21095C24290ED10E
:1005100040691022791D2E305EF7EEFD61592520CD
:100520004031087300221146304654F7BAFC605936
:100530004C21095C0C291FD140691022791D2E30F5
:100540005EF7DAFD60595F214069095C090746D40E
:1005500001462E3110221E305EF7F2FD002825D014
:100560006059092140300173304655F7B7F901460B
:100570000022304654F714F8F8BD000030BCFC07E8
:100580004CB9FC07C0000040108000002941000069
:100590007671000058BFFC07770C000068B9FC07B3
:1005A00060BBFC0750F5F1073CBEFC070421684620
:1005B00001706A460521304654F79CF96846017877
:1005C0006020014368460170304655F787F90146BF
:1005D000684602780123304654F7F7F8CCE73046F6
:1005E00055F77CF9012809D0605907214030017383
:1005F00000221146304654F754FCBDE761590020F3
:100600004969C031887160590421426930461E32FF
:1006100054F770F9605941694031897F002907D04A
:100620001A21403001730021304654F7C4FCA3E77F
:100630001B2140300173304654F712FD9CE7F8B59A
:10064000614C05468600A0594C22125C192A93D1B0
:1006500040224D30491D5EF74FFDA05940225B49B5
:100660004D305EF76DFD002805D0584928462039E9
:100670005BF7D1FE80E70B21684601706A460521D1
:10068000284654F737F968460178602001436846E8
:100690000170284655F722F9014668460278012381
:1006A000284654F792F867E7FFB581B003980C46E7
:1006B000060A00255CF7E4FB002818D0132816D0A2
:1006C000142814D04248B700C0592030407BC006DF
:1006D00028D503985CF7D4FB15280CD0A07942F7F5
:1006E000A9F9304647F744FA032806D015E0A07967
:1006F00042F7A0F91FE002251DE03548C05920301F
:10070000407B400704D53D21304642F791FE04E08E
:100710003D220021304642F79AFE3D21304646F701
:100720006FFA08E0204610382A49018146812046A8
:100730004EF758FF0125284605B0F0BD2648522245
:10074000006864308188C37E5143244A1268891846
:10075000FF225F32525AFF31120AD21A01310B8C3A
:10076000D2B2DB0B09D00B8C5B045B0C0B84002A30
:1007700003D180881A4A012111547047FFB51746EA
:10078000140A81B0124A0298A100515840780026FC
:10079000134D002907D0295D002905D0002803D179
:1007A000204644F7A9F82E553A46049B0299019831
:1007B00045F733F8C0E70C480A4901600B4941602E
:1007C00070477047704700003CBEFC07FCBDFC074B
:1007D00078BBFC070608000084BBFC074CB9FC078B
:1007E0003396FC070459F007C0000840490C00BFCD
:1007F0007FB5E6486B460188428889186A461180B1
:1008000001214C0022181546403DED8F065B5288B1
:10081000AD19AA18491CC9B21A530729F1D3818905
:10082000C089081881B2D981D888002821D01889B8
:10083000002820D0988800281FD0588900281ED072
:10084000988900281DD0588800281CD000291CD069
:10085000188800280BD00720062254001C5B8C420D
:1008600001D22146D0B2521E52B2002AF5DA04B0AB
:1008700070BD0320FBE70420F9E70220F7E705201D
:10088000F5E70620F3E70120F1E70720EFE7F0B5F1
:1008900095B0EFF310801190012080F31088BC48D0
:1008A000816B4A07520F69460A800A92816B0122C6
:1008B000C908C9008163B7498B8869464B80022407
:1008C000B44B00219980C16A09078B0F69468B8060
:1008D0001093C16A0C2399430831C16205210907AD
:1008E00009880906CB0F6946CB80052109070993C2
:1008F00009888023194305231B071980A649898A83
:100900004906CB0F69460B81A3490893898A402386
:100910001943A14B9982016A09074B0F69464B8124
:100920000C93036A0E218B4303629D4D9B486860C4
:100930009F20A8602888A04328809A4841680B0718
:100940001B0F69468B810B93416809090901083126
:100950004160416849064B0F6946CB81029341686B
:1009600070239943603141608948403801688904A7
:10097000CB0F69460B820D93016843141943016044
:100980000168CB07DB0F69464B820E930168114368
:10099000016041688903CA0D69468A8203924168F1
:1009A000CA05D20D6946CA82049281688903CA0DBC
:1009B00069460A830F928168CA05D20D69464A8347
:1009C00001924168784A11400322D203891841609C
:1009D0004168490A4902FF31413141608168724AE8
:1009E00011400322D203891881608168490A4902B3
:1009F000FF3141318160642000F032F9A8896946F5
:100A00008007C00F8883A8892043A881002400267E
:100A100002256348614F01880122114301800A20A9
:100A200000F01EF9614AA0203968114200D0761CFE
:100A3000401E3F1D0004000CF6D15948818A8904EC
:100A4000FCD16D1E2D062D0EE3D15149886B651C1E
:100A5000C208D2006807400F02438A630A2000F0F0
:100A6000FFF860004949ECB20E52082CCFD3484839
:100A70000A99826BD208D2000A4382636946454ACA
:100A80004988918010998A00C16A0C2399431143C7
:100A9000C1620999CA010521090709888023994380
:100AA000114305221207118008998A013A49898A5F
:100AB000402399431143384A91820C994A00016AB4
:100AC0000E2399431143016236480B99426812097B
:100AD00012010A43426002990A0141687023994356
:100AE000114341600D9841032948403800680122B4
:100AF0005203904308432649403908600E9809681C
:100B000049084900014322484038016003984202E5
:100B10001F48403840682449084010431C4A403A66
:100B2000506004985268520A5202024318484038F2
:100B300042600F98420216484038806808401449C5
:100B400010434039886001988968490A4902014385
:100B50000F48403881601198002800D0012080F3B0
:100B6000108815B0F0BD10B5114C2078002808D0C1
:100B7000FFF78DFEFFF73CFE0E4908700020207045
:100B800010BD02F09DFD0120F9E7000098B7FC07B9
:100B900080100040001200402030005018B5FC07C3
:100BA0000035005040200040FF01FCFFC0C0C0C025
:100BB0008C9AFC078A9AFC0710B5FF22154901326E
:100BC0000A60BFF34F8FBFF36F8F13490A60134959
:100BD0000B6840241B0A1B0223430B601049898ABF
:100BE0000021C30700D03521830702D57D231B02D6
:100BF0001943430702D575231B041943000702D587
:100C00003D20000601430648203801630148803832
:100C1000026010BD80E100E080E200E008E400E056
:100C2000A010004010B5062000F01AF810BD10B555
:100C3000092000F015F810BD10B5812000F010F863
:100C400010BD10B5044800F00BF810BD10B50348F6
:100C500000F006F810BD00000102000001080000CD
:100C600000280CD000BF00BF00BF00BF00BF00BF06
:100C700000BF00BF00BF00BF00BF401EF0D17047E3
:100C8000004870470072FC07CAB2401E4178401C01
:100C90008A4202D00029F9D100207047421C017815
:100CA000401C0029FBD1801A704710B5002200E0DB
:100CB000521C835C8C5CA34201D1002BF8D1D8B2CA
:100CC000E1B2401A10BD03460A780270401C491C6C
:100CD000002AF9D11846704730B505460020034672
:100CE00000E05B1C934205D2EC5CC85C201A01D189
:100CF000002CF6D130BD0000F7B5009C0F46002651
:100D00002578641C002D05D0FFF7BAFF0068405D10
:100D1000C007F5D12B2D02D02D2D18D0641E3946D9
:100D20002046029A00F020F8002F04D03968A14232
:100D300001D1009939607105022400290BDA404283
:100D4000002803DD06F052F90460A007FEBD012073
:100D500080020643E3E70028F8DA06F047F904606A
:100D60000048FEBDFFFFFF7FF7B582B0029C002761
:100D70002078641C15460197302802D0002D15D02C
:100D800015E020780127641C782804D0582802D068
:100D9000002D09D00BE0002D01D0102D07D1002728
:100DA00010252078641C02E0082500E00A250026B2
:100DB000009610E00099012769430818020C2946A3
:100DC00080B2714300908E183804864201D301200E
:100DD00001902078641C294600F02CF80028E9DAFC
:100DE0000398002805D0002F01D0641E00E0029C6B
:100DF00004600198002806D006F0F8F8022101608E
:100E0000C81E05B0F0BD009930040843F9E70000A2
:100E1000064C0125064E05E0E36807CC2B430C3C4D
:100E200098471034B442F7D3FFF776F9587FFC07A0
:100E3000A87FFC073A2800D23038202302469A4384
:100E4000412A01D310463738884201D30020C043DD
:100E500070470000F0B50C465C4085B0E40FE40735
:100E600003944C0000266408590094464908024641
:100E70000296224321D062460A431ED06200570DDB
:100E80004A000E032303550D012402462C49240574
:100E9000781B1B0B360B40182343264361460090FA
:100EA0001C46501AB44103D30098401C009002E045
:100EB000921800985B41002803DA0020014605B033
:100EC000F0BD0020012109050746864611E0644671
:100ED0001D46141BB54106D36546521BB3417446EB
:100EE00007430C43A646CD074008490828439218FB
:100EF0005B4105460D43EAD11046184313D06046C6
:100F0000194650407140084306D06046101AB3415C
:100F100006D20122002306E000220123DB0702E0C3
:100F20000122D2435310009874460105381C6141D8
:100F3000029C039D0019694100F030F8BFE70000F2
:100F4000FD0300000EB505490291002100910A46FB
:100F50000B46019100F02FF803B000BD33040000F0
:100F60004A0009030123090B1B051943094B10B55E
:100F7000520D9A4201DA002010BD064B34339A42DA
:100F800003DC9A1A62F75BFA10BD034951188840D6
:100F900010BD0000FF030000CDFBFFFF10B5002BCC
:100FA00008DA0024401C614192185B411A4301D1C8
:100FB0004008400010BDF0B51FB482B005460C00DB
:100FC00003D0084605F0FAFF02E005F0F7FF2030F5
:100FD00002460090214628465EF7D2F8049B059A07
:100FE00004460F4618431143084314D018461043D3
:100FF0001BD0009840210A1A1846059962F71FFA7B
:1010000005460E46009A059904985EF7B9F808431C
:1010100005D0012004E02046394607B0F0BD00208D
:10102000C11705430E432C43374300990E986305BF
:10103000401A7905E40A00220C43FD0A0A3002D561
:1010400000200146E9E70105101969410C9C0D9D3E
:1010500000196941FFF7A2FFDFE70000F0B507467E
:101060000846584087B0C00F049048000E4659000B
:1010700040084908BC1A884105D2384631461E4608
:1010800017460B4602465800400810434CD0300D1E
:10109000039040055900400D490D0590401A0290FB
:1010A000402872DA18030121000B0905084301905A
:1010B00004980092002805D00199524200208841EE
:1010C00000920190029840210A1A019900985EF757
:1010D00057F805460C466B4607CB00F0D7F8C01909
:1010E0007141039A0E0D0023D71756401A467A40D5
:1010F000164344D0049A002A2DD0029A012A039A5A
:1011000015DC1205C01A914101263605001C7141FB
:10111000D20F059ED2070093019202962A462346DB
:10112000FFF749FF07B0F0BD38463146FAE716052C
:10113000224A0F46B218C01AB74101210905001C06
:101140004F4100187F41114618187941E20F1043B2
:101150006D19644113E0E2076D0815436408C20786
:101160001443039A01261205C01A91413605001C4A
:101170007141CE07400830434908C01851412A4602
:101180002346FFF70BFFCDE7FFE70498012240005D
:10119000C117121A00238B4104983146C417381A1C
:1011A000A141EEE730B40124E407634030BC55E7C9
:1011B00030B40124E407614030BC4FE70000E0FF99
:1011C000F8B50546480040080C46284304D06000A6
:1011D000184A400D904201DD2846F8BD15493539C1
:1011E000884210DC88420BDB290D200308432903C9
:1011F000014305D0E00F1049C00741180020F8BD99
:1012000000200146F8BD161A4020821B28462146C0
:101210005DF7B6FF0746009128462146324662F741
:101220000EF93A46009BFFF7B9FE32465DF7A8FF7C
:10123000F8BD0000330400000000F03F10B50029A5
:1012400004DB0124E40740428C412146002B04DBEF
:101250001C460123DB075242A3418B4200D182424C
:1012600010BD000010B5002904DB0124E407404252
:101270008C412146002B04DB1C460123DB07524234
:10128000A341994200D1904210BD000010B5202A20
:1012900006DBCB170846203A1041C1170B4306E086
:1012A0000B461341D0402024A21A9140084319460E
:1012B00010BD000001480121018070470E1500504B
:1012C0000A48011F0988CA0706D0028807239A43E3
:1012D000DB4B9B7C13430380490706D5018807221B
:1012E0009143D74A527D0A4302807047B8100040AC
:1012F000B0B505200007027833210A4302701B4A6B
:1013000013885B07FCD40378CC2213400370CC4CC9
:10131000E38E4380238F9D1E154B5D8007251D8026
:1013200005780D43057019884907FCD401781140F0
:1013300001704189890703D041890322914341818A
:10134000018980220A430281018A04229143018299
:10135000818A8907FCD540F7E4FFE06D0549086004
:101360000548016801684907FCD5B0BD0833005045
:1013700000160050080200401000004080B50A200E
:1013800000F026F880BD80B50B2000F021F880BD6C
:1013900080B50C2000F01CF880BD80B50D2000F059
:1013A00017F880BD80B50E2000F012F880BD000057
:1013B000B0B501258540054C002B01D0258000E00B
:1013C00065800A43400020188280B0BD0230005082
:1013D00070B5C0B203460A3B01210A469A4093B257
:1013E0000A4C1C195C406608094B1C880025360411
:1013F00002D06D1C760CFAE79443AAB20D469540D4
:1014000025431D8081401348016070BDFFFF01002E
:101410000E1400500348C8210180034808210180B0
:10142000FEE7C046003100500233005057480189A2
:1014300004220A430281018840220A4302800549AE
:1014400001220A604189044A11408918091D41811D
:101450007047C04680E200E0FC7F0000704700005B
:1014600070B52D4C764D2D4E20890F210140481E20
:101470000B28F9D878440079400087444B060520B2
:1014800005232A0505050531EEE7AA8D288E904231
:1014900032D2A96C9042E7D22289C0231340C02BDC
:1014A00003D13288920703D4DEE7A28A9206DBD505
:1014B000421C2A86085C2080AA8D288EEAE703F069
:1014C000BDF9D1E72A6D002ACED0A08A9E21014025
:1014D00003E02A6D002AC7D0012120469047C3E7C8
:1014E00003F0ACF9A08801218843A080A96D0029F0
:1014F000BAD0A88E8847B7E7A08802218843A08089
:10150000A08880218843A080696D0029ACD0A88D77
:101510008847A9E770BDC046001000507C100050FD
:1015200080B5052000070178CC220A40027080882F
:10153000C00611D509488188C9070DD00188090660
:101540000AD50121818001888022914301803C4895
:10155000406C002800D0804780BDC046000100508C
:1015600080B500210A46FFF7C7FB80BDDF48018830
:101570000020090609D5DE490968090405D4044894
:10158000008801210140484248417047080000504E
:1015900054BAFC0770B50C480921042418232246CC
:1015A0005BF728FA05461B202870FD26304662F7B7
:1015B00073F80021A982E96029616C606E8068700F
:1015C00028465BF732FA70BD1B0D00001FB51446AC
:1015D000002202920192069A00921A46234661F76F
:1015E00087FE04B010BD0000B0B5EF48C27D1549BC
:1015F000D4B20C236343CD5CFF2D0AD0012C02D161
:101600000222C275F4E7521CC275C81840688047B0
:101610000EE0017E0C4ACCB21C236343D45CFF2C49
:1016200008D0491C0176D318DB68002BF3D098470B
:101630000020B0BD0021C17501760120B0BDC046BB
:10164000789AFC075C78FC072076FC0710B50E48FA
:101650000921042252235BF7CDF904462B200021F7
:101660002154E172A172FF20083020810748E080F8
:10167000A080617020460B3022460C320D21044BB5
:1016800061F748FF204610BD0D0D00004C0400001E
:10169000747EFC07B0B5174D2C68002C19D10E488C
:1016A000092104222C235BF7A5F904462860412078
:1016B00020840A4820800025658020460A301121B8
:1016C0005DF733FD2585E5846584E583A5832020CA
:1016D000E0762046B0BDC046040D0000030A0000BD
:1016E00080B5FFF7D7FF5BF7A0F902480021016042
:1016F00080BDC046D096FC0710B50B4C2068002872
:1017000000D010BDFFF7A2FF20600C21017010BDBA
:1017100010B5054C2068002800D010BDFFF796FFDB
:1017200020600D21017010BDC896FC0770B50446FD
:101730007A2060430B490E187820315C0125204641
:101740002A4661F7D1FE204600F040FE0570317F49
:101750004174B11C401C10225DF7CEFC204600F005
:1017600013F870BDCC98FC0780B500F051FEFF283F
:1017700005D07A214143034840180C3080BD002039
:1017800080BDC0463C98FC0710B5044600F01EFE24
:101790005BF74BF9A000024900220A5010BDC04679
:1017A000F096FC0710B5044600F010FE0021017011
:1017B0002046FFF7E9FF204661F7E2FE10BD00007A
:1017C000FEB5029301920E468100114A57585518F2
:1017D000002F0AD101020A310E4804241E2322469A
:1017E0005BF708F9074604702860BC1C10212046EE
:1017F0005DF79BFC20463146019A5DF77DFC02981F
:10180000787038465BF711F900202860FEBDC046AD
:10181000EC96FC07140E0000B0B500280FD002466D
:101820001248824212D814483830002423460A2B2A
:1018300019D00568002D10D0001D5B1CF7E70C487F
:10184000C82101800B4808210180FEE70848C82113
:101850000180084808210180FEE701605C1CE0B2BD
:10186000114600F027FBE0B2B0BDC046FCFF3F00D0
:101870000031005002330050649BFC07FEB5054662
:101880000805090B002800D0491C002900D10121BE
:1018900028480540FF200024F94F154E01918C4245
:1018A00020D0284602F070FB00281BD102950025AD
:1018B00002F002FCC0070CD038880006F8D530686A
:1018C0000004F5D40B4885420BD06D1C5BF795FDE9
:1018D000EEE7029804490818451C641C0020019991
:1018E000DDE7FF2040B2FEBDFF0F00000800005002
:1018F0003000004080841E007CB514460D4606462C
:101900000C480840884202D12846214608E0611967
:101910000A466A40120B05D0012212038018091AE8
:10192000FFF7ACFF01AB30462946224602F000FC2F
:101930007CBDC04600F0FFFF1FB514460E22029288
:10194000044A0192069A00921A46234661F7D0FC97
:1019500004B010BD4073FC0710B5014601200B4ACE
:10196000914211D3121D91420ED8029CF231C8B29D
:10197000800056490918486C002803D044310022E1
:101980000A6080470020207010BDC0460E04000091
:10199000E0B5D94B1B7F132B03D101AB02F056FBF3
:1019A0008CBD0020C0438CBD789AFC071FB514463F
:1019B00007220292044A0192069A00921A4623468E
:1019C00061F796FC04B010BDCC73FC07E0B502F0E3
:1019D00081FB01A802F080FA02F0EEFA8CBD000053
:1019E00080B53A485A3004490A3110225DF784FB29
:1019F000012000F057FA80BD4899FC0770B50B48EC
:101A00000424092122460B465AF7F4FF05461B2001
:101A10002870FC26304661F73FFE002129726C6079
:101A20006E80687028465BF700F870BD1B0D0000E3
:101A30001FB5144604220292044A0192069A0092AB
:101A40001A46234661F754FC04B010BD0474FC0729
:101A5000F8B51E49C9680A05120F009201231D46F8
:101A600095401B4CA61E3580A51C1A4CA61C570081
:101A70007E530F260E401F46B740154A1780770049
:101A8000144A521C7A530A03170F1A46BA40104CD4
:101A900022807A000F4C54530A01120F93400C4CD1
:101AA000238053001A245C53C6710B0F0371CBB211
:101AB0001B0983714271C7700A02120F8270009A6B
:101AC00042700904090F0170F8BDC046F89AFC077E
:101AD000043000501B030000B0B5EE48017F03291D
:101AE00011D1EFF31082012181F31088094B1C887A
:101AF000094D25401D80002A02D081F3108802E0A4
:101B0000002181F3108814210177002001F02CFCC2
:101B1000B0BDC04604000050FFFB0000B0B50C464D
:101B2000F249884220D0424A90422AD04149884214
:101B30003BD12078401E092854D88000414909181B
:101B40008A6B434B9A4269D03F4882426BD13848F6
:101B5000042108230A465AF74DFF21780170616875
:101B600041605AF762FF5EE06268002A48D032485E
:101B700082424CD220782E49401804215BF779FA32
:101B800051E02078411ECAB2092A32D889002D4A74
:101B90005218936B2C4DAB4245D138322B4B5958D0
:101BA0001160616800F086F93DE0531C0121984204
:101BB0003CD30A32904239D8C01EC0B2411E8A00BE
:101BC00020498B18996B00292DD01F4CA1422AD097
:101BD0001F4CA14227D038331C4C0025A5501D6056
:101BE000884720E01548C821018015480821018058
:101BF000FEE71248C8210180114808210180FEE754
:101C00000E48C82101800E4808210180FEE70B48DC
:101C1000C82101800A4808210180FEE738310B4ABB
:101C2000002313500B600498002101700846B0BDDA
:101C30000304000002040000FDFF3F0000310050DB
:101C400002330050649BFC070748FC07F496FC072E
:101C50000548FC07EFF31081012080F31088084A43
:101C60001288120603D4074A1388034313800029FD
:101C700002D080F310887047002080F310887047EE
:101C80000800005008330050E4488178491C8170F6
:101C90000178002900D0704718490022CA701849FD
:101CA0000B780A70012B01D0012100E002210170A4
:101CB0007047C046D9488178002904D0491E8170F8
:101CC000090600D070474178002904D000224270F4
:101CD0000322114003E0017800290AD0491E0022A6
:101CE0000270C8B20128EDD104480121C170044836
:101CF00000E0002101707047789AFC0754BAFC0795
:101D0000B4BAFC0782B070B5C2B00C460546469224
:101D1000479346AB41930120010201AE3046224673
:101D20005EF78CFE28463146FEF7CDFF42B070BC10
:101D300001BC02B00047000080B5AE21044A515CEE
:101D4000002904D080000349085801F061FE80BDDD
:101D5000C899FC07147FFC07FEB50024E543002862
:101D600014D006460078002810D0002A0ED00F4666
:101D7000009205F03BF90190046002A930463A4612
:101D8000FEF7BAFF02990A78002A01D02846FEBD64
:101D9000019AB142FAD011680229F7D00028F5D48F
:101DA000009908602546F1E7B0B50C460025202DC6
:101DB00004D040F7A4FD60556D1CF8E70020B0BDCD
:101DC00010B507480188074A1368114C2340591879
:101DD00011604088516821400818506010BDC0460D
:101DE000183000408CACFC0710B507480188074A42
:101DF0001368074C234059181160408851682140EE
:101E00000818506010BDC0463830004098ACFC0740
:101E10000000FFFFB0B50446CF4D8C2128465DF78A
:101E200084F988200349295203482880204600F07D
:101E300017F8B0BD224300003512000010B503466C
:101E4000C5484218AA2494707A22514340180C3095
:101E500019465DF751F9012000F002F810BDC046A7
:101E600080B5024900F0FAFD80BDC046B47FFC0792
:101E700007481E214180018803220A43028001880D
:101E800004220A43028065480121C1707047C046A0
:101E900000160050789AFC0780B5054800F0CAFD8E
:101EA00080BDC04680B5024900F0D8FD80BDC04667
:101EB000C07FFC0770B50C4605460C4EFFF756FB7D
:101EC000002806D07019801C042122465BF7D1F847
:101ED00070BDFFF7BFFE0421082330460A465AF7BB
:101EE00089FD446005705AF7A0FD70BD0104000033
:101EF0007047000070B514460D4610465AF7C0FFF3
:101F000001282FD1287801020831AA791648002A21
:101F10000CD089B2062322465AF76CFD0646A878F3
:101F200060F784FA3080A879307114E0AA8889B209
:101F3000921D93B222465AF75DFD0646A87860F7D7
:101F400075FA002131713080A8887080701DAA88D0
:101F5000E91D5DF7D1F830465AF767FD00212046AC
:101F60005AF779FF002070BD140C0000FD2801D045
:101F700000207047004870472076FC077047704784
:101F800080B5FFF70FFC80BD10B50446891D022007
:101F90001022FFF7E9FB00280BD001467A222046E9
:101FA0005043B74B18185DF7A7F82046FFF7BEFB64
:101FB00010BD2046FFF7F6FB10BDC046F8B504463D
:101FC000800016490F18BD6F7837002D20D12102EF
:101FD0000A31134804221E235AF70CFD83214900BD
:101FE000018038607A256543A5484419513410268C
:101FF00020463146324661F7B3F9A14A505D0821C7
:10200000014351553D68A81C214632465DF774F8DE
:1020100028465AF70AFD00203860F8BD789AFC0778
:10202000140E0000FEB505460C206843D34A16186E
:102030004320305C2C46002815D0002001900090F1
:102040007A2068438E4A125C012010400A88002AD8
:1020500006D100285ED0881C694608225DF770F81A
:10206000002857D14DE0088800281DD0002002220A
:10207000FFF77AFB00284DD006467A225543804868
:10208000401931465DF738F82046FFF74FFB7920BD
:10209000305C002838D1F0488178AA2934D14168D1
:1020A0004A1C42608160FEBD3C20305CFE21014044
:1020B0003D360327022916D0317872781202511862
:1020C000B278F3781B029A18120451183279737996
:1020D0001B029A1861F72EF9022803D315D00428A1
:1020E00001D017E00127062238463146FFF73CFBB6
:1020F00000280FD001467A225543614840195CF709
:10210000FBFF2046FFF712FBFEBDE44D287B400796
:10211000C70F03D12046FFF745FBFEBD3B01083347
:102120000E48092104225AF765FC0446477017201F
:102130002070A01C062231465CF7DEFF287B40079A
:1021400006D5204608304635102229465CF7D4FFD4
:1021500020465AF76AFCFEBD3C98FC07140D0000AF
:102160005C49C98E0180704780B55A490A7D02706A
:10217000401C15315CF7C0FF80BDC0467D21C18089
:1021800000218180102141800821018070470000DA
:10219000FEB57A2402904443394807194E783E77B9
:1021A0003D461435082128460A4661F7D9F83846D5
:1021B0001C300190102E04D8B81C1022314661F753
:1021C000CFF840F79CFBF04B195D01220A431A55EA
:1021D0007882029E304600F015FD0199097801775A
:1021E000798A418269882A88EB88AC880483438392
:1021F0008282C182B91C801C10225CF77DFF3046B0
:1022000000F000FD5AF711FCB000E04900220A502E
:10221000FEBDC0467CB57A214143FA484418782077
:10222000205CC00714D001AA002515706E46FF205F
:1022300030702046314600F011F93078FF2808D17F
:1022400086219648415C002902D18068401C09D152
:102250007CBD01A90978002903D09049091886227C
:102260008D54054679202554A8008C4908184A68E1
:102270008260501C486020462946FFF7DFFD7CBD88
:10228000CC98FC070178242909D14078972806D1F9
:10229000DD48C8210180DD4808210180FEE7704744
:1022A00010B50C46017801290BD000290ED14288C7
:1022B000084B1A751533011DD2B218465CF71CFF86
:1022C00002E040880349C886002000E048202070D2
:1022D00010BDC046649BFC07002088804880012018
:1022E0000870704770B5204C402020801F4E268219
:1022F00004F072FD1E4DA88AC00704D0A88AC0074A
:10230000FCD02888F7E71B4800214160017003F0EA
:102310005FFF01F0E1FB1848817E00290ED0017FAC
:10232000012213468B402380231D12364900CE52D2
:10233000807F8240228040001321C15222202861E8
:1023400035200E49085C002802D00DA001F060FB8A
:10235000032004F0E3F9002804D0032004F0B4F9CA
:1023600004F046F970BDC046023000500203000080
:1023700000100050C899FC074899FC07F89AFC0720
:102380000D0A2B4157414B450D0A000080B55CF703
:10239000A1FE80BD80B55CF7A6FE80BD80B5084873
:1023A00000210160FEF748FC064800781F21490122
:1023B000054A13688B43C006800DC018106080BDAD
:1023C000AC100040D9B7FC074C12004010B5820099
:1023D000074B9958002909D19C1801020A31054878
:1023E000042212235AF706FB01462060084610BD5E
:1023F000F096FC07180E00007FB5044A01A90B46B1
:1024000070CA70C300F02AFB7FBDC0460472FC078F
:1024100080B503281BD8800001A318588746C04602
:102420003124FC073724FC073D24FC074324FC0728
:102430001A481E3007E019487D3004E0174846303E
:1024400001E0164856305CF77BFE002801D0FF20E3
:1024500080BD002080BDC0463C98FC07F8B51546FD
:102460000C460E498E780027AA2E10D102780B7BDD
:1024700013405A0703D53A304631102202E071303A
:102480007D3107225CF75CFE002800D0FF27AA3EC2
:10249000701E86412E702770F8BDC0463C98FC0720
:1024A00070B50C78A51E052D33D81C0A7D442D79F6
:1024B0006D00AF4402242E313F4D7A206043894A9B
:1024C0001518887878216854C0070DD071350C2014
:1024D00060437E490E1831463D31062228465CF79E
:1024E0000BFE3C20305CA8712046FFF793FE0C20C9
:1024F00060437649081843210022425442E00C20F0
:1025000060437249091843220020885404F09AFB62
:1025100038E003F0F5FC35E07A256543714C60192D
:102520003A30891C17225CF7E7FD605D0421014306
:10253000615527E07A2565436A4E70196130891C20
:10254000102422465CF7D8FD705D2043705519E0D9
:102550007A206043634A14188B1C488A002808D0EC
:1025600020461E301C2219465CF7C6FD2078022149
:1025700006E0A01C1C2219465CF7BEFD2078012154
:1025800001432170002070BDCC98FC07F89AFC072D
:1025900010B50A78072A24D8180A920001A39A587D
:1025A0009746C046C525FC07E325FC07E325FC0745
:1025B000E325FC07F125FC070126FC07F725FC07AE
:1025C000FD25FC077A224243464B00249C540C22F2
:1025D00042433E4B9A1843230124D45402F022FA7A
:1025E0000EE0AD48C8210180AC4808210180FEE71B
:1025F00002F05CFA04E0FFF7E1FC01E0FFF7C8FD40
:10260000002010BDCC98FC07003100500233005070
:1026100010B50C78092C01D003F072FC002010BD1D
:10262000F8B51C4610460D465AF72AFC02282BD155
:10263000240A0C20604325490F183A203C54FF2CF3
:102640001DD03E46383601200090F0700420032152
:102650005AF701FC28883887687A30713D370A3587
:102660000622384629465CF747FD7A2060431D491B
:1026700008187821415C2046009A60F735FF204613
:1026800004F05EF90020F8BDE548C8210180E54866
:1026900008210180FEE7C04610B51C4610465AF7D7
:1026A000EFFB03280AD1200A0C21414307484018B8
:1026B000FF21418704F050FA002010BDD848C821FE
:1026C0000180D84808210180FEE7C046F89AFC073F
:1026D000180A7A22424303488018097878228154E4
:1026E00000207047CC98FC0780B5180AFFF79AFCC9
:1026F000002080BDF0B58BB01D460878022829D097
:10270000012836D0002840D10192224F3E7D002181
:102710001F2E029101D82020811B03ACA019009428
:102720005CF703FD15372046394632465CF7E4FC7A
:1027300033460A3316482946019A5AF75BF904468C
:10274000468002982070201D009932465CF7D4FC28
:10275000204618E00E480A2329465AF74BF97D21F6
:1027600001810021C1801021818008214180022146
:1027700008E00848C68E06480A2329465AF73AF95F
:102780004680012101705AF750F900200BB0F0BDCE
:102790000B0E0000649BFC0780B577200749085C9E
:1027A000042809D106480921042201235AF722F9F5
:1027B000022101705AF739F980BDC0464899FC07DB
:1027C000030D000080B5180AFFF7DEFB002080BD76
:1027D000B0B50C78641E162C22D8C0467C442479EF
:1027E0006400A744131D201D1D1D1D1D1D1D1D0B57
:1027F0000B3C3C1D0F0F2A1D1D1D3000002004F056
:1028000071F82CE0002004F0D1FA28E04878002884
:1028100020D08348C8210180824808210180FEE73A
:1028200003F06EFB1BE04878002816D07C48C821D6
:1028300001807C4808210180FEE7487844280ED1B9
:1028400004F05EF80BE04878472808D1180AFEF734
:10285000A9FF04E0FEF744FF01E004F01DF90020A9
:10286000B0BDC04610B510465AF70AFB002806D086
:102870006B48C82101806B4808210180FEE70848A9
:1028800009210422012423465AF7B4F804705AF7A8
:10289000CCF8002010BDC04600310050023300507B
:1028A000020D00000020704700207047F0B589B08D
:1028B0001D4616460C46FD205EF79AFC002813D0F4
:1028C00007460296039508A900260E7020885FF738
:1028D000BBFD0546608800280DD05148C821018005
:1028E000504808210180FEE74D48C82101804D482D
:1028F00008210180FEE7002D0DD04D4804230399E7
:10290000029A5AF777F88570218801805AF78DF876
:10291000002009B0F0BDFD20FFF728FB00284FD0B4
:1029200001460398000A019008A800781422424347
:102930004B689D182D79022D23D19A5812883A4B55
:102940009A421ED100200590049020885FF717FD61
:1029500000285DD007A9002204AB4EF705FB01203B
:10296000400207990140480A21465FF7F3FCC5B2CF
:10297000002D2DD1E28808A8017801985FF7C5FEE7
:1029800026E089690029354605D0A288A31D0D4699
:102990000021A847054605960496208804A94EF70D
:1029A0005EF8002D14D108200499085E00280ED48A
:1029B0006288A1882088A31D4EF7BBF8054607E072
:1029C0001748C8210180174808210180FEE700252B
:1029D000002D92D13846019D29465EF727FC01461D
:1029E000A088801D83B21148029A5AF703F8064660
:1029F000801DA288A11D5CF77FFB08A8007870806D
:102A0000A088B080357030465AF70FF8002574E77B
:102A10000348C8210180034808210180FEE7C04621
:102A20000031005002330050022900000AFD00006E
:102A3000160C00001CB5044600F007F807CC01ABEB
:102A400001F004FB01F0F0FA1CBDE0B501F042FB1F
:102A500001A801F041FA01F0AFFA8CBDF0B585B0E4
:102A60000C460290FFF7F1FFA0680105020B002958
:102A700000D0521C00946068254E06400024274D6B
:102A80004B4F0192944239D0029800281AD0304618
:102A900001F07AFA002836D10020039001F00CFBF7
:102AA000C00725D028880006F8D538680004F5D47A
:102AB0001B480399814226D00398401C03905AF783
:102AC0009CFCEBE701F0A6FA00281CD101F09AFB70
:102AD000002818D1104A10887C2101431180012060
:102AE0004007304301F0AEFB01F00EFB00280AD195
:102AF00008488019461C641C019AC3E7009A07CA5B
:102B000004AB01F015FB01F08FFA05B0F0BDC04633
:102B100000F0FFFFFF0F00000412005008000050FB
:102B200080841E00704700007FB5044A01A90B464F
:102B300070CA70C3FFF792FF7FBDC0461072FC07DA
:102B400080B504205AF79CF9C11E4842484180BD17
:102B500070B5174EB06800F02DF827490A6E0023B3
:102B60000B661518084C284621465CF74BFA706135
:102B700006494143481901D0201A80B230613068BB
:102B800008210143316070BD710200008FFDFFFF1D
:102B900080B506480021016001F008F90120C00756
:102BA00003490A6882430A6080BDC046A8B9FC0791
:102BB0003000004080B50246C00B09D00E48006FBF
:102BC00000210B465CF748FA8905800A401880BD51
:102BD0000948006F4243900A80BDC04680B5FFF7A8
:102BE000E9FF80BD80B50449896E41430348081858
:102BF00003495CF707FA80BD789AFC0720A107001B
:102C000040420F0010B501468200094B9858002839
:102C100000D010BD9C1809020A31064804221E2368
:102C200059F7E8FEFF2108310180206010BDC04641
:102C3000F89AFC07140E00009AB0E74CC0200690EA
:102C4000208208F04DFA79200F90C100E3485CF72C
:102C50006CFA012001020C9082071068079108436A
:102C60000B921060DE4800250571C570DD4E0D2207
:102C70003275DD4FBD63FD633D6430461530DB4981
:102C80005CF73AFAF5860426D94930465AF7B1F886
:102C90000996304629465AF7DEF838462030D5499D
:102CA00006225CF74DFA002804D0B88C10A9888061
:102CB000386A03E010A8D0498180D0481090D048ED
:102CC000183010A906225CF717FA2020CD4E0A9082
:102CD00035543D617D61BD61CB480560142030777E
:102CE00060F706FD3078002803D0812070700C9FBB
:102CF00004E0BB480C9FC770C44807707620C44EE0
:102D00003552AE20C3490F54AD200F5478203554AE
:102D1000B576F7754520B082BF483061BF484D3069
:102D2000708710A8BEA11C225CF7E6F9C348102DDD
:102D300005D010A94919425D8A706D1CF7E730462D
:102D40003C3010A91C225CF7D7F95A2009213154D4
:102D50005821BB480E91705230465B30A3490D227A
:102D60005CF7CAF90F98375475200F2131540021B0
:102D7000A8480F9141600770B248FFF75BFEB24868
:102D80000188B24A914204D18821405AB049884210
:102D900002D00020FFF73EF8AE4917A80246C8C986
:102DA000C8C2FFF747FE9E26AB4F3888AB4DAC49F3
:102DB000A84202D1B85B884211D0B81C9C215CF7B4
:102DC000B4F9A748B8536A200321395436200221A8
:102DD00039543D800C98B8700020FFF7A5FEFFF72E
:102DE0005BF8814D0E982B5A2E4658369D4A9E49C7
:102DF000934202D1738A8B420DD02A529B4A9C4B3C
:102E0000EA65854828666B6671820F9830820C21CE
:102E10007180FFF747F8FFF73FF87D480A302946F1
:102E20005A3110225CF768F9924917A80246C8C9BE
:102E3000C8C26D4DFFF7FEFD298E8F4881420B9E63
:102E400003D1E98E8D4A91420CD08D492863696384
:102E500032200C99362802D02954401CFAE7002071
:102E6000FFF7CAFAFFF794FE0520FDF7A5FE854897
:102E7000C8270780844808210D9141800C99480299
:102E800000903F2080020590C8030E9054495D4D8C
:102E90002088000600D420E1306B0E9A104200D04A
:102EA0001BE10888C00700D017E15AF7A6FA0026F0
:102EB000304600F091FBE87C042800D009E10120B5
:102EC000089000F089FB109610A804214AF736FEFE
:102ED000002800D1FDE06D490898086008680028C6
:102EE000FCD10B98C069E96B884201D2EE63314690
:102EF000411ACA09297D182A02D8002900D1E8E020
:102F0000002905D0286C401C286400F077FCE0E024
:102F1000E863F94E3088049070880390B08802907E
:102F2000F08801904020F54908605421F44A515A34
:102F3000F84B5980BFF34F8FBFF36F8F3188F14A41
:102F40001140F64A0B320A433280EF497180B0805B
:102F5000B0713120C043002804D000BF00BF00BFC3
:102F6000401CF8E730880899084330803089EA49E6
:102F70000840E8847089084028853089059A104007
:102F8000009908433081708910400843708130886F
:102F900002210143318030888007FCD40898F081F9
:102FA000308A5988EA8C3389059E33401343E04ABE
:102FB00013812A8DDE4B5B8933401343DC4A5381F6
:102FC000401A7D21C9004143002861DCDB4A891891
:102FD000C01708405EE0C04608000050D0B0FC07B3
:102FE00054BAFC07649BFC07F89AFC07747EFC0744
:102FF0003073FC07E439F207234800000500F4357C
:10300000A8B7FC07789AFC071C97FC07B4BAFC0722
:103010004899FC07C899FC0741004500FF030000E0
:103020001107000000000000000000000000000088
:1030300000000302F5FE0508434C76325B77FC077F
:103040001C0E0000B47FFC073C98FC073512000002
:10305000224300001072FC079C97FC077956000081
:103060006687000057340000446500000000C40972
:10307000450001010472FC07CEAB0000BBDC000080
:103080000000BBDC0031005000330050FC00004069
:10309000AB480818AB495BF7CBFF8609193628798E
:1030A0007F280CD0301A41B2C9114840401A40B2B2
:1030B000082805DB286C401C286400F09FFB2E715B
:1030C0009B4803994180029981800199C1800499AC
:1030D00001805DF725FE0B9E8C49EFF3108072B6E0
:1030E000087902280F9802D097480068806A1090EB
:1030F0008C480089C00700D0F4E059F74AFA8349A8
:10310000002800D1EEE0C878002836D0A089C0079A
:1031100000D08EE0088800282FD18C48806A0028D3
:1031200003D089480068806A109000F03FFE774D18
:10313000A97810A85AF725F829460028DD4D1CD09B
:103140003069400619D4897810A84AF7F7FC6F490E
:10315000002812D00598FF30764A11880140079860
:1031600001431180109A002A0DD0306A7849401826
:10317000DA2809D8521E109206E06A480D9A028099
:1031800030BF4280AEE00022288FCC4DE96808189D
:103190002861F06B6F4B18400843F063F06B6E4989
:1031A0000840696989020143F163F06B6B4908408B
:1031B000296949050818F0636948824200D395E0FF
:1031C0005349886AC96A00235BF746FF0903000D6B
:1031D00041186869821C8A4200D0481E4B4909790F
:1031E0004A1E914146F7C0FB5E48C06A8047B14B1A
:1031F0000E99306B0842FCD007994B4D2868084265
:10320000FCD028688026B04328604648408945287D
:1032100004D84621434A5181081A18663FF755F8E9
:10322000A868A449C86528680006FCD52088B04372
:10323000208020890999084320813F4A106808436B
:1032400010603A4A10880C998843108006982082B2
:10325000608C0799084206D1974A108840210143A3
:103260000A9881431180314A108B402630430A99D5
:1032700088431083A08B0C9DA843A0830D20FDF7ED
:10328000EFFC608828430221884360806088400604
:10329000FCD5A01F32210180A089C00602D521489B
:1032A0000D99018030BFA089C006E04D02D51D48B0
:1032B0000D994180804B18880A9A1043F1430840C9
:1032C00018801A4B188B10430840188300F068F8D8
:1032D0000C988A490870184A106809998843106048
:1032E0000B9E0A4962B60E480780D1E50C4807805C
:1032F0000C480D994180FEE70015005080E100E088
:103300003896FC0784E90000841F000054BAFC07CB
:10331000F89AFC07A8B7FC07FF030000351200006D
:103320000031005000330050000200400C030050F8
:10333000001500503830005010ED00E02BFDFFFF6D
:10334000D5020000AA05000058B9FC0774BEFC07AE
:10335000C8FEFFFF00FCFFFFFF03E0FFFFFF1F00B1
:1033600040420F0058BFFC071CB5044600F0B2FEF7
:1033700001A800F0B1FD002C00D01CBD00F054FEEF
:103380001CBD000010B55D21C548415C1030002215
:103390008A4204D218C81C600030521CF8E710BDE5
:1033A000F8B5424C01252580414EF08CC00519D559
:1033B0004048407C012803D101F000FA1B2811D8B5
:1033C0003D4F3888C00400D4208CFF201C303B497E
:1033D00008801B2001F0FCF9F88D2843F885F08C5B
:1033E0004007FCD5364837A118225BF785FE3BA085
:1033F0003D498CC88CC1FDF7DEF93C483C49016071
:103400003C48C16F002901D13B49C1677B21405C29
:10341000002807D103F0E0FC38480021416001702A
:1034200002F0D6FEEFF3108085F31088A9023288EF
:103430000A433280002802D085F3108802E0002081
:1034400080F310882E482021018082881C2313439A
:1034500060229343838083880322934383808388FD
:103460008026B3438380134B1F7CFE243C401C7496
:10347000002484810489344304811C7CF126264085
:10348000B41C1C74038913437C2293430381028878
:1034900040239A43028002888A43028000F068FB3E
:1034A0000249888928438881F8BDC046000300503E
:1034B00004000050789AFC0752000050A8B7FC079F
:1034C00020000840F99DF00700000000E3A1F1078B
:1034D000000000004FA4F107000000000302FC07F9
:1034E000FD04FC073F06FC07C000FC070000084085
:1034F000070010004899FC0706110000C899FC0756
:103500000012005003480188034A11408918091D20
:103510000180704712000050FC7F0000F8B504469F
:103520000026234F302E0FD0BD19E88AFD2801D187
:10353000064969605DF7E2FE002803D082682846EC
:10354000214690471836EDE7F8BDC046F876FC07EF
:10355000B0B50025164C002815D0012D27D8E08ADB
:103560005DF7CCFE002802D0416820468847002045
:10357000E0816060A060FF20E082207D59F793FC2D
:1035800018346D1CE9E7012D11D8FF20E0820020DE
:1035900020606060A060E060206128461030C0B20A
:1035A000A082214659F725FC18346D1CEBE7B0BD0D
:1035B0009896FC0780B5014605480068002803D0AE
:1035C00004A05DF79BFB80BD084601F08BF980BD30
:1035D000C898FC0725630000B0B5C84DE9780129FB
:1035E00022D11349002803D008884007FCD402E008
:1035F0000888400718D40023EB70C8888988000425
:1036000044181F204006492122465FF729FF094A36
:103610009062D16264214143080CA8660648604369
:10362000800B401C40082867B0BDC046789AFC0754
:1036300000160050F89AFC071111010010B500F0B7
:1036400035F85C211648415C00228A4204D218C831
:103650001C600030521CF8E7FFF794FE00F01AFBE4
:1036600001F048F90F4908880F4A0240012043023F
:10367000D2180A804105E14A13688B431360810721
:1036800000224A671F2212044B6F9343400418180C
:1036900048670868E0220243102082430A6010BD98
:1036A0003896FC0738300050FFFC000010B5D54CB0
:1036B000082020701120FDF7D3FA0320607010BDA0
:1036C000F0B585B040480321029101703F4E30466D
:1036D0001438016814220A436B218A430260B06ADD
:1036E00000900122D743781CB06230683849084006
:1036F0003060706837490840039291020191401888
:1037000040307060B0693449084034494018B061B5
:1037100043203071029D012F3DD002202A4C607061
:10372000FDF780FA2F4A10688005C00E2E490870F8
:103730001F2040011168814311600398607028497F
:10374000086828430860FDF777FAFDF77AFA2570D4
:1037500026480468002F03D0FEF720FEFDF767FA25
:10376000306804900498224908400490E005410C18
:10377000081804990143049104983060002F08D080
:103780004120307113487030716801400198014345
:1037900071607F1CBFE77068039988437060009870
:1037A000B06230680A4908401C2101433160B069A9
:1037B000094908400F490143B161FEF7EFFDFDF7EC
:1037C00036FA05B0F0BDC046051000401830004084
:1037D000C07FFFFF8FF9FFFF00F0FFC01806001643
:1037E000AC1000404C120040D9B7FC0788300040B4
:1037F0003F807F009E07001C7047000080B5FFF7E8
:1038000055FFFFF7BFFD00F045FA01F073F8FDF733
:10381000AAF9FEF7D5FA7B480221817000210180C8
:1038200080BDC046002070477047000080B51F2053
:10383000000401218A07536F834348041818506716
:1038400010680721884310600848018808220A434D
:103850000280FFF7F3FEFEF7C7FA6A480221817083
:10386000002101800520FDF7A7F980BD0800005068
:10387000704780B5E62800D3E620282800D8282005
:10388000F9214A0042437D20C10010465BF7BAFB94
:103890007F38C0B280BD00000548016807220A4396
:1038A00002600120800455490A6882430A6070471B
:1038B00030000040022901D001290AD100280FD090
:1038C000FF2811D00B48C82101800B480821018036
:1038D000FEE70848C8210180074808210180FEE76B
:1038E000022901D10C2070474848807D002800D073
:1038F000092070470031005002330050789AFC07CD
:10390000F8B53E480168C90703D0016802220A439E
:10391000026001240168490203D5A10502680A4337
:103920000260270265023649009508460838066895
:10393000002E62D0300606D58020086049F7A7FF28
:10394000FEF796FA2E49B00704D50220086045F725
:103950009CFE2B49300714D508200860FCF7EEFECA
:103960003D4627460024204645F748FE24490420CA
:10397000F54AD0740220234A907014803C462F46AA
:10398000009D3E4204D00F60012045F737FE1C49E0
:103990002E4203D00D6049F7E3FF1949700604D5A4
:1039A0004020086045F725FE1549F00604D5102093
:1039B000086044F7E1F9124970070FD50420086048
:1039C00011490888A043088059F77EFD3EF738FE6C
:1039D000FEF74EFA0A490020DB4AD074F00707D000
:1039E0000C6059F78DFD49F752FF0549D648C4745C
:1039F000B0069AD52020086097E7F8BD0002004085
:103A0000180000400410004008330050789AFC076A
:103A100080B5014602A05DF771F95DF781F980BDBF
:103A20000D0A257300000000F8B50446FFF788F87A
:103A300000280FD07627944EF05D052811D17588A7
:103A40002046FDF72BF9401C82B22846214603F0A0
:103A500073F9F8BD0720FEF76FF91B48FFF7D8FF91
:103A6000F8BD002C1AD02046FDF718F9002812D016
:103A7000401C002158F7B0FE00280CD00546214616
:103A8000FDF721F90820002158F7A6FE0146456000
:103A90000E483FF719F8F05D0528E1D0FD203EF70C
:103AA00092FE01460A480422072358F7A3FF01218A
:103AB00041703822074B9A5C027081718180062127
:103AC000418058F7B2FFF8BD7D7BFC07649BFC0783
:103AD00006FD0000F89AFC0724484021418008496F
:103AE00001827B21684A515C002903D0202101809A
:103AF000002102E0202141800121C1817047C046A0
:103B000002030000F8B50090032005022124174F9E
:103B10002D2C29D02646213E5B48005D092810D176
:103B2000F0B20A215BF76EFA01208840009A002A61
:103B300001D0388000E078804800381885805248ED
:103B4000005D0A280ED1F0B20A215BF75BFA012072
:103B50008840009A002A01D0788000E03880480030
:103B600038188580641CD3E7F8BDC0460230005089
:103B7000FEB5FFF7B1FF7B20434A105C019043483C
:103B8000841C03210902907E02902D27392F65D0D5
:103B9000D3190C3B1B785D1E0D2D5CD83E462D3E87
:103BA0007D442D796D00AF44060606170F0F1F26C2
:103BB000565656562D3A0120B040344D2880FF20ED
:103BC000C0431B02181845E0032E44D80120B04022
:103BD0002E4B18800F203DE00123B340D05D00281C
:103BE00031D02A48801E2FE00120B040274B18809A
:103BF000084609302EE00120B040244B18800846CA
:103C00000A3027E00298002825D00123B34001980C
:103C100000281CD01D48801E038000201AE0029856
:103C2000002818D00120B040184B9B1E1880019826
:103C300000280AD1084614302080154D2868022338
:103C40009843286007E011480380218003E00F4873
:103C50000380132020807F1CA41C97E70B48821E42
:103C6000022313800A461D328280102202800A46F7
:103C70001C324281012202801B31418008210180D7
:103C80001A210181FEBDC0464899FC07043000504E
:103C900010100050B0B50020254948280AD00A1855
:103CA000536892680C5825689D431A405219226047
:103CB0000C30F2E700201F4980280AD00A189388A8
:103CC0000C5825889D43D2881A405219228008300A
:103CD000F2E719481949018019481A4901607D48DD
:103CE000807D002802D1C120410100E01749184819
:103CF000016005218902174A1180491D9180FF2129
:103D00006C310B46C9331385134B1C460E34948516
:103D1000124C14869386E31D1387114A114B1380AE
:103D2000114A11802131918010494166B0BDC046D1
:103D3000EC77FC076C77FC07223000408888000095
:103D40008000004059055C07789AFC07201800099C
:103D50000010004028130040260A0000510800000F
:103D60002C200040070F00000012004050015001BD
:103D7000042809D806A1095C074AD17107A1095C8A
:103D8000517008A1095CD170034908707047C046A2
:103D90000502010005000000AC7FFC0700000303E2
:103DA000000000000D0501010D000000F8B55620CF
:103DB00010490E5A474FBC6E304660430E494018BA
:103DC0000E495BF71FF9054638873C3666430A48BB
:103DD00030180A495BF716F9001D0949C860281810
:103DE000C01D4861FEF7E6FE0649401880B259F74B
:103DF00095FBF8BD3896FC0720A1070040420F0054
:103E0000A8B7FC07E204000010B5BE498A88520634
:103E1000D20E1CD0530813439C081C4312092243A2
:103E2000130A13431A0C1A43D24353081F4C1C4065
:103E3000121B1F4B94081A401C4012191309D21868
:103E40001C4B13401C4A5A43120E1D3A00E0032239
:103E50000B881F24A3430B800B8802241C430C8077
:103E60000B8804241C430C800B8801241C430C8009
:103E7000D3175A40D21AD2B2022A01D3030C0B85AF
:103E80000884088BC004FCD4022A02D3088D0204E3
:103E900002E0002A03D00022888B104301E0888BC7
:103EA000C0B218228A5E002AFBD410BD5555555564
:103EB000333333330F0F0F0F01010101E94801883C
:103EC0002022914301800349097C0907490F81841D
:103ED0007047C046789AFC07FEB50446234D287803
:103EE000002800D0FEBD00F095F80028FAD1204A45
:103EF00090881C210143602081439180FFF7DEFF01
:103F00009F201C4FB84700263046B84702903046E5
:103F1000B84701903046B847154A96841188134631
:103F200020220A431A8002990906090A019A1206F8
:103F3000120C5118C0B20818D4D0EF21CB430E494F
:103F40001A460C320ED0CB18F4269B5998421346D1
:103F5000F7D188180146E4314CC94CC5E421405CD6
:103F60002070FEBD05A00EC80EC5FEBDDCB7FC0767
:103F700000120050093EFC071C72FC070000000004
:103F8000000000000000040010B5044600F042F8F4
:103F9000002800D010BD00F035F90028FAD1A8485B
:103FA00001887C220A430280012040070443204606
:103FB00000F048F9002010BD10B500F02BF80028E3
:103FC00000D010BD00F01EF90028FAD100F074F8FE
:103FD00004468B480078142803D12007800F03D1B2
:103FE000EFE76006C00EECD000F014F80028E8D12E
:103FF000934801883C220A4340218A43028083205F
:10400000044001200002201800F01CF900F07CF8A8
:1040100010BDC04680B500F04FF801210140484274
:104020000D21884380BD000080B5FFF7F3FF002815
:1040300000D080BD824801881C220A4360218A4347
:104040000280B92000F0FEF880BDC046F8B51C46DD
:1040500017460E460546FFF7DDFF002800D0F8BDE5
:10406000804A90887C2101439180B9196448806816
:10407000814200D9871B2760FFF720FF032000063D
:1040800006433046FFF7C0FE764FB8881C21014337
:1040900060208143B98000262068864205D2002036
:1040A000FFF7B2FEA855761CF6E70020B8843988E1
:1040B00020220A433A80F8BD80B5614801883C223D
:1040C0000A4340218A4302800520000200F0BAF82A
:1040D00080B280BD80B5FFF7F1FE62480021818487
:1040E000018820220A43028081881C220A43602121
:1040F0008A438280AB2000F0A5F84B208000FCF7BB
:10410000AFFD80BD00120050B0B50025074C611C0A
:10411000A94205D06D1CFFF7CFFFC007F7D1691E7C
:104120000020A14200D9C043B0BDC0467F841E001C
:10413000F0B587B000930E460490414F38881C219B
:10414000039108436021029188433880FF242C4862
:104150008068831B934200D31346344300251A46DC
:1041600001939D4246D29019A04201D8069202E0E6
:10417000A01B401C0690FFF74DFF00283DD100F02A
:1041800041F8002839D1059438887C2101433980D1
:10419000FFF794FE0124600606433046FFF734FE25
:1041A000388803990843029988433880069886B274
:1041B000FF2E00D9260204984719300405D038781C
:1041C000FFF722FE761E7F1CF7E700201C4F388485
:1041D000381F018820220A430280FFF795FF00283C
:1041E0000BD106984519019B5A1B200205990C1802
:1041F0004E1CB6E700980560002007B0F0BDC04631
:10420000DCB7FC0780B5FFF705FF002815D10C4887
:1042100001881C220A4360218A430280062000F0A4
:1042200011F8FFF771FF002807D1FFF745FF80075E
:1042300001D5002001E00B20C04340B280BDC04644
:104240000412005010B50446FFF738FE2046FFF771
:10425000DBFD044900228A840A88202313430B8053
:1042600010BDC0460012005070B50C460546FCF764
:1042700015FD06462046FCF711FD301A2818214688
:10428000FCF713FD4142484170BD000080B58878BD
:10429000002812D04868EB49C860E948007F014611
:1042A0001239022909D3801E012803D8002000F00A
:1042B00061FA02E0082000F06FFA002080BDC046DD
:1042C000F0B59DB0DE48077F0820132F00D9CEE05F
:1042D0000D468978002900D1CBE0DA4E34690523F8
:1042E000002C20D0F90600D4C1E0EA787669B01835
:1042F00080281AD80A93C3488019291D5AF7FCFE52
:10430000E8783018CF4E7061844200D0ABE02025B1
:10431000CB4B585D00218C4209D0BA4A525C5040C8
:104320005855491CF7E71846A1E007209FE0132FD6
:1043300073D10BA8FDF78CFBFDF748FB7769B069DB
:10434000002F6CD000286AD11220402F09907FD313
:10435000AC49087870287BD14878512878D14C68CE
:1043600020464030F0611F2001030DA80C22FDF70C
:104370000FFB162200286AD40DA800781421099199
:10438000702865D10DA84078522861D1132009907A
:10439000002C5DD00F980E990890401A4038844246
:1043A00056D814460DA840220291FDF7F1FA0028D4
:1043B00062D40DA8817800230122AA2906920592D1
:1043C000039307930493019763D10DA90A780023FF
:1043D0000793702A57D14978512906990591079971
:1043E00003910491E04EE14953D1C078049008460E
:1043F0000C300DA90C3110225AF7A2FE00210591B4
:1044000000283BD1D948C0691499884236D100218F
:1044100006980790059103913AE008241EE0C2191E
:10442000F1694B1C0624934213D3914201D20F1A17
:104430007761B1680918CD483A46FDF75DFA002862
:1044400007D47069B1690818B061022401E00992CB
:10445000099C00207061B06900F08CF9204600F0E2
:104460009BF9346970690A99A042084601D900F0A5
:1044700093F900201DB0F0BD0994E9E70598079075
:104480000698039004E0069805900798039004901E
:10449000B54E0DA840220899FDF77AFA0028099434
:1044A000D6D40DA881780026AA291AD10DA90A7898
:1044B0000026702A15D14978512912D1C478AB4809
:1044C0000C300DA90C3110225AF73AFE00210028B9
:1044D0000BD1A648C069149A904206D100210E461D
:1044E00005E006990696344601E0069E0691059879
:1044F000002811D00DA8801C3E21FF225AF70EFE85
:104500000798002813D198480299816006980643BD
:1045100004940796089129E000290BD00DA8801C6F
:104520003E21FF225AF7FAFD0698002817D01520E1
:1045300009905BE0204604990840FF28DAD00498EF
:10454000FF2801D1002CD5D00498002850D1FF2C91
:104550004ED10DA84021FF225AF7E0FDE4E7824842
:1045600008998160079803990843079007980028E5
:1045700001D1012401E00498441CD548007F0621A4
:104580000991132832D101210898FDF777F9002805
:104590002CD10DA8C470754B59689A680E910F9272
:1045A00019460C3102460C32D8C9D8C26F4A515D47
:1045B000415511880180D0691490C548007F1328A7
:1045C00014D1694881680DA84022FDF795F90028AB
:1045D0000CD4654EB16865484030019A403A40318C
:1045E000FDF78AF9002800D42BE731E75E4E2FE76C
:1045F0000DA8801C3E21FF225AF790FD0498A0428E
:1046000092D87DE71C97FC0780B5887800280DD0EC
:104610008888002807D0AE49097F132906D8C90623
:1046200006D4082000E0052000F0B6F8002080BD88
:10463000812801D30720F7E74B490861F6E7C04618
:10464000789AFC07F89AFC071FB58878002800D1F3
:1046500087E04968080E8A0E042A11D89C4A107710
:1046600089B2414A9160002801D0012802D13F4916
:104670007C319160FE220240122A01D1032920D20E
:1046800001461039022911D30146123902290FD3EC
:10469000FD281AD0FE2824D0FF2829D1FDF71CFAC6
:1046A000314800210161416103200BE0082009E04D
:1046B0000120FEF759FE864C207FC0061FD5102032
:1046C0001EE0112000F068F848E03A202649085C16
:1046D000FF281FD02421F34A012353545EF750FFD3
:1046E0003CE02021EF48415C002917D004202CE059
:1046F000082000F051F8EB48142101772EE0082043
:1047000000F04AF82020002121541748016141613E
:10471000816123E016483EF729F81FE003A9AA2289
:104720000A70007F13280FD101A8FDF791F9FDF75A
:104730004DF90D488068811C03A80122FDF7DCF8C3
:10474000010602D1022000E00620C0B200F024F8E9
:10475000FDF7C2F90448002101614161002000F029
:1047600009F8002004B010BDF89AFC071C97FC075C
:104770001111111110B50446FC203EF724F8014632
:1047800004480422134658F735F9046058F74DF9E8
:1047900010BDC04604FC000010B50446FC203EF7E6
:1047A00012F8014604480422134658F723F984708E
:1047B00058F73BF910BDC04605FC00000E480188C3
:1047C000890918220A4000888004400F8018704729
:1047D00010B51F21490282010A4007490B88074C86
:1047E0001C4014430C800A88054B13404007800C82
:1047F0001818088010BDC04654000050FFF9000092
:10480000FFC700007047704710B539498A89802377
:104810001A438A81C2B2064C228082B2120A0A80EE
:10482000000CC0B2888088899843888110BDC0463A
:10483000C010005080B500F01FF880BDB0B5994899
:10484000818E4C424C41C26C037A29491C40012C98
:1048500008D18C8AE4070ED00C8801258586147057
:104860000024F3E78A8801239A438A80816D002916
:1048700001D0808E8847B0BD024801884906FCD52A
:104880007047C0461410005010B5864B00241C869B
:104890005A65986499850F4904200860BFF34F8FCB
:1048A000BFF36F8F0C490A88022414430C800A88D6
:1048B000802414430C80FF210904084A14688C43A7
:1048C000197B8907090A611811600549086010BD44
:1048D000789AFC0780E100E00410005000E400E05A
:1048E00000E100E002498A8A9206FCD50880704700
:1048F0000010005018B50848016800910099074A57
:10490000009B1A40FF2424040C40D9B20919044B1F
:10491000C9181143016018BD8000004000FF00FF6E
:104920000A000A0070B57926F14DA85D002802D072
:10493000FCF7EEFE01E0FCF7DFFE04465820295CA0
:10494000E1722A5C20460C3029463C315AF7D4FBF0
:104950007520295C00290CD0AA5D002A09D02B22E1
:10496000A1542A5C20462C30294659315AF7C4FB01
:1049700002E02B2000212154688FE080A080A85DF8
:10498000002809D001206072FCF7C2FE58F74DF8EC
:104990000C48002101600DE003206072FCF7ACFEC2
:1049A00058F743F8074800210160042058F768FAD7
:1049B000032803D00420022158F74DFA7720012163
:1049C000295470BDC896FC07F8B505467627C84E31
:1049D000FCF760FE0446F555457003202070104931
:1049E0001831201D06225AF787FB2A20002525545E
:1049F000A576308A208420460A3010215AF795FB8C
:104A0000204658F712F801480560F8BDD096FC071B
:104A100080B50349183106225AF76EFB80BDC046A7
:104A2000A8B7FC07F8B504460878002811D14878E3
:104A300001070ED41A49097804290AD10125400733
:104A400001D5284600E00220FFF792F925201549FC
:104A50000D54A00013490E18756F7436002D18D12F
:104A600021020A31104804221E2357F7C3FF0546CE
:104A7000012404703060801C094F791C07225AF70A
:104A80003BFBB878012803D1F878F7210140297160
:104A90006C70284657F7C9FF00203060F8BDC0464B
:104AA000AC7FFC07789AFC07140E0000B0B586B006
:104AB000044648780022032815D0022819D001287E
:104AC000134611D13DF71BFF0E495AF79BFA0E48CA
:104AD0000A1805926D460DA12846FDF713F92846E0
:104AE000FEF796FF0422012305A92046FCF768FE85
:104AF00003E07820024901220A5406B0B0BDC04646
:104B00004899FC07A0BB0D00A08601000D0A2B50A0
:104B1000494E3A253036750D0A000000F8B5009070
:104B20000C48031D2124BA4D2D2C0DD02E5D8E4234
:104B300007D12646213E00272F550122B240028090
:104B40001F80641C9B1CEFE70098281821228154C9
:104B5000F8BDC046023000500121C1757047000009
:104B600070B504467620AA4E305C0A2801D002288F
:104B700025D17720305C002821D1A07A0221014381
:104B800003291CD1FDF7DCFF002818D1E07A0128A9
:104B90000FD100252046294601F08CFD81B26439F1
:104BA000084A91420AD80005000C0A215AF72AFA4D
:104BB00000E003487087FFF7B5FE0125E57570BD7D
:104BC0004C040000540B0000B0B504467620904D14
:104BD000285C0A2801D0022814D17720285C0128FB
:104BE00010D1A07A0221014303290BD1FDF7A8FFC0
:104BF000002807D15EF7E2FC77200021295401202C
:104C00000002E082B0BDC046F8B50446C07A012873
:104C100029D0002835D138480288D207FCD137483E
:104C2000828980231A438281354A128805888688C2
:104C300087899F4387810F201040702232401204E1
:104C40002B061B0CD21812180020284B1D58AA4204
:104C500019D008305028F9D12A4B2BA20846194602
:104C6000FDF750F8F8BD207B216800250095081855
:104C70000A216A46FDF770F800280ED00D20207634
:104C8000F8BD002007E018184268264B0846194670
:104C9000FDF738F80120E075F8BD144800990A2D99
:104CA000ECD042688A4202D008306D1CF7E7092D2B
:104CB000E4D805680E48C5670020A075A07A0228D0
:104CC00003D10C48FEF7B0FE0BE00626094F300476
:104CD00005D03878FFF706FE761E7F1CF7E7FFF752
:104CE000CBFD2846FFF790FDD4E7C046CC75FC0706
:104CF0004899FC077D7BFC077C1000500010005099
:104D0000C0100050047EFC074572726F722064650B
:104D10007465726D696E696E672062617564207278
:104D200061746500BF7CFC07FEB50D46009013481A
:104D30004768006801A98F8001900524002012A611
:104D4000002C0BD401A90A5DC0B228183146FCF72B
:104D5000D9FF2846FBF7A2FF641EF1E7401EC0B250
:104D60002818F90301D407A100E005A103225AF78E
:104D7000C3F901200099C875FEBDC046240000405B
:104D80002C5200002C500000253032583A00000010
:104D9000B0B504467620BB4D285C052801D00A2812
:104DA00003D17720285C002800D0B0BDA07A01286C
:104DB000FBD1042058F764F80328F6D079200021AD
:104DC00029540220FFF700FE01200002E082B0BD5E
:104DD000B0B504467620AB4D285C0A2801D00228E5
:104DE00003D17720285C002800D0B0BDA07A01282C
:104DF000FBD1FDF7A5FE0028F7D179200021295429
:104E00000520FFF7E1FD01200002E082B0BDC046B1
:104E10004899FC07FEB50446C07A022811D00D4619
:104E2000002848D1002D4DD04E4EB7782846FBF7CC
:104E300035FF2818AA2F47D18621735CC549012563
:104E400045E0207B617B2268002602965118019183
:104E5000101802AA3146FCF77FFF012500282F46D3
:104E6000314608D10298FF2803D001282F46314649
:104E700001D1C1B20027009102AA01983146FCF786
:104E80006BFF029901292A4600D83246002828469D
:104E900000D11046002813D1002F11D10098FF280F
:104EA00019D130488278AA2A01D186228154284615
:104EB000FCF7D6FF20E01349134A2846FCF722FFEF
:104EC000002519E0012517E00C4901250C4B2A4665
:104ED000FCF718FF10E0012601280CD12148827848
:104EE000AA2A08D18622835CCFB2BB4203D0815468
:104EF0002846FCF7B5FF3546E575FEBD967BFC07F9
:104F0000AF7BFC07047EFC079E7BFC07BCB5044618
:104F1000C07A01280CD1207B216800250195081852
:104F200001AA2946FCF718FF002804D0E575BCBD8E
:104F30000020E075BCBD0198012806D0FF28F5D1FE
:104F400001252846FCF766FFF0E70648002181703E
:104F500008307F215AF7E9F801252846FCF780FF41
:104F6000E4E7C0463C98FC07F0B58BB00C4605461C
:104F7000FDF7E6FD0121E975E97A04290DD0002944
:104F800072D1404883894289C189807D0091019016
:104F90003DA12046FCF7B6FE6DE00A9000272846AA
:104FA000394601F087FB069081B2062902D33348C7
:104FB000814200D3EF75089101212846059101F047
:104FC00079FB049080B2079080087D2800D3EF75AC
:104FD00002262846314601F06DFB84B2642C02D3D0
:104FE0002748844200D3EF7509970A273846604363
:104FF0001921089A51435AF705F80890039420465E
:105000003946099F59F7FEFF002904D10898401E30
:105010000799814200D9EF750321284601F04AFB28
:1050200004460004800C00D0EF75264070427041A9
:105030000A9908431BD0E87D00281AD005990C4036
:10504000104DAC750398E8810498A8810698688192
:10505000002E03D02976002001F008FE002C0AD093
:105060002F76FCF7BDFC06E00020E87503E0102079
:1050700000E00E2028760BB0F0BDC046810C000089
:10508000017D00004899FC072569202569202569D4
:105090002025690D0A000000F0B585B00D460746D1
:1050A0000020F875F97A022915D000294BD1009714
:1050B000002D45D03227264C264E362F40D0E35DBA
:1050C00028183A46313A3146FCF71CFE2846FBF7D1
:1050D000E5FD7F1CF1E77C7B397B3E68002504956C
:1050E000039501A88571194A82807118019104A95C
:1050F00001F0FAFE002826D401A8857101252902B5
:105100008180311901910499491E049103A901F08C
:10511000EBFE002817D40398411E884104990A0623
:10512000920E0BD1C9B20A4A511832228A5C8242CD
:1051300004D0323108700120FDF75EF9FD7502E000
:1051400001200099C87505B0F0BDC04601040000FB
:10515000F89AFC078E7BFC07FEB50446C07A03284C
:105160000DD0002817D12F48C37E827E407F00904B
:105170002EA508462946FCF7C5FD01200CE00025B8
:105180002046294601F096FA0106490E06D00E2067
:105190002076E575FEBD0020E075FEBDC0B2411E63
:1051A00002468A411F4EB27600282FD001212046A8
:1051B000029101F07FFA07460221204601F07AFAB7
:1051C0000146F8B20C28E2D8CAB20D2ADFD27177B4
:1051D000F776B17737770E211546FFF79FFC0D2143
:1051E0002846FFF79BFC307F029D294681400E4AEE
:1051F0001180911CC5239B0040004352B07F2B4679
:1052000083401380400013224252C2E7F07E2946B9
:10521000FFF784FC707F2946FFF780FCB577357770
:10522000ABE7C0464899FC070430005025692025AB
:10523000692025690D0A0000F0B589B004463D4992
:105240007620085C052872D17727C85D00286ED1CA
:10525000A07A01286BD1FDF773FC002867D1607B31
:105260002168085C02210143522960D1607C112829
:105270005DD131A0FEF7CCFB607B2168085C039018
:10528000207B06AA0026967045181035062E0ED0F3
:10529000297806A84170691E097801700021102242
:1052A000FBF72AFD07A98855ED1E761CEEE704A939
:1052B00001910898888007980490234809210425C3
:1052C0001D232A4657F796FB0646012002903075AB
:1052D000304615300622019959F70EFF03995239CD
:1052E00048424841F0760A2070814521718231821E
:1052F00030810020B0814B208000F0811720000217
:10530000F0800320C002B08013203080304657F771
:105310008CFB0221284657F79EFD0648C5551920EB
:1053200040010A49FCF778FA02980002E08209B0CD
:10533000F0BDC0464899FC07434F4E4E4543544983
:105340004E470D0A00000000110D00009927FC07D0
:10535000B0B50446FDF7F4FB002814D00AA0FEF710
:1053600057FB7720324906220A540B480A210422AF
:10537000022357F73FFB132141700125057057F7B2
:1053800054FB2802E082B0BD444953434F4E4E4582
:105390004354494E470D0A00040E000070B5044600
:1053A000144D7620285C052823D17726A85D002897
:1053B0001FD1A07A01281CD1FDF7C2FB002818D10B
:1053C0000DA0FEF725FB0220A8550E480921042256
:1053D0000C2357F70FFB0125857200210181052160
:1053E000C1800A2181801121018057F71EFB28020C
:1053F000E08270BD4899FC075343414E4E494E47E9
:105400000D0A00000F0D000070B50D460446762011
:105410000749085C401F46424641FDF791FB0346A1
:1054200004A128463246FCF76DFC0120E07570BDF2
:105430004899FC0725642C2564000000F0B587B06E
:105440000646C07A02283AD001286AD0002800D047
:105450008BE00D4604960124524F2046B84706467D
:1054600002200190B847009003200390B8470290B3
:105470004D4F002E3B4600D033464C494C4E2846FB
:105480002246B0472846FBF709FC009900293B4615
:1054900000D00B4628184549019A454EB04728468A
:1054A000FBF7FCFB0299002900D00F4628183F4962
:1054B000039A3B463E4DA8470498C47555E0747B5B
:1054C0003568307B281805A901F014F9002847D069
:1054D0000496002D49D02D192846FBF7DFFB064620
:1054E0002C46002E41D0FBF7CBFB21780068405CB6
:1054F000C007761E641C0028F3D105A8077828464B
:10550000FBF7CCFB312830D806469B20C04324490A
:10551000002841D00C189E22A25CBA4227D0343019
:10552000F6E7307B3168081806A901F0E3F8002897
:1055300016D0049606A806789B20C7430125184C70
:10554000002F10D0E0199E21415CB14206D19F305E
:10555000332159F7EAFD2846FDF7E6FA3437EFE73D
:105560000D20307601E00498C57507B0F0BD2746E0
:10557000A0373221384659F7D8FD01200390FDF7B6
:10558000D3FA9F200399215438462946324659F7C9
:10559000B3FD0398FDF7C8FA01200499C875E4E744
:1055A0009C97FC07C966FC07AF7BFC07967BFC0752
:1055B000051DFC07F0B5BBB00D46044626AF4B21D8
:1055C000384659F7B2FDE07A022824D0012842D1AA
:1055D000207B216808180026079607AA3146FCF7A9
:1055E000BBFB00283AD10798012837D10494894998
:1055F0000E3126A81B2259F77FFD0024864E2F4628
:105600001B2C2ED026A8025D38463146FCF77AFBCB
:10561000BF1C641CF4E7607B21680A187B4928469C
:10562000FCF770FB0026002D69D006972846FBF793
:1056300035FB962863D106984430069028468B3077
:105640000021734F04295DD07A5CAA5C491C3B2A77
:10565000F8D0002653E00020E07551E00D202076C0
:105660004DE02846FBF71AFB3B2106912954694976
:105670006D3126A8192259F73FFD2846FBF70EFB8E
:105680002F180024644E192C08D026A8025D384635
:105690003146FCF737FBBF1C641CF4E72846FBF7D8
:1056A000FDFA069929545B49463126A8102259F77C
:1056B00023FD2846FBF7F2FA2F180024564E102C33
:1056C00008D026A8025D38463146FCF71BFBBF1CFC
:1056D000641CF4E72846FBF7E1FA069F2F54862066
:1056E0004C490E5C8C682846FBF7D8FA00942818C1
:1056F0004AA132463B46FCF705FB0126049CE675B1
:105700003BB0F0BD017800263029F8D14078FE2169
:1057100001403029F3D1049439A800248470224632
:10572000952C1DDC00200592042804D0395C401C17
:105730008C42F9D1641C295D39A801702919497876
:10574000417000260796102107AAFCF705FB0028E8
:10575000D4D126A80799059A8154521CA41CDFE7CE
:1057600007AD6221284659F7E0FCA81C26AF1B2292
:10577000394659F7C1FC2846613039461B31192298
:1057800059F7BAFC28463A3034371022394659F7CF
:10579000B3FC1520287006980178059101790391D2
:1057A000C1780291877844783AAEFF20307039AAE8
:1057B00028463146FCF752FE2006390408180299A3
:1057C000090240180399401832780021FF2A0691F7
:1057D00000D011468C000F4A96681746083738519A
:1057E0007924295554188627059BE3559478AA2CCB
:1057F00000D0069E8642049C00D80646701C50606D
:105800002846FCF71BFB012679E7C046047EFC070F
:105810001C76FC073C98FC07957CFC072530325829
:10582000256325303858000010B50A460446034960
:105830001046FCF767FA0020E07510BD9E7BFC0760
:10584000F8B50E4604460025294600F033FFC7B2DE
:105850000C2F01D9E575F8BDE07A012810D1C348B5
:10586000C0192121405C401E0328F4D81248028848
:10587000FA4001252A4011493046FCF743FAE9E78E
:1058800001252046294600F015FFB849C9192122F3
:105890008A5C042ADFD1C2B2012A06D0002ADAD1FA
:1058A0002A46BA40044B9A8003E00122BA40024BD8
:1058B0005A802D228854CDE700300050BF7CFC0771
:1058C000FEB50446C07A012823D0002810D10D4629
:1058D00002942127534C54A62D2F1BD0E35D1C2B83
:1058E00004D0284631462A46FCF70CFA7F1CF3E721
:1058F00000262046314600F0DDFE07460121204605
:10590000029100F0D7FEC5B2E37A032B06D1042D35
:1059100004D0FEBD01200299C875FEBDFFB2414909
:10592000CA192121515C1C290BD00B2F09D81B2D22
:1059300007D8062F05D0052F03D0042F04D8022F37
:1059400002D00C202076FEBD39490988C905890F8F
:105950000FD0022FF5D0491E02290AD8C902090A20
:1059600001901046334ACA40D1B2024601988F4294
:10597000E7D02132691E032901920CD2029B1A46FC
:10598000BA402D494A807A005518FF21C9430202C6
:105990005118A98042E0042D14D10546032B07D1EC
:1059A0000221204600F086FEC0B2401E464246411B
:1059B00003200102002238463346FBF7F9FC029B24
:1059C00028462BE0092D03D0182D1AD00A2DA0D17E
:1059D0000646FDF7B5F8093D002806D06B426B413D
:1059E000032001020022384606E0681E854103209C
:1059F0000102002238462B46FBF7DAFC029B3046B8
:105A00000CE018211170029B1A46BA400A490A801C
:105A10007A00521803210902173191800199087008
:105A2000E375FEBD4899FC072573253032642000DC
:105A30001200005005010A000230005070B5044603
:105A40000020E075E07A01280CD0002809D10D462D
:105A50004DF724FF024616A12846FCF753F9012012
:105A6000E07570BD0021204600F024FE172803DBFE
:105A700005460D48854202D30E20207670BD772062
:105A80000A4E305C0028ECD1A07A0128E9D104202C
:105A900057F7F6F90328E4D03582A8B24DF701FF95
:105AA000FBF79EFFDBE7C046010200004899FC07B8
:105AB00025690D0A0000000070B504467620D14D1E
:105AC000285C052801D0022803D17720285C002813
:105AD00000D070BDA07A0128FBD1FDF731F8002875
:105AE000F7D1792001262E540A20FEF76DFFFBF72F
:105AF00085FFFBF74FFD3002E08270BD7CB50446A8
:105B00007826C04DA85D00280FD0207B216808189A
:105B1000FBF726FD0021A9550190287801A9042250
:105B200001252B46FBF74CFE00E00025E5757CBD0A
:105B300010B50446807A02280FD10C480121C177A4
