:0200000407FCF7
:100000004887FC072501FC072D01FC074501FC077B
:1000100000000000000000000000000000000000E0
:100020000000000000000000000000005D01FC076F
:1000300000000000000000005F01FC076101FC07F8
:100040005D0EFC07A135FC07A526F0076301FC0740
:100050006301FC076301FC07210EFC076301FC0739
:100060002D0EFC076301FC07E90EFC07F30EFC07ED
:10007000FD0EFC07070FFC07110FFC076301FC07CF
:100080007D10FC076301FC076301FC076301FC07AB
:100090006301FC076301FC076301FC076301FC07C4
:0800A00000008E070E000000B5
:0200000407FCF7
:100110000348854600F062FE004800474129FC077D
:100120004887FC070F4880470F4800470420714666
:10013000084203D0EFF309800C490847EFF3088029
:100140000A49084704207146084203D0EFF30980AA
:1001500007490847EFF3088005490847FEE7FEE72F
:10016000FEE7FEE77970FC071101FC07990FFC0719
:10017000810FFC07F8B507460120002302460090D6
:100180001946032049F73EF90446022180300170E8
:10019000FB4DFA482A6843881146FF31F7310B8638
:1001A00080884886F748066A0123DB069E431E4383
:1001B0000662FF320020FF32383250829082D082B5
:1001C0001D200882F0484884F048C882F04808831F
:1001D00000204882384649F755FC01462868FF3020
:1001E000F730C28B920992010A43C283E948416801
:1001F00000208847002C02D0204648F7ECFC20461F
:10020000F8BDF1B598B0189842F721FC044618984B
:1002100005210079E04A4006C00F09906846018434
:10022000618B08460A38904277D2E08A062874D358
:100230001922D201904270D8228BFF23F5339A42C3
:100240006BD8521C9300D2184243521C0A235210FE
:1002500059438A4261DC217F00290CD1617F00294A
:1002600009D1A17F002906D1E17F002903D12021F6
:10027000095DC90651D0274620377978C906C90ECD
:10028000491F0C2949D2A18A814246D8E17C002924
:1002900043D0421E082A01D9082000E0401E8142B6
:1002A0003BD8684646F794FC002836D1B34D062269
:1002B000286221460BA85EF71FFFA8792E46803ED4
:1002C00000287DD06079800901280AD00BA80999FF
:1002D0004CF74DFF010003D03820405C002870D05F
:1002E0009CE0F06A807A012808D0042806D00BA888
:1002F0004CF7AAFF286200284FD055E0686A062212
:100300000BA932305EF71CFF002807D00BA84CF772
:100310009BFF2862002803D013E0EDE0686AF8E74D
:1003200000210BA84CF7A6FF2862F16A897A0129FF
:1003300005D18B071A6849068A430A431A600028C8
:1003400011D0F16A286A0622253010315EF7F8FED6
:10035000002808D1286AF16A2030C07AC97B884217
:1003600001D1286A1EE08D488D490088C96880B295
:1003700006225043081842F76FFB014614A80622D4
:1003800002305EF7B9FE13AA00213C2042F731FE8D
:100390000121B06D48F758F8AAE011A90BA84CF755
:1003A00069FF2862002839D001460A9006220FA86A
:1003B00025315EF7A1FE0A9908AA2031C97A01E029
:1003C00042E025E00FA84CF7B5FD002812D0286ABE
:1003D0002030C07A002809D168467249008C4BF75A
:1003E0001CFD08AA01216F484CF7A4FD68460BA923
:1003F000008C0AE008AA012111A84CF79BFD0028F7
:100400000CD0296A6846008C32314BF71CFD05E0A0
:100410000A18527D002A08D010286DDBF06A407A55
:10042000022806D0032804D00EE0401C1028EFDB81
:10043000F4E76846008C052806D308AA0BA809999A
:100440004CF778FD002857D00022694620464CF72B
:100450001AFE002850D1F06A407A02280BD00328F7
:1004600009D00023684602880BA809994CF72CFE96
:10047000002802D02FE00123F4E7E18A68460181D9
:10048000218B4181618B8181787806224109684600
:1004900081757878C106C90E6846417521460E30CF
:1004A0005EF72AFE189800794006C10F684601756C
:1004B0000388214602A8B26D47F76CFB0146B06580
:1004C00002A842F7E4FD0020B065214668461C31D1
:1004D000008846F7D0FB49F74FFC284C2034207A9F
:1004E000002805D0002109205CF70DFE00202072B5
:1004F000002108465CF7AFFC19B0F0BDF8B52A4CF6
:10050000064685000F4660594C21095C24290ED10E
:1005100040691022791D2E305EF7EEFD61592520CD
:100520004031087300221146304654F7BAFC605936
:100530004C21095C0C291FD140691022791D2E30F5
:100540005EF7DAFD60595F214069095C090746D40E
:1005500001462E3110221E305EF7F2FD002825D014
:100560006059092140300173304655F7B7F901460B
:100570000022304654F714F8F8BD000030BCFC07E8
:100580004CB9FC07C0000040108000002941000069
:100590007671000058BFFC07770C000068B9FC07B3
:1005A00060BBFC0750F5F1073CBEFC070421684620
:1005B00001706A460521304654F79CF96846017877
:1005C0006020014368460170304655F787F90146BF
:1005D000684602780123304654F7F7F8CCE73046F6
:1005E00055F77CF9012809D0605907214030017383
:1005F00000221146304654F754FCBDE761590020F3
:100600004969C031887160590421426930461E32FF
:1006100054F770F9605941694031897F002907D04A
:100620001A21403001730021304654F7C4FCA3E77F
:100630001B2140300173304654F712FD9CE7F8B59A
:10064000614C05468600A0594C22125C192A93D1B0
:1006500040224D30491D5EF74FFDA05940225B49B5
:100660004D305EF76DFD002805D0584928462039E9
:100670005BF7D1FE80E70B21684601706A460521D1
:10068000284654F737F968460178602001436846E8
:100690000170284655F722F9014668460278012381
:1006A000284654F792F867E7FFB581B003980C46E7
:1006B000060A00255CF7E4FB002818D0132816D0A2
:1006C000142814D04248B700C0592030407BC006DF
:1006D00028D503985CF7D4FB15280CD0A07942F7F5
:1006E000A9F9304647F744FA032806D015E0A07967
:1006F00042F7A0F91FE002251DE03548C05920301F
:10070000407B400704D53D21304642F791FE04E08E
:100710003D220021304642F79AFE3D21304646F701
:100720006FFA08E0204610382A49018146812046A8
:100730004EF758FF0125284605B0F0BD2648522245
:10074000006864308188C37E5143244A1268891846
:10075000FF225F32525AFF31120AD21A01310B8C3A
:10076000D2B2DB0B09D00B8C5B045B0C0B84002A30
:1007700003D180881A4A012111547047FFB51746EA
:10078000140A81B0124A0298A100515840780026FC
:10079000134D002907D0295D002905D0002803D179
:1007A000204644F7A9F82E553A46049B0299019831
:1007B00045F733F8C0E70C480A4901600B4941602E
:1007C00070477047704700003CBEFC07FCBDFC074B
:1007D00078BBFC070608000084BBFC074CB9FC078B
:1007E0003396FC070459F007C0000840490C00BFCD
:1007F0007FB5E6486B460188428889186A461180B1
:1008000001214C0022181546403DED8F065B5288B1
:10081000AD19AA18491CC9B21A530729F1D3818905
:10082000C089081881B2D981D888002821D01889B8
:10083000002820D0988800281FD0588900281ED072
:10084000988900281DD0588800281CD000291CD069
:10085000188800280BD00720062254001C5B8C420D
:1008600001D22146D0B2521E52B2002AF5DA04B0AB
:1008700070BD0320FBE70420F9E70220F7E705201D
:10088000F5E70620F3E70120F1E70720EFE7F0B5F1
:1008900095B0EFF310801190012080F31088BC48D0
:1008A000816B4A07520F69460A800A92816B0122C6
:1008B000C908C9008163B7498B8869464B80022407
:1008C000B44B00219980C16A09078B0F69468B8060
:1008D0001093C16A0C2399430831C16205210907AD
:1008E00009880906CB0F6946CB80052109070993C2
:1008F00009888023194305231B071980A649898A83
:100900004906CB0F69460B81A3490893898A402386
:100910001943A14B9982016A09074B0F69464B8124
:100920000C93036A0E218B4303629D4D9B486860C4
:100930009F20A8602888A04328809A4841680B0718
:100940001B0F69468B810B93416809090901083126
:100950004160416849064B0F6946CB81029341686B
:1009600070239943603141608948403801688904A7
:10097000CB0F69460B820D93016843141943016044
:100980000168CB07DB0F69464B820E930168114368
:10099000016041688903CA0D69468A8203924168F1
:1009A000CA05D20D6946CA82049281688903CA0DBC
:1009B00069460A830F928168CA05D20D69464A8347
:1009C00001924168784A11400322D203891841609C
:1009D0004168490A4902FF31413141608168724AE8
:1009E00011400322D203891881608168490A4902B3
:1009F000FF3141318160642000F032F9A8896946F5
:100A00008007C00F8883A8892043A881002400267E
:100A100002256348614F01880122114301800A20A9
:100A200000F01EF9614AA0203968114200D0761CFE
:100A3000401E3F1D0004000CF6D15948818A8904EC
:100A4000FCD16D1E2D062D0EE3D15149886B651C1E
:100A5000C208D2006807400F02438A630A2000F0F0
:100A6000FFF860004949ECB20E52082CCFD3484839
:100A70000A99826BD208D2000A4382636946454ACA
:100A80004988918010998A00C16A0C2399431143C7
:100A9000C1620999CA010521090709888023994380
:100AA000114305221207118008998A013A49898A5F
:100AB000402399431143384A91820C994A00016AB4
:100AC0000E2399431143016236480B99426812097B
:100AD00012010A43426002990A0141687023994356
:100AE000114341600D9841032948403800680122B4
:100AF0005203904308432649403908600E9809681C
:100B000049084900014322484038016003984202E5
:100B10001F48403840682449084010431C4A403A66
:100B2000506004985268520A5202024318484038F2
:100B300042600F98420216484038806808401449C5
:100B400010434039886001988968490A4902014385
:100B50000F48403881601198002800D0012080F3B0
:100B6000108815B0F0BD10B5114C2078002808D0C1
:100B7000FFF78DFEFFF73CFE0E4908700020207045
:100B800010BD02F0EDFB0120F9E7000098B7FC076B
:100B900080100040001200402030005018B5FC07C3
:100BA0000035005040200040FF01FCFFC0C0C0C025
:100BB000F899FC07F699FC0710B5FF221549013298
:100BC0000A60BFF34F8FBFF36F8F13490A60134959
:100BD0000B6840241B0A1B0223430B601049898ABF
:100BE0000021C30700D03521830702D57D231B02D6
:100BF0001943430702D575231B041943000702D587
:100C00003D20000601430648203801630148803832
:100C1000026010BD80E100E080E200E008E400E056
:100C2000A010004010B5062000F01AF810BD10B555
:100C3000092000F015F810BD10B5812000F010F863
:100C400010BD10B5044800F00BF810BD10B50348F6
:100C500000F006F810BD00000102000001080000CD
:100C600000280CD000BF00BF00BF00BF00BF00BF06
:100C700000BF00BF00BF00BF00BF401EF0D17047E3
:100C8000004870474871FC07421C0178401C00294D
:100C9000FBD1801A704710B5002200E0521C835C23
:100CA0008C5CA34201D1002BF8D1D8B2E1B2401A3A
:100CB00010BD03460A780270401C491C002AF9D175
:100CC00018467047F7B5009C0F4600262578641C2F
:100CD000002D05D0FFF7D4FF0068405DC007F5D1B7
:100CE0002B2D02D02D2D18D0641E39462046029A95
:100CF00000F020F8002F04D03968A14201D10099FA
:100D000039607105022400290BDA4042002803DD16
:100D100006F05EF90460A007FEBD012080020643D4
:100D2000E3E70028F8DA06F053F904600048FEBD56
:100D3000FFFFFF7FF7B582B0029C00272078641C7C
:100D400015460197302802D0002D15D015E02078E7
:100D50000127641C782804D0582802D0002D09D01F
:100D60000BE0002D01D0102D07D100271025207891
:100D7000641C02E0082500E00A250026009610E029
:100D80000099012769430818020C294680B2714373
:100D900000908E183804864201D3012001902078FB
:100DA000641C294600F02CF80028E9DA0398002892
:100DB00005D0002F01D0641E00E0029C0460019861
:100DC000002806D006F004F902210160C81E05B013
:100DD000F0BD009930040843F9E70000064C0125F6
:100DE000064E05E0E36807CC2B430C3C98471034D3
:100DF000B442F7D3FFF790F9D07EFC07207FFC07C1
:100E00003A2800D23038202302469A43412A01D39F
:100E100010463738884201D30020C0437047000095
:100E200001480121018070470E1500500A48011F3A
:100E30000988CA0706D0028807239A439F4B9B7BE9
:100E400013430380490706D50188072291439B4A33
:100E5000527C0A4302807047B8100040B0B50520AC
:100E60000007027833210A4302701B4A13885B078C
:100E7000FCD40378CC2213400370904CE38E438063
:100E8000238F9D1E154B5D8007251D8005780D4322
:100E9000057019884907FCD4017811400170418917
:100EA000890703D04189032291434181018980222E
:100EB0000A430281018A042291430182818A8907BF
:100EC000FCD541F72EFAE06D054908600548016838
:100ED00001684907FCD5B0BD08330050001600502A
:100EE000080200401000004080B50A2000F026F8FB
:100EF00080BD80B50B2000F021F880BD80B50C20AE
:100F000000F01CF880BD80B50D2000F017F880BD02
:100F100080B50E2000F012F880BD0000B0B50125AC
:100F20008540054C002B01D0258000E065800A43F8
:100F3000400020188280B0BD0230005070B5C0B2B1
:100F400003460A3B01210A469A4093B20A4C1C19F7
:100F50005C406608094B1C880025360402D06D1CD5
:100F6000760CFAE79443AAB20D46954025431D80BE
:100F700081401348016070BDFFFF01000E14005056
:100F80000348C8210180034808210180FEE7C046CC
:100F90000031005002330050A548018904220A4361
:100FA0000281018840220A430280054901220A6029
:100FB0004189044A11408918091D41817047C04682
:100FC00080E200E0FC7F00007047000070B5294C13
:100FD000C44D294EA0880F210140481E0B28F9D886
:100FE000784400794000874444060521052405051E
:100FF00005050529EEE7AA8D288E90422BD2A96C13
:101000009042E7D2A288C0231340C02B03D132887C
:10101000920703D4DEE7228A9206DBD5421C2A8699
:10102000085C221F1080AA8D288EE9E703F04EFA93
:10103000D0E7286D0028CDD0208ACBE703F046FA10
:101040002088012188432080A86D0028C2D000207C
:1010500005F034F8BEE720880221884320802088EC
:10106000802188432080696D0029B3D0A88D8847EE
:10107000B0E770BD041000507C10005080B5052012
:1010800000070178CC220A4002708088C00611D582
:1010900009488188C9070DD0018809060AD50121B0
:1010A000818001888022914301808E48406C002815
:1010B00000D0804780BDC04600010050E899FC0781
:1010C00007218A0106490B881340934201D1002170
:1010D00004E00988C905490F0622511AC840704723
:1010E000021500504248018802220A43028001880A
:1010F0008907FCD40121C181008A704710B51B49C2
:1011000040220A60BFF34F8FBFF36F8F384900282A
:1011100016D00B88164C1C40038823430B80438851
:101120004B8083881C0600D113438B8082798A719F
:101130003122D2434378DB0607D4408800070CD421
:101140000888012202430A8010BD1346002BF4D008
:1011500000BF00BF00BF5B1CF8E72832002AEFD0B9
:1011600000BF00BF00BF521CF8E7C04680E100E0AE
:10117000C4FB0000FEB51E4C2088029060880190E0
:101180001C48FFF7BBFF20884021014321802089B4
:10119000194A1040012671024018208160891040D0
:1011A0004018608115488047310222880A43228016
:1011B000134EFF368009704303214D0247190F4833
:1011C000804721890C4A11403943218180097043AD
:1011D0004019618911400143618120880849084014
:1011E0002080064880470298208001986080FEBDDC
:1011F000001500508072FC0700FCFFFFE510FC07A3
:10120000FFFEFFFF80B500210A46FFF75BFD80BDB2
:10121000F24801880020090609D5F1490968090446
:1012200005D40448008801210140484248417047E4
:101230000800005054BAFC0770B50C48092104247A
:10124000182322465BF7D6FB05461B202870FD2697
:10125000304662F721FA0021A982E96029616C60B9
:101260006E80687028465BF7E0FB70BD1B0D0000C8
:101270001FB51446002202920192069A00921A4665
:10128000234662F735F804B010BD0000B0B515482C
:10129000C27C1549D4B20C236343CD5CFF2D0AD028
:1012A000012C02D10222C274F4E7521CC274C81885
:1012B000406880470EE0017D0C4ACCB21C2363439A
:1012C000D45CFF2C08D0491C0175D318DB68002BB7
:1012D000F3D098470020B0BD0021C17401750120F2
:1012E000B0BDC046E899FC07B077FC077475FC07F1
:1012F00010B50E480921042252235BF77BFB0446FC
:101300002B2000212154E172A172FF20083020819E
:101310000748E080A080617020460B3022460C32E6
:101320000D21044B62F7F6F8204610BD0D0D0000AC
:101330004C040000EC7DFC07B0B5174D2C68002C68
:1013400019D10E48092104222C235BF753FB0446D4
:101350002860412020840A4820800025658020469E
:101360000A3011215DF7E1FE2585E5846584E5837A
:10137000A5832020E0762046B0BDC046040D0000C5
:10138000030A000080B5FFF7D7FF5BF74EFB02486A
:101390000021016080BDC046D096FC0710B50B4C03
:1013A0002068002800D010BDFFF7A2FF20600C21AC
:1013B000017010BD10B5054C2068002800D010BD8C
:1013C000FFF796FF20600D21017010BDC896FC0745
:1013D00070B504467A2060430B490E187820315CC2
:1013E000012520462A4662F77FF8204600F052FE8B
:1013F0000570317F4174B11C401C10225DF77CFEEA
:10140000204600F013F870BD0898FC0780B500F086
:1014100057FEFF2805D07A214143034840180C307D
:1014200080BD002080BDC0467497FC0710B50446FF
:1014300000F030FE5BF7F9FAA000024900220A50E2
:1014400010BDC046F096FC0710B5044600F022FE21
:10145000002101702046FFF7E9FF204662F790F86F
:1014600010BD0000FEB5029301920E468100114AA4
:1014700057585518002F0AD101020A310E4804248A
:101480001E2322465BF7B6FA074604702860BC1C90
:10149000102120465DF749FE20463146019A5DF74E
:1014A0002BFE0298787038465BF7BFFA0020286060
:1014B000FEBDC046EC96FC07140E0000B0B5002837
:1014C0000FD002461248824212D825482430002408
:1014D00023460A2B19D00568002D10D0001D5B1C77
:1014E000F7E70C48C82101800B4808210180FEE77E
:1014F0000848C8210180084808210180FEE70160F2
:101500005C1CE0B2114600F049FBE0B2B0BDC04641
:10151000FCFF3F000031005002330050F8B5044694
:10152000401E09281AD8A0000D494718386A00281B
:1015300014D00C4DA84211D020370B482018401C65
:10154000042631465BF7DFFD3D600823F448314651
:1015500032465BF74FFA04705BF767FAF8BDC04696
:10156000E09AFC07B944FC0702040000FEB50546FA
:101570000805090B002800D0491C002900D10121D1
:1015800028480540FF200024F74F154E01918C425A
:1015900020D0284602F046FB00281BD102950025EA
:1015A00002F0D8FBC0070CD038880006F8D53068A8
:1015B0000004F5D40B4885420BD06D1C5BF71DFF72
:1015C000EEE7029804490818451C641C00200199A4
:1015D000DDE7FF2040B2FEBDFF0F00000800005015
:1015E0003000004080841E007CB514460D4606463F
:1015F0000C480840884202D12846214608E061197B
:101600000A466A40120B05D0012212038018091AFB
:10161000FFF7ACFF01AB30462946224602F0D6FB6D
:101620007CBDC04600F0FFFFBFB51446089A0A4DC6
:10163000A84206D10878B221304B585400201070CF
:1016400008E00E250295054D019500921A462346A5
:1016500061F74EFE04B0B0BD090E00009072FC07A9
:1016600010B5014601200B4A914211D3121D91423F
:101670000ED8029CF231C8B2800050490918C86BDC
:10168000002803D03C3100220A60804700202070EF
:1016900010BDC0460E040000E0B5D14B1B7E132BDD
:1016A00003D101AB02F020FB8CBD0020C0438CBDF8
:1016B0001FB5144607220292044A0192069A00922C
:1016C0001A46234661F714FE04B010BD1C73FC07D4
:1016D000E0B502F04DFB01A802F04CFA02F0BAFAB4
:1016E0008CBD000080B53548523004490A311022C3
:1016F0005DF702FD012000F049FA80BD8498FC07E7
:1017000070B50B480424092122460B465BF772F999
:1017100005461B202870FC26304661F7BDFF0021DE
:1017200029726C606E80687028465BF77EF970BD28
:101730001B0D00001FB5144604220292044A0192B8
:10174000069A00921A46234661F7D2FD04B010BDF6
:101750005473FC07F8B504461848C1680F200840C8
:10176000E071080F2071C8B20009A0710801000FD4
:1017700060710803000FE0700802000FA0700805F8
:10178000000F60700904090F217003210D021D2252
:1017900001230B4F2946B847E0791C220026294631
:1017A0003346B847E0781B2229463346B84760796C
:1017B0001A2231463346B847F8BDC046689AFC073E
:1017C0001D0FFC07B0B5ED48017E032911D1EFF3E1
:1017D0001082012181F31088094B1C88094D254096
:1017E0001D80002A02D081F3108802E0002181F3DD
:1017F000108814210176002001F0D0FBB0BDC04656
:1018000004000050FFFB000010B50C46F14988426F
:1018100020D0424A90422AD0414988423AD1207889
:10182000401E092853D8800041490818416A424A9D
:10183000914268D03F4881426AD138480421082348
:101840000A465BF7D7F821780170616841605BF761
:10185000ECF85DE06268002A47D0324882424BD201
:1018600020782E49401804215BF703FC50E02078D3
:10187000411ECAB2092A31D889002D4A51184A6A34
:101880002C4B9A4244D1CA6C24310A60616800F042
:1018900085F93DE0531C012198423CD30A32904225
:1018A00039D8C01EC0B2411E8900214A5218516A5F
:1018B00000292DD01F4B99422AD01F4B994227D087
:1018C0001346243300241C60D464884720E0164863
:1018D000C8210180154808210180FEE71248C8216F
:1018E0000180124808210180FEE70F48C8210180CD
:1018F0000E4808210180FEE70B48C82101800B48F3
:1019000008210180FEE70146243100220A60C264FA
:10191000029800210170084610BDC0460304000073
:1019200002040000FDFF3F00003100500233005070
:10193000E09AFC07BB44FC07B944FC07EFF31081B5
:10194000012080F31088084A1288120603D4074A3F
:10195000138803431380002902D080F31088704756
:10196000002080F3108870470800005008330050B2
:10197000E4488178491C81700178002900D07047C3
:1019800018490022CA7018490B780A70012B01D03F
:10199000012100E0022101707047C046D9488178DA
:1019A000002904D0491E8170090600D07047417893
:1019B000002904D0002242700322114003E0017884
:1019C00000290AD0491E00220270C8B20128EDD1B8
:1019D00004480121C170044800E0002101707047F3
:1019E000E899FC0754BAFC07B4BAFC0782B070B59A
:1019F000C2B00C4605464692479346AB4193012040
:101A0000010201AE304622465FF718F828463146FB
:101A1000FFF74FF942B070BC01BC02B000470000B4
:101A200080B5AE21044A515C002904D080000349EE
:101A3000085801F045FE80BD3899FC078C7EFC07F4
:101A4000FEB50024E543002814D00646007800289F
:101A500010D0002A0ED00F46009205F0B9FA01907E
:101A6000046002A930463A46FFF72CF902990A7839
:101A7000002A01D02846FEBD019AB142FAD0116871
:101A80000229F7D00028F5D4009908602546F1E72F
:101A9000B0B50C460025202D04D040F730FF60552E
:101AA0006D1CF8E70020B0BD10B507480188074A53
:101AB0001368114C23405918116040885168214027
:101AC0000818506010BDC046183000408CACFC07B0
:101AD00010B507480188074A1368074C2340591876
:101AE00011604088516821400818506010BDC04600
:101AF0003830004098ACFC070000FFFFB0B504464A
:101B0000CF4D8C2128465DF710FB882003492952D0
:101B100003482880204600F017F8B0BD224300009B
:101B20003512000010B50346C5484218AA24947027
:101B30007A22514340180C3019465DF7DDFA012036
:101B400000F002F810BDC04680B5024900F0DCFD8F
:101B500080BDC0462C7FFC0707481E2141800188BC
:101B600003220A430280018804220A430280654856
:101B70000121C1707047C04600160050E899FC076B
:101B800080B5054800F0ACFD80BDC04680B5024977
:101B900000F0BAFD80BDC046387FFC0770B50C462A
:101BA00005460C4EFFF734FB002806D07019801C48
:101BB000042122465BF75DFA70BDFFF7BFFE0421EA
:101BC000082330460A465AF715FF446005705AF755
:101BD0002CFF70BD010400007047000070B5144672
:101BE0000D4610465BF74CF901282FD128780102E9
:101BF0000831AA791648002A0CD089B20623224659
:101C00005AF7F8FE0646A87860F710FC3080A879ED
:101C1000307114E0AA8889B2921D93B222465AF715
:101C2000E9FE0646A87860F701FC0021317130809A
:101C3000A8887080701DAA88E91D5DF75DFA30469E
:101C40005AF7F3FE002120465BF705F9002070BD2E
:101C5000140C0000FD2801D0002070470048704798
:101C60007475FC077047704780B5FFF7EDFB80BDCA
:101C700010B50446891D02201022FFF7C7FB00287B
:101C80000BD001467A2220465043B84B18185DF716
:101C900033FA2046FFF79CFB10BD2046FFF7D4FB2C
:101CA00010BDC046F8B50446800016490F18BD6F38
:101CB0007837002D20D121020A31134804221E2337
:101CC0005AF798FE83214900018038607A256543E0
:101CD000A64844195134102620463146324661F751
:101CE0003FFBA24A505D0821014351553D68A81CA5
:101CF000214632465DF700FA28465AF796FE002044
:101D00003860F8BDE899FC07140E0000FEB50546E2
:101D10000C206843794A16183B20305C2C4600287A
:101D200015D00020019000907A2068438F4A125C01
:101D3000012010400A88002A06D100285ED0881CA5
:101D4000694608225DF7FCF9002857D14DE0088864
:101D500000281DD000200222FFF758FB00284DD09C
:101D600006467A2255438148401931465DF7C4F949
:101D70002046FFF72DFB7920305C002838D1F2484F
:101D80008178AA2934D141684A1C42608160FEBD35
:101D90003420305CFE21014035360327022916D05D
:101DA0003178727812025118B278F3781B029A18BF
:101DB00012045118327973791B029A1861F7BAFA32
:101DC000022803D315D0042801D017E001270622EA
:101DD00038463146FFF71AFB00280FD001467A2219
:101DE0005543624840195DF787F92046FFF7F0FA3E
:101DF000FEBDD54D287B4007C70F03D12046FFF716
:101E000023FBFEBD3B0108330E48092104225AF78B
:101E1000F1FD0446477017202070A01C06223146B1
:101E20005DF76AF9287B400706D52046083046351D
:101E3000102229465DF760F920465AF7F6FDFEBDEF
:101E40007497FC07140D00005D49498C01807047B0
:101E500080B55B490A780270401C491C5DF74CF95B
:101E600080BDC0467D21C18000218180102141803C
:101E70000821018070470000FEB57A240290444397
:101E8000EC4807194E783E773D4614350821284620
:101E90000A4661F765FA38461C300190102E04D8C6
:101EA000B81C1022314661F75BFA40F728FDE14B80
:101EB000195D01220A431A557882029E304600F0CD
:101EC00025FD019909780177798A418269882A88F4
:101ED000EB88AC88048343838282C182B91C801C56
:101EE00010225DF709F9304600F010FD5AF79DFD0C
:101EF000B000EF4900220A50FEBDC046689AFC07B8
:101F00007CB57A214143E94844187820205CC00719
:101F100014D001AA002515706E46FF2030702046AF
:101F2000314600F0F1F83078FF2808D18621864844
:101F3000415C002902D18068401C09D17CBD01A907
:101F40000978002903D08049091886228D54054656
:101F500079202554A8007C4908184A688260501CE2
:101F6000486020462946FFF7DDFD7CBD0898FC0748
:101F70000178242909D14078972806D1EF48C82153
:101F80000180EF4808210180FEE7704710B50C463C
:101F9000017801290BD000290ED1428808490A7026
:101FA0004B1C011DD2B218465DF7A6F802E040882E
:101FB00003494884002000E04820207010BDC0463E
:101FC000E09AFC0700208880488001200870704754
:101FD00070B5184C40202080174E268204F0DAFE9F
:101FE000164DA88AC00704D0A88AC007FCD028884C
:101FF000F7E7134800214160017004F0ABF801F0ED
:10200000C3FB1048817E00290ED0017F01221346B8
:102010008B402380231D12364900CE52807F8240A0
:10202000228040001321C1522220286106A001F025
:1020300047FB70BD0230005002030000001000504A
:102040003899FC078498FC070D0A2B4157414B45F2
:102050000D0A000080B55DF73DF880BD80B55DF7E5
:1020600042F880BD80B5084800210160FEF7E4FD1C
:10207000064800781F214901054A13688B43C006B2
:10208000800DC018106080BDAC100040DDB7FC07AB
:102090004C12004010B58200074B9958002909D115
:1020A0009C1801020A310548042212235AF7A2FCA7
:1020B00001462060084610BDF096FC07180E00008F
:1020C00080B503281BD8800001A318588746C04656
:1020D000E120FC07E720FC07ED20FC07F320FC07CC
:1020E00019481E3007E018487D3004E01648463095
:1020F00001E0154856305DF723F8002801D0FF2095
:1021000080BD002080BDC046F8B515460C460E497E
:102110008E780027AA2E10D102780B7B13405A0725
:1021200003D53A304631102202E071307D3107226A
:102130005DF706F8002800D0FF27AA3E701E8641F2
:102140002E702770F8BDC0467497FC0770B50C78E8
:10215000A51E052D33D81C0A7D442D796D00AF4492
:1021600002242E313F4D7A206043894A1518887821
:1021700078216854C0070DD071350C2060437E492A
:102180000E1831463531062228465CF7B5FF34205B
:10219000305CA8712046FFF7B3FE0C2060437649FF
:1021A00008183B210022425442E00C20604372494F
:1021B00009183B220020885404F01EFD38E003F08B
:1021C00063FE35E07A256543714C60193A30891C0D
:1021D00017225CF791FF605D04210143615527E000
:1021E0007A2565436A4E70196130891C1024224695
:1021F0005CF782FF705D2043705519E07A206043E0
:10220000634A14188B1C488A002808D020461E30C8
:102210001C2219465CF770FF2078022106E0A01C02
:102220001C2219465CF768FF2078012101432170C8
:10223000002070BD0898FC0710B50A78072A24D83A
:10224000180A920001A39A589746C0466D22FC07CF
:102250008B22FC078B22FC078B22FC079922FC07B0
:10226000A922FC079F22FC07A522FC077A224243F1
:10227000474B00249C540C2242433F4B9A183B236B
:102280000124D45402F00EFA0EE0AE48C8210180B9
:10229000AD4808210180FEE702F048FA04E0FFF7AC
:1022A00001FD01E0FFF7E8FD002010BD0898FC07E4
:1022B000689AFC0710B50C78092C01D003F0E4FDF6
:1022C000002010BDF8B51C4610460D465AF7D8FD43
:1022D00002282BD1240A0C20604327490F183220F2
:1022E0003C54FF2C1DD03E46303601200090F0704B
:1022F000042003215AF7AFFD28883886687A3071A8
:1023000035370A350622384629465CF7F5FE7A202D
:1023100060431F4908187821415C2046009A61F704
:10232000E3F8204604F0FAFA0020F8BDE748C82197
:102330000180E74808210180FEE7C04600310050D7
:102340000233005010B51C4610465AF799FD032879
:102350000AD1200A0C21414307484018FF21418639
:1023600004F0D6FB002010BDD848C8210180D84811
:1023700008210180FEE7C046689AFC07180A7A2205
:10238000424303488018097878228154002070471E
:102390000898FC0780B5180AFFF7B8FC002080BD3C
:1023A000F0B589B01D4614460878022827D00128C8
:1023B00035D0002840D12348067800211F2E0091F7
:1023C00001D82020811B01AFB8195CF7AEFE1D4873
:1023D000411C384632465CF78FFE33460A331848B4
:1023E000294622465AF706FB04464680009820708C
:1023F000201D394632465CF77FFE20461AE0104821
:102400000A23294622465AF7F5FA7D210181002147
:10241000C1801021818008214180022109E0094802
:10242000468C07480A23294622465AF7E3FA468093
:10243000012101705AF7F9FA002009B0F0BDC04639
:102440000B0E0000E09AFC0780B58D20EC49085C7B
:10245000042809D105480921042201235AF7CAFAA0
:10246000022101705AF7E1FA80BDC046030D000059
:1024700080B5180AFFF7FCFB002080BDB0B50C78D2
:10248000641E162C22D8C0467C4424796400A744DC
:10249000131D201D1D1D1D1D1D1D1D0B0B3C3C1D59
:1024A0000F0F2A1D1D1D3000002004F007FA2CE03C
:1024B000002004F043FC28E04878002820D083481E
:1024C000C8210180824808210180FEE703F0DCFC7E
:1024D0001BE04878002816D07C48C82101807C4841
:1024E00008210180FEE7487844280ED104F0F6F96F
:1024F0000BE04878472808D1180AFEF7A5FF04E04A
:10250000FEF740FF01E004F0A9FA0020B0BDC0468C
:1025100010B510465AF7B4FC002806D06B48C82105
:1025200001806B4808210180FEE708480921042248
:10253000012423465AF75EFA04705AF776FA00200F
:1025400010BDC0460031005002330050020D0000A3
:102550000020704700207047F0B589B01D46164630
:102560000C46FD205EF744FE002813D00746029675
:10257000039508A900260E7020885FF765FF0546C1
:10258000608800280DD05148C8210180504808219A
:102590000180FEE74D48C82101804D480821018097
:1025A000FEE7002D0DD04D4804230399029A5AF7F7
:1025B00021FA8570218801805AF737FA002009B086
:1025C000F0BDFD20FFF746FB00284FD001460398E1
:1025D000000A019008A80078142242434B689D1815
:1025E0002D79022D23D19A5812883A4B9A421ED146
:1025F00000200590049020885FF7C1FE00285DD080
:1026000007A9002204AB4EF7AFFC01204002079956
:102610000140480A21465FF79DFEC5B2002D2DD12D
:10262000E28808A80178019860F76FF826E08969C8
:102630000029354605D0A288A31D0D460021A847D4
:10264000054605960496208804A94EF708FA002D41
:1026500014D108200499085E00280ED46288A1884D
:102660002088A31D4EF765FA054607E01748C821E4
:102670000180174808210180FEE70025002D92D136
:102680003846019D29465EF7D1FD0146A088801D90
:1026900083B21148029A5AF7ADF90646801DA28806
:1026A000A11D5CF729FD08A800787080A088B08083
:1026B000357030465AF7B9F9002574E70348C82148
:1026C0000180034808210180FEE7C0460031005028
:1026D00002330050022900000AFD0000160C000021
:1026E0001CB5044600F007F807CC01AB01F0FCFA7A
:1026F00001F0E8FA1CBDE0B501F03AFB01A801F0D9
:1027000039FA01F0A7FA8CBDF0B585B00C460290FD
:10271000FFF7F1FFA0680105020B002900D0521C51
:1027200000946068254E06400024274D624F0192B8
:10273000944239D0029800281AD0304601F072FA3B
:10274000002836D10020039001F004FBC00725D0FB
:1027500028880006F8D538680004F5D41B4803998A
:10276000814226D00398401C03905AF746FEEBE7BF
:1027700001F09EFA00281CD101F092FB002818D12C
:10278000104A10887C21014311800120400730430A
:1027900001F0A6FB01F006FB00280AD108488019C9
:1027A000461C641C019AC3E7009A07CA04AB01F0F7
:1027B0000DFB01F087FA05B0F0BDC04600F0FFFF49
:1027C000FF0F0000041200500800005080841E001B
:1027D0007047000080B50A48007800020A3081B2D4
:1027E0000848042201235AF705F9072101705AF716
:1027F0001CF9C8200449FEF761FE4149487580BDB7
:102800008498FC07050E0000D527FC07B0B52320EF
:102810003B4C215C012003468B4008490A78084D57
:10282000002A01D06B8000E02B8042400A706420B7
:102830000449FEF743FE21216054B0BDDCB7FC071C
:10284000023000500D28FC0780B504205AF718FB11
:10285000C11E4842484180BD70B5174EB06800F0B7
:102860002DF827490A6E00230B661518084C2846D8
:1028700021465CF7C7FB706106494143481901D006
:10288000201A80B23061306808210143316070BD88
:10289000710200008FFDFFFF80B506480021016036
:1028A00001F0D2F80120C00703490A6882430A6098
:1028B00080BDC046A8B9FC073000004080B5024684
:1028C000C00B09D00E48006F00210B465CF7C4FB1B
:1028D0008905800A401880BD0948006F4243900A6C
:1028E00080BDC04680B5FFF7E9FF80BD80B50449D3
:1028F000896E41430348081803495CF783FB80BD98
:10290000E899FC0720A1070040420F0010B50146DE
:102910008200094B9858002800D010BD9C1809026D
:102920000A31064804221E235AF764F8FF210831B1
:102930000180206010BDC046689AFC07140E00009C
:1029400098B0FA4CC0200790208208F0C9FB79208B
:10295000C100F7485CF7E9FB012001020D908207F6
:102960001068089108430C921060F2480025057128
:10297000C570F14F0D223A70F04E35637563B56343
:10298000781CEF495CF7B8FB7D840427ED49384695
:102990005AF72FFA0A97384629465AF75CFA304612
:1029A0002030E94906225CF7CBFB002804D0B08C2C
:1029B00011A98880306A03E011A8E4498180E448C5
:1029C0001190E4481C3011A906225CF795FB356193
:1029D0007561B561E04E3577E048056014203076CA
:1029E00060F786FE307800280D9902D08120707043
:1029F00003E0D048C170DA4801708C20D94E3552BE
:102A0000AE20D94A1154AD2011548E2035542020C7
:102A10000B903554D5484D305027F053B576F175AD
:102A20004520B082F577D24830610A207D21C90067
:102A300070620191B16211A8CEA11C225CF75CFB0F
:102A4000D348102D05D011A94919425D8A706D1C1B
:102A5000F7E73046523011A91C225CF74DFB70207D
:102A6000092131546E20CB49315230467130B4497E
:102A70000D225CF741FB8F200D9A32548B200F21E1
:102A800031540021B848109141600270C248FFF7EC
:102A900027FEC2480188C24A914204D18821405A87
:102AA000C049884202D00020FFF728F8FFF768F8F5
:102AB000A24D3846EB5B2F465037BB4ABB49934289
:102AC00002D17B8A8B420DD02A52B94AB94B6A6532
:102AD000A748A865EB657982109838820C21798027
:102AE000FFF754F8FFF74CF80A3629465231102206
:102AF00030465CF701FBFFF7CFFE0520FEF75CF8E0
:102B0000AD48C8260680AD4808210E9141800D9938
:102B1000480200903F2080020690C8030F900C9F4F
:102B200084498D4D2088000600D4A8E0386B0F9AA8
:102B3000104200D0A3E00888C00700D09FE05AF7F9
:102B40005CFC0027384600F075FBE87B042800D0C9
:102B500091E00120099000F06DFB119711A804216C
:102B60004AF7ECFF002800D185E0F9490998086090
:102B700008680028FCD10C98C069E96B884201D232
:102B8000EF633946411ACA09297C182A01D800295D
:102B900071D0002905D0286C401C286400F07EFC10
:102BA00069E0E863ED4F3888059078880490B8882C
:102BB0000390F88802905420EB49085ADF4DA88012
:102BC000EA48FEF79BFA3889DE490840DC4AD0849F
:102BD0007889084010853889069A10400099084382
:102BE0003881788910400843788138880221014370
:102BF000398038888007FCD40998F881388A099090
:102C00003846A988CE4DEA8C3B89069F3B4013434A
:102C100003812A8D43893B40134343810998401A1D
:102C200001994143002804DCD14A8918C0170840A3
:102C300001E0D0480818D0495CF7FAF9870919373C
:102C400028797F280DD0381A41B2C9114840401A5E
:102C500040B20828C14806DB286C401C286400F0FC
:102C60001DFC2F71BD480499418003998180029910
:102C7000C1800599018003F0C5FC0C9FAD49EFF3BD
:102C8000108072B608790228109802D0BB480068FC
:102C9000806A1190AD480089C00700D03FE159F724
:102CA00078FCA449002800D139E1C878002836D042
:102CB000A089C00700D0D9E0088800282FD1B048EB
:102CC000806A002803D0AD480068806A119000F047
:102CD000BBFE984DA97811A85AF753FA2946002847
:102CE000C54D1CD03869400619D4897811A84AF717
:102CF00025FF9049002812D00698FF30984A118885
:102D00000140089801431180119A002A58D0386A6E
:102D10009C494018DA2854D8521E119251E08B4831
:102D20000E9A028030BF4280F9E0C0460800005091
:102D3000D0B0FC0754BAFC07E09AFC07689AFC077D
:102D4000EC7DFC076872FC07E439F20723480000B9
:102D50000500F435A8B7FC07E899FC07F496FC07D2
:102D6000B4BAFC078498FC073899FC07FF030000FD
:102D700041004500110700000000000000000000B5
:102D80000000000000000302F5FE0508434C763207
:102D9000AF76FC071C0E00002C7FFC077497FC0725
:102DA0003512000022430000573400004465000043
:102DB0000000C409450001010031005000330050FB
:102DC0000022288FD34D296908186861F86B6E4B73
:102DD00018400843F863F86B6C490840A9698902F8
:102DE0000143F963F86B6A490840696949050818A5
:102DF000F8636848824200D395E04F49886AC96AFF
:102E000000235CF729F90903000D4118A869821C09
:102E10008A4200D0481E474909794A1E914146F727
:102E2000A3FD5D48C06A8047B84B0F99386B0842D4
:102E3000FCD00899474D28680842FCD028688027B4
:102E4000B843286041484089452804D846213F4A74
:102E50005181081A18663FF738FAA868AB49C86567
:102E600028680006FCD52088B843208020890A996C
:102E7000084320813B4A106808431060364A108896
:102E80000D998843108007982082608C0899084229
:102E900006D19F4A1088402101430B98814311803D
:102EA0002D4A108B402738430B9988431083A08B01
:102EB0000D9DA843A0830D20FDF7D2FE6088284316
:102EC00002218843608060884006FCD5A01F322123
:102ED0000180A089C00602D51C480E99018030BF30
:102EE000A089C006E84D02D518480E994180884B4C
:102EF00018880B9A1043F94308401880164B188B1A
:102F000010430840188300F07DF80D989049087030
:102F1000144A10680A99884310600C9F054962B6EC
:102F200009480680FEE50848068008480E99418059
:102F3000FEE7C04654BAFC07689AFC07A8B7FC072E
:102F4000E899FC07FF0300000031005000330050F7
:102F5000FC000040000200400C030050001500502F
:102F60003830005010ED00E03896FC078872FC07FE
:102F70002BFDFFFFD5020000AA05000058B9FC0791
:102F800074BEFC07C8FEFFFF00FCFFFFFF03E0FF6D
:102F9000FFFF1F0040420F0058BFFC071CB504464E
:102FA00000F0E6FE01A800F0E5FD002C00D01CBDFD
:102FB00000F088FE1CBD0000F0B55D21DC48415CDE
:102FC0001030DC4A927C00230D4E8B4212D24768AF
:102FD0000A2A3C4606D33D46084C2540DA4C246874
:102FE00064042C430568B54200D127462F600830A1
:102FF0005B1CEAE7F0BDC046E899FC07FFFF01FC57
:1030000038300040F8B53F4C012525803E4EF08C0D
:10301000C00519D53D48407B012803D101F016FABF
:103020001B2811D83A4F3888C00400D4208CFF20C8
:103030001C30384908801B2001F012FAF88D284313
:10304000F885F08C4007FCD5334834A118225CF792
:1030500053F838A03A498CC88CC1FDF7ACFB39480D
:1030600039490160B1203949085C002807D103F0D3
:1030700091FE374800214160017003F06BF8EFF3D7
:10308000108085F31088A90232880A433280002814
:1030900002D085F3108802E0002080F310882D48CC
:1030A0002021018082881C23134360229343838064
:1030B000838803229343838083888026B34383805D
:1030C000124B1F7BFE243C401C7300248481048926
:1030D000344304811C7BF1262640B41C1C730389F5
:1030E00013437C2293430381028840239A43028046
:1030F00002888A43028000F093FB024988892843B2
:103100008881F8BD0003005004000050E899FC07D6
:1031100052000050A8B7FC0720000840F99DF007B6
:1031200000000000E3A1F107000000004FA4F10738
:10313000000000000302FC07FD04FC073F06FC073B
:10314000C000FC0700000840070010008498FC073E
:103150003899FC070012005003480188034A1140C7
:103160008918091D0180704712000050FC7F000083
:10317000F8B504460026234F302E0FD0BD19E88A3B
:10318000FD2801D1064969605EF7B8F8002803D030
:1031900082682846214690471836EDE7F8BDC046BC
:1031A0004C76FC07B0B50025164C002815D0012D33
:1031B00027D8E08A5EF7A2F8002802D041682046AE
:1031C00088470020E0816060A060FF20E082207DD1
:1031D00059F769FE18346D1CE9E7012D11D8FF205D
:1031E000E082002020606060A060E06020612846EE
:1031F0001030C0B2A082214659F7FBFD18346D1C77
:10320000EBE7B0BD9896FC0780B50146064800681C
:10321000002803D005A05DF771FD80BD0448828AB7
:103220009206FCD5018080BD0498FC072563000050
:1032300000100050B0B5D94DE978012922D11349C9
:10324000002803D008884007FCD402E00888400723
:1032500018D40023EB70C8888988000444181F2004
:1032600040064921224660F7FBF8094A9062D16284
:1032700064214143080CA86606486043800B401C4B
:1032800040082867B0BDC046E899FC07001600500A
:10329000689AFC0711110100F8B500F057F85C219D
:1032A0002348415CBD4A927C0023234D264E8B422D
:1032B0001AD290C80838AC4212D1FC01640C2C46DA
:1032C0000ED00A2A2C460BD3032424023C403F0490
:1032D000BF0E3C192C60C4881A4F3C40346000E09B
:1032E000276008305B1CE2E7FFF766FE00F024FB76
:1032F00001F03EF911490888114A024001204302B9
:10330000D2180A804105EA4A13688B43136081078B
:1033100000224A671F2212044B6F9343400418187F
:1033200048670868E0220243102082430A60F8BD23
:103330003896FC07E899FC074C10004038300050E4
:10334000FFFC0000FF010000ECB7FC0710B5704C5B
:10335000082020701120FDF783FC0320607010BD51
:10336000F0B585B040480321029101703F4E3046D0
:103370001438016814220A436B218A430260B06A40
:1033800000900122D743781CB06230683849084069
:1033900030607068374908400392910201914018EB
:1033A00040307060B0693449084034494018B06119
:1033B00043203071029D012F3DD002202A4C6070C5
:1033C000FDF730FC2F4A10688005C00E2E490870AA
:1033D0001F204001116881431160039860702849E3
:1033E000086828430860FDF727FCFDF72AFC2570D4
:1033F00026480468002F03D0FEF734FEFDF717FCC3
:10340000306804900498224908400490E005410C7B
:10341000081804990143049104983060002F08D0E3
:1034200041203071134870307168014001980143A8
:1034300071607F1CBFE770680399884370600098D3
:10344000B06230680A4908401C2101433160B0690C
:10345000094908400F490143B161FEF703FEFDF73A
:10346000E6FB05B0F0BDC046051000401830004036
:10347000C07FFFFF8FF9FFFF00F0FFC018060016A6
:10348000AC1000404C120040DDB7FC078830004013
:103490003F807F009E07001C7047000080B5FFF74B
:1034A00055FFFFF789FD00F047FA01F061F8FDF7DD
:1034B0005AFBFEF7F9FA16480221817000210180BB
:1034C00080BDC046002070477047000080B51F20B7
:1034D000000401218A07536F83434804181850677A
:1034E00010680721884310600848018808220A43B1
:1034F0000280FFF7D1FEFEF7EBFA0548022181704A
:10350000002101800520FDF757FB80BD0800005019
:1035100004100040704780B5E62800D3E620282834
:1035200000D82820F9214A0042437D20C1001046DE
:103530005BF768FD7F38C0B280BD000005480168B8
:1035400007220A4302600120800459490A68824325
:103550000A60704730000040022901D001290AD1D9
:1035600000280FD0FF2811D00A48C82101800A483E
:1035700008210180FEE70748C8210180064808218C
:103580000180FEE7022901D10C2070474B48807C66
:103590007047C0460031005002330050E899FC07E4
:1035A000F8B543480168C90703D0016802220A43FD
:1035B000026001240168490203D5A10502680A439B
:1035C0000260270265023B490095084608380668F4
:1035D000002E6CD0300606D5802008604AF757F9D7
:1035E000FEF7BAFA3349B00704D50220086046F75F
:1035F0004CF8304930071ED508200860FDF79EF8CA
:103600003D4627460024204645F7F8FF0420F64BA8
:10361000D8730220F54A907194803C462F46009D55
:10362000C1204001997C090608181168814221498E
:1036300001D0EE4A10603E4204D00F60012045F7F1
:10364000DDFF1C492E4203D00D604AF789F9194964
:10365000700604D54020086045F7CBFF1549F006F9
:1036600004D51020086044F787FB124970070FD576
:103670000420086010490888A043088059F724FFF7
:103680003EF7DEFFFEF768FA0A490020D64AD073FB
:10369000F00707D00C6059F733FF4AF7F8F80549EF
:1036A000D148C473B00690D5202008608DE7F8BDDE
:1036B000000200401800004008330050E899FC0761
:1036C00080B5014602A05DF719FB02F09BFF80BDAB
:1036D0000D0A257300000000F8B50446FFF7B4F8A2
:1036E00000280FD08C27924EF05D052811D17588E7
:1036F0002046FDF7C9FA401C82B22846214603F055
:10370000F5FAF8BD0720FEF78BF91C48FFF7D8FF44
:10371000F8BD002C1BD02046FDF7B6FA002813D0C8
:10372000401C002159F758F800280DD005462146C5
:10373000FDF7BFFA0820002159F74EF80146456011
:103740000F4864303FF7C0F9F05D0528E0D0FD2058
:103750003FF739F801460B480422072359F74AF985
:10376000012141703022064B9A5C02708171818088
:103770000621418059F759F9F8BDC046BF7AFC07C8
:10378000689AFC0706FD0000244840214180084952
:103790000182B121664A515C002903D020210180B9
:1037A000002102E0202141800121C1817047C046F3
:1037B00002030000F8B50090032005023324174FE0
:1037C0003F2C29D02646333E5948005D092810D1A8
:1037D000F0B20A215BF716FC01208840009A002A0B
:1037E00001D0388000E07880480038188580504843
:1037F000005D0A280ED1F0B20A215BF703FC01201C
:103800008840009A002A01D0788000E03880480083
:1038100038188580641CD3E7F8BDC04602300050DC
:10382000F8B5FFF7B1FF4148861C03200402332797
:103830003F4D3F2F64D0E95D4A1E0D2A54D83846CB
:103840003338C0467A441279520097440606061768
:103850000F0F1F264D4D4D4D2D3B01228240334809
:103860000280FF20C043090208183CE003283BD82F
:10387000012181402D4801800F2034E0E9190B7BA4
:10388000C0B200222146FDF749FB2DE00121814015
:10389000264801802046093025E001218140234847
:1038A000018020460A301EE0A97E00291CD001219B
:1038B0008140B120285C002812D01C48801E018065
:1038C000002010E0A97E00290ED001218140174878
:1038D000801E0180B120285C002808D0348003E0DD
:1038E00012480180132030807F1CB61CA1E72046BF
:1038F000143030800F4A1068022188431060F3E7CB
:103900000A4A901E0221018020461D30908010201E
:10391000108020461C305081012010801B345480C0
:10392000082010801A201081F8BDC04604300050D5
:103930008498FC0710100050B0B500202449482896
:103940000AD00A18536892680C5825689D431A409B
:10395000521922600C30F2E700201E4980280AD05C
:103960000A1893880C5825889D43D2881A4052190A
:1039700022800830F2E71848184901801848194990
:103980000160C12040017A49897C0906091817485D
:10399000016005218902164A1180491D9180FF218D
:1039A0006C310B46C9331385124B1C460E3494857B
:1039B000114C14869386E31D1387104A104B138015
:1039C000104A1180213191800F494166B0BDC04637
:1039D0004077FC07C076FC07223000408888000052
:1039E0008000004059055C07E899FC070010004082
:1039F00028130040260A0000510800002C20004037
:103A0000070F00000012004050015001042809D89F
:103A100006A1095C074AD17107A1095C517008A190
:103A2000095CD170034908707047C0460502010067
:103A300005000000247FFC070000030300000000D5
:103A40000D0501010D000000F8B5562010490E5A71
:103A5000474FBC6E304660430E4940180E495BF735
:103A6000D1FA054638873C3666430A4830180A4979
:103A70005BF7C8FA001D094908612818C01D886154
:103A8000FEF71CFF0649401880B259F747FDF8BD04
:103A90003896FC0720A1070040420F00A8B7FC079A
:103AA000E204000010B5BE498A885206D20E1CD02E
:103AB000530813439C081C4312092243130A13435F
:103AC0001A0C1A43D24353081F4C1C40121B1F4BA5
:103AD00094081A401C4012191309D2181C4B1340A9
:103AE0001C4A5A43120E1D3A00E003220B881F2481
:103AF000A3430B800B8802241C430C800B880424F6
:103B00001C430C800B8801241C430C80D3175A40A3
:103B1000D21AD2B2022A01D3030C0B850884088B77
:103B2000C004FCD4022A02D3088D020402E0002A59
:103B300003D00022888B104301E0888BC0B218228A
:103B40008A5E002AFBD410BD5555555533333333A7
:103B50000F0F0F0F01010101E94801882022914355
:103B60000180EF49097B0907490F81847047C046EE
:103B7000E899FC07FEB50446234D2878002800D0BC
:103B8000FEBD00F095F80028FAD1204A90881C214B
:103B90000143602081439180FFF7DEFF9F201C4F8F
:103BA000B84700263046B84702903046B8470190E3
:103BB0003046B847154A96841188134620220A4396
:103BC0001A8002990906090A019A1206120C511864
:103BD000C0B20818D4D0EF21CB430E491A460C329C
:103BE0000ED0CB18F4269B5998421346F7D188186B
:103BF0000146E4314CC94CC5E421405C2070FEBD57
:103C000005A00EC80EC5FEBDE0B7FC0700120050AF
:103C1000A53AFC074C71FC07000000000000000002
:103C20000000040010B5044600F042F8002800D05F
:103C300010BD00F035F90028FAD1A84801887C228F
:103C40000A430280012040070443204600F048F95F
:103C5000002010BD10B500F02BF8002800D010BDDA
:103C600000F01EF90028FAD100F074F804468B48E1
:103C70000078142803D12007800F03D1EFE76006F6
:103C8000C00EECD000F014F80028E8D19348018869
:103C90003C220A4340218A430280832004400120C1
:103CA0000002201800F01CF900F07CF810BDC0469E
:103CB00080B500F04FF80121014048420D218843B2
:103CC00080BD000080B5FFF7F3FF002800D080BD65
:103CD000824801881C220A4360218A430280B9205D
:103CE00000F0FEF880BDC046F8B51C4617460E46EB
:103CF0000546FFF7DDFF002800D0F8BD804A908818
:103D00007C2101439180B91964488068814200D9BF
:103D1000871B2760FFF720FF03200006064330467D
:103D2000FFF7C0FE764FB8881C2101436020814315
:103D3000B98000262068864205D20020FFF7B2FE37
:103D4000A855761CF6E70020B884398820220A435B
:103D50003A80F8BD80B5614801883C220A43402181
:103D60008A4302800520000200F0BAF880B280BDCC
:103D700080B5FFF7F1FE624800218184018820228E
:103D80000A43028081881C220A4360218A43828080
:103D9000AB2000F0A5F84B208000FCF761FF80BD50
:103DA00000120050B0B50025074C611CA94205D097
:103DB0006D1CFFF7CFFFC007F7D1691E0020A1429D
:103DC00000D9C043B0BDC0467F841E00F0B587B0A7
:103DD00000930E460490414F38881C2103910843FC
:103DE0006021029188433880FF242C488068831B1F
:103DF000934200D31346344300251A4601939D4253
:103E000046D29019A04201D8069202E0A01B401CA5
:103E10000690FFF74DFF00283DD100F041F8002843
:103E200039D1059438887C2101433980FFF794FE0D
:103E30000124600606433046FFF734FE38880399B4
:103E40000843029988433880069886B2FF2E00D92D
:103E5000260204984719300405D03878FFF722FE6F
:103E6000761E7F1CF7E700201C4F3884381F01881E
:103E700020220A430280FFF795FF00280BD1069805
:103E80004519019B5A1B200205990C184E1CB6E7D8
:103E900000980560002007B0F0BDC046E0B7FC0701
:103EA00080B5FFF705FF002815D10C4801881C22BA
:103EB0000A4360218A430280062000F011F8FFF7D0
:103EC00071FF002807D1FFF745FF800701D50020CB
:103ED00001E00B20C04340B280BDC0460412005038
:103EE00010B50446FFF738FE2046FFF7DBFD044916
:103EF00000228A840A88202313430B8010BDC04609
:103F000000120050B0B52224F24D285D012805D1E1
:103F10002120285CFDF702FB00202855B0BDC046DB
:103F2000E899FC0770B50C460546FCF7ADFE064661
:103F30002046FCF7A9FE301A28182146FCF7ABFEF4
:103F40004142484170BD000080B58878002812D0F9
:103F50004868E149C860DF48007E014612390229FD
:103F600009D3801E012803D8002000F04BFA02E09C
:103F7000082000F059FA002080BDC046F0B59BB083
:103F8000D448077E0820132F00D9C5E00D46897854
:103F9000002900D1C2E0D04E34690523002C1FD087
:103FA000F90600D4B8E0EA787669B018802819D804
:103FB0000893B9488019291D5BF79EF8E8783018F6
:103FC000C54E7061844200D0A2E0C24B187F002130
:103FD000B14D8C4208D06A5C50401877491CF8E714
:103FE000184699E0072097E0132F6CD109A8FDF738
:103FF000B1FBFDF76DFB7769B069002F65D0002834
:1040000063D11225402F79D3A3490878702875D140
:104010004878512872D14C6820464030F0611F200A
:1040200001030BA80C22FDF737FB1622002864D4ED
:104030000BA800781425702860D10BA8407852286E
:104040005CD11325002C59D00D980C990790401A7B
:104050004038844252D815460BA840220291FDF701
:104060001BFB00284AD40BA8817800230124AA292D
:10407000059403930693049301975BD10BA90A78E7
:1040800000230693702A50D149785129059C06993E
:1040900003910491D84E4DD1C0780490D7480C308C
:1040A0000BA90C3110225BF74BF80024002838D103
:1040B000D248C0691299884233D1002105980690F0
:1040C0000C46039135E008251DE0C219F1694B1C2F
:1040D0000625934212D3914201D20F1A7761B1683B
:1040E0000918C6483A46FDF77FFA002806D47069D9
:1040F000B1690818B061022500E015460020706122
:10410000B06900F07FF9284600F08EF934697069D3
:104110000899A042084601D900F086F900201BB09A
:10412000F0BD06940598039003E0059C0698039063
:104130000490B14E0BA840220799FDF7ADFA002874
:10414000DCD40BA881780025AA291AD10BA90A78FA
:104150000025702A15D14978512912D1C678A7486F
:104160000C300BA90C3110225AF7EAFF002100286D
:104170000BD1A248C069129A904206D100210D4687
:1041800005E0059905952E4601E0059D0591002C59
:1041900011D00BA8801C3E21FF225AF7BFFF0698C2
:1041A000002813D19448029981600598054304962C
:1041B0000695079128E000290AD00BA8801C3E2113
:1041C000FF225AF7ABFF0598002816D0152556E0B8
:1041D000304604990840FF28DBD00498FF2801D11D
:1041E000002ED6D0049800284BD1FF2E49D10BA821
:1041F0004021FF225AF792FFE5E77F480799816047
:1042000003980699014306910698002801D10124DC
:1042100001E00498441CD548007E062513282ED1C1
:1042200001210798FDF7A2F9002828D10BA8C47036
:10423000724B59689A680C910D9219460C310246DE
:104240000C32D8C9D8C220216C4B5A5C4254198810
:104250000180D8691290C548007E13280FD16648A6
:1042600081680BA84022FDF7BFF9002807D4624EF1
:10427000B16862484030019A403A403133E75E4EBF
:104280003CE70BA8801C3E21FF225AF747FF049809
:10429000B04284D997E7C046F496FC0780B5887889
:1042A00000280DD08888002807D0B049097E13293E
:1042B00006D8C90606D4082000E0052000F0B4F8AE
:1042C000002080BD812801D30720F7E74A49086113
:1042D000F6E7C046E899FC07689AFC071FB588789E
:1042E000002800D185E04968080E8A0E042A11D8FA
:1042F0009E4A107689B2404A9160002801D0012878
:1043000002D13E497C319160FE220240122A01D145
:10431000032920D201461039022911D3014612394E
:1043200002290FD3FD281AD0FE2824D0FF2828D137
:10433000FDF748FA304800210161416103200BE09C
:10434000082009E00120FEF729FEF64C207EC00679
:104350001ED510201DE0112000F066F846E0322046
:104360002549085CFF281DD02021EE4A0123535423
:104370005FF706F93AE0EB48017F002916D00420E8
:104380002BE0082000F050F8E648142101762DE0DB
:10439000082000F049F8184800210161416181615D
:1043A000217723E016483EF7E1F91FE003A9AA228E
:1043B0000A70007E13280FD101A8FDF7CBF9FDF795
:1043C00087F90D488068811C03A80122FDF70CF9CC
:1043D000010602D1022000E00620C0B200F024F85D
:1043E000FDF7F0F90448002101614161002000F06F
:1043F00009F8002004B010BD689AFC07F496FC0789
:104400001111111110B50446FC203EF7DCF90146EC
:1044100004480422134658F7EDFA046058F705FBE8
:1044200010BDC04604FC000010B50446FC203EF759
:10443000CAF9014604480422134658F7DBFA84708F
:1044400058F7F3FA10BDC04605FC00000E4801887D
:10445000890918220A4000888004400F801870479C
:1044600010B51F21490282010A4007490B88074CF9
:104470001C4014430C800A88054B13404007800CF5
:104480001818088010BDC04654000050FFF9000005
:10449000FFC7000010B5074800788000D64C2018F0
:1044A00090214058002801D002F040F84B20002114
:1044B000215410BD0098FC077047704702480188DE
:1044C0004906FCD57047C04614100050B0B5954859
:1044D000818E4C424C41C26C037A0C491C40012C29
:1044E00008D18C8AE4070FD00C88012585861470CA
:1044F0000024F3E78A8801239A438A80806D00288C
:1045000002D0002001F0DAFDB0BDC046001000501E
:10451000844A90649185002010860C49042008602C
:10452000BFF34F8FBFF36F8F09490A8802231343EC
:104530000B800A88802313430B80FF210904054A5E
:1045400013688B43136004490860704780E100E002
:104550000410005000E400E000E100E080B5714B81
:104560005A6589B2FFF7D4FF80BDC046E899FC07C1
:1045700018B50848016800910099074A009B1A4045
:10458000FF2424040C40D9B20919044BC918114363
:10459000016018BD8000004000FF00FF0A000A0013
:1045A00070B58F26E84DA85D002802D0FCF702FF09
:1045B00001E0FCF7F3FE04466E20295CE1722A5C00
:1045C00020460C30294652315AF796FD8B20295C43
:1045D00000290CD0AA5D002A09D02B22A1542A5C04
:1045E00020462C3029466F315AF786FD02E02B20F9
:1045F000002121545020285AE080A080A85D002886
:1046000009D001206072FCF7D5FE58F70EFA0D486C
:10461000002101600DE003206072FCF7BFFE58F737
:1046200004FA084800210160042058F729FC0328F7
:1046300003D00420022158F70EFC8D2001212954BB
:1046400070BDC046C896FC07F8B505468C26BE4F1F
:10465000FCF772FE0446BD554570032020701049DA
:104660001C31201D06225AF747FD2A20002525541B
:1046700041202084A57620460A3010215AF755FDA6
:10468000204658F7D2F901480560F8BDD096FC07DE
:1046900080B503491C3106225AF72EFD80BDC04665
:1046A000A8B7FC07F8B504460878002811D1487867
:1046B00001070ED41A49097804290AD101254007B7
:1046C00001D5284600E00220FFF7A0F92420154973
:1046D0000D54A00013490E18756F7436002D18D1B3
:1046E00021020A31104804221E2358F783F9054697
:1046F000012404703060801C094F791C07225AF78E
:10470000FBFCB878012803D1F878F7210140297122
:104710006C70284658F789F900203060F8BDC04613
:10472000247FFC07E899FC07140E0000B0B586B0A2
:10473000044648780022032815D0022819D0012801
:10474000134611D13EF7DBF80E495AF75BFC0E48D1
:104750000A1805926D460DA12846FDF747F928462F
:10476000FEF7AEFF0422012305A92046FCF77AFEDE
:1047700003E08E20024901220A5406B0B0BDC046B3
:104780008498FC07A0BB0D00A08601000D0A2B50E9
:10479000494E3A253036750D0A000000F8B50090F4
:1047A0000C48031D3324B24D3F2C0DD02E5D8E429C
:1047B00007D12646333E00272F550122B240028002
:1047C0001F80641C9B1CEFE700982818332281543B
:1047D000F8BDC04602300050B0B50446A44DE87F95
:1047E000012805D13020285CFCF798FE0020E877EE
:1047F0000120E075B0BDC0468498FC07FEB500916D
:1048000004460027394601F0F3FE0646C0B20728E9
:104810001CD8012529468140C622114216D0944950
:1048200008183321405C411F01290FD8052810D1F9
:1048300001AF40203870781C05215AF776FC701EB5
:10484000C0B21449085CB87138460FE001202076E8
:10485000FEBD01AA9780701EC0B20E49085C90711F
:1048600016460D480190FCF785FC3046FCF746FCE7
:10487000504E308828433080FCF734FCFCF720FC95
:10488000024650490098FDF7B1F8E5753088A84315
:104890003080FEBD3072FC074000030470B5044652
:1048A0008C20E74E305C0A2801D0022826D18D20CA
:1048B000305C002822D1A07A0221014303291DD1B6
:1048C000FDF7C2FF002819D1E07A01280FD1002599
:1048D0002046294601F08CFE81B26439094A914292
:1048E0000BD80005000C0A215AF78CFB00E00448A5
:1048F00050217052FFF754FE0125E57570BDC0468A
:104900004C040000540B0000B0B504468C20E84D68
:10491000285C0A2801D0022814D18D20285C0128A7
:1049200010D1A07A0221014303290BD1FDF78CFF9E
:10493000002807D15EF742FE8D2000212954012076
:104940000002E082B0BDC0468498FC0770B50D46F9
:104950000446FCF70FFC1648FCF7D0FBFCF7C2FB43
:10496000FCF7AEFB13490A880126B2430A80E12115
:104970000901484310495AF745FB80B201097D29D6
:1049800001D200220DE00D49884201D9642208E0DD
:10499000642141430A4808187D21C9005AF748FBA1
:1049A000C2B208492846FDF721F8E67570BDC04639
:1049B0007872FC0700150050FF070000B80B0000DC
:1049C000C0F2FCFF397CFC07FEB50D460090134891
:1049D0004768006801A98F8001900524002012A675
:1049E000002C0BD401A90A5DC0B228183146FCF78F
:1049F000FDFF2846FCF748F9641EF1E7401EC0B2EF
:104A00002818F90301D407A100E005A103225AF7F1
:104A100073FB01200099C875FEBDC046240000400C
:104A20002C5200002C500000253032583A00000073
:104A3000B0B504468C20E64D285C0A2801D0022837
:104A400003D18D20285C002800D0B0BDA07A0128B9
:104A5000FBD1FDF7F9FE0028F7D18F200021295462
:104A60000520FFF7F1FD01200002E082B0BDC04645
:104A70008498FC07FEB50446C07A022811D00D4682
:104A8000002848D1002D4DD0344EB7782846FCF789
:104A9000FBF82818AA2F47D18621735C34A1012581
:104AA00045E0207B617B2268002602965118019127
:104AB000101802AA3146FCF7C3FF012500282F4633
:104AC000314608D10298FF2803D001282F463146ED
:104AD00001D1C1B20027009102AA01983146FCF72A
:104AE000AFFF029901292A4600D8324600282846FD
:104AF00000D11046002813D1002F11D10098FF28B3
:104B000019D116488278AA2A01D1862281542846D2
:104B1000FDF71AF820E03D49174A2846FCF766FFE2
:104B2000002519E0012517E00DA101250EA32A4655
:104B3000FCF75CFF10E0012601280CD107488278C1
:104B4000AA2A08D18622835CCFB2BB4203D081540B
:104B50002846FCF7F9FF3546E575FEBD7497FC075E
:104B600025642C25730D0A003C656D7074793E0038
:104B700025642C25640D0A00DE7AFC07BCB50446CA
:104B8000C07A01280CD1207B2168002501950818E6
:104B900001AA2946FCF754FF002804D0E575BCBDE6
:104BA0000020E075BCBD0198012806D0FF28F5D192
:104BB00001252846FCF7A2FFF0E706480021817096
:104BC00008307F215AF7B1FA01252846FCF7BCFFCF
:104BD000E4E7C0467497FC07B0B50D4604460021D3
:104BE00001F006FDC0B203280DD88000E549081881
:104BF00090214258002A03D004492846FCF7F6FECB
:104C00000120E075B0BD0A202076B0BD7E7DFC0796
:104C100010B50446002101F0EBFCC0B203280BD80C
:104C20008000D849081890214058002806D001F08B
:104C30007DFC0120E07510BD0A20207610BDC04625
:104C40008498FC0770B50446002101F0D1FCC0B285
:104C5000032824D8A17C642923D88000C94A1518C8
:104C6000902028589035002802D057F730FEA17CBC
:104C7000491C00262846324601F04AFD002813D080
:104C80002868A17C491C5AF750FA607B21680918F2
:104C9000A27C28685AF730FA0120E07570BD0A201E
:104CA00000E00920207670BD082020762E6070BDBF
:104CB0008498FC07F0B58BB00C460546FDF7C4FDA3
:104CC0000121E975E97A04290DD0002972D1EF4854
:104CD00083894289C189807D009101903D492046A8
:104CE000FCF784FE6DE00A9000272846394601F063
:104CF0007FFC069081B2062902D33348814200D35B
:104D0000EF75089101212846059101F071FC04908E
:104D100080B2079080087D2800D3EF7502262846D0
:104D2000314601F065FC84B2642C02D327488442EA
:104D300000D3EF7509970A27384660431921089A6E
:104D400051435AF75FF90890039420463946099F6A
:104D50005AF758F9002904D10898401E0799814252
:104D600000D9EF750321284601F042FC04460004F7
:104D7000800C00D0EF752640704270410A990843BC
:104D80001BD0E87D00281AD005990C40EF4DAC757A
:104D90000398E8810498A88106986881002E03D0C2
:104DA0002976002001F03CFF002C0AD02F76FCF77A
:104DB00099FC06E00020E87503E0102000E00E20DA
:104DC00028760BB0F0BDC046810C0000017D0000CC
:104DD0008498FC07D07AFC07F8B50D4604460020FD
:104DE000E075042058F74CF8E17A03290DD000292A
:104DF0005DD1E548438AC27D808A00906349284698
:104E0000FCF7F4FD0120E075F8BD032801D10F2067
:104E100021E00120E07500252046294601F0E8FB4D
:104E200007460004400C00D0E5750121204601F042
:104E3000DFFB064680B21B2801D3FC2800D3E575B2
:104E40000221204601F0D4FB81B21B2901D3FC29A9
:104E500003D3E5750E202076F8BDE17D0029F9D059
:104E6000B9B21B220029044600D114468227104BF8
:104E7000DC530029344600D114467E229C5276220F
:104E80009C520C4AD571957155711571D5709570FC
:104E90005570DE4B98825E82002901D11D2000E012
:104EA0003D201070481E8141D975FCF71BFCF8BDF0
:104EB000B0BBFC07DAB9FC07FEB50446C07A03288C
:104EC0000DD0002817D1FA48C37E827E407F009023
:104ED0002E4D08462946FCF789FD01200CE00025EF
:104EE0002046294601F084FB0106490E06D00E201B
:104EF0002076E575FEBD0020E075FEBDC0B2411E06
:104F000002468A41EA4EB27600282FD0012120467F
:104F1000029101F06DFB07460221204601F068FB7B
:104F20000146F8B20C28E2D8CAB20D2ADFD2717756
:104F3000F776B17737770E211546FFF72FFC0D2155
:104F40002846FFF72BFC307F029D294681400E4A00
:104F50001180911CC5239B0040004352B07F2B461B
:104F600083401380400013224252C2E7F07E29465C
:104F7000FFF714FC707F2946FFF710FCB5773577F3
:104F8000ABE7C0468498FC0704300050D37AFC0796
:104F9000F0B589B004463D498C20085C052872D1E3
:104FA0008D27C85D00286ED1A07A01286BD1FDF74E
:104FB0004BFC002867D1607B2168085C022101431B
:104FC000522960D1607C11285DD131A0FEF778FBB9
:104FD000607B2168085C0390207B06AA00269670FF
:104FE00045181035062E0ED0297806A84170691E86
:104FF0000978017000211022FBF764FE07A988558B
:10500000ED1E761CEEE704A90191089888800798A8
:1050100004902348092104251D232A4657F7EAFC5A
:10502000064601200290307530461530062201995F
:105030005AF762F80399523948424841F0760A20FB
:10504000708145217182318230810020B0814B20F6
:105050008000F08117200002F0800320C002B080A1
:1050600013203080304657F7E0FC0221284657F7DE
:10507000F2FE0648C555192040010A49FCF71EFA00
:1050800002980002E08209B0F0BDC0468498FC0797
:10509000434F4E4E454354494E470D0A0000000011
:1050A000110D00004924FC07B0B50446FDF7CCFB08
:1050B000002814D00AA0FEF703FB8D207C490622AD
:1050C0000A540B480A210422022357F793FC1321A8
:1050D00041700125057057F7A8FC2802E082B0BD99
:1050E000444953434F4E4E454354494E470D0A00E1
:1050F000040E000070B50446144D8C20285C052871
:1051000023D18D26A85D00281FD1A07A01281CD1AB
:10511000FDF79AFB002818D10DA0FEF7D1FA022066
:10512000A8550E48092104220C2357F763FC0125DA
:105130008572002101810521C1800A218180112110
:10514000018057F772FC2802E08270BD8498FC074A
:105150005343414E4E494E470D0A00000F0D0000CB
:1051600070B50D4604468C200749085C401F464236
:105170004641FDF769FB034604A128463246FCF789
:1051800035FC0120E07570BD8498FC0725642C2552
:1051900064000000FEB50446C07A042810D0002840
:1051A0001AD12020424D2B5CEA7F686AAD6A0095D7
:1051B0000190174D08462946FCF718FC01200CE029
:1051C00000252046294601F013FA0104490C06D0B7
:1051D0000E202076E575FEBD0020E075FEBD344949
:1051E000C8770126CF4F20463146B8472021304BA3
:1051F000585402212046B8472D4988620321204691
:10520000B8472B49CD624862E675FEBD8498FC071D
:10521000D07AFC07FEB50446C07A01280BD00028DE
:105220002DD12220234A125C244B08461946FCF754
:10523000DDFB012024E0002502952168227B6846E1
:1052400085710126330283808918009102A901F03B
:1052500055FE002818D4332015493F2812D00A5C87
:10526000401C1B2AF9D134380C280BD20298012893
:105270000ED0002801D1FEF745FE354606E000209D
:10528000E075FEBD022000E00E202076E575FEBD33
:1052900022270849C85D00283546F7D164200E460C
:1052A0000549FCF70BF90125F55521217054EDE76F
:1052B0008498FC07E899FC070D28FC07397CFC075B
:1052C000FEB504460021974DA84706460121204619
:1052D0000291A8470746022120460191A847F1B252
:1052E0000A2901D0072914D1B9B2642903D019229F
:1052F000120191420DD1C2B2102A01D0082A08D160
:105300008A4AD0700298E075642900D001989070A4
:10531000FEBD03202076FEBDF0B585B00D460446E7
:10532000C07A032805D10221204601F061F9064622
:1053300000E0012601F0C4F900285BD004960026A5
:105340002046314601F054F90746012100942046D9
:10535000019101F04DF90290F8B201F077F90320C4
:1053600000020390704C724F0498C0B20490F0B2E7
:105370000499884241D202983018C0B220806B480C
:10538000C078082810D138888007FCD50398208081
:1053900038884007FCD538888006FCD438898006D8
:1053A0002ED02088C3B216E038888007FCD501983B
:1053B000000220800398208038884007FCD5388878
:1053C0008006FCD4388980061AD020880002218803
:1053D000C9B2081883B2300605D0284609492A46C2
:1053E000FCF704FB04E0284607491A46FCF7FEFADE
:1053F000761CBCE70220207602E000980199C17576
:1054000005B0F0BD027CFC07057CFC07FEB50D462F
:10541000044601F055F9002824D002940126194FC2
:10542000194C7F2E21D0B0B201F010F90020388045
:10543000A0888007FCD5032000023880A0884007A0
:10544000FCD5A0888006FCD4A089800608D03888C6
:10545000C0B2009028460DA12A463346FCF7C6FA92
:10546000761CDEE702202076FEBD208801218843DD
:1054700020800298C1750A4801882022914301804A
:10548000FEBDC046101300506C13005025733078D9
:10549000253032583A3078253032582C0000000040
:1054A00004000050FEB5054600211E4C0291A047A5
:1054B0000190012628463146A04700900227284641
:1054C0003946A047044601F0FBF8002828D02746BB
:1054D000029C0198C0B201F0B9F80098C0B212491C
:1054E0000880FAB273021148C7781148082F2F4676
:1054F0000BD10588AD07FCD51A430A8001884907FE
:10550000FCD501888906FCD408E00588AD07FCD5E8
:105510000C801A430A8001888906FCD4FE75FEBD02
:105520002F76FEBDF165FC0710130050A8B7FC07ED
:1055300070130050F0B5BBB00D46044626AF4B21AA
:10554000384659F7F2FDE07A022824D0012842D1EA
:10555000207B216808180026079607AA3146FCF729
:105560006FFA00283AD10798012837D10494894965
:105570000E3126A81B2259F7BFFD0024864E2F4668
:105580001B2C2ED026A8025D38463146FCF72EFA99
:10559000BF1C641CF4E7607B21680A187B4928461D
:1055A000FCF724FA0026002D69D006972846FBF761
:1055B0006BFB962863D106984430069028468B30C2
:1055C0000021734F04295DD07A5CAA5C491C3B2AF8
:1055D000F8D0002653E00020E07551E00D20207641
:1055E0004DE02846FBF750FB3B21069129546949C1
:1055F0006D3126A8192259F77FFD2846FBF744FB99
:105600002F180024644E192C08D026A8025D3846B5
:105610003146FCF7EBF9BF1C641CF4E72846FBF7A6
:1056200033FB069929545B49463126A8102259F7C5
:1056300063FD2846FBF728FB2F180024564E102C3C
:1056400008D026A8025D38463146FCF7CFF9BF1CCA
:10565000641CF4E72846FBF717FB069F2F548620AF
:105660004C490E5C8C682846FBF70EFB009428180A
:105670004AA132463B46FCF7B9F90126049CE6757F
:105680003BB0F0BD017800263029F8D14078FE21EA
:1056900001403029F3D1049439A8002484702246B3
:1056A000952C1DDC00200592042804D0395C401C98
:1056B0008C42F9D1641C295D39A8017029194978F7
:1056C000417000260796102107AAFCF7B9F90028B7
:1056D000D4D126A80799059A8154521CA41CDFE74F
:1056E00007AD6221284659F720FDA81C26AF1B22D2
:1056F000394659F701FD2846613039461B311922D8
:1057000059F7FAFC28463A3034371022394659F70F
:10571000F3FC152028700698017805910179039112
:10572000C1780291877844783AAEFF20307039AA68
:1057300028463146FCF7E8FC20063904081802998F
:10574000090240180399401832780021FF2A069177
:1057500000D011468C000F4A96681746083738511A
:105760007924295554188627059BE3559478AA2C4B
:1057700000D0069E8642049C00D80646701C5060ED
:105780002846FCF7CFF9012679E7C0467E7DFC0765
:105790006E75FC077497FC07077CFC0725303258B0
:1057A000256325303858000010B50A4604460349E1
:1057B0001046FCF71BF90020E07510BDDE7AFC07EF
:1057C000F8B50E4604460025294600F011FFC7B281
:1057D0000C2F01D9E575F8BDE07A012810D1D84821
:1057E000C0193321405C401E0328F4D812480288B7
:1057F000FA4001252A40ED493046FCF7F7F8E9E781
:1058000001252046294600F0F3FECD49C91933226F
:105810008A5C042ADFD1C2B2012A06D0002ADAD17A
:105820002A46BA40044B9A8003E00122BA40024B58
:105830005A803F228854CDE700300050F0B585B043
:105840000446C07A01283FD0002810D10D460494A8
:105850003327744C74A63F2F33D0E35D1C2B04D048
:10586000284631462A46FCF7C1F87F1CF3E700279B
:105870002046394600F0BCFE04900125204629460A
:1058800000F0B6FEC1B2E67A032E01D104291BD185
:105890000395049AD5B2634A5319332202939A5C52
:1058A0001C2A0BD00B2D09D81B2907D8062D05D093
:1058B000052D03D0042D09D8022D07D00C20207609
:1058C00002E001200499C87505B0F0BD584A12885D
:1058D000D205920F0DD0022DF0D0521E022A08D808
:1058E000D202120A0090534BD340DAB2009895428C
:1058F000E4D00195491E1A29039DE5D80346C04608
:105900007944097949008F440E0E0E2A1A1A6D3611
:1059100048470D0D0D0D0D0D0D0D0D0D0D0D0D0D42
:105920000D0D5800D0E70120019A904042490880AF
:1059300050004018FF21C9431A02511862E0019833
:105940000728C1D8012001998840C6210842BBD050
:10595000394908800198400040180F2152E01D4647
:10596000032E56D10221204600F042FEC0B2401E56
:10597000434243414EE00821019E30461D46FEF75A
:105980000DFF2B460120B0402B49088070004018C5
:10599000032109020A3135E03D461F46FCF754FF5A
:1059A000002801D101204540032001020022019876
:1059B0002B46FBF7B3FA3B4625E01B21019E304600
:1059C0001D46FEF7EBFE2B462320CD49049A0A54D0
:1059D0000120B04018498A1E108070004018032131
:1059E00009020FE00721019E30461D46FEF7D6FE54
:1059F0002B460120B0401049088070004018032158
:105A00000902093141800298333003700120E075AA
:105A10005AE700230320010200220198FBF77EFAD7
:105A20002B46F0E78498FC0725732530326420006C
:105A30001200005005010A000430005070B50D46F8
:105A40000446002100F0D4FDC0B203280ED8E17A4C
:105A500001290ED18000D3490818A0214258002AFC
:105A600029D066492846FBF7C1FF24E00A202076AA
:105A700070BDA17C642921D88000CA4A1518A020D5
:105A80002858A035002802D056F721FFA17C491CD8
:105A900000262846324600F03BFE002810D0286839
:105AA000A17C491C59F741FB607B21680918A27C45
:105AB000286859F721FB0120E07570BD0920D6E761
:105AC000082020762E6070BD70B504468C20B54D40
:105AD000285C052801D0022803D18D20285C0028ED
:105AE00000D070BDA07A0128FBD1FCF7ADFE0028E4
:105AF000F7D18F2001262E540A20FEF7A5FDFBF7D3
:105B0000FFFDFBF799FB3002E08270BD7CB50446D7
:105B10008E26A44DA85D00280FD0207B2168081890
:105B2000FBF770FB0021A9550190287801A90422F8
:105B300001252B46FBF796FC00E00025E5757CBDB2
