:0200000407FCF7
:1000000088A5FC072501FC072D01FC074501FC071D
:1000100000000000000000000000000000000000E0
:100020000000000000000000000000005D01FC076F
:1000300000000000000000005F01FC076101FC07F8
:10004000FD08FC071D3BFC07A526F0076301FC0724
:100050006301FC076301FC07F108FC076301FC076F
:100060006301FC076301FC078109FC078B09FC079E
:100070009509FC079F09FC07A909FC076301FC0718
:10008000F50AFC076301FC076301FC076301FC0739
:100090006301FC076301FC076301FC076301FC07C4
:0800A0000000000090070E00B3
:0200000407FCF7
:100110000348854600F09AF9004800477927FC0714
:1001200088A5FC070F4880470F4800470420714608
:10013000084203D0EFF309800C490847EFF3088029
:100140000A49084704207146084203D0EFF30980AA
:1001500007490847EFF3088005490847FEE7FEE72F
:10016000FEE7FEE75D8CFC071101FC07050AFC07B2
:10017000ED09FC07F0B50546007985B007073F0F8C
:10018000284642F76AFC029028794006C00F039087
:10019000284642F762FC4448806A8079012825D0CD
:1001A0000126414840300079800775D5002E73D074
:1001B00000222B2311463D485AF79EFD0227077067
:1001C00001263B4946700446C969A87988472A2117
:1001D0000855287900210007000FA07003005DF783
:1001E0003BF90737393B423F423D420002980190BC
:1001F0002D4814300090002604680BE0611D019822
:1002000042F741FD002804D02079B84201D10126EF
:100210001BE02468002CF1D1009842F72AFD254903
:100220000978884202D1244806780EE000210C208B
:100230005AF754FC04460622401D01995DF7B8F8B0
:1002400027712146009842F745FC01204640A8E767
:10025000A1700AE0A67021E0032002E0A77004E08C
:100260000420A07001E0012818D0A888000A801F8F
:10027000A072284642F7F1FB811D2046A27A0B307E
:100280005DF796F80622201D02995DF791F8039814
:10029000E07020464DF7B2FD05B0F0BDA172F1E768
:1002A000704770477047000074FBFC0704080000AB
:1002B000E4FEFC07A1F9FC07A2F9FC07004870471F
:1002C000F08CFC07CAB2401E4178401C8A4202D022
:1002D0000029F9D100207047421C0178401C0029F8
:1002E000FBD1801A704710B5002200E0521C835CDD
:1002F0008C5CA34201D1002BF8D1D8B2E1B2401AF4
:1003000010BD03460A780270401C491C002AF9D12E
:100310001846704730B505460020034600E05B1CD8
:10032000934205D2EC5CC85C201A01D1002CF6D1B6
:1003300030BD0000F7B5009C0F4600262578641CF0
:10034000002D05D0FFF7BAFF0068405DC007F5D16A
:100350002B2D02D02D2D18D0641E39462046029A2E
:1003600000F020F8002F04D03968A14201D1009993
:1003700039607105022400290BDA4042002803DDB0
:1003800008F00AFC0460A007FEBD012080020643BD
:10039000E3E70028F8DA08F0FFFB04600048FEBD40
:1003A000FFFFFF7FF7B582B0029C00272078641C16
:1003B00015460197302802D0002D15D015E0207881
:1003C0000127641C782804D0582802D0002D09D0B9
:1003D0000BE0002D01D0102D07D10027102520782B
:1003E000641C02E0082500E00A250026009610E0C3
:1003F0000099012769430818020C294680B271430D
:1004000000908E183804864201D301200190207894
:10041000641C294600F02CF80028E9DA039800282B
:1004200005D0002F01D0641E00E0029C04600198FA
:10043000002806D008F0B0FB02210160C81E05B0FC
:10044000F0BD009930040843F9E70000064C01258F
:10045000064E05E0E36807CC2B430C3C984710346C
:10046000B442F7D3FFF758FEE89CFC07089DFC0751
:100470003A2800D23038202302469A43412A01D339
:1004800010463738884201D30020C043704700002F
:10049000F0B50C465C4085B0E40FE40703944C00D3
:1004A00000266408590094464908024602962243F1
:1004B00021D062460A431ED06200570D4A000E0347
:1004C0002303550D012402462C492405781B1B0BE0
:1004D000360B401823432643614600901C46501AB1
:1004E000B44103D30098401C009002E09218009899
:1004F0005B41002803DA0020014605B0F0BD002072
:10050000012109050746864611E064461D46141B75
:10051000B54106D36546521BB341744607430C43AD
:10052000A646CD0740084908284392185B41054676
:100530000D43EAD11046184313D060461946504087
:100540007140084306D06046101AB34106D201221A
:10055000002306E000220123DB0702E00122D24350
:100560005310009874460105381C6141029C039D9C
:100570000019694100F030F8BFE70000FD030000FA
:100580000EB505490291002100910A460B460191E2
:1005900000F02FF803B000BD330400004A00090347
:1005A0000123090B1B051943094B10B5520D9A4243
:1005B00001DA002010BD064B34339A4203DC9A1A4C
:1005C00063F756F810BD03495118884010BD00006C
:1005D000FF030000CDFBFFFF10B5002B08DA00245D
:1005E000401C614192185B411A4301D14008400010
:1005F00010BDF0B51FB482B005460C0003D008460C
:1006000063F747F802E063F744F8203002460090B1
:10061000214628465CF710FF049B059A04460F46C6
:1006200018431143084314D0184610431BD00098B8
:1006300040210A1A1846059963F71AF805460E462E
:10064000009A059904985CF7F7FE084305D001204D
:1006500004E02046394607B0F0BD0020C11705432D
:100660000E432C43374300990E986305401A7905D1
:10067000E40A00220C43FD0A0A3002D5002001469C
:10068000E9E70105101969410C9C0D9D00196941AC
:10069000FFF7A2FFDFE70000F0B507460846584025
:1006A00087B0C00F049048000E4659004008490822
:1006B000BC1A884105D2384631461E4617460B46BD
:1006C00002465800400810434CD0300D03904005BE
:1006D0005900400D490D0590401A0290402872DAE9
:1006E00018030121000B09050843019004980092AA
:1006F000002805D0019952420020884100920190C3
:10070000029840210A1A019900985CF795FE054667
:100710000C466B4607CB00F0D7F8C0197141039A1D
:100720000E0D0023D71756401A467A40164344D080
:10073000049A002A2DD0029A012A039A15DC120588
:10074000C01A914101263605001C7141D20F059E49
:10075000D2070093019202962A462346FFF749FFEB
:1007600007B0F0BD38463146FAE71605224A0F4673
:10077000B218C01AB74101210905001C4F410018E9
:100780007F41114618187941E20F10436D196441F9
:1007900013E0E2076D0815436408C2071443039A87
:1007A00001261205C01A91413605001C7141CE0781
:1007B000400830434908C01851412A462346FFF7F4
:1007C0000BFFCDE7FFE7049801224000C117121A82
:1007D00000238B4104983146C417381AA141EEE733
:1007E00030B40124E407634030BC55E730B4012441
:1007F000E407614030BC4FE70000E0FFF8B5054674
:10080000480040080C46284304D06000184A400DB8
:10081000904201DD2846F8BD15493539884210DC83
:1008200088420BDB290D200308432903014305D02F
:10083000E00F1049C00741180020F8BD0020014614
:10084000F8BD161A4020821B284621465CF7F4FDAD
:100850000746009128462146324662F709FF3A468C
:10086000009BFFF7B9FE32465CF7E6FDF8BD0000DD
:10087000330400000000F03F10B5002904DB012420
:10088000E40740428C412146002B04DB1C46012337
:10089000DB075242A3418B4200D1824210BD0000CF
:1008A00010B5002904DB0124E40740428C412146B5
:1008B000002B04DB1C460123DB075242A341994273
:1008C00000D1904210BD000010B5202A06DBCB17E6
:1008D0000846203A1041C1170B4306E00B4613416E
:1008E000D0402024A21A91400843194610BD0000B0
:1008F00001480121018070470E15005070B55EF768
:1009000045FF1A4801884907FCD45EF74AFF884C26
:10091000608F174D2880A08F801E164E7080072094
:1009200030805EF733FF30884007FCD45EF739FF34
:100930002889800703D02889032188432881E888F3
:1009400080210143E980E88904218843E881688A9D
:100950008007FCD541F7E5FC206E07490860074891
:10096000016801684907FCD570BDC04608330050D6
:100970000200005000160050080200401000004025
:1009800080B50A2000F01EF880BD80B50B2000F075
:1009900019F880BD80B50C2000F014F880BD80B53A
:1009A0000D2000F00FF880BD80B50E2000F00AF891
:1009B00080BDE0B513460A46002100910A215FF789
:1009C00021F88CBD10B504465FF7F2F8E0B2810063
:1009D000054A89188969002901D0884710BD01217D
:1009E00081401248016010BD08DBFC070348C821A4
:1009F0000180034808210180FEE7C0460031005015
:100A0000023300509048018904220A430281018880
:100A100040220A430280054901220A604189044AB2
:100A200011408918091D41817047C04680E200E0ED
:100A3000FC7F00007047000070B5604CAE4D2C4E3E
:100A400020890F210140481E0B28F9D878440079ED
:100A5000400087444B06052005232A05050505317E
:100A6000EEE7AA8D288E904232D2E96C9042E7D20E
:100A70002289C0231340C02B03D13288920703D4AC
:100A8000DEE7A28A9206DBD5421C2A86085C20801B
:100A9000AA8D288EEAE704F08DF9D1E76A6D002A65
:100AA000CED0A08A9E21014003E06A6D002AC7D003
:100AB000012120469047C3E704F07CF9A08801217A
:100AC0008843A080E96D0029BAD0288F8847B7E70E
:100AD000A08802218843A080A08880218843A0802C
:100AE000A96D0029ACD0A88D8847A9E770BDC04684
:100AF0007C10005080B55EF754FE0B480088C0069D
:100B000011D50A488188C9070DD0018809060AD580
:100B10000121818001888022914301807648806C88
:100B2000002800D0804780BD040000500001005024
:100B300088DAFC0710B50468091BFF31994208D315
:100B4000194606E01378237003685C1C0460491E94
:100B5000521C0029F6D10020207010BDF8B50646C1
:100B60002120144F3C5C002C1FD001253D8407F050
:100B7000F9F9442000213954B965002E04D00E48FB
:100B80000621002204F036F90C4E30465FF7B1FD25
:100B900030465FF763FDFF20023048217852D320B2
:100BA00040003D54284607F053FE601E8441204615
:100BB000F8BDC04630D8FC07FD97FC070010005078
:100BC00080B51449062260F727FA80BD7FB5104929
:100BD00001AB1A4670C970C27C210E4A515A0909EC
:100BE00019710D49891C60F74FF97FBDBFB50848E1
:100BF00001AB194634C834C17C20064A105A00099A
:100C000018710548811C012060F798F9BFBDC046E6
:100C1000F48CFC075CD4FC07309DFC0780B50021F8
:100C20000A46FFF787FB80BD0748018800200906B8
:100C300009D506490968090405D405480088012139
:100C400001404842484170470800005030000040D1
:100C500018FAFC0770B538480921042418232246E5
:100C60005AF74AF805461B202870FD26304662F7E1
:100C70004BF80021A982E96029616C606E80687080
:100C800028465AF754F870BD1FB514460022029248
:100C90000192069A00921A46234662F7E1FA04B0DE
:100CA00010BD0000B0B51448027C1449D4B20C2326
:100CB0006343CD5CFF2D0AD0022C02D103220274C3
:100CC000F4E7521C0274C818406880470EE0417C6B
:100CD0000B4ACCB21C236343D45CFF2C08D0491CC4
:100CE0004174D318DB68002BF3D098470020B0BDC7
:100CF000002101820120B0BD88DAFC07B894FC070E
:100D0000DC91FC0770B50C48092104240A23224613
:100D100059F7F2FF05461B2028701426304661F76C
:100D2000F3FFFF21743129816C606E806870284662
:100D300059F7FDFF70BDC0461B0D00001FB51446DE
:100D400001220292044A0192069A00921A46234610
:100D500062F786FA04B010BD748EFC0710B50E4819
:100D600009210422522359F7C7FF04462B200021F2
:100D70002154E172A172FF20083020810748E080F1
:100D8000A080617020460B3022460C320D21044BAE
:100D900061F7FAFE204610BD0D0D00004C04000066
:100DA000109CFC07B0B5174D2C68002C19D10E48CB
:100DB000092104222C2359F79FFF04462860412073
:100DC00020840A4820800025658020460A301121B1
:100DD0005CF707FB2585E5846584E583A5832020F2
:100DE000E0762046B0BDC046040D0000030A0000B6
:100DF00080B5FFF7D7FF59F79AFF0248002101603D
:100E000080BDC04638D5FC0710B50B4C20680028C3
:100E100000D010BDFFF7A2FF20600C21017010BDB3
:100E200010B5054C2068002800D010BDFFF796FFD4
:100E300020600D21017010BD30D5FC0770B504464F
:100E40007A2060430B490E187820315C012520463A
:100E50002A4661F783FE204601F048F90570317F8C
:100E60004174B11C401C10225CF7A2FA204600F02D
:100E700013F870BDB4D7FC0780B501F059F9FF280D
:100E800005D07A21414303484018103080BD00202E
:100E900080BDC046A4D6FC0710B5044601F026F973
:100EA00059F745FFA000024900220A5010BDC04674
:100EB00058D5FC0710B5044601F018F9002101705F
:100EC0002046FFF7E9FF204661F7C4FE10BD000091
:100ED000FEB5029301920E468100114A57585518EB
:100EE000002F0AD101020A310E4804241E23224693
:100EF00059F702FF074604702860BC1C10212046E9
:100F00005CF76FFA20463146019A5CF751FA029875
:100F10007870384659F70BFF00202860FEBDC046A8
:100F200054D5FC07140E0000B0B500280FD00246BF
:100F30001248824212D825483830002423460A2B12
:100F400019D00568002D10D0001D5B1CF7E70C4878
:100F5000C82101800B4808210180FEE70848C8210C
:100F60000180084808210180FEE701605C1CE0B2B6
:100F7000114600F08DFCE0B2B0BDC046FCFF3F0062
:100F80000031005002330050F8B50446401E0928D5
:100F90001AD8A0000D494718786B002814D00C4DC2
:100FA000A84211D03437EF482018401C042631469F
:100FB0005AF72BFA3D600823EA483146324659F782
:100FC0009BFE047059F7B3FEF8BDC04684DBFC07F6
:100FD000614BFC07FEB505460805090B002800D04B
:100FE000491C002900D1012127480540FF20002489
:100FF000EF4F144E01918C4220D0284603F050F957
:1010000000281BD10295002503F0CEF9C0070CD0B3
:1010100038880006F8D530680004F5D40A488542BF
:101020000BD06D1C5AF745FBEEE7029804490818EF
:10103000451C641C00200199DDE7FF2040B2FEBD85
:10104000FF0F00003000004080841E007CB5144675
:101050000D4606460C480840884202D128462146E3
:1010600008E061190A466A40120B05D001221203FA
:101070008018091AFFF7AEFF01AB30462946224619
:1010800003F0C0F97CBDC04600F0FFFFBFB51446B9
:10109000089A0B4DA84207D1CF2040000978314B68
:1010A00019540020107008E00E250295054D019599
:1010B00000921A46234662F7D3F804B0B0BDC0468A
:1010C000090E00007C8EFC0710B5014601200B4A7A
:1010D000914211D3121D91420ED8029CF231C8B236
:1010E000800050490918486D002803D0543100226F
:1010F0000A6080470020207010BDC0460E0400002A
:10110000E0B5EF4B1B7D132B03D101AB03F01EF9B0
:101110008CBD0020C0438CBD1FB514460522029231
:10112000044A0192069A00921A46234662F798F8FA
:1011300004B010BD0C8FFC07E0B503F03FF901A827
:1011400003F062F803F0C2F88CBD000080B53548AA
:101150006A3004490A3110225CF72AF9012000F0B4
:101160008FFB80BD30D8FC0770B50B4804240921E3
:1011700022460B4659F7C0FD05461B202870FC2669
:10118000304661F7C1FD002129726C606E80687085
:10119000284659F7CCFD70BD1B0D00001FB5144645
:1011A00004220292044A0192069A00921A462346A9
:1011B00062F756F804B010BD348FFC07F8B504464A
:1011C000184801680F200840E071080F2071C8B26C
:1011D0000009A0710801000F60710803000FE070A2
:1011E0000802000FA0700805000F60700904090FC5
:1011F000217003210D021D2201230B4F2946B84700
:10120000E0791C22002629463346B847E0781B22A5
:1012100029463346B84760791A2231463346B847E3
:10122000F8BDC04608DBFC0799F9F10710B5A44CDE
:10123000207D032801D15FF777F814202075002066
:1012400002F040FA10BDC046B0B50C464349884292
:1012500020D0434A90422AD0424988423BD120784C
:10126000401E092854D88000424909188A6B444B13
:101270009A4269D0404882426BD139480421082300
:101280000A4659F739FD217801706168416059F7C4
:101290004EFD5EE06268002A48D0334882424CD25C
:1012A00020782F49401804215AF765F851E020783A
:1012B000411ECAB2092A32D889002E4A5218936BAD
:1012C0002D4DAB4245D138322C4B595811606168D5
:1012D00000F0DEFA3DE0531C012198423CD30A3273
:1012E000904239D8C01EC0B2411E8A0021498B18D5
:1012F000996B00292DD0204CA1422AD0204CA1422C
:1013000027D038331D4C0025A5501D60884720E0AC
:101310001648C8210180164808210180FEE71348BD
:10132000C8210180124808210180FEE70F48C8212A
:1013300001800F4808210180FEE70C48C821018088
:101340000B4808210180FEE738310C4A0023135076
:101350000B600498002101700846B0BD0104000034
:101360000304000002040000FDFF3F0000310050B4
:101370000233005084DBFC07634BFC075CD5FC07A1
:10138000614BFC07EFF31081012080F31088084ABD
:101390001288120603D4074A1388034313800029D6
:1013A00002D080F310887047002080F310887047C7
:1013B0000800005008330050F2488178491C8170C1
:1013C0000178002900D070473E490022CA703E498A
:1013D0000B780A70012B01D0012100E0022101707D
:1013E0007047C046FEB51C460D460646002700283D
:1013F00001D4384600E0012029460A394B424B41CE
:101400000340019300D07642002A01D0372000E04B
:101410005720029008980090304629465BF74EFF0F
:1014200029464143711A0A2901DB029A00E0302261
:101430008918E1557F1C00280646EDDC00998F4293
:1014400003D23020E0557F1CF9E70198002804D032
:101450002D20E055E019421C00E0E2190020107038
:10146000101B4108521E002907D0237815782570DB
:101470001370491E521E641CF5E7FEBDEC488178CE
:10148000002904D0491E8170090600D070474178B8
:10149000002904D0002242700322114003E00178A9
:1014A00000290AD0491E00220270C8B20128EDD1DD
:1014B00004480121C170044800E000210170704718
:1014C00088DAFC0718FAFC0778FAFC0782B0F0B556
:1014D000CBB00F4601905092519350A80290439088
:1014E00003A84A9001210C1A0E0239784A98221852
:1014F000B24200D383E025290ED17D78BA1C302D6D
:1015000011D1117800297AD03039CAB20A2A00D311
:101510000021FD783A1D07E07F1C01700021417019
:10152000401C4A9054E0002104232B436C2B02D131
:101530001578571C00E01746582D21D0632D4BD04D
:10154000642D27D0692D25D0732D49D0752D17D046
:10155000782D15D0002D52D04AA803A925232CA2FE
:10156000FFF7E8FA4A982118B14204D20570002129
:101570004170401C4A904AA803A902232EA225E0EC
:10158000029A01CA0292C9B2752D13D100910A21A3
:10159000002214E0029A01CA0292C9B200910A2103
:1015A000002244AD2B46FFF71DFF03464AA803A9BE
:1015B0002A460BE00091583D6A426A41102144AB33
:1015C000FFF710FF03464AA803A944AAFFF7B2FA9F
:1015D000397800298AD112E0029A02CA02929CE765
:1015E000029D2A680020115C401C0029FBD1431E8B
:1015F0004AA803A9FFF79EFA2D1D0295E8E703A963
:101600000198FEF77EFE4BB0F0BC01BC02B0004773
:10161000464154414C3A20756E737570706F727408
:101620006564207072696E746620636861726163BC
:101630007465723A200000002E0A000080B5AE21C9
:10164000894A515C002904D080000249085802F000
:1016500001FB80BDA49CFC07FEB50024E5430028E7
:1016600014D006460078002810D0002A0ED00F466D
:10167000009207F091FA0190046002A930463A46C0
:10168000FEF758FE02990A78002A01D02846FEBDCE
:10169000019AB142FAD011680229F7D00028F5D496
:1016A000009908602546F1E7B0B50C460025202DCD
:1016B00004D041F724F960556D1CF8E70020B0BD57
:1016C000B0B5044609480A4D402229465BF770FE32
:1016D00048350848302229465BF76AFE0648001B59
:1016E0000649088014304880B0BDC04670ECFC0745
:1016F0007C37F207B0ECFC07B8ECFFFF78ECFC0796
:10170000B0B504462120C100A74D28465BF769FE0D
:10171000832040000349295203482880204600F0D6
:1017200017F8B0BD224300003512000010B5034683
:101730009D484218AA2494707A22514340181030D0
:1017400019465BF735FE012000F002F810BDC046D7
:1017500080B5024900F0C4FE80BDC046189DFC075C
:1017600007481E214180018803220A430280018824
:1017700004220A430280B4480121C1707047C04668
:101780000016005088DAFC07F8B50D460446354EC1
:10179000B06BF0631E4801210091016001680029CF
:1017A000FCD11C480068B0634127F15D002908D0D6
:1017B0004020305CFFF7E8FB442000213154F15514
:1017C000B06BF16B411A706A814201D800281DD1BB
:1017D000E8B203281AD12C20315C2078884215D138
:1017E0006178814212D1A17881420FD1B06A01287B
:1017F0000ADB009CF45500090749FFF795FB4421DB
:10180000745440217054F8BD00F014F8F8BDC0467F
:10181000FC0000401C0000403518FC0780B5034860
:1018200001688948001D5DF7F3FC80BD149DFC072D
:1018300088DAFC07B0B520200A4C0025255407F0B3
:1018400053F809484560057006F0D8FA06F00EF81E
:1018500005F09AFD4420255404A002F0FBF9412034
:101860002554B0BD30D8FC07D8D9FC074F4B0D0A22
:101870000000000080B5054800F01EFE80BDC04697
:1018800080B5024900F02CFE80BDC046249DFC07B7
:1018900070B50C4605460C4EFFF7C6F9002806D079
:1018A0007019801C0421224659F765FD70BDFFF7B1
:1018B00069FD0421082330460A4659F71DFA4460A1
:1018C000057059F734FA70BD01040000704700003C
:1018D000FD2801D00020704700487047DC91FC07CC
:1018E00070477047F8B504460025F44E2F46F42D96
:1018F0000FD07119087C400709D5002C06D0F8B22A
:10190000000120184A3110225BF752FD7F1C7A3506
:10191000EDE7F8B2F8BDC046F8B5022903D10120C1
:10192000FFF7EEFEF8BD0D46042801D1147805E05E
:10193000002311461A4600F0FBFB0446012C32D866
:10194000002D1CD0F320C543DC4F0837002600943F
:10195000002D25D0B4420ED041208000D7490C186C
:1019600060197A215BF73DFD00203860A055009C8E
:10197000D249891988703F1D7A35761CE8E77A21AB
:1019800008466043CD4D281810305BF72AFDA000B3
:101990002818002181602819412292008154817009
:1019A0000120FFF7D5FEF8BDA4D6FC0780B5FFF7F0
:1019B00081FA80BD10B50446891D02201022FFF770
:1019C0005BFA00280BD001467A2220465043BA4BDE
:1019D00018185BF7EDFC2046FFF730FA10BD2046E3
:1019E000FFF768FA10BDC046F8B5044680008E497E
:1019F0000F18FD6E6C37002D20D121020A311348DB
:101A000004221E2359F778F98321490001803860A8
:101A10007A256543A848441951341026204631469A
:101A2000324661F75CFCA44A505D082101435155E0
:101A30003D68A81C214632465BF7BAFC284659F798
:101A400076F900203860F8BD88DAFC07140E000033
:101A50007CB505460C206843D04A10182D22825CC4
:101A60002C46002A18D00020019000907A2068436C
:101A7000914A125C012010400A88002A06D10028F1
:101A800078D0881C694608225BF7B6FC002871D123
:101A90002046FFF7D3F97CBD0A88002A20D0002019
:101AA0000222FFF7E9F9002864D006467A2255435E
:101AB0008148401931465BF77BFC2046FFF7BEF9B1
:101AC0007920305C0128E6D87C490A189278AA2A45
:101AD000E1D1800008184A688260501C48607CBDD3
:101AE0002721415C06462736727812025118B278D7
:101AF000F3781B029A1812045118327973791B0279
:101B00009A182623C05C61F7CDFB01460320022909
:101B100003D311D0042901D02CE001200622314644
:101B2000FFF7AAF9002825D001467A2255436248DA
:101B300040195BF73DFCABE70020FFF7D3FE002820
:101B400018D00546030108330C480921042259F72F
:101B5000D3F80446457017202070A01C0622314699
:101B60005BF726FC20460830FFF7BCFE204659F7FD
:101B7000DEF87CBD2046FFF79DF97CBD140D00000A
:101B80005C49C98E0180704780B55A490A7D027050
:101B9000401C15315BF70CFC80BDC0467D21C18027
:101BA00000218180102141800821018070470000C0
:101BB000F8B504467A2646433F4885194F782F7773
:101BC0002846143008210A4661F789FBA81C0090BA
:101BD00010223946174661F782FB40F790FE364BDC
:101BE000995D01220A439A556882204600F0AAFDB9
:101BF000297F0177698A4182E98AAA8A6B8B2D8BBA
:101C0000058343838282C182801C00993A465BF738
:101C1000CFFB204600F096FD59F789F8A000024955
:101C2000081800210167F8BD88DAFC07FEB57A21A3
:101C30004143214844187820205CC0073AD002AACA
:101C40000027177001AEFF2535702046314600F0A1
:101C50009DFA3078FF2813D1F94318483A46082FE7
:101C600019D083184126B6009B5D002B05D1C319FE
:101C70009B688B4201D2D5B219463F1D521CEEE73C
:101C800002A90978002904D00C49091841229200C0
:101C90008F54054601E0481C0CD079202554074894
:101CA00041684A1C4260AA0080188160204629468B
:101CB000FFF73CFDFEBDC046B4D7FC07A4D6FC0729
:101CC00010B50C46017801290BD000290ED14288AD
:101CD000084B1A751533011DD2B218465BF768FB25
:101CE00002E040880349C886002000E048202070B8
:101CF00010BDC04684DBFC0700208880488001209E
:101D000008707047F8B5032006020620022201245D
:101D1000314623465DF740FE06F0E6FD1C4DA88ADD
:101D2000C00703D028465EF7EAFCF8E7194800210F
:101D30004160017005F0ECFF01F0FAFF2120C000C6
:101D4000154F385C00280FD085204000385C1422E5
:101D5000314623465DF720FE43208000385C002199
:101D6000132223465DF718FE222028610B48C07F0E
:101D7000002802D00AA001F06DFF032006F040F910
:101D8000002804D0032006F077F806F015F8F8BD17
:101D900000100050D8D9FC0730D8FC0708DBFC073E
:101DA0000D0A2B4157414B450D0A000080B55BF7EA
:101DB000EDFA80BD80B55BF7F2FA80BD70477047E1
:101DC00070B505460469261D3068002805D03046E8
:101DD00040F764FE58F7FDFEF6E700202861204634
:101DE00058F7F7FE70BD0000F0B58BB01E460792A5
:101DF0000F460446109806900088089000210120A4
:101E00000246092913D0032585400990204634460F
:101E1000089ECE403B46012737407E421F462E405B
:101E20003243264604460998801C491CE9E70A9279
:101E3000802030439E210140A08A03911D490291D8
:101E40000190002000901C490AAA132338464DF740
:101E500069FD0546002829D1089720270121059111
:101E6000384658F73BFE0996064639465BF7B9FAFD
:101E7000266130461E3011496160A06008980088D4
:101E800030830598E0811420E082A08A7080099850
:101E9000C003079908433080069800887083301D7E
:101EA00040F7F4FDA08A002159F757F928460BB0F6
:101EB000F0BDC0468C93FC070A1800007094FC0724
:101EC000004870479094FC07FEB51F4616460C4626
:101ED00014205FF713FE002819D001972778082FE8
:101EE00002961BD80546418B008B3A4600F0E6F877
:101EF000002815D060788D26802840D8082F11D072
:101F0000072F12D0062F12D1082810D037E05C48D6
:101F1000C82101805B4808210180FEE781262EE070
:101F200082262CE0072802D029E0062827D32E1D80
:101F300035462D68002D0BD02979B942F9D1002200
:101F40003046294640F71AFE284658F742FE607888
:101F50000830012158F7C2FD0546617808315BF76A
:101F600040FA2078287160786871A81D6278A11CF9
:101F70005BF71EFA3046294640F7ACFD00260648BE
:101F800002230199029A58F7B7FE21780170467032
:101F900058F7CDFE0020FEBD01140000F8B5144630
:101FA0000D46104659F7EEF801283ED114205FF790
:101FB000A5FD002821D00746418B008B3E7F32468D
:101FC00000F07CF80090787F010208312A781848E8
:101FD000964219D16A7889B2931D224658F78CFE31
:101FE0000746002038710098388068787880781D1E
:101FF0006A78A91C5BF7DCF910E0DA48C821018097
:10200000D94808210180FEE789B20623224658F705
:1020100073FE07468020387100983880384658F79C
:1020200086FE0021204659F798F80020F8BDC046EA
:10203000140C0000F8B50F78092F19D20D4612A024
:10204000C45DA01CC6B213481946334658F754FE67
:102050000646287830707470B8000FA10958B01C7B
:1020600022465BF7A5F9304658F761FE0020F8BD1F
:102070000348C8210180034808210180FEE7C046CB
:10208000003100500233005007070A070D0D080603
:1020900007000000031400008B9BFC074B98FC0713
:1020A000A698FC074B98FC073D98FC075398FC0743
:1020B000049CFC07FD9BFC07D491FC07B0B58BB2D8
:1020C000411C00200446092C0DD01D46E540ED07BB
:1020D00002D0A24202D0891C641CF4E7092A01D074
:1020E000481C00E0002080B2B0BD000010B58200A6
:1020F000074B9958002909D19C1801020A3105485B
:102100000422122358F7F8FD01462060084610BD4E
:1021100058D5FC07180E00007FB5044A01A90B46EC
:1021200070CA70C300F0DCF97FBDC046008DFC07AB
:10213000F8B500920D460646314F81370024022C37
:1021400021D0032E1CD8B00001A108588746C046F4
:102150006121FC076721FC076B21FC077121FC074B
:1021600038465F3806E0384604E03846373801E044
:10217000384627382946009A5BF73EF9002803D0F5
:102180007A37641CDBE7FF24E0B2F8BDF0B587B016
:102190000192029101467131039106903A30059007
:1021A000FF2004900027164E3D463C46022D1DD0D0
:1021B00070198078AA280AD1F119087C069A127839
:1021C0000240500708D54A311022059807E0E00781
:1021D00000D10495012406E08131072203985BF7C2
:1021E0000BF9002803D07A376D1CDFE7049D01202E
:1021F0000440019804700298057007B0F0BDC04615
:10220000A4D6FC0770B50C78A51E052D33D81C0A82
:102210007D442D796D00AF4402242E313F4D7A204C
:102220006043574A1518887878216854C0070DD044
:1022300071350C2060434A490E1831462731062279
:1022400028465BF7B5F82620305CA8712046FFF7DA
:10225000EDFC0C206043424908182D210022425415
:1022600042E00C2060433E4909182D22002088548A
:1022700006F0CEF938E005F097F835E07A256543A9
:102280003F4C60193A30891C17225BF791F8605D6A
:1022900004210143615527E07A256543384E7019C2
:1022A0006130891C102422465BF782F8705D204360
:1022B000705519E07A206043314A14188B1C488A03
:1022C000002808D020461E301C2219465BF770F803
:1022D0002078022106E0A01C1C2219465BF768F852
:1022E0002078012101432170002070BD10B50A78CB
:1022F000072A24D8180A920001A39A589746C04684
:102300002123FC073F23FC073F23FC073F23FC0757
:102310004D23FC075D23FC075323FC075923FC07CF
:102320007A224243164B00249C540C2242430C4B0D
:102330009A182D230124D45402F0D8FE0EE05C48F4
:10234000C82101805B4808210180FEE702F012FFEE
:1023500004E0FFF749FB01E0FFF72AFC002010BD75
:1023600008DBFC070031005002330050180A7A22C3
:10237000424303488018097878228154002070472E
:10238000B4D7FC0780B5180AFFF762FB002080BDB8
:1023900080B5FF207A309549085C042809D10548AA
:1023A00009210422012358F7A7FC0221017058F7E4
:1023B000BEFC80BD030D000080B5180AFFF7FAFAD5
:1023C000002080BDF8B51E4614460D46104658F74D
:1023D000D9FE012819D000284DD114205FF78EFBBB
:1023E000002814D00096418B2A88038B5E1C0023A2
:1023F000092B34D00F46DF40FF0704D0B7B27F1C53
:1024000097420BD0B61C5B1CF2E7022434E028484C
:10241000C8210180274808210180FEE7DFB2082F8C
:102420001DD8061D3668002E28D03179B942F9D161
:102430007079831D1C480099224658F75DFC0746B9
:102440002888388000243C7170797880781D7279F2
:10245000B11D5AF7ADFF384658F769FC0CE0124839
:1024600006230099224658F747FC298801808021DD
:10247000017158F75CFC00242046F8BD07770099ED
:10248000090A41775FF758FB0146084801252246B3
:102490002B4658F731FC077058F749FC204629466F
:1024A00058F75BFEE7E7C046140C0000021400007A
:1024B00000310050023300501CB5044600F007F80C
:1024C00007CC01AB01F042FF01F033FF1CBDE0B5CA
:1024D00001F074FF01A801F097FE01F0F7FE8CBD3A
:1024E000F0B585B00C460290FFF7F1FFA06801053A
:1024F000020B002900D0521C00946068244E064054
:102500000024254D7A4F0192944237D0029800283A
:102510001AD0304601F0C4FE002834D100200390C8
:1025200001F042FFC00723D028880006F8D538689C
:102530000004F5D419480399814224D00398401C23
:10254000039059F7B6F8EBE701F0EAFE00281AD13C
:1025500001F0B0FF002816D102205DF701FF012035
:102560004007304301F0C0FF01F038FF00280AD1D6
:1025700008488019461C641C019AC5E7009A07CADE
:1025800004AB01F03FFF01F0D4FE05B0F0BDC04642
:1025900000F0FFFFFF0F00000800005080841E00C5
:1025A00010B5BC20114900220A5411480A21042404
:1025B0000123224658F7A0FB047058F7B8FB10BD62
:1025C00080B50A48007800020A3081B20848042227
:1025D000012358F791FB0721017058F7A8FBC82089
:1025E0000449FEF7A1FC6249887480BD30D8FC071D
:1025F000050E0000C125FC0710B501208402064825
:102600000460BFF34F8FBFF36F8F02F0E3FA03480C
:1026100004600348046010BD80E100E080E200E057
:1026200000E100E07FB5044A01A90B4670CA70C3FF
:10263000FFF756FF7FBDC0460C8DFC07B0B54C4C74
:10264000E07F094D2978002902D05DF795F901E076
:102650005DF79AF9287801214140297064200349E7
:10266000FEF762FC6077B0BD689EFC073D26FC0764
:1026700080B5042058F786FDC11E4842484180BD00
:1026800080B5103080B2022158F7E0F980BD00001B
:1026900070B5174EB06800F02DF835494A6E00232A
:1026A0004B661518084C284621465AF707FE7061FC
:1026B00006494143481901D0201A80B23061306880
:1026C00008210143316070BD710200008FFDFFFFE2
:1026D00080B506480021016001F054FD0120C007CB
:1026E00003490A6882430A6080BDC0469CF9FC0722
:1026F0003000004080B50246C00B09D00E48406B48
:1027000000210B465AF704FE8905800A401880BD57
:102710000948406B4243900A80BDC04680B5FFF730
:10272000E9FF80BD80B50449096B4143034808189F
:1027300003495AF7C3FD80BD08DBFC0720A1070051
:1027400040420F0010B501468000094A1418206F5E
:10275000002800D010BD703409020A310548042257
:102760001E2358F7C9FAFF2108310180206010BDEF
:1027700088DAFC07140E000000B5ADB005201490F7
:102780000507C02017902883ED48C8211E910180BD
:1027900000244480EB4808211C910180EA4800880D
:1027A00023AE30803088C046C04630880422D143F2
:1027B00008422295219202D0E348048004E0E24AD4
:1027C0009089012188439081E04E30881C9908430C
:1027D0003080012528021A902C305CF7C7FF7088E2
:1027E00080211B91084370800F239802D64FB98B2C
:1027F0000143B983F08D06229043F085A803B98B7D
:102800000143B9833088D2490140318070881092E9
:1028100010431C9988437080229F788DCD4AFF32E7
:10282000F18D1140AA021F931B03C0051395189246
:102830000F9319D51143F185F08DC7490140E80385
:102840000818F085C04A908B1C9908439083908BA0
:10285000219988439083F08DA843F085908B402187
:1028600001439183114621E0032042021143F18587
:10287000F18D1943F185B44B998B1C9A914399833F
:10288000998B0422914399837188B44A0A407280DB
:102890007188B34A0A40C00210187080F08D01217F
:1028A0000143F1851946788D4007FCD5888B0322BA
:1028B00019921043888330882021209108434021B9
:1028C00088433080388F022528433887A548219EC9
:1028D0000680B888A4490140B980A44A13981071B1
:1028E0000004A34908600D32A248011D169210464B
:1028F00015915EF71BF91D9528465EF7DFF89E4897
:102900000068C1B20C20AA29014600D031463A889D
:10291000824388183880C046C04698480088984945
:1029200008839848006848611398C046C0468825C7
:10293000954F7C5324AE95A1242230465AF738FD9A
:102940009B493846224633465CF790FD785D400847
:10295000059578558920395C490839548420395ABD
:10296000199A12021192002902D11199E8313952B3
:102970008621785A0028804E15D1FF200202306847
:10298000104035221202904209D00D22920290424C
:1029900003D033221202904204D1942000E0902010
:1029A000785200E00020714D68875CF749FC7F2079
:1029B0006871B0696F4DE860169815995EF762F915
:1029C0007C4806687C4800687C498842149F00D097
:1029D00093E07B487B495AF704FD072421027A489B
:1029E0005AF7FFFC73480660FDF75CFC77487849AE
:1029F00001607848784930225AF7DAFC7748002697
:102A0000C671867146710671C670867046703D212A
:102A10000170734873A1402216925AF7C9FC81488D
:102A2000C671867119994171FF210171C170817060
:102A30004170089101707C4806707C487C490160B7
:102A40007C487D4901607D497D4808607D480A21B8
:102A50000E9101707C48159606707C4807607C4892
:102A60000121129101607B4807607B481099016049
:102A70007A4804607A481C9901607A4850210160C4
:102A80007948016079484E49016000F0B7FE5CF773
:102A900005FB5CF749FB0F99FF31229AD08C084067
:102AA00061020143D1845CF75BFB43480068434902
:102AB0008842139F2D4C36D06C4800686C49886062
:102AC000E868A871010E6972010C2972000AE871A8
:102AD0001A98C03067490A46002818D0401E435C47
:102AE00014782646199D2E40224DAE19B6795E40C7
:102AF00066401E4C1670521CEEE75F485D497A0234
:102B0000944200D965E722586250241DF7E7284611
:102B1000283058491C225DF7C7F9A86A3FF7F5FE2F
:102B2000254826490160FEF71BFE384600F0C6FE28
:102B30002078002800D1A1E01B986070A3E0C04677
:102B40000031005002330050040300505200005086
:102B5000FFBF000000F0FFFFFF0F0000FFF90000C3
:102B6000FFC7000000020050FFF7000088DAFC07F2
:102B700080E200E0309DFC07D02FF807D82FF8073F
:102B800008DBFC07D42FF8075CD4FC07C137FC072F
:102B90009D37FC075137FC07000000007537FC0724
:102BA0000000000000000000D02EF807C02FF8073A
:102BB000A000FC0720FAFC079CF8FC07658734128C
:102BC00000ECFC079408000000F9FC0724FAFC075D
:102BD000A094FC07C8F9FC075CDEF107A4F9FC0728
:102BE0003CFCFC072000800000C000000000040046
:102BF00000002822000000000000040000F7FFFF92
:102C00007F00000030F00708000000000004000012
:102C100000000000000000000000000000000000B4
:102C200000000000ACF9FC07C5F9FC0750F9FC07EF
:102C3000E036F20754F9FC074896FC0758F9FC0700
:102C40001C95FC07A1F9FC07A2F9FC075CF9FC073D
:102C500060F9FC0764F9FC0768F9FC076CF9FC07EC
:102C600070F9FC0748F9FC0744F9FC074CF9FC072C
:102C700000020040E4DBFC0700F0FC07E448002110
:102C8000C170E4480170E44800683FF7E3FAE048A7
:102C9000159F0771C7701298820710681A99084328
:102CA00021921060DD4E304622300C2110915AF7EF
:102CB00098FBDB4C0D22227520461530D9495AF776
:102CC00077FBE7860424D849204658F714FA049481
:102CD0002046394658F741FA30461430D349062287
:102CE0005AF78AFB002804D0308B24A988807069A9
:102CF00003E024A8CE498180CE482490CE4C2846BB
:102D0000203024A906225AF753FB15997160B1604F
:102D1000F1602176C94801601420207560F720F821
:102D20002078002802D08120607004E00120B8499A
:102D3000C870B84908701899AE20C14A129E16543E
:102D4000AD2014901654BF4F2098159C3C544F2032
:102D500080004C3139522F20C00001903C52BD20E0
:102D600040003C542120C00018903C544520810074
:102D70007D22D2000B927A50872149007C54089D15
:102D800029460E317C54B0493963B049B985642174
:102D90000791B962FE75B882AD48386138462C306B
:102DA0002B218170192080017862112000010E9979
:102DB00039509F2040003818A6A11C220F925AF7C4
:102DC000F7FA572080000921395414984000A84987
:102DD000395228465E30381892490D2203925AF72C
:102DE000E7FA28467C303E54284678301F993954FB
:102DF0009348446006709F48FFF75EFB832006906F
:102E00009D4801889D4A914205D106994900405A42
:102E10009B49884202D00020FEF772FC994924A801
:102E2000024638C938C2FFF747FB9E25964C2088DA
:102E3000964E974FB04202D1605BB84210D0A01CB2
:102E40009C215AF7CEFA67536A20199921543620EB
:102E50001D99215426801298A0700020FFF7E2FBF4
:102E6000FEF708FD68226D4DAC5A2E466836894B38
:102E700089499C4202D1748A8C420DD0AB52874A58
:102E8000874BEA66724828676B67718215983082B3
:102E900010997180FEF7F4FCFEF7ECFC69480A30EB
:102EA00029466A3110225AF783FA7E4924A802463D
:102EB00038C938C2594DFFF7FFFA698B7A48814209
:102EC0001C9C534E1B9F03D1298C784A91420FD0F2
:102ED000764929841599E983A983688312980F9903
:102EE000202902D06854491CFAE70020FFF714F9A2
:102EF000FFF7EEFB6E481E9901806E48048024A8FF
:102F000008300290129948020A903F2080020990EE
:102F1000CD03694810301F90474C219922980089B1
:102F2000000600D4F1E1086B284200D0EDE13088C2
:102F3000C00700D0E9E158F7BCFB0020149000F076
:102F4000BDFCA07B042800D0F4E0139800F0B6FC90
:102F50000024239423A8042149F7FAF9002800D17A
:102F6000E7E012985549086008680028FCD12198CC
:102F7000C0693149096C884202D22F490C6421464C
:102F8000411AC909192900D2D3E02B4908644C4AD7
:102F90001088109050880F9090880E90D0880D90D7
:102FA00025940C464748249024A8FDF70FFE11985D
:102FB000FF30434A11890140E18451890140218554
:102FC0001089099C20400A990843108150892040AB
:102FD000084350815EF74CF80C9037494988164AEF
:102FE000D28C37480389234013430381124A128D40
:102FF00043892340134343810C98401A0B9A11468E
:103000004143002862DC304A8918C01708405FE05D
:1030100018FAFC0778FAFC074CF9FC0708DBFC07F8
:1030200084DBFC07109CFC07648EFC07DA36F20791
:10303000234800000500F43588DAFC0784D5FC0736
:10304000D8D9FC0730D8FC072B2B2B002B2B0000EA
:10305000410045001107B75C49D204A34071A0B5F7
:1030600035853EB083070302F5FE0508434C7632F2
:103070001C0E0000189DFC07A4D6FC0735120000AA
:10308000224300000C8DFC0704D6FC077956000093
:103090006687000057340000446500000000C40942
:1030A00045000101008DFC07CEAB0000BBDC000039
:1030B0000031005002330050309DFC07FC000040FE
:1030C000001500500104000082FBFFFF50189630ED
:1030D000D4495AF709F982091932D34C60797F280B
:1030E0001DD0101A41B2C9114840401A40B20828F8
:1030F00016DBCD4C606C401C60640C925EF76AFA83
:1031000000F0EEFA00F0ECFE5EF7A2FA5EF728FAA5
:10311000C64870305EF7CEFA5EF772FA0C9A6271AA
:10312000C3480F9941800E9981800D99C1801099F3
:103130000180BD4C2098BF49085C002800D1E2E026
:10314000886D02284AD0002800D0DCE0FFF790FA12
:10315000B849002800D1D6E0C420085AFFF790FAF9
:103160000799B44A515C0029139902D0129948403A
:1031700001460029AF4931D124A80A4608990171B6
:103180000298149B036043608360C360039840010E
:103190001058090688430699090640182490189883
:1031A000105C002804D0A448A449016401F012FD79
:1031B00024A801F029FDA248606501F08BFD85205F
:1031C00040009C49085C14221199139B5CF7E4FBB6
:1031D00022209C4AD0601D989649886501F090F99C
:1031E000944BDA59908A00283FD08C21595881425B
:1031F0003FD1109205995858401C58500628149AEF
:103200003CD3D0201958491C19508E4A1088129965
:10321000884310801088049988431080CC20195866
:10322000109CA28A89181950194648310F91002024
:1032300014900864EFF3108072B6896B18466830FA
:103240003FF748FC62B6A18A16342046FEF79CFA86
:1032500014980F99886304F023FB002801D101F032
:1032600039FD714C734B149A08E090201858421C99
:1032700004E019464831149A0A64486490201A50B0
:103280004420185C00281BD0C420185AFFF7F8F916
:10329000002836D0EFF3108072B66649086F002818
:1032A0002ED1C86C01282BD10020C8642224654887
:1032B000C46062B601F00EFD6248C460EE4C20E0CE
:1032C0004820185C0028DFD0EFF3108072B6186F2A
:1032D00062B60028D8D0D86F0028D5D1EFF310807F
:1032E00072B6184668303FF7D9FBEA49C86762B63C
:1032F0000198085C052800D065E101F02BF964E134
:1033000062B601F0EDFD04F0CDFDEFF3108072B672
:103310002098E049085C002854D01898085C0028E0
:1033200046D0DD48008AC0073ED1C86F00283FD193
:10333000C859808A00283BD130790228159802D0DC
:10334000D0480068806A2490FEF768FA0028159833
:1033500000D03DE157F79FFA0028159800D137E1DA
:103360002298808AC007049800D031E13088002874
:10337000129800D02CE1CB48806A002803D0C148C5
:103380000068806A2490B17824A858F77CF8002857
:10339000129800D11CE1B17824A848F7D9FF002881
:1033A00000D014E1012013E190201599B94A115081
:1033B000E54C2078002801D0677003E00020F07011
:1033C000B349087023A9002008703279022A02D07C
:1033D000AC480068806A24901F98B44A5DF7E0FE0C
:1033E000002800D08BE0AF48806A002803D0A548B1
:1033F0000068806A249000F0C5FE24A91F985DF73C
:1034000005FF00287BD101205CF7D6F9249A002A19
:103410001AD02198006AA6494018DA2815D8521EF9
:10342000249212E0FC08000088DAFC0700ECFC079C
:103430000015005030D8FC0708DBFC07F925FC0715
:10344000A989FC07041000500022A08F8B4E7169DF
:103450000818B06192487E30219FFB6B03400B43FC
:10346000FB63F86B93490840F16989020143F963F2
:1034700023A804210170F86B8F490840B169490500
:103480000818F8638D48824200D3E6E07C49886BD7
:10349000C96B002359F73CFF0903000D4118F0697F
:1034A000821C8A421B9F00D0481E784E31794A1EEA
:1034B000914146F781F98248C06A80472199086B9B
:1034C0002842FCD01A99704A10680842FCD0106853
:1034D000B843106065480089452804D84621634AEE
:1034E0001181081A60663EF7F0FE67498868206619
:1034F00008680006FCD522990889B8430881644809
:10350000007801281D9800D0199823A9097804296A
:1035100000D00846811E022948D2229F388A0426FC
:10352000304338825D490868304308605049088953
:103530000124A043088117983883788D1A9908428E
:1035400007D14C4A9088204390801088602188439E
:103550001080B88CA043B8840D205CF707F97889F7
:103560002043022188437881B88AC00603D53F48AA
:10357000801E1C99018030BF2298808AC00602D527
:103580003A481C9901803B490888209A1043169AB2
:103590009043088000F032F9B64804703F4908684B
:1035A000B04308601B9FD04C384E07E0012805D17E
:1035B0002E49881E1C9A028030BF0A8062B62A48B3
:1035C0001E990180A9E400F0E3FFEA4B5CE60420C9
:1035D0000428E84900D0EBE69C200858002800D0D9
:1035E000E6E6086F002800D0E2E62B480088800756
:1035F00000D5DDE601F036FCDE49002800D0D7E634
:1036000090240859022800D2D2E60020149001F03C
:1036100039FC002800D1CBE61F48001F5DF71EF8DB
:10362000D449C8590028149B04D057F7AAFB149B0F
:10363000D049CB510B9818301B4A1060BFF34F8F05
:10364000BFF36F8F0B518B65A74C2078002802D0F9
:1036500081206070B6E61298B1E603481E99018099
:1036600002481C990180FEE70031005002330050EF
:10367000040300505200005088DAFC07309DFC071C
:1036800008DBFC0758F9FC070002004018FAFC07A9
:1036900078FAFC0730D8FC070410005010ED00E069
:1036A00082FBFFFF00FEFC0780E100E01D18FC0725
:1036B000C8FEFFFFFF03E0FFFFFF1F0040420F00B7
:1036C000E4FEFC071CB5044600F078FE01A800F0FB
:1036D0009BFD002C00D01CBD00F02BFE1CBD00008B
:1036E000F0B589213B48415C3030D84AD27B002379
:1036F0000C4E8B4212D24768092A3C4606D33D46FF
:10370000074C2540114C246864042C430568B542DD
:1037100000D127462F6008305B1CEAE7F0BDC046A9
:10372000FFFF01FC3830004010B5C84CE07B401C66
:10373000E073C3B22748054900225BF7B5FFE07B81
:10374000401EE07310BDC04688DAFC07789EFC0777
:1037500070B50C461948111889251E4E705DC000C1
:1037600030183030A20059F723FE705D00197055F3
:1037700070BDC0461148115809234B431058000C26
:103780001A1A1204D214134B60331A8489B2401AE5
:103790000104890C0818401CD883704770B50C468A
:1037A0000648111888250B4E705DC0003018A20025
:1037B00059F7FEFD705D0019705570BDD42EF807E5
:1037C00088001018024940587C21024A5052704724
:1037D000D02EF8075CD4FC072F20C1006548415C5F
:1037E000052904D14288002A01D0012070470A39F6
:1037F0004A424A41007A10407047C046FEB5194C13
:1038000001252580C44E727B1748011D1B205CF7E3
:103810005DF81648002707600D20410155484258C1
:10382000002A01D1124A42502021415CFF229E32DF
:10383000805C084306D105F057F80E4847600770D2
:1038400004F014F8022030730B4801907D204005ED
:10385000009068465CF79AFD00F0B4FAA08928430E
:10386000A081FEBD00030050309DFC070000084011
:1038700006110000D8D9FC070800010003480188A0
:10388000034A11408918091D018070471200005039
:10389000FC7F000080B5014605480068002803D081
:1038A00004A05BF71FFB80BD03485CF70CFF80BDE5
:1038B000B0D7FC07256300000010005080B5E44934
:1038C000CA78012A0FD1094A002803D0108840077E
:1038D000FCD402E01088400705D40020C8700448DA
:1038E00030305BF757FC80BD88DAFC0700160050CB
:1038F00008DBFC0780B5FFF76FFF00280AD06920BE
:10390000800005490A5C002A04D101220A5403A060
:1039100000F0A0F980BDC04630D8FC072B434F4DC6
:103920004D414E44204D4F444520535550504F5229
:103930005445440D0A00000080B52F20C1000D48F9
:10394000415C052904D1828B002A01D0012104E0C9
:103950000A394A424A41417A1140002909D0FF21DF
:10396000A631425C002A04D10122425402A000F098
:1039700071F980BD30D8FC072B42494E4152592085
:103980004D4F444520535550504F525445440D0A15
:103990000000000070470000F0B58BB0302200211D
:1039A00081541F221204204B1C68944301225504A9
:1039B00064191C601E4C1F4D45611F4D1F4E204F4A
:1039C000204BC36106624462184B8362C5621E4B82
:1039D00007604360D004994A136883431360282921
:1039E00003D001A84154491CF9E7984800684030C9
:1039F00001A9282259F7DCFC95480821C1735DF71D
:103A0000E9FDFFF791FEFFF76BFE00F069FA5DF745
:103A10001FFE5DF731FE5DF7A3FD23485DF76AFEEB
:103A20005DF7EEFD0BB0F0BD74000040553AFC07A9
:103A3000513AFC07D53AFC073516F207350AFC0760
:103A4000AD3AFC07AF3AFC079539FC0788DAFC076A
:103A5000002070477047000080B51F20000401213E
:103A60008A07536F8343480418185067106807216A
:103A7000884310600B48018808220A4302805DF7E2
:103A8000A9FDFFF751FEFFF72BFE00F029FA5DF7C5
:103A9000DFFD5DF7F1FD04485DF71CFE5DF7B0FD4D
:103AA00080BDC0460800005070ECFC07704780B530
:103AB000E62800D3E620282800D82820FF22EC3270
:103AC00042437D20C100104659F7F8FB7E38C0B252
:103AD00080BD0000022901D001290AD100280FD0A1
:103AE000FF2811D00A48C82101800A480821018016
:103AF000FEE70748C8210180064808210180FEE74B
:103B0000022901D10C2070475148C07B7047C04644
:103B1000003100500233005088DAFC07FEB54748F8
:103B20000168C90703D0016802220A430260012329
:103B30000168490203D5990502680A4302601D0223
:103B40000193580202903E4F0095384608380468A9
:103B5000002C71D0200617D58020386048F7A1FAD4
:103B6000D3204000DB4A105C401E414241412F20DF
:103B7000C000105C401F421E904108403349096854
:103B800069180885FDF7ECFDA00703D50220386011
:103B900045F7A2FC200714D508203860002045F71F
:103BA0004FFC04202A4EB0735DF72AFDC12040016E
:103BB000F17B0906081823490968814201D021498F
:103BC00008602C4203D03D60012045F739FC029883
:103BD000044203D00298386048F7CCFA600603D557
:103BE0004020386045F727FCE00603D510203860F8
:103BF00043F7EAFF60070FD504203860124A1088A7
:103C000001998843108057F7BBFD3EF719FDFDF77A
:103C1000A7FD00200E498873E00708D0019E3E6092
:103C200057F7CAFD48F73DFA09488673009DA0067C
:103C30008BD52020386088E7FEBDC04600020040DA
:103C40001800004000100040083300504CF9FC07F9
:103C500088DAFC0710B504460120FCF77FFF002836
:103C600005D103A021465BF73DF904F01BF910BD17
:103C70000D0A257300000000F8B50446FEF7F8FCB5
:103C8000002813D02F20C700924EF05D052814D1D4
:103C900075882046FCF720FB00210091401C82B271
:103CA0000C232846214604F043FDF8BD0720FDF70C
:103CB000C5FC1B48FFF7CEFFF8BD002C1AD02046EC
:103CC000FCF70AFB002812D0401C002156F706FF23
:103CD00000280CD005462146FCF713FB08200021E4
:103CE00056F7FCFE014645600E483EF7F3FEF05DD8
:103CF0000528E1D0FD203EF766FD01460A48042272
:103D0000072356F7F9FF012141702222074B9A5CE5
:103D10000270817181800621418057F708F8F8BD53
:103D2000FD97FC0784DBFC0706FD000008DBFC07B1
:103D300080B5032001020620022200235BF72CFE3F
:103D4000FF209E306349085C002804D00520002134
:103D500001230A4603E00520012200210B465BF700
:103D60001BFE80BDFEB501210290414001910B2058
:103D7000C44303200602002C22D027460C375548A6
:103D80000019FF2120314518287B09280AD1F8B2F3
:103D90000A2159F793FA084600223146029B5BF745
:103DA000FBFD287B0A2809D1F8B20A2159F786FAC7
:103DB000084600223146019B5BF7EEFD641CDAE702
:103DC000FEBDC046FEB5FFF7B3FF0B20C643032080
:103DD0000002029001200190E94F002E61D0BA1933
:103DE000FF2108462C30135C5D1E0D2D2AD830466D
:103DF0000C30C0467D442D796D00AF440606061593
:103E00000E0E1A1D232323232532C9431A025118EB
:103E100089B2C0B20022134612E0032812D8C0B201
:103E20000F2200210B460BE03831535CC0B2002258
:103E300005E0C0B2092201E0C0B20A2200230299C3
:103E40005BF7AAFD761CC8E72122D200BA5C002AE3
:103E5000F8D09E31795CC0B2002920D000210A46FA
:103E60001BE02122D5007A5D002AEBD02022BA5C2B
:103E70009E31795CC0B211430DD114220299019B8D
:103E80005BF78AFD785D0028DCD0134A10680221B8
:103E900088431060D6E700220299019BD0E71322E5
:103EA000BFE701201D220D4E029C2146019BB04719
:103EB00004201C22002521462B46B0471B22284601
:103EC00021462B46B04703201A2229462B46B047ED
:103ED000FEBDC04630D8FC071010005099F9F1071C
:103EE000FCB57F2000025E494A6982430B20000234
:103EF00010184861086880B25A4A801808608869BA
:103F0000594A02408A610320019000020A6B024371
:103F10000A63888F102202438A87888801220092D0
:103F20001043888051485249016052490888104323
:103F30000880514E30461038504DA98B0140152055
:103F4000440108195030A88368694D4901404D4823
:103F500008186861A8694C49014009204002081806
:103F6000A8612868494901404948081828606868DC
:103F700048490140484808186860A8684749014016
:103F800047480818A860E8684649014046480818AC
:103F9000E860C12040019B49C97B090608184349D4
:103FA000086005208102424A11804F1D9780178CBE
:103FB00055203843AA27B8431084FF276C3738466A
:103FC000C93010853B4B18460E3090853A48108614
:103FD0009386C01D10870A312985A86B3749014097
:103FE00037480818A86337480780028F32402146B7
:103FF000203152180287344D2A883240D219D532E6
:104000002A80AA8832401219AA802A89324051187F
:1040100029813946213181802C4801883140091994
:1040200060310180818A19220A4306218A438282F3
:1040300007841E4A908F26490140009840030818C3
:1040400090870C4A106C019908430421884310643E
:10405000506A20490140204808185062FCBDC04603
:104060002030004000006666FF00FEFF8000004038
:1040700059055C07401000401FFCFFFF0420004072
:104080000000E0FF09601A00FEE1FFFFE0E0000031
:104090000809294900000303696A686C031FFFFFD0
:1040A00070600000E0E0E0E00B0A0A080010004049
:1040B00028130040260A0000510800002304E0FEF7
:1040C000181A0601001200404412004088120040F5
:1040D000FF9F000000FE00FE50015001F8B50446AD
:1040E000042835D860B21CA1095C1D4AD1711DA1FC
:1040F000095C51701DA1095CD1701EA10D5CFD20F1
:104100001E4E2946B047FE202946B047FC202946CE
:10411000B04723203B4E012131542F20C000184AC4
:10412000105C21217054FF277A37D05D2021705414
:10413000002807D001280BD15EF7AAFD0025104802
:10414000C55503E00225284600F09EFF2220355485
:1041500003480470F8BDC0460502010005000000D8
:104160000C9DFC0700000303000000000D05010189
:104170000D000000100C040410000000312DF207A7
:1041800030D8FC07F8B5842011490E5A1148076B46
:104190003046784310494018104D294659F78EF89B
:1041A0000446EA4884873C367E430B48301829464B
:1041B00059F784F8001D0A4948612018C01DC861DC
:1041C000FEF798FA0749401880B257F703FBF8BD8D
:1041D0005CD4FC0708DBFC0720A1070040420F006D
:1041E000309DFC07E204000005480188202291432D
:1041F0000180D649097B0907490F81847047C04671
:104200000012005088DAFC07F8B504461E4E3078DC
:10421000002800D0F8BD00F083F80028FAD100256E
:1042200028465CF79DF8FFF7DFFF9F20174FB84740
:104230002846B8470006070A28461449884700025E
:1042400080B2C719284611498847C0B23D185CF7AB
:10425000D1F8002DDED0EF20C2430D4811460C31BD
:104260000ED08218F423D25895420A46F7D140184E
:104270000146E4312CC92CC6E421405C2070F8BD15
:1042800004A00EC80EC6F8BD6C9EFC071104F20710
:10429000188DFC0700000000000000000000040072
:1042A00010B5044600F03CF8002800D010BD00F026
:1042B00001F90028FAD102205CF752F801204007EA
:1042C0000443204600F010F9002010BDB0B500F006
:1042D00027F8002800D0B0BD00F0ECF80028FAD193
:1042E00000F062F8044672480078142803D12007D1
:1042F000800F03D1EFE76006C00EECD000F010F89D
:104300000028E8D1012528465CF72AF883200440DC
:104310002802201800F0E8F800F060F8B0BDC046B0
:1043200080B500F041F80121014048420D21884349
:1043300080BD80B5FFF7F4FF002800D080BD0020CD
:104340005CF70EF8B92000F0CFF880BDF8B51C4638
:1043500017460E460546FFF7E3FF002800D0F8BDDC
:10436000B91953488068814200D9871B2760022011
:104370005BF7F6FFFFF738FF0320000606433046E1
:104380005CF746F8002630465BF7EAFF2068864275
:1043900005D200205CF73CF8A855761CF6E75CF7E0
:1043A00029F80020F8BDC04680B501205BF7D8FF92
:1043B0000520000200F098F880B280BD80B5FFF7BC
:1043C00013FF5CF717F800205BF7CAFFAB2000F083
:1043D0008BF84B2080005BF7C9F980BDB0B5002594
:1043E000074C611CA94205D06D1CFFF7DDFFC0071B
:1043F000F7D1691E0020A14200D9C043B0BDC0461C
:104400007F841E00F0B585B0009314460F460290DD
:10441000002630465BF7A4FFFF2525488068C21BB5
:10442000A24200D322463D4314460192964239D21D
:10443000E019A84201D9E81B441CFFF771FF0028CE
:1044400033D100F037F800282FD1039502205BF715
:1044500087FFFFF7C9FE01256806074338465BF76B
:10446000D7FF00205BF77CFFA7B2FF2F00D92F02F8
:10447000029804968619380405D030785BF7C8FF97
:104480007F1E761CF7E75BF7B5FFFFF7A7FF002855
:104490000BD1049EA619019A941B280203990D18AA
:1044A0004F1CC3E700980660002005B0F0BDC04671
:1044B0006C9EFC0710B5FFF733FF002812D10024D3
:1044C00020465BF74DFF062000F00EF8FFF786FF51
:1044D000002807D1FFF768FF800701D5204601E0DB
:1044E0000B20C04340B210BD10B50446FFF77CFE60
:1044F00020465BF78DFF04465BF77CFF204610BD2E
:10450000B0B5EFF3108072B6A825354C605900287D
:1045100001D062B6B0BD9C202058002814D020469F
:1045200094303EF7BBFA6051EC22A358818A5B18A5
:10453000A350F022A3585B1CA350464A044B93653A
:104540001630012200F056FC62B6B0BD88DAFC07D6
:104550005D4FFC07BCB5224CE56FA88AFEF790F8CA
:10456000002812D0AA8A608B08490091294616318A
:104570000D2304F0DDF8E0202158491C2150DC20F7
:104580002158AA8A89182150BCBDFEE732FE0000DE
:1045900070B5134DEE6FB08AFEF772F8B08A00F076
:1045A000E1FA0446103884216850B28A3146163147
:1045B000A01D58F7FDFEDC202958B28A8918295021
:1045C000E0202958491C295001206070A2800A204F
:1045D000608000202070204656F7A9FB70BDC046C1
:1045E00030D8FC0710B5F54CA07F012804D1607FBE
:1045F000FCF7CAFC0020A07710BDC04670B50C4681
:104600000546FBF769FE06462046FBF765FE301AB5
:1046100028182146FBF767FE4142484170BD000063
:1046200080B58878002812D04868E5490860E348DA
:10463000007D01461239022909D3801E012803D8C2
:10464000002000F053FA02E0082000F061FA002098
:1046500080BDC04688DAFC07F0B59BB0D748077D1F
:104660000820132F00D9C6E00D468978002900D113
:10467000C3E0D34E74680523002C1FD0F90600D484
:10468000B9E0EA78B668B018802819D80893BC4811
:104690008019291D58F78CFEE8783018C84EB06094
:1046A000844200D0A3E0C54B187E0021B44D8C425B
:1046B00008D06A5C50401876491CF8E718469AE022
:1046C000072098E0132F6CD109A8FCF777FDFCF7C1
:1046D00033FDB768F068002F65D0002863D112253C
:1046E000402F7AD3A6490878702876D14878512887
:1046F00073D14C682046403030611F2001030BA865
:104700000C22FCF7FDFC1622002865D40BA80078CB
:104710001425702861D10BA8407852285DD113254B
:10472000002C5AD00D980C990790401A40388442BA
:1047300053D815460BA840220291FCF7E1FC002853
:104740004BD40BA8817800230124AA290594039354
:104750000693049301975CD10BA90A780023069372
:10476000702A51D149785129059C069903910491E9
:10477000DC4E4ED1C0780490D9480C300BA90C31D6
:10478000102258F739FE0024002839D1D448C069D6
:104790001299884234D10021059806900C46039165
:1047A00036E008251EE0C21931694B1C06259342EC
:1047B00013D3914201D20F1AB760C849896F091803
:1047C000C7483A46FCF742FC002806D4B068F168B6
:1047D0000818F060022500E015460020B060F0687F
:1047E00000F084F9284600F093F97468B0680899DD
:1047F000A042084601D900F08BF900201BB0F0BDA3
:1048000006940598039003E0059C06980390049095
:10481000B44E0BA840220799FCF772FC0028DCD4A8
:104820000BA881780025AA291AD10BA90A7800259E
:10483000702A15D14978512912D1C678A8480C3070
:104840000BA90C31102258F7D7FD002100280BD1FD
:10485000A348C069129A904206D100210D4605E096
:10486000059905952E4601E0059D0591002C11D076
:104870000BA8801C3E21FF2258F7ACFD06980028AB
:1048800013D19648029981670598054304960695C9
:10489000079128E000290AD00BA8801C3E21FF22A6
:1048A00058F798FD0598002816D015255CE030468D
:1048B00004990840FF28DBD00498FF2801D1002E7E
:1048C000D6D00498002851D1FF2E4FD10BA84021FB
:1048D000FF2258F77FFDE5E7EB48079981670398CA
:1048E0000699014306910698002801D1012401E0B0
:1048F0000498441CF648007D0625132834D1012174
:104900000798FCF767FB00282ED10BA8C470744BE6
:1049100059689A680C910D9219460C3102460C3276
:10492000D8C9D8C220216E4B5A5C425419880180E4
:10493000D8691290E648007D132815D1E448816FAC
:104940000BA84022FCF782FB00280DD4E048816FC1
:1049500063484030019A403A4031FCF777FB002829
:10496000604E00D432E738E75E4E36E70BA8801C75
:104970003E21FF2258F72EFD0498B04292D87DE7E1
:1049800084D5FC0780B5887800280DD08888002859
:1049900007D0E749097D132906D8C90606D408209F
:1049A00000E0052000F0B4F8002080BD812801D38C
:1049B0000720F7E74B494860F6E7C04688DAFC076E
:1049C00008DBFC071FB58878002800D182E0496821
:1049D000080E8A0E042A10D8D54A107589B291673C
:1049E000002801D0012802D13D497C319167FE2287
:1049F0000240122A01D1032920D20146103902298E
:104A000011D30146123902290FD3FD281AD0FE28EE
:104A100023D0FF2827D1FCF709FC32480021416050
:104A2000816003200BE0082009E00120FEF74AFE28
:104A3000EE4C207DC0061DD510201CE0112000F09A
:104A400067F844E024202749085CFF281CD0E74988
:104A500001220A775EF7FEF839E0E44C207E002858
:104A600016D004202AE0082000F052F8DF48142174
:104A700001752CE0082000F04BF81A480021416035
:104A80008160C160217622E017483DF76FFE1EE08D
:104A900003A8AA210170207D13280ED101A8FCF7DC
:104AA0008DFBFCF749FBA06F811C03A80122FCF7DA
:104AB000CDFA010602D1022000E00620C0B200F0CB
:104AC00027F8FCF7B3FB0748002141608160002014
:104AD00000F00CF8002004B010BDC04688DAFC07D6
:104AE00084D5FC0708DBFC071111111110B5044631
:104AF000FC203DF768FE014604480422134656F7A1
:104B0000FBF8046056F713F910BDC04604FC000022
:104B100010B50446FC203DF756FE01460448042229
:104B2000134656F7E9F8847056F701F910BDC046F0
:104B300005FC000010B5094800788000E64C2018FC
:104B40005F2189004058002802D0032103F0EAF8D1
:104B5000FF2038300021215410BDC046ACD7FC07DF
:104B60007047704710B50446FD203DF72CFE014606
:104B7000A01D83B20648042256F7BEF8002800D0D4
:104B800010BD0448C8210180034808210180FEE7C8
:104B900006FD0000003100500233005010B594496A
:104BA0008A8980231A438A81C2B2064C228082B24B
:104BB000120A0A80000CC0B28880888998438881D4
:104BC00010BDC046C010005080B589485BF791FD0C
:104BD00080BDC046F8B543208600DF4FB85D5AF768
:104BE000F9FE0124002805D002F0CEFBB85D0022BA
:104BF000214606E000257D6500F072F9B85D294682
:104C00002246FBF7D6FEF8BD70B50446784D28461F
:104C10005BF70AFD1B4E3088FF20010620688843A1
:104C2000FFF7BCFF2068C10E04220A40C000C00E7E
:104C30001043A8812068C00FB0832068002816D5D3
:104C4000400E202108402A8A8A43101828822068B2
:104C5000400F022108402A8A8A43101828822079AE
:104C60000007800F3084207903210140B184A068BF
:104C7000D6490872E0684865206988656069C8653A
:104C800070BDC0467C10005088DAFC0710B5CF4AD2
:104C900010650020108791866E4904200860BFF3DC
:104CA0004F8FBFF36F8F6C490B8801241C430C801E
:104CB0000B8803430B80FF210904684B1C688C435D
:104CC000117A8907090A611819606549086010BDE1
:104CD00088DAFC07B0B5C425E94C605BFDF7D0FC71
:104CE00000281AD0605BFFF73DFF00218180483427
:104CF000E26E521CE2660246103AEFF3108372B67F
:104D0000A26362B621646164A164B049284ACA659D
:104D1000801D0821FFF7BAFFB0BD0120E064EFF36A
:104D2000108072B6002000F0ADF862B6B0BDC0468B
:104D300088DAFC0770B58025E54E7459002C35D013
:104D4000D4217258521C7250A18A0818A082C42122
:104D5000715A091A89B280B207291ED8CC2172581B
:104D600010187050D0203158491C3150EFF310808A
:104D700072B67159304668303DF7ACFE62B600201D
:104D80007051A18A16342046FCF7FEFC02F088FD23
:104D900000280BD1FFF79EFF70BD1034F349044A81
:104DA000CA652018801D0821FFF770FF70BDC0463E
:104DB000354DFC0770B5ED48828E048F036D0C49AC
:104DC000944208D28D8AED070ED00D88661C0687A6
:104DD0001D553446F4E78A8801239A438A80C16DC1
:104DE000002901D0008F884770BDC04688DAFC07D3
:104DF0000010005010B50B460146DC4883850024A6
:104E00000486012A07D0002A22D11348001F1A461F
:104E10005BF760FC10BD0F4B04221A60C164BFF346
:104E20004F8FBFF36F8F0C490B8802241C430C80FB
:104E30000B8880241C430C80FF210904074B1C684D
:104E40008C43007A8007000A20181860044802602A
:104E500010BDC04680E100E00410005000E400E016
:104E600000E100E006490A880120520606D50A88BA
:104E7000920603D50988C90700D100207047C046B3
:104E80001410005010B5044600280AD02120C0009C
:104E9000F749085C002818D01048006802218843B0
:104EA00016E0FFF7DFFF002801D0002412E02120E8
:104EB000C000EF49095C0948002903D001680222BB
:104EC000914301608088C00701D1012402E02220C3
:104ED00002490860204610BD30D8FC071010005071
:104EE00080B5E348416D01290BD09C21415801292F
:104EF00007D8016D012904D100210165012003F0CB
:104F0000A7FC80BD10B5002811D0E420D84C215852
:104F1000491C2150E06F002806D0EFF3108072B6D4
:104F2000E06F55F72EFF62B60020E06710BDE82164
:104F3000F3484258521C42504821415C002909D094
:104F40002F21C900405C052802D1FFF703FB10BDEB
:104F5000FFF71EFB10BDC04630D8FC07B0B5E84CCB
:104F600025464835286E55F70CFF00202866686DE9
:104F700000281ED0EFF3108072B6204694303DF723
:104F80008DFDA821605062B6F0202258521C22509C
:104F9000F4202258521C2250EC22A3586058818AD7
:104FA0005B18A350714A044B936516300122FFF73A
:104FB00021FFFFF795FFB0BD5D4FFC0780B56B4B40
:104FC0009A6589B20122FFF715FF80BD88DAFC07D8
:104FD000F8B5FF252F467C37F44EF05D002802D04F
:104FE000FBF71EFF01E0FBF70FFF0446AD2040007A
:104FF000315CE172325C9F204000311820460C3059
:1050000058F7D6F928467830315C00290DD0F25D8A
:10501000002A0AD02B22A154325C28465C30311879
:1050200020462C3058F7C4F902E02B2000212154EF
:105030004F208000305AE080A080F05D002809D029
:1050400001206072FBF7ECFE55F771FE0D48002160
:1050500001600DE003206072FBF7D6FE55F767FE96
:10506000084800210160042056F78CF8032803D07B
:105070000420022156F771F87A3501207055F8BDE9
:1050800030D8FC0730D5FC07F8B505462F20C700FF
:10509000EB4EFBF787FE0446F55545700320207064
:1050A00011492031201D062258F782F92A200025B7
:1050B0002554A576308A208420460A30102158F7DE
:1050C00090F9204655F733FE02480560F8BDC0460A
:1050D00030D8FC0738D5FC0780B5034920310622BB
:1050E00058F766F980BDC046309DFC07F8B5044608
:1050F0000878002811D1487801070ED41A49097898
:1051000004290AD10125400701D5284600E00220E4
:10511000FEF7E4FF242015490D54A00013490E1892
:10512000B56E6836002D18D121020A3110480422CC
:105130001E2355F7E1FD0546012404703060801CF4
:10514000094F791C072258F733F9B878012803D1A1
:10515000F878F721014029716C70284655F7E7FD72
:1051600000203060F8BDC0460C9DFC0788DAFC07C3
:10517000140E0000B0B586B004464878002203281B
:1051800015D0022819D00128134611D13DF7B7FBDD
:105190000E4958F793F80E480A1805926D460DA16E
:1051A0002846FCF793F92846FEF754FD0422012314
:1051B00005A92046FBF78CFE04E0BD204000024913
:1051C00001220A5406B0B0BD30D8FC07A0BB0D00C8
:1051D000A08601000D0A2B50494E3A253036750D38
:1051E0000A000000F8B50C4605460B20C643C24F26
:1051F000002E11D0B819FF2120314018017BA142A7
:1052000008D132460C3200210173D0B201230A4684
:105210005AF7C2FB761CEBE77819FF212031445482
:10522000F8BDC04670B504463420B34D295C002952
:105230000FD000262E544220285CFBF7A5FE432009
:10524000295C002905D02E5403F09EFAFF207A3005
:105250002E54FF260E36A85D012806D14720800077
:10526000285CFBF791FE0020A8550120E07570BD79
:1052700030D8FC07FEB50D460446002102F0F2FDD1
:10528000C1B207291BD801273A468A40C6231A42D1
:1052900015D0F24A5118FF222032895C4A1F012A98
:1052A0000DD8401EC0B205290CD101AE377015498A
:1052B000085C7070B01C062158F793F80EE00120CE
:1052C0002076FEBD01AE0221718037700D49085C69
:1052D0007070032000020290FBF788FC3046FBF759
:1052E00075FC5BF7C9FD5BF71BFEFBF769FC02462B
:1052F000E7492846FCF7EAF85BF702FEE775FEBDD2
:1053000030D8FC07FC8DFC07F8B50D460090002452
:10531000104F13A6AD204000385C401EE1B2884219
:105320000ADD78189F214900435C284631462A4609
:10533000FCF7CCF8641CEDE738189F214900435C6A
:1053400005A128462A46FCF7C1F801200099C87536
:10535000F8BDC04630D8FC07257325303258000010
:105360002573253032583A0070B58AB00446007B68
:105370002168081802A901AD2A4603F093FB002812
:1053800010D02D781C2D0DD89F204000B34E301822
:1053900002A92A4658F70CF8AD20400035540120E8
:1053A000E07501E0042020760AB070BD30D8FC071B
:1053B000FEB50D46FF2702977837F549C95D0029EC
:1053C00019D0019000263046F14C8E420ED2A11920
:1053D000029A5C328A5CC0B22818C649FCF776F89B
:1053E0002846FAF779FFE15D761CEEE7401EC0B271
:1053F0000021295401980121C175FEBDF0B589B085
:105400000446007B2168081801A96D462A4603F06E
:1054100049FB002810D02D781F2D0DD8FF263046CF
:105420005C30EE4F381801A92A4657F7C1FF78368D
:10543000BD550120E07501E00420207609B0F0BDE3
:1054400030D8FC0770B504462F20C000E34E305C16
:105450000A2801D0022828D1FF207A30305C0028A9
:1054600023D1A07A0221014303291ED1FDF700F9BF
:1054700000281AD1E07A01280FD1002520462946BC
:1054800002F0F0FC81B26439094A91420CD800055F
:10549000000C0A2157F712FF00E004484F21890051
:1054A0007052FFF795FD0125E57570BD4C040000B5
:1054B000540B0000B0B504462F20C000C74D285C37
:1054C0000A2801D0022816D1FF207A30285C012852
:1054D00011D1A07A0221014303290CD1FDF7C8F8AC
:1054E000002808D15DF7D4FBFF207A300021295431
:1054F00001200002E082B0BD30D8FC07FEB50D46A9
:1055000004461848019018480090FBF76FFB684666
:10551000FBF75CFB5BF704FDFBF752FBE1210901A4
:105520004843124957F7CAFE86B237095BF7E8FCD1
:105530007D2F01D200220DE00D48864201D9642260
:1055400008E0642070430B4940187D21C90057F7DB
:10555000CBFEC2B24E492846FBF7B8FF0120E075EA
:10556000FEBDC0460003000101050200FF07000068
:10557000B80B0000C0F2FCFFF8B50446C07A012861
:1055800029D0002835D138480288D207FCD13448C8
:10559000828980231A438281344A1288058886884A
:1055A00087899F4387810F20104070223240120468
:1055B0002B061B0CD21812180020274B1D58AA428C
:1055C00019D008305028F9D1294B2AA2084619468B
:1055D000FBF77CFFF8BD207B2168002500950818AB
:1055E0000A216A46FCF738F800280ED00D202076F4
:1055F000F8BD002007E018184268254B08461946F8
:10560000FBF764FF0120E075F8BD134800990A2DEF
:10561000ECD042688A4202D008306D1CF7E7092DB1
:10562000E4D805680D2040010C490D500020A075FC
:10563000A07A022803D10B48FEF71EFB08E0084EB3
:105640000849062230465BF745F830465BF751F8CB
:105650002846FFF7A3FAD5E78091FC0730D8FC076E
:1056600000100050FD97FC077C100050C010005047
:10567000889BFC074572726F722064657465726D59
:10568000696E696E6720626175642072617465007D
:10569000439AFC07FEB50D46009013484768006822
:1056A00001A98F80019005240020124E002C0BD4FC
:1056B00001A90A5DC0B228183146FBF707FF28464A
:1056C000FAF70AFE641EF1E7401EC0B22818F9037B
:1056D00001D407A100E005A1032257F769FE0120CC
:1056E0000099C875FEBDC046240000402C52000041
:1056F0002C5000006198FC077CB50446C07A032852
:1057000016D000283ED10D46214E716A1F484843ED
:105710007D21C90057F7E8FD0246B06A0A214143DE
:10572000336B00911EA12846FBF7D0FE01252AE02D
:105730000021204602F096FB7D21C9004843134911
:1057400057F7BCFD124D68620221204602F08AFB29
:105750000A2157F7B3FDA8622068617B4018FBF768
:105760005DFA2C216854010C2A462C329170010AF2
:1057700051702863A07A0125022804D105A0FEF704
:1057800069FA00E00025E5757CBDC04671020000A5
:1057900030D8FC072B455343205345510D0A0000D8
:1057A00025692025782025690D0A000010B50446DA
:1057B0000068A17A012907D1FEF75EFA8F20400028
:1057C000F34901220A5405E0801CFEF743FA5948C8
:1057D000FEF740FA0120E07510BDC04630D8FC0746
:1057E0007CB504462F20C000E94E305C05280DD161
:1057F000FCF73EFF05462068A17A01291CD1FEF77F
:105800003BFA8F204000012131541BE0FD205CF762
:1058100075F98088801D80B25CF723FE002835D0A2
:1058200001A95CF75DFE002837D02E48C821018011
:105830002D4808210180FEE7801CFEF70BFA3D4849
:10584000FEF708FA002D0CD05AF794FA274D284697
:105850005AF74FFFA88AC00705D028465AF74FFFCE
:10586000F8E7012510E0012528023084A07A0228FB
:1058700007D0FDF7B1FF002803D08F20400035543A
:1058800002E00020FBF76AF9E5757CBD1548C821E8
:105890000180154808210180FEE701A80578FD2058
:1058A0005CF72CF9002815D01030006800280AD0C9
:1058B0000179A942F9D14179002904D08079C00742
:1058C00096D10025E0E70748C82101800648082155
:1058D0000180FEE70348C8210180034808210180B8
:1058E000FEE7C04600310050023300500010005067
:1058F00010B50446807A012808D12068FEF7BCF96B
:105900008F204000CD4901220A5410E02020CB49CD
:10591000085C002804D002F039FB02F08BFE06E0A0
:105920002068801CFEF796F90248FEF793F90120E3
:10593000E07510BD2998FC0710B50446FCF798FEE9
:10594000002804D02121BD4A0120505400E000204D
:10595000E07510BDB0B504462F20C000B74D285CDF
:10596000052801D00A2804D1FF207A30285C0028BD
:1059700000D0B0BDA07A0128FBD1042055F702FC6D
:105980000328F6D0FF207C30002129540220FFF7A5
:105990007BFB01200002E082B0BDC046B0B50446EA
:1059A0002F20C000ED4D285C0A2801D0022804D128
:1059B000FF207A30285C002800D0B0BDA07A0128F2
:1059C000FBD1FCF755FE0028F7D1FF207C300021E9
:1059D00029540520FFF758FB01200002E082B0BDEA
:1059E000FEB50646C07A02281FD00D46002866D1B3
:1059F000002D6ED0019601200090C643002E65D088
:105A00003D48841927792846FAF766FC2818F21CC5
:105A1000AA2F04D183214900635C3A4901E0374948
:105A2000374BFBF753FD761CE8E7307B717B019623
:105A300032680026029651180091101802AA3146C9
:105A4000FBF70AFE012400282546374609D10298B3
:105A5000FF2804D0411E01292546374601D80025DC
:105A6000074602AA00983146FBF7F6FD0299012984
:105A7000224600D832460028204600D11046002891
:105A8000019E21D1002D1FD1F8B2FF2824D0781E0D
:105A9000C0B2012501281DD8174A10188278AA2AF9
:105AA00018D141229200835C2F46CDB2AB423D46D5
:105AB00010D0801801702046FBF74AFE0AE03549F5
:105AC000114A2846FBF702FD002503E0019E009DD8
:105AD00000E00125F575FEBD0125E843064A0028D2
:105AE000E9D02F4613181D79AA2D02D183256D0008
:105AF0005955401C3D46F2E7A4D6FC072498FC0704
:105B00006798FC070E98FC072C98FC07BCB5044668
:105B1000C07A012813D1207B21680025019508183F
:105B200001AA2946FBF798FD002813D10198411ED0
:105B3000022907D26A4611700420002107E00020E4
