:0200000407FCF7
:1000000060E4FC072505FC072D05FC074505FC07FA
:1000100000000000000000000000000000000000E0
:100020000000000000000000000000005D05FC076B
:1000300000000000000000005F05FC076105FC07F0
:10004000C525FC079576FC071D27F0074928FC0706
:10005000FD27FC076305FC07B925FC076305FC07C2
:100060006305FC076305FC078926FC079326FC074C
:100070009D26FC07A726FC07B126FC076305FC07A5
:100080006928FC076305FC076305FC076305FC079B
:100090006305FC076305FC076305FC076305FC07B4
:0200000407FCF7
:100510000348854601F0EEFD004800479D60FC075A
:1005200060E4FC070F4880470F48004704207146ED
:10053000084203D0EFF309800C490847EFF3088025
:100540000A49084704207146084203D0EFF30980A6
:1005500007490847EFF3088005490847FEE7FEE72B
:10056000FEE7FEE74DCAFC071105FC070D28FC0756
:10057000E527FC0770B50E4604460022032151F71B
:10058000EAF9054652F7B6FB6880284651F7F4F9B8
:1005900052F7B0FB7188884200D3084601462046D6
:1005A00051F7D1FA002070BD0246FF4B92009A58D5
:1005B0000120126900290ED0517F5E239B5C002B25
:1005C0000BD0052906D1517E090702D5917C090778
:1005D00000D400207047917DEFE70229F9D004296B
:1005E000F7D00529F6D10020EDE7024630B593009B
:1005F000ED4A0120D2581269137DD47E157F234025
:10060000547D2C40012901D0022909D1957C527ECC
:1006100015402A0704D41A462243D20700D10020ED
:10062000032901D0042904D1590702D4610700D459
:10063000002030BDF8B514460D4610465BF76DFC42
:10064000240A002830D0D949A2008B5801271E8BDC
:10065000BF023E431E83132826D0142824D0152819
:1006600011D088582D210A5C0123D10600290CDA0B
:100670000146A0318E7D002E07D08B753D2120468E
:1006800045F7B8FE10E00220F8BD110703D50021A0
:10069000A0308175F7E7A0308375204643F7A4FBAF
:1006A0002946204643F7E3FB0020F8BDFFB581B0A3
:1006B0001546170A10465BF730FC002838D013287F
:1006C00036D0142834D0290A8C00B84E152815D0FD
:1006D000FF20294603305BF707FD30592D21095CC7
:1006E000C90603D5A030C07D00280ED03D026D1C88
:1006F000A8B25BF712FC19280CD00FE03059012189
:10070000A030C175022005B0F0BD3D21384645F747
:1007100071FE0DE0A8B201215BF7CDFB305901223B
:10072000018B5202914301833846029943F79FFBA4
:100730000020E8E7F0B59D498700C95900268031BF
:100740004A8C8B8C1B2A00D21B228C8B944200D2A9
:1007500022468A849A4200D001260B8CCD8C1B2B1A
:1007600000D21B23CC8B9C4200D22346CB84AB42CD
:1007700000D001260B8ECD8D9C46FF2349339D4230
:1007800001D21C4600E02C460D8DA54200D3254623
:100790000D86654500D001264C8EA4468C8D9C426A
:1007A00000D21C464B8DA34200D21C464C866445A9
:1007B00000D00126EB080B3B9BB29A4200D21346B5
:1007C0008B86522379495843794BCA591C68803229
:1007D0000419D28C8034E285C9591A688031801896
:1007E000498E803001863046F0BD10B50446714810
:1007F000008D8007800F012800D000206071002844
:1008000007D057F7F3FE01460622A01D5DF74EFC08
:1008100010BD06226849A01DF8E770B50546002402
:1008200042F7A9F82855641C082CF9DB70BDF8B50F
:10083000022707700126044646700D4688795F49F5
:10084000C96988472A210855287900210007000F27
:10085000A07003005DF77EFC07050709100D100B63
:100860001000A1700AE0A67026E0032002E0A77045
:1008700004E00420A07001E001281DD0A888000A2F
:10088000801FC0B2A0721F2800D9A172284642F76B
:1008900027F9811D2046A27A0B305DF707FC284618
:1008A00042F71EF901460622201D5DF7FFFB28795D
:1008B0004006C00FE070F8BDA172F0E7F7B54468DC
:1008C0008CB02546243503950546074624354CF75C
:1008D0001BFA06464420405B5221484334490968CC
:1008E0004018C0304089694608840121384647F7DE
:1008F0004AF94CF77EF809900E9800698088000A42
:10090000C1002F480818298940182D495B315DF72F
:1009100053FB01466868039D4718403528890690B7
:100920000090A0680099381A400140095DF744FB27
:100930000A910098C019401A400140096946A06018
:10094000098C4900C919891C49014909884204D206
:100950000699401840014009A06001460998081A0C
:10096000400118494009884215D900202B89A26806
:10097000401CD21852015209A260EA89521CEA8135
:10098000A368099A9A1A520152098A42EED801B212
:100990000D9847F799F9A1680998081A4201607DF6
:1009A0005209824221D80FE02C7EFD071879FD07FD
:1009B0004C76FD074C7EFD07CF79FD07B47FFD0720
:1009C00016020000FFFFFF032A898918490149091F
:1009D000A1602A890A99511A814206D901210D98EC
:1009E00047F772F9E889401CE8812989A0685DF71A
:1009F000E3FAF1802889B080208A3081A88870814C
:100A00000020B081C807C00FB073A88852214843A6
:100A10008E30308230464CF782F903984663204688
:100A20000FB0F0BDFFB5002093B006460124FE498B
:100A300049680A7821460C2A0CD06A4611730022B4
:100A40001192002E09D015990291169D1F2D54D98F
:100A5000402052E000242246119413990291149DE3
:100A6000F4E7029989184978012905D0172903D09C
:100A7000182901D0192912D1631E04E003AFFF5CCD
:100A80008F4204D05B1E5BB2002BF7DA03E0002B31
:100A900001DB4A2003E003AB1955641CE4B20B00F0
:100AA0005DF758FB1D2610101010101010101026A6
:100AB000262626262626262626262626101010102E
:100AC00010102600119B03E00BAFFF5C8F4204D097
:100AD0005B1E5BB2002BF7DA03E0002B01DB4A2040
:100AE00006E0119F0BABD9551199491CC9B2119160
:100AF0000299895C521C89188AB2AA4201D2002844
:100B0000AFD0AA4200D04A20761CF6B2022E01D203
:100B1000002894D017B0F0BD10B50022134607E0AE
:100B200084186478012C07D0845C521CA21892B2FD
:100B30008A42F5D3184610BD80188378FAE7F0B5DD
:100B40000646A9B01546002084006318DA789F781D
:100B500012025B783A4352BA1B041A430B5D072416
:100B60001B061A43231A9F0020AB401CDA510828A9
:100B7000EAD300218A0090190746C37880781B02C7
:100B8000034378785BBA00040343B05C10AA000604
:100B90000343601A800013503846223043780078AF
:100BA0001B0203433846203047785BBA3F04007885
:100BB0003B43000603430F27781A8000491C13505B
:100BC0000829D7D35CF706F9014630465CF77FFD6C
:100BD00000282DD05CF7FEF8034620AA10A968462D
:100BE0005DF780F900226846A11A8B009600C75C69
:100BF0007119CF70C75A3F0A8F70C7583F0C4F709A
:100C0000C35820311B0EAB550F239B1A9B00C65CAB
:100C1000CE70C65A521C360A8E70C658360C4E70AC
:100C2000C3581B0E0B70082ADED3002029B0F0BD7C
:100C30000120FBE7F7B500251746064641232A4663
:100C400029460A205AF7B4FF0446002E10D0012E80
:100C500002D0022E0CD105E02022611C002041F7B9
:100C6000A3FE04E0621C3946019841F74DFE207056
:100C700020465AF7B6FF2846FEBDF8B56B480090EF
:100C800007680C46002F7BD005461C35287E0028BF
:100C900076D0012802D0022872D102E02078002804
:100CA00019D038896249002688423AD107204BF78B
:100CB00023FC002835D042233E2200215D485AF70C
:100CC00077FF082101702178002913D0032141709A
:100CD0002178817043E055480226611C14302E763D
:100CE000202204465DF7E2F922465349304641F797
:100CF00015FE45E0002146701F22531A1B194718A4
:100D00005B78491CBB702029F7DB00213F22531A76
:100D100047181B1920375B78491CBB702029F6DB6C
:100D20001DE043493889491C88421AD108204BF7F5
:100D3000E3FB002815D022233E2200213D485AF72C
:100D400037FF09210170217800291BD01221417041
:100D50000021FF224318491C9A702029FADB4DF725
:100D6000D7FE2E7640205BF7A6FB009841F7DAFE0F
:100D70005AF761FF00980068002801D041F7C9FDCB
:100D80000020F8BD002146701F22531A1B19471876
:100D90005B78491CBB702029F7DBE0E770B5087869
:100DA00000250C46012809D01D2810D02B2812D070
:100DB0004022194655F7BCFE284670BD5BF765FA20
:100DC0001948012504601D4857F745FAF4E71C4807
:100DD00041F708FDF0E71B4801680029ECD101212B
:100DE0000160194841F704FEE6E770B5104D174C55
:100DF000223DAB422ED10F4809232A460021C01EB6
:100E00005AF7D6FE044608221149401C5DF74EF9F8
:100E100020790821084320710025257020464DF7D0
:100E200077FE284670BD00004C7EFD07287AFD073E
:100E3000252000000408000089E7F107030C0000EA
:100E4000C3C3C3C35077FD07CC7DFD070DC3F007B7
:100E500060E4FC07A047E5E7F1B584B00498FF49DA
:100E600080000C5804980502A81D0290002C15D093
:100E70006068818804290CD34188861D0C38009154
:100E800001903146049857F7BCFFF549884206D1D6
:100E900060680C385AF7CFFE0020606033E4F178C8
:100EA000B2780F02019928431743C880384640386A
:100EB0003F2819D803223946049854F729F8060028
:100EC000E6D0B07B0128E3D13420B07329460A3143
:100ED0000423E448029A5AF76BFEB189418010213D
:100EE00001705AF77EFED3E7616834200870022152
:100EF00000985AF74FFD05463146009A5DF7D6F83F
:100F000068782978000208436168C880E878A97881
:100F1000000208436168062F08810BD0042F09D016
:100F20006068052F10D00C385AF785FE28465AF70E
:100F3000ACFDB1E760688188052913D329798172F6
:100F40006168287988720DE0818805290AD329799A
:100F5000817261682879887260688188062901D366
:100F60006979C17260685AF73CFEDFE7FFB587B068
:100F70000E4609985AF7D1FF0999090A03910028EA
:100F800076D08800B54905900D58B749B079096BFE
:100F90000A225043B478081841F7A2FD019068680E
:100FA000002808D0012C2DD00398FFF755FF686862
:100FB000002802D026E0022C5AD1B088012702284E
:100FC00005D30198417800780C02044302E051F700
:100FD00091FE044651F78EFEA04201D20224002762
:100FE00020464C3083B29E49A048099A5AF7E0FD4A
:100FF000241D68604480002F01D0002000E03420D0
:101000006968087068680028BAD0811D0091B288AC
:101010000199841C071D01928088238882189A42B6
:1010200009D8009A8018019A5DF740F8398801982C
:101030000818388009E01A1A009BC0185DF736F8C6
:1010400020883880696834200870388804280FD3D5
:10105000009841780278080210432188001D8842D8
:1010600007D280B220803988814207D9388002E0D7
:1010700068E0884202D9696834200870388821887D
:1010800088425FD1686800990C380190039857F73F
:10109000B8FE69680978002951D1714988424ED05B
:1010A00003990F0201993843C880208802210190DA
:1010B0005AF770FC0490228800995CF7F7FF0498B7
:1010C00000283FD0696800208880019802226B4682
:1010D000039907C36868049B821C011D801D41F7AA
:1010E000D9FB6968087004985AF7CFFC6868418892
:1010F000002902D00178002954D0018940393F29C4
:1011000044D8017830291ED00146544A05980C393C
:101110001058083041F722FD69680398891D41F78E
:10112000CAFB4628686801891FD00322039853F739
:10113000EFFE00282CD0808A00282CD028E00398CD
:10114000FFF78AFE42E04A49098D0906C90F07D018
:1011500048490C380968099A898D89B25AF75EFDA9
:1011600068680C385AF767FD12E00322039853F7BA
:10117000CFFE04000CD039460A3104233948099ABD
:101180005AF716FDA1894180102101705AF729FDF7
:10119000002068601AE0686800220189039841F71E
:1011A00085FBF5E70189084640383F280ED8032221
:1011B000039853F7ADFE002808D0808A002805D197
:1011C000686800220189039841F770FBB07941F704
:1011D0007AFC00200BB0F0BDFFB58BB00646169828
:1011E0000027022821D00D980188149881427DD3D0
:1011F0007188084640383F2802D8159853F7C9FE31
:101200000C98361D0088149A80190E995CF74EFFD1
:101210000C980188149808180C9908800D9801887A
:101220001498081A0D99088069E100200E9D079016
:1012300069782C78090221433180E978AC78090279
:10124000214371808C46403904242D1D02460346FB
:101250008E46402900D3287861460DE0AC7DFD071D
:10126000FFFF0000260E0000E078FD07010A0000E5
:101270004C7EFD075876FD0704291FD0052914D0A0
:10128000062918D070463F283ED8159853F781FE9E
:101290000006000E04D0FC48008D0006C00F31D0BF
:1012A00002230120F94A002712E0697800290FD0B3
:1012B000F74A17230CE0F74A0F2309E0522802D01F
:1012C000D22802D002E0142000E01520F24A1F23A9
:1012D000002A7DD098427BD28000105804900028CC
:1012E000F7D0002008900590708800E006E14038B3
:1012F000402803D32878052430716D1C701D0090A0
:101300000498AFE03027EDE03327EBE0522864D0BB
:101310000CDC4B283FD004DC41286AD042285AD14B
:1013200011E04C2820D0502855D140E0632830D01F
:1013300004DC572818D061284DD19BE06C2864D07C
:10134000772848D109E00098297801700098641C3A
:10135000401CA4B26D1C009081E00498401C0490D5
:101360000178089881427AD10098A41C401C410859
:101370004900881C009068782A7800021043088091
:101380000599AD1CA4B2002969D0089000200590F1
:1013900065E00120FBE71022294600985CF786FEF5
:1013A000009810341030A4B21035009057E0204659
:1013B00040301499039088420DD840222946009865
:1013C0005CF774FE009840300090039884B200E00F
:1013D00079E0403543E0342741E00822294600986F
:1013E0005CF764FE009808340830A4B20835009019
:1013F00035E00622294600985CF758FE0098A41DA7
:10140000801DA4B2AD1D009029E01498001B80B28D
:1014100003903088001B001D81B2012007900498C2
:10142000401C04900098401C400840000090049824
:10143000007857281CD04228CDD100980170090AA5
:10144000417000982946801C0090039A5CF72EFE9C
:1014500003980399201884B20098401800900498CB
:10146000401C04900078002820D0002F19D01DE0E7
:101470004908E2E71498001B80B203900098039A91
:10148000401C41084900012000910790294600981E
:101490005CF70CFE03980099201884B20398081892
:1014A000DCE70D990988A14200D32FE70D98008849
:1014B000A04208D304990978002904D1079900298A
:1014C00003D1A04201D034270CE00D99001B088005
:1014D0000C9801880098801B001F08180C99002F99
:1014E00008800CD07088042809D0062807D040381E
:1014F000402804D30E984079707100E034273846B4
:101500000FB0F0BDFFB581B01F4616460C46104621
:101510005AF703FD00253F2802D02189062908D06B
:101520003B4632462146019854F7BFF80546284607
:10153000B4E4000701D50225F9E720780028F6D1A8
:10154000300AA11D41F7C1F8F1E7F3B581B0019868
:10155000524C850060590F464068CE8801462431C0
:10156000009146F7E3FE00994D4A40310091C98948
:10157000701A80B2904214D2B14212D060593146F2
:10158000406845F78CFF60590522791C1F305CF7D5
:101590008DFD019805210002401C80B25AF78BFC9A
:1015A000FEBD60590522791C1F305CF77FFD009855
:1015B000808841F767FFFEBDF8B53A4C06468500C6
:1015C0000F4660594821095C24290ED10069102278
:1015D000791D2E305CF76AFD615925204031087273
:1015E00000221146304652F739FE60594821095C05
:1015F0000C291FD100691022791D2E305CF756FD91
:1016000060595F210069095C09072DD401462E311C
:1016100010221E305CF76EFD00280CD060590921A5
:1016200040300172304653F737FB01460022304606
:1016300052F79FF9F8BD0421684601706A460521FA
:10164000304652F741FB6846017860200143684606
:101650000170304653F720FB0146684602780123AB
:10166000304652F79BFAF8BD304653F715FB012878
:101670001AD06059072140300172002211463046CD
:1016800052F7ECFDF8BD00004C7EFD0714F3F107A6
:101690001CF3F10778F3F107B4F3F1071879FD07AC
:1016A000FF7F00002C7EFD07615900200969C031D1
:1016B000887160590421026930461E3252F704FBDA
:1016C000605901694031897F002907D01A214030D3
:1016D00001720021304652F74BFED3E71B21403008
:1016E0000172304652F799FECCE7F8B5FF4C05463B
:1016F0008600A0594822125C192AC3D140224930E1
:10170000491D5CF7D3FCA0594022F94949305CF7E8
:10171000F1FC002805D0F6492846203959F749FF41
:10172000B0E70B21684601706A460521284652F74A
:10173000CBFA68460178602001436846017028466C
:1017400053F7AAFA0146684602780123284652F761
:1017500025FA97E7FFB581B003980C46060A0025E5
:101760005AF7DBFB002818D0132816D0142814D001
:10177000E048B700C0592030407BC00628D5039808
:101780005AF7CBFB15280CD0A07941F79CF93046CD
:1017900045F7B3FD032806D015E0A07941F793F98A
:1017A0001FE002251DE0D348C0592030407B400790
:1017B00004D53D21304641F7BEFD04E03D22002125
:1017C000304641F7C6FD3D21304644F713FE08E0A0
:1017D00020460C38C8498180C68020464DF798F9CC
:1017E00001252846A4E6F1B592B0129841F778F9A0
:1017F0000446129869460079C04A4006C00F0A9014
:1018000008900A208883618B081A90427ED2E08A71
:1018100006287BD31922D201904277D8228BFF234E
:10182000F5339A4272D8521C9300D21803465343A0
:101830005B1C5A100A2359438A4267DC217F002926
:101840000CD1617F002909D1A17F002906D1E17F58
:10185000002903D12021095DC90657D0274620372A
:101860007978C906C90E491F0C294FD2A18A814235
:101870004CD8E17C002949D0421E082A01D9082011
:1018800000E0401E814241D806A844F79BFD002895
:101890003CD19B4D0622E86121460EA85CF706FC70
:1018A000A878002874D06079800901280AD02046E1
:1018B0000A994AF7C5FE010062D03820405C002832
:1018C00058D05DE020464AF728FFE861002804D19F
:1018D00010A920464AF737FFE861894E803EF16A39
:1018E000887A012801D0042812D1E86900280DD097
:1018F0000622253010315CF7FDFB002806D1E8698F
:10190000F16A2030C07AC97B884200E07EE07DD158
:10191000EE69002E34D03046253001460B90062269
:101920000EA85CF7C3FB2036F17A089107AA0B9842
:101930004AF768FD00280FD0E8692030C07A0028F7
:1019400011D168466F49808B49F70EFD07AA012126
:101950006C484AF757FD06E007AA012110A84AF78C
:1019600051FD00280CD0E9696846808B323149F777
:1019700011FD05E00A18527D002A0AD0102873DBF9
:101980005F488038C06A407A022806D0032804D015
:101990000EE0401C1028EDDBF2E76846808B0A2839
:1019A00006D307AA20460A994AF72CFD00285BD0E7
:1019B000002206A920464AF7CFFD002854D1504DF9
:1019C000803DE86A407A02280BD0032809D0002322
:1019D0006846028B0EA808994AF7DFFD002802D05E
:1019E00031E00123F4E7E18A68468180218BC180E0
:1019F000618B018178784109684681747878C106E5
:101A0000C90E684641740622214600E02CE00A30E7
:101A10005CF74CFB129800794006C10F68460174D0
:101A2000038B214601A8AA6D45F779FC0146A865FC
:101A300001A841F71FFB0020A865214668461C311C
:101A4000008B44F712FD47F7B0FC2D4C2034207971
:101A5000002805D0002109205AF746FB00202071FC
:101A6000002108465AF727FA13B0F0BD70B51646A4
:101A70000C46488853F7E7F80546FF2849D001216E
:101A800053F757F90C2804D100220121284652F7B8
:101A900039FF0023E0180079002803D15B1CDBB27A
:101AA000082BF7D31148A9004058006900280AD034
:101AB0004030C07F000706D4082B04D301212846FC
:101AC00051F7F1FF25E029021E2332460E480A3164
:101AD0005AF76EF805460B202870A08968822846C0
:101AE0000822211D14305CF7E1FA0FE02C7EFD077F
:101AF000EC7DFD071879FD0706080000770C000053
:101B0000E479FD0704E5F107160E000028465AF7B0
:101B100068F8002070BD00207047F7B5804E0D4674
:101B20008700F15982B00E2D08D10A69002A05D02C
:101B3000537EDB063DD5927CD2063AD54031040275
:101B4000C97920460A30C907009000290AD0014609
:101B5000E32000015AF7C8FAF0594030C17949082A
:101B60004900C1710520A11D48234002009A5AF77F
:101B70001FF804460620A0806A49A571A8000A58EB
:101B8000A01C0499904720465AF72BF8052D10D039
:101B90000E2D0ED064480099006880304269E32021
:101BA00000015AF757FAF05901224030C179114328
:101BB000C171BDE4F8B50C46054659498000085886
:101BC0004030C079400717D4204640F779FD694678
:101BD0000870002809D007280ED00121284653F7A5
:101BE000A8F860260C2808D00EE020794F49800024
:101BF0000A5821462846904744E568460278012164
:101C00003243284652F77EFE6A460521284652F79F
:101C10005BF820790128EFD00B28EDD0284653F748
:101C20003BF801466846027801233243284651F7C3
:101C3000B5FF27E538B50D46044653F72DF80128C2
:101C40000DD1204651F7AAFD69460870002807D03B
:101C5000092804D10A460521204652F735F838BD37
:101C60002F49A000085800690028F8D1012120461A
:101C700053F75FF80C2804D100220121204652F7C7
:101C800041FE21020A3108230A46294859F790FFEC
:101C900004460A2020700622691D601C5CF706FAC3
:101CA000204659F79EFF38BD70B50C460546012108
:101CB00053F73FF8014670200C2911D0184AA900AB
:101CC0005158096900290AD064790443284652F71B
:101CD000E3FF014600232246284651F75FFF70BD0F
:101CE000627901210243284652F70CFE70BD12486A
:101CF0001049016011494160704710B50E4A104803
:101D0000906010484178037809021943C3788478B9
:101D10001802204300040843D06010BD7047000043
:101D20002C7EFD0730F4F1075876FD076CF4F107BF
:101D3000120E00008CBFF107C000084088D3FC07DA
:101D40005CE5F10760E4FC07F8B53E4C6088C60727
:101D50006088F60FC005C50F6088400840006080AD
:101D60006088FF270137B843608040F729FE40F7BD
:101D70002DFE00220821022040F71CFE002800D082
:101D800001206188A1886188490849003143618048
:101D900061882A02B94311436180F8BD70B50125FD
:101DA00029492A020A60BFF34F8FBFF36F8F27497B
:101DB0000A6027490B681C0A240240231C430C605C
:101DC000214980390A601F494C880626B443241DE6
:101DD0004C804C882C434C804C8838252C434C80BC
:101DE0004C889C434C800F280FD1488833021843FD
:101DF000488048881043488048882A021043488019
:101E00004888012292039043488070BD10B5114C60
:101E1000E18A114ACBB21189248BC904890E64046A
:101E2000640E001B093141430120C002401A80B2F8
:101E3000584340031189000E090A09020143118128
:101E400010BD00002020005080E100E080E200E0B2
:101E500008E400E000230050002C0050F8B5020216
:101E600005464123092134480A3259F7A1FE2721AA
:101E70000170044600201F233049AA008F581E1A03
:101E80004936BE5D2718401C7E702028F6DB0020F6
:101E90003F238E581F1A4937F65D27182037401CFC
:101EA0007E702028F5DB5AF795FF0146601C5BF732
:101EB0000EFC002812D10A2000906A46052128460F
:101EC00051F702FF284652F7E7FE009960221143BE
:101ED000CAB201460123284651F760FE204659F751
:101EE00080FEF8BD70B505460446008914490C34DF
:101EF00088B088421AD100201F216E460A1AA25CBF
:101F00003254401C2028F9DB2022314620465CF761
:101F1000CDF800203F210A1AA25C3254401C202830
:101F2000F9DB20226946A0185CF7C0F8284649F77B
:101F3000DCF908B070BD0000270D00002C7EFD0705
:101F40002620000000280BD000BF00BF00BF00BF4C
:101F500000BF00BF00BF00BF00BF00BF401EF1D1E7
:101F6000704700000048704710CBFC07CAB2401E03
:101F70004178401C8A4202D00029F9D100207047E4
:101F8000421C0178401C0029FBD1801A704710B513
:101F9000002200E0521C835C8C5CA34201D1002B28
:101FA000F8D1D8B2E1B2401A10BD03460A780270E7
:101FB000401C491C002AF9D11846704730B5054627
:101FC0000020034600E05B1C934205D2EC5CC85C39
:101FD000201A01D1002CF6D130BD0000F7B5009CCD
:101FE0000F4600262578641C002D05D0FFF7BAFFA8
:101FF0000068405DC007F5D12B2D02D02D2D18D0E3
:10200000641E39462046029A00F020F8002F04D0C2
:102010003968A14201D10099396071050224002973
:102020000BDA4042002803DD0AF0AEFC0460A00792
:10203000FEBD012080020643E3E70028F8DA0AF03B
:10204000A3FC04600048FEBDFFFFFF7FF7B582B030
:10205000029C00272078641C15460197302802D086
:10206000002D15D015E020780127641C782804D0B5
:10207000582802D0002D09D00BE0002D01D0102DE2
:1020800007D1002710252078641C02E0082500E015
:102090000A250026009610E00099012769430818D8
:1020A000020C294680B2714300908E183804864293
:1020B00001D3012001902078641C294600F02CF8FF
:1020C0000028E9DA0398002805D0002F01D0641E0B
:1020D00000E0029C04600198002806D00AF054FC3D
:1020E00002210160C81E05B0F0BD0099300408430C
:1020F000F9E70000064C0125064E05E0E36807CC31
:102100002B430C3C98471034B442F7D3FEF704FA43
:10211000D4DBFC0704DCFC073A2800D2303820234B
:1021200002469A43412A01D310463738884201D3E8
:102130000020C04370470000F0B50C465C4085B0FD
:10214000E40FE40703944C00002664085900944609
:10215000490802460296224321D062460A431ED015
:102160006200570D4A000E032303550D0124024659
:102170002C492405781B1B0B360B401823432643A0
:10218000614600901C46501AB44103D30098401C8D
:10219000009002E0921800985B41002803DA0020CA
:1021A000014605B0F0BD002001210905074686461D
:1021B00011E064461D46141BB54106D36546521B0B
:1021C000B341744607430C43A646CD07400849086F
:1021D000284392185B4105460D43EAD11046184347
:1021E00013D06046194650407140084306D06046FF
:1021F000101AB34106D20122002306E00022012377
:10220000DB0702E00122D243531000987446010517
:10221000381C6141029C039D0019694100F041F89E
:10222000BFE70000FD0300000EB505490291002143
:1022300000910A460B46019100F040F803B000BD42
:10224000330400004A0009030123090B1B0519434D
:10225000094B10B5520D9A4201DA002010BD064B11
:1022600034339A4203DC9A1A00F00AF810BD03498D
:102270005118884010BD0000FF030000CDFBFFFF98
:1022800010B5202A04DB0846203AD040002110BDBA
:102290000B46D340D0402024A21A9140084319464F
:1022A00010BD10B5002B08DA0024401C61419218C3
:1022B0005B411A4301D14008400010BDF0B51FB486
:1022C00082B005460C0003D008460AF045FB02E048
:1022D0000AF042FB203002460090214628465BF778
:1022E00029FF049B059A04460F46184311430843EF
:1022F00014D0184610431BD0009840210A1A1846E3
:102300000599FFF7BDFF05460E46009A059904980A
:102310005BF710FF084305D0012004E02046394652
:1023200007B0F0BD0020C11705430E432C433743CF
:1023300000990E986305401A7905E40A00220C43BF
:10234000FD0A0A3002D500200146E9E7010510190F
:1023500069410C9C0D9D00196941FFF7A2FFDFE761
:10236000F0B507460846584087B0C00F04904800B3
:102370000E46590040084908BC1A884105D2384623
:1023800031461E4617460B46024658004008104389
:102390004CD0300D039040055900400D490D05907B
:1023A000401A0290402872DA18030121000B090537
:1023B0000843019004980092002805D001995242E8
:1023C0000020884100920190029840210A1A019948
:1023D00000985BF7AFFE05460C466B4607CB00F056
:1023E000D7F8C0197141039A0E0D0023D717564034
:1023F0001A467A40164344D0049A002A2DD0029AF5
:10240000012A039A15DC1205C01A914101263605EE
:10241000001C7141D20F059ED207009301920296D3
:102420002A462346FFF74AFF07B0F0BD384631463B
:10243000FAE71605224A0F46B218C01AB741012121
:102440000905001C4F4100187F41114618187941B9
:10245000E20F10436D19644113E0E2076D08154364
:102460006408C2071443039A01261205C01A914159
:102470003605001C7141CE07400830434908C0189A
:1024800051412A462346FFF70CFFCDE7FFE70498AA
:1024900001224000C117121A00238B4104983146D3
:1024A000C417381AA141EEE730B40124E4076340B1
:1024B00030BC55E730B40124E407614030BC4FE73D
:1024C0000000E0FFF8B50546480040080C462843E8
:1024D00004D06000184A400D904201DD2846F8BD46
:1024E00015493539884210DC88420BDB290D200361
:1024F00008432903014305D0E00F1049C0074118E4
:102500000020F8BD00200146F8BD161A4020821BAD
:10251000284621465BF70EFE0746009128462146D5
:102520003246FFF7ADFE3A46009BFFF7BAFE324651
:102530005BF700FEF8BD0000330400000000F03F30
:1025400010B5002904DB0124E40740428C412146F8
:10255000002B04DB1C460123DB075242A3418B42C4
:1025600000D1824210BD000010B5002904DB012417
:10257000E40740428C412146002B04DB1C4601232A
:10258000DB075242A341994200D1904210BD0000A6
:1025900010B5202A06DBCB170846203A1041C11798
:1025A0000B4306E00B461341D0402024A21A914071
:1025B0000843194610BD0000014801210180704701
:1025C0000815005070B505252C076089800723D0B9
:1025D000A08A400701D504F015FD218C802001431D
:1025E00021842449FF224A8004220A802288302341
:1025F0001343238022880323134323801E4ACB885E
:102600008E881B049B199342F9D30D80B149098D23
:102610006180218C81432184184801884907FCD4BA
:102620002088302188432080218803208143218015
:102630006189890706D0618981436181608C0121AC
:10264000884360842089802101432181208A0421DC
:1026500088432082A08A8007FCD53FF790FE9D48E2
:10266000406B074908600748016801684907FCD5C5
:1026700070BDC04600160050E9030000083300504A
:10268000080200401000004080B50A2000F088F8E1
:1026900080BD80B50B2000F083F880BD80B50C2094
:1026A00000F07EF880BD80B50D2000F079F880BD87
:1026B00080B50E2000F074F880BD000070B50124D4
:1026C000032800D104208C404001074D049E002EB9
:1026D00001D0445301E02E18748013434900691857
:1026E0000818838070BDC04602300050F0B587B036
:1026F00003931746069105901D4EB5891D48054068
:10270000012420021C4988470190B5813F20C14324
:102710000491B5890D40184988470290B581039905
:1027200001988140308A134A104008433082358A2C
:10273000A54320461049884787402F4337820FA082
:102740000599405C06994018029988403188049A9E
:10275000114001433180FF20000409490A68824387
:10276000E00510180860A0020649086007B0F0BD37
:1027700000140050FFFEFFFF595FFC0701090F190D
:1027800008E400E000E100E0032800D1042040015B
:10279000024A825ACA40012010407047003000505F
:1027A000F8B5C4B226460A3E01252846B0400B497A
:1027B0000F88874380B203F0CFFB2946814039431D
:1027C00006480180B00006490818C068002801D0FA
:1027D0008047F8BDA54019480560F8BD0E140050AB
:1027E000800FFD070348C8210180034808210180AC
:1027F000FEE7C04600310050023300500248008816
:102800000E481021016070472C1300509B4801892D
:1028100004220A430281018902220A4302810188BB
:1028200040220A430280054901220A604189044A84
:1028300011408918091D41817047C04680E200E0BF
:10284000FC7F00007047000080B5024806F0B2F936
:1028500080BDC0460011005080B5024806F0AAF9BC
:1028600080BDC0460010005080B5052000070188DB
:102870003022914301800188032291430180042189
:10288000415E002906D511490A88520702D50A88F7
:10289000D20712D18088C0060ED50D4801880906DE
:1028A0000AD5012181800188802291430180E84876
:1028B000006B002800D0804780BD088802220243B8
:1028C0000A80088801229043088080BD00020050E1
:1028D00000010050040FFD0710B50468091BFF310B
:1028E000994208D3194606E01378237003685C1CEC
:1028F0000460491E521C0029F6D10020207010BD32
:10290000F8B506462120124F3C5C002C1CD0012556
:102910003D8409F0F5FB442000213954B965002EAF
:1029200004D00C480621002206F080FA06F05CFB79
:1029300006F0B0F8FF20023048217852EF20400026
:102940003D54284609F050FE601E84412046F8BDE3
:10295000740CFD0737D7FC073848018802220A4368
:1029600002800549491C02D202889207FAD400214C
:10297000018140897047C0465F79FEFFFEB505467C
:102980001448029002AC204600F028F81420FFF70B
:10299000D9FA07208601002D00D08036274F3888CD
:1029A0000D49084080193880FFF7D6FF01900220BA
:1029B000FFF7C8FA0025A570204600F00FF8388808
:1029C0000549084080193880FFF7C6FF3D8001990E
:1029D0004018FEBD010001013FFCFFFF10B5174983
:1029E000174A0A8000224A80164A40231360BFF328
:1029F0004F8FBFF36F8F00281ED00A88124B1340F1
:102A00000278D2021A430A80104A134640330C88D7
:102A10001C4043789B0123430B800B881340827832
:102A200092021A430A8009224A804A8802239A4362
:102A3000C07840001043488010BDC04600150050CB
:102A40000140000080E100E0FFF70000FFFBFFFF16
:102A500080B500210A46FFF7C1FA80BD074801880A
:102A60000020090609D506490968090405D4054866
:102A70000088012101404842484170470800005049
:102A8000300000405877FD0770B532480921042412
:102A90001823224659F78CF805461B202870FD267E
:102AA000304603F02FFA0021A982E96029616C60A9
:102AB0006E806870284659F794F870BD0120704701
:102AC000B0B56348427B1449D4B20C236343CD5C58
:102AD000FF2D0AD0022C02D103224273F4E7521CCC
:102AE0004273C818406880470EE0817B0B4ACCB225
:102AF0001C236343D45CFF2C08D0491C8173D3187A
:102B0000DB68002BF3D098470020B0BD0021417353
:102B100081730120B0BDC046A0D4FC0708D0FC07DB
:102B200070B50C48092104240A23224659F740F8BD
:102B300005461B2028701426304603F0E3F9FF21D8
:102B4000743129816C606E806870284659F749F8A5
:102B500070BDC0461B0D00001FB514460122029235
:102B6000044A0192069A00921A46234600F0C2FADD
:102B700004B010BDA8CCFC0780B50548092104228B
:102B8000012359F715F80221017059F72AF880BD81
:102B9000030D000010B50C4601020A31064804225C
:102BA0002C2359F705F828214454014628310122E5
:102BB0004A7059F716F810BD020E0000B0B5104863
:102BC000092504225223294658F7F2FF04462B20F8
:102BD00000212154E172A172FF20083020810948B0
:102BE000E080A080617065730E20207320460E3057
:102BF00005490D225BF75AFA0F20E0722046B0BD5E
:102C00000D0D00004C04000048DBFC07B0B5104D72
:102C1000EC6B002C19D10F48092104222C2358F702
:102C2000C7FF0446E8637B2020840B4820800025F2
:102C3000658020460A3011215BF751FA2585E5842D
:102C40006584E583A5832020E0762046B0BDC0469C
:102C5000040FFD07040D0000030A000010B5044630
:102C600001020A3108480422022358F7A1FF132168
:102C70004170012101700C216143044A5118002266
:102C8000CA7058F7AEFF10BD040E0000800FFD079C
:102C900010B50B4C2068002800D010BDFFF78EFF48
:102CA00020600C21017010BD10B5054C2068002873
:102CB00000D010BDFFF782FF20600D21017010BD14
:102CC000B806FD07B0B504467A2060430B490D18DD
:102CD0007820295C2046FFF75DFF204601F00CFDBF
:102CE00001210170297F4174A91C401C10225BF74F
:102CF000DDF9204600F014F8B0BDC046FA0BFD0720
:102D000080B501F01BFDFF2805D07A21414303481F
:102D10004018203080BD002080BDC0466C09FD07F2
:102D200010B5044601F0E8FC58F75BFFA00002492B
:102D300000220A5010BDC046C806FD0710B5044663
:102D400001F0DAFC002101702046FFF7E9FF204680
:102D5000FFF784FF10BD0000FEB5029301920E46FE
:102D60008100114A57585518002F0AD101020A3123
:102D70000E4804241E23224658F71AFF0746047003
:102D80002860BC1C102120465BF7A9F9204631467B
:102D9000019A5BF78BF902987870384658F721FF53
:102DA00000202860FEBDC046C406FD07140E0000CA
:102DB000B0B500280FD002461248824212D82348EC
:102DC0002430002423460A2B19D00568002D10D08A
:102DD000001D5B1CF7E7E148C8210180E04808219D
:102DE0000180FEE7DD48C8210180DD48082101801F
:102DF000FEE701605C1CE0B2114600F0C1FDE0B2EC
:102E0000B0BDC046FCFF3F00F8B50446401E09288F
:102E10001AD8A0000D494718386A002814D00C4D64
:102E2000A84211D020370B482018401C04263146F8
:102E300059F75AF93D60082306483146324658F79B
:102E4000B7FE047058F7CDFEF8BDC046F00FFD0781
:102E50008D89FC0702040000F0B585B0039302924F
:102E60000E4607460020041D202C0ED004A9009118
:102E70000AA10D5838463146029A039BA8470028FC
:102E80002046F0D104A8007806E038463146029A80
:102E9000039B08F05BFB002005B0F0BD3130FC0760
:102EA000AD32FC075130FC07A130FC07592BFC0761
:102EB000B931FC07BD2AFC07FEB505460805090B1C
:102EC000002800D0491C002900D1012157480540A5
:102ED000FF200024144F154E01918C4220D028462B
:102EE00004F008FE00281BD10295002504F05CFECA
:102EF000C0070CD038880006F8D530680004F5D437
:102F00000B4885420BD06D1C59F767FAEEE7029823
:102F100004490818451C641C00200199DDE7FF20C6
:102F200040B2FEBDFF0F000008000050300000401E
:102F300080841E00F0B587B006908A4206D287488A
:102F4000C8210180864808210180FEE7101F0390F8
:102F50000592D01E0290C81E0490002401910A46DA
:102F60002046C5B20498854218DAE8430599471807
:102F700016463FF700FD010E069BD955D919491E8B
:102F8000020C0A700299491B020A5A5432460399EC
:102F9000491B5854321F281D241DE2E7E0B2019955
:102FA0008842059F0DD10198391AC8B2069A89182E
:102FB000491E002803D000220A70401EF8E707B01F
:102FC000F0BD06983818FF21C9431346E2430A436F
:102FD0001518D8B2C6003FF7CEFC18217218182A6F
:102FE000E1D00246CA402A706D1E0839F6E7C04695
:102FF0007CB514460D4606460C480840884202D16E
:103000002846214608E061190A466A40120B05D09D
:10301000012212038018091AFFF74EFF01AB304658
:103020002946224604F0EAFD7CBDC04600F0FFFFC1
:103030001FB514460F220292044A0192069A00928A
:103040001A46234600F056F804B010BDB0CCFC0779
:1030500010B5014601200B4A914211D3121D914235
:103060000ED8029CF231C8B2800044490918486B5E
:10307000002803D0343100220A60804700202070ED
:1030800010BDC0460E040000E0B5844B1B7C132B22
:1030900003D101AB04F05AFD8CBD0020C0438CBDB0
:1030A0001FB5144607220292044A0192069A009222
:1030B0001A46234600F01EF804B010BD28CDFC07C8
:1030C00070B51322D2432D4B002A0AD09C18342508
:1030D000665D864202D0921CFF2EF5D13522A154A6
:1030E000605570BDE0B504F069FD01A804F0B6FCC0
:1030F0008CBD0000F0B585B001250C9C002C20D0C3
:1031000001950291039304920B9B0A99E500ED1837
:10311000083D661C104B761E012E11DB2C462F88B5
:10312000874203D02546083D9F42F4D16468002CB5
:103130000AD00D4602AB0ECBA0472870002500E058
:10314000019D284605B0F0BDA148C8210180A148D5
:1031500008210180FEE7C046FFFF0000003100505B
:103160000233005080B505484A3005490A31102223
:103170005AF79CFF012000F0F7FB80BD800FFD0790
:10318000740CFD0770B50B480424092122460B4638
:1031900058F70EFD05461B202870FC26304602F02D
:1031A000B1FE002129726C606E806870284658F765
:1031B00018FD70BD1B0D00001FB5144604220292BD
:1031C000044A0192069A00921A462346FFF792FF9C
:1031D00004B010BD60CDFC07F8B50446F948806D19
:1031E0000F210140E171010F2171C1B20909A171E3
:1031F0000101090F61710103090FE1700102090F5B
:10320000A1700105090F61700004000F20700122F8
:1032100000920322150208230D4F2A46B847E17990
:10322000A0790026009607232A46B847E178A078BF
:10323000009606232A46B84761792079009605232F
:103240003246B84720786178DE4A91725072F8BDF4
:10325000BD26FC0770B5DB4C207C032817D1EFF3AB
:103260001086012585F310880D480188A943018047
:103270000C4801880C4A0A40028004F0D1FB002E61
:1032800002D085F3108802E0002080F3108814201B
:103290002074002003F096FE70BDC046040FFD07A9
:1032A0000012005004000050FFF7000010B50C465B
:1032B0004349884220D0434A90422AD0424988421A
:1032C0003AD12078401E092853D880004249081876
:1032D000416A434A914268D0404881426AD13948A4
:1032E000042108230A4658F763FC217801706168BD
:1032F000416058F776FC5DE06268002A47D03348A9
:1033000082424BD220782F494018042158F7A2FE60
:1033100050E02078411ECAB2092A31D889002E4ACD
:1033200051184A6A2D4B9A4244D1CA6C24310A6022
:10333000616800F025FB3DE0531C012198423CD31D
:103340000A32904239D8C01EC0B2411E8900224ABA
:103350005218516A00292DD0204B99422AD0204B77
:10336000994227D01346243300241C60D464884734
:1033700020E01748C8210180164808210180FEE797
:103380001348C8210180134808210180FEE7104836
:10339000C82101800F4808210180FEE70C48C821A0
:1033A00001800C4808210180FEE7014624310022FB
:1033B0000A60C264029800210170084610BDC04630
:1033C000010400000304000002040000FDFF3F00B0
:1033D0000031005002330050F00FFD078F89FC07C9
:1033E0008D89FC07EFF31081012080F31088084AD3
:1033F0001288120603D4074A138803431380002956
:1034000002D080F310887047002080F31088704746
:103410000800005008330050FEB51C460D46064615
:103420000027002801D4384600E0012029460A3947
:103430004B424B410340019300D07642002A01D019
:10344000372000E057200290089800903046294627
:103450005AF7B2FD29464143711A0A2901DB029A43
:1034600000E030228918E1557F1C00280646EDDC7B
:1034700000998F4203D23020E0557F1CF9E7019874
:10348000002804D02D20E055E019421C00E0E2198C
:1034900000201070101B4108521E002907D023780D
:1034A000157825701370491E521E641CF5E7FEBD89
:1034B00083B070B5C1B0044645914692479345AA82
:1034C000009201A8214600F0A3F8012810DB044671
:1034D0003C4D2E788019000A02D000F00FF82E78AB
:1034E0001D48801901A922465AF7E0FD30192870BD
:1034F00041B070BC01BC03B00047C046F8B53148CC
:103500000078401D032158F745FA04460027054678
:1035100080C52C4806781049284632465AF7C6FD21
:10352000AF55F84DEFF31081012080F310882A6D1C
:10353000002A06D013461268002AFBD11C602760BF
:1035400001E02C656870002902D080F3108801E04A
:1035500087F310882F70F8BD44DCFC07B0B5E94D47
:103560002878002801D0FFF7C9FF6878012817D113
:10357000A879401CA871287900280ED11248002291
:10358000C270124801780270012901D0012000E0C8
:103590000220022900D103202871A878002800D039
:1035A000B0BD0B480B494161286D041D204600F059
:1035B00028F881B20122204605F038FC002068700E
:1035C000B0BDC046040FFD075877FD07B477FD076F
:1035D0007803FD07F589FC0782B0B0B5C2B0044698
:1035E0004692479346AA419201AD284600F010F852
:1035F00020462946FEF7D9FC42B0B0BC01BC02B05F
:1036000000470021425C491C002AFBD1481E70473C
:10361000F0B58BB003920E460A90012102900C1A6D
:103620000D0231780A982218AA427CD225290ED19F
:103630007778B21C302F11D11178002973D030392E
:10364000CAB20A2A00D30021F778321D07E0761C9F
:10365000017000214170401C0A905FE000210423AA
:103660003B436C2B02D11778561C00E01646582FAE
:1036700021D0632F42D0642F27D0692F25D0732FFC
:1036800040D0752F17D0782F15D0002F4BD00AA817
:103690002523029926A2FFF71FF90A982118A942AB
:1036A00004D2077000214170401C0A900AA802232E
:1036B000029929A230E0039A01CA0392C9B2752F78
:1036C0000FD100910A21002210E0039A01CA03924F
:1036D000C9B200910A21002204AF3B46FFF79CFECD
:1036E00016E00091583F7A427A41102104ABFFF76F
:1036F00093FE03460AA804AA02990DE0039A02CA9F
:103700000392A5E7039880C803903846FFF779FF36
:1037100003460AA802993A46FFF7DEF831780029F5
:1037200000D07FE70A980299401A0BB0F0BDC0465E
:10373000464154414C3A20756E737570706F7274C7
:103740006564207072696E7466206368617261637B
:103750007465723A200000002E0A000080B5AE2188
:10376000794A515C002904D080000249085804F0CD
:1037700021F880BD90DBFC07FEB50024E54300285E
:1037800014D006460078002810D0002A0ED00F462C
:10379000009209F0F9F80190046002A930463A4617
:1037A000FEF71CFC02990A78002A01D02846FEBDCB
:1037B000019AB142FAD011680229F7D00028F5D455
:1037C000009908602546F1E7B0B50C460025202D8C
:1037D00004D03FF7D0F860556D1CF8E70020B0BD6D
:1037E000B0B50446A3208100114D28465AF777FC56
:1037F0005120C0000349295203482880204600F088
:1038000019F8B0BD224300003512000010B5034680
:1038100007484218AA2494707A2251434018203055
:1038200019465AF743FC012000F004F810BDC046C9
:103830006C09FD077FB5044A01A90B4670CA70C325
:1038400002F038FA7FBDC04614CBFC07F8B50D4630
:1038500004463C4EB06BF0632B480121009101609F
:1038600001680029FCD129480068B0634127F15D57
:10387000002908D04020305CFFF7C6FA4420002120
:103880003154F155B06BF16B411A706A814201D825
:1038900000281DD1E8B203281AD12C20315C2078F1
:1038A000884215D16178814212D1A17881420FD12D
:1038B000B06A01280ADB009CF45500090549FFF7AE
:1038C00077FA4421745440217054F8BD00F022F876
:1038D000F8BDC0461539FC070A49087A01280ED1FF
:1038E000094A012010601368002BFCD1074A1268B6
:1038F000074B1B689A4201D30020087270470020D2
:103900007047C046040FFD07FC0000401C0000404B
:1039100020DCFC07B0B520200A4C0025255408F017
:10392000B1FE09484560057008F036FB08F06CF8F8
:1039300007F0FCFD4420255404A003F03BFF412088
:103940002554B0BD740CFD07540EFD074F4B0D0AF6
:1039500000000000BFB5094901A8024638C938C2B5
:1039600002F09CF9BFBDC0467FB5044A01A90B46D1
:1039700070CA70C302F09EF97FBDC04620CBFC0721
:1039800070B50C4605460C4EFFF768F8002806D0C7
:103990007019801C0421224658F75CFB70BDFFF7AC
:1039A00021FD0421082330460A4658F701F94460F6
:1039B000057058F716F970BD01040000704700004B
:1039C00070B514460D460646FD2003F0D9FC0028CC
:1039D0000ED0002C13D0002D18D010300068002815
:1039E0001BD00179B142F9D141792980801D16E0BF
:1039F000DD48C8210180DD4808210180FEE7DA4862
:103A0000C8210180D94808210180FEE7D648C82195
:103A10000180D64808210180FEE700202880206030
:103A200070BDC04670B515460C46104658F775FA7D
:103A3000002815D1FD2003F0A3FC002812D0064673
:103A40000C48082106232A4658F7B2F8A18841807D
:103A5000A1790171B18862885118018058F7C1F8C5
:103A6000002070BDC048C8210180C04808210180E5
:103A7000FEE7C046180C0000FEB514460F4605468A
:103A8000FD2003F07DFC00282AD006460294019711
:103A9000103634462468002C0DD02079A842F9D184
:103AA0006079B84214D00022304621463FF7AAF888
:103AB000204657F7EAFF08370121384657F76AFFD3
:103AC000044639465AF70BFB304621463FF746F885
:103AD000019A62712571A01D02995AF7E7FAFEBD9D
:103AE000A148C8210180A14808210180FEE7C04605
:103AF000F8B50C46234D1835006900900127224E79
:103B0000112F0FD02878022809D1281F00680088BB
:103B1000B04204D1F9B20022204600F06BFA14350D
:103B20007F1CEDE702200099085E60490140C20B4E
:103B3000200210400843002158F7BDF9F8BDC046E7
:103B4000F8B5072916D80C460E4D183501260E4F2C
:103B5000112E16D02878022809D1281F0068008865
:103B6000B84204D1F1B20022204600F043FA1435E5
:103B7000761CEDE77C48C82101807C480821018043
:103B8000FEE7F8BD40D0FC070229000070B50546ED
:103B90000469264610363068002805D030463EF7C6
:103BA000C1FF57F772FFF6E700202861204657F75C
:103BB0006CFF70BD7CB5FD2003F0E2FB00281BD03C
:103BC00004468568407B6E4601AA3146FFF7F8FE41
:103BD0003088082817D1217B019807291AD84A1C58
:103BE0002273435C6E7B002E02D0DB0702D020E004
:103BF0009B071ED41146F0E75B48C82101805B4853
:103C000008210180FEE75848C82101805748082153
:103C10000180FEE7A068C28801896B7B2248002BE7
:103C20002CD0042357F7C4FF00218170E98901805B
:103C30002DE0A068C2882B8AC1200001090208314A
:103C400089B208339BB257F7B3FF0646687B00285A
:103C500001D0122000E013203070A088E9890818F4
:103C6000B080288AF080304608302A8A12352946EA
:103C70005AF71CFA304657F7B4FF7CBD801C80B25F
:103C8000062357F795FF00210171E989418057F715
:103C9000A8FFA06857F7F9FE0021A16062880348D9
:103CA000104058F708F97CBD07FD0000FF7F0000B9
:103CB00010B50446FD2003F063FB002805D0817990
:103CC000A14209D98088001907E0E648C82101808F
:103CD000E54808210180FEE7002080B210BDC04603
:103CE000B0B50C460546FD2003F04AFB00280CD079
:103CF000014682888020AA4206D889798918A9427B
:103D000002D9A81A20700020B0BDFA48C82101804D
:103D1000F94808210180FEE7BCB508280ED2044608
:103D200001AD6A4608462946FFF74AFE2888002862
:103D30000BD0009800280FD0005DBCBDED48C82115
:103D40000180ED4808210180FEE7EA48C821018092
:103D5000E94808210180FEE7E648C8210180E648DD
:103D600008210180FEE7C0460031005002330050B8
:103D7000F0B597B01E46029207910546282401210E
:103D800020460F9157F706FE074621465AF7A7F936
:103D9000089504972F61079D1E20019630403F2112
:103DA000C943411803915F21C943411805917F21FF
:103DB000C9434018069000228C4E022A00D1D9E057
:103DC0000898848A13A887490180511C86480B9162
:103DD000415C0C92875C781CC2B2914212910846F9
:103DE00000D810461092F9430818C1B21820484371
:103DF0001830032157F7CEFD2988018011904480A7
:103E0000142420460A97784330180279022A06992A
:103E100003D0042A059900D00399119A1171016900
:103E2000901D10225AF742F9109A54433619002770
:103E300009963C461019129988424FD230791028C1
:103E400017D0042828D0022844D11198C519B08968
:103E50000E90B0680D9030680178407868762976C9
:103E600028461A300E215AF73AF9109A0D99080C83
:103E70002CE01198C51928461830316810225AF7DD
:103E800015F9109AB0682885B189A9850F99C904D8
:103E90000143080C68851DE01198C519B0890E9082
:103EA000B0680D903068017842788378C078E87601
:103EB000AB766A76297628461C300C215AF70FF922
:103EC000109A0F9880040D990843000C6885298585
:103ED0000E98A88514361837641CABE71198447106
:103EE0004BF7D1FF109B04460028079D099F13D074
:103EF000119857F7CAFD0C98002802D12888049918
:103F0000888012980A99401A298840182880002C25
:103F10000B9A364E62D150E7119800882880002411
:103F2000264612988342E3D2002CE1D10C20385E61
:103F3000761C002400281AD4F989002917D0387972
:103F4000022808D13868027840780002801813AA45
:103F5000128890420BD0F0B2119A1288101880B2D9
:103F60001C463B6900224CF768F823460446143788
:103F70005B1CD6E71120049A9071FD200899C88235
:103F80000F9DCD811A484860888A508010462430A1
:103F900088600198C00302990843108010321046CF
:103FA0003EF7B8FD0024159414941436112D10D04A
:103FB000307902280AD10B48FF30316809888142E4
:103FC00004D1E8B2082114AAFFF756FD14366D1C7F
:103FD000ECE70898808A214657F76DFFE0B217B0EA
:103FE000F0BDC04603280000F4D1FC0740D0FC0718
:103FF00094D1FC07F0B585B008281DD215460C46B3
:10400000064604AF03AA08463946FFF7D9FC3F88A5
:10401000002F18D0039900291CD0009501AD284627
:104020003A465AF743F80098A855204639462A469A
:10403000FFF722FD05B0F0BD5F48C82101805F4851
:1040400008210180FEE75C48C82101805B48082107
:104050000180FEE75848C8210180584808210180A6
:10406000FEE7C0460031005002330050FEB5164650
:104070000C46FD2003F084F900280AD0054601947F
:1040800067888488304657F748FF012808D10227FF
:104090002DE04948C8210180484808210180FEE7F9
:1040A000381980B201F0A4FE00280BD002A9FFF756
:1040B00017FE00280DD04048C82101803F48082144
:1040C0000180FEE73C48C82101803C48082101806E
:1040D000FEE701273046394657F7EDFE00202873EA
:1040E00001980C38A86002986873FFF763FD3846A2
:1040F000FEBDC0460031005002330050FEB51646EA
:104100000C46FD2003F03CF900280AD00546019436
:1041100067888488304657F700FF012808D10227B6
:104120002DE02548C8210180244808210180FEE7B0
:10413000381980B201F05CFE00280BD002A9FFF70D
:10414000CFFD00280DD01C48C82101801B48082144
:104150000180FEE71848C821018018480821018025
:10416000FEE701273046394657F7A5FE00202873A1
:1041700001980C38A86002986873FFF71BFD384659
:10418000FEBDC04610B50C46FD2003F0F9F800282E
:104190000BD080886188081880B2A188A31D0024F4
:1041A00022464BF74AFF204610BDFD48C82101803A
:1041B000FC4808210180FEE7003100500233005026
:1041C00070B514460D46104657F7A7FE01282FD1AB
:1041D000287801020831AA791648002A0CD089B241
:1041E0000623224657F7E4FC0646A878FFF760FD51
:1041F0003080A879307114E0AA8889B2921D93B2F8
:10420000224657F7D5FC0646A878FFF751FD002156
:1042100031713080A8887080701DAA88E91D59F717
:1042200045FF304657F7DDFC0021204657F743FE97
:10423000002070BD140C000070477047F8B50446AC
:104240002F4D5A3500260527002F11D028463A3821
:104250000078400709D5002C06D0F0B200012018E4
:104260001022294659F722FF761C7F1E7A35EBE78C
:10427000F0B2F8BDF8B5022903D10120FFF7B0FA7A
:10428000F8BD0C46042801D1167805E0002311463C
:104290001A4600F053FA0646042E2FD8002C1AD0E6
:1042A000174F3C4620340C370420C5437642002D7E
:1042B00021D07019401D0AD07A21204659F70FFFEE
:1042C000002038600E4949190E4A8854C8716D1C87
:1042D0003F1D7A34EBE77A2108467043084C2018DA
:1042E000203059F7FCFEB00020180021C160A01951
:1042F000054A815481700120FFF79CFAF8BDC04641
:104300006C09FD078702000082020000F8B5234D0A
:10431000287801282FD108F0B5F9214CA088C007D2
:1043200002D004F0C1FCF9E700206860287007F0B3
:10433000BDFD03F0ABFA2120C0001A4D285C002817
:1043400017D0FF2630460C30295C85204000285CC1
:1043500001270097032212021423FEF7AFF98720EA
:104360004000295C0E36A85D009700221323FEF75B
:10437000A5F92220206077200B49085C002802D094
:104380000AA003F017FA032007F006FF002804D064
:10439000032007F03FFE07F0DDFDF8BD540EFD07DA
:1043A00010100050740CFD07040FFD070D0A2B417F
:1043B00057414B450D0A000080B559F765FE80BD99
:1043C00080B559F76AFE80BD7047704770B50546E5
:1043D0000469261D3068002805D030463EF7A2FB50
:1043E00057F753FBF6E700202861204657F74DFBAF
:1043F00070BD0000F0B58BB01E4607920F46044614
:104400001098069000880890002101200246092992
:1044100013D003258540099020463446089ECE409F
:104420003B46012737407E421F462E4032432646F8
:1044300004460998801C491CE9E70A928020304311
:104440009E210140A08A03911D4902910190002004
:1044500000901C490AAA132338464CF7CCF80546AD
:10446000002829D10897202701210591384657F7C0
:1044700091FA09960646394659F731FE26613046CB
:104480001E3011496160A06008980088308305984B
:10449000E0811420E082A08A70800998C003079907
:1044A00008433080069800887083301D3EF732FB49
:1044B000A08A002157F7FFFC28460BB0F0BDC0468C
:1044C00018D2FC070A180000FCD2FC07FEB51F46F4
:1044D00016460C46142002F053FF002819D001970D
:1044E0002778082F02961BD80546418B008B3A4649
:1044F00000F0EAF8002815D060788D26802840D892
:10450000082F11D0072F12D0062F12D1082810D053
:1045100037E05E48C82101805D4808210180FEE740
:1045200081262EE082262CE0072802D029E00628EA
:1045300027D32E1D35462D68002D0BD02979B94281
:10454000F9D10022304629463EF75CFB284657F752
:104550009CFA60780830012157F71CFA054661780B
:10456000083159F7BCFD2078287160786871A81D62
:104570006278A11C59F79AFD304629463EF7EEFABB
:104580000026064802230199029A57F711FB217869
:104590000170467057F725FB0020FEBD0114000096
:1045A0000031005002330050F8B514460D46104655
:1045B00057F7B3FC01283ED1142002F0E1FE002899
:1045C00021D00746418B008B3E7F324600F07CF8BD
:1045D0000090787F010208312A781848964219D154
:1045E0006A7889B2931D224657F7E2FA07460020FF
:1045F00038710098388068787880781D6A78A91CAE
:1046000059F754FD10E02148C821018020480821B5
:104610000180FEE789B20623224657F7C9FA07460A
:104620008020387100983880384657F7DAFA002130
:10463000204657F740FC0020F8BDC046140C00008F
:10464000F8B50F78092F19D20D4612A0C45DA01C31
:10465000C6B213481946334657F7AAFA06462878D1
:1046600030707470B8000FA10958B01C224659F779
:104670001DFD304657F7B5FA0020F8BD0348C821A4
:104680000180034808210180FEE7C0460031005048
:104690000233005007070A070D0D08060700000047
:1046A00003140000C5DAFC0785D7FC07E0D7FC0738
:1046B00085D7FC0777D7FC078DD7FC073EDBFC07C7
:1046C00037DBFC0700D0FC07B0B58BB2411C0020E3
:1046D0000446092C0DD01D46E540ED0702D0A2424C
:1046E00002D0891C641CF4E7092A01D0481C00E0B0
:1046F000002080B2B0BD000010B58200074B995871
:10470000002909D19C1801020A310548042212230C
:1047100057F74EFA01462060084610BDC806FD074F
:10472000180E00007FB5044A01A90B4670CA70C379
:1047300001F0C0FA7FBDC0462CCBFC07F8B5009253
:104740000D460646914F91370024052C21D0032EAB
:104750001CD8B00001A108588746C0466D47FC0729
:104760007347FC077747FC077D47FC0738465F38EF
:1047700006E0384604E03846373801E03846273846
:104780002946009A59F7B6FC002803D07A37641CF2
:10479000DBE7FF24E0B2F8BDF0B585B000920191EF
:1047A00006467A490F4691377130029030463A30CA
:1047B0000490FF20039000242546052C1FD00819E3
:1047C0008078AA280BD130783946713909780140B0
:1047D000480709D5394637391022049807E0E80719
:1047E00000D10394012507E007220298394659F7C2
:1047F00081FC002804D065497A37641CDDE7039CFE
:1048000001200540009805700198047005B0F0BDC6
:10481000FEB50C78A41E052C4ED81F0A7C442479C2
:104820006400A744023C494C5A687A207843504AB5
:104830001518887878216854C00700D18FE000955A
:1048400071350C2078434B490C18611D062228460F
:1048500059F72CFC2079A87102AA0024147001AE2B
:10486000FF25357000983146FFF796FF3078FF2816
:104870005CD1464801460C310422D243141D454BFD
:10488000002A5DD08618F65C002E05D10E68A6427F
:1048900002D2541DE5B23446091D521CF0E70C202B
:1048A0007843344908180024C47233A002F082FF10
:1048B0002046FEF7D3F958E006F048FE55E07A248A
:1048C0007C432B4D28193A30891C172259F7EEFBEF
:1048D000285D04210143295547E07A257D43244E74
:1048E00070196130891C1024224659F7DFFB705D76
:1048F0002043705539E07A2078431D4A14188B1CE8
:10490000488A002808D020461E301C22194659F734
:10491000CDFB2078022106E0A01C1C22194659F785
:10492000C5FB20780121014321701EE002A909780E
:10493000002903D015490918154A8C54054601E091
:10494000601C0CD0792100984554104B99684A1C82
:104950009A60AA009A18D1602946FEF757FF0C20EA
:104960007843044908180021C1720020FEBDC046EA
:10497000FA0BFD07800FFD072B424F4E44494E476F
:10498000204641494C45440D0A0000006C09FD07D2
:104990008202000087020000F0B587B0087807287F
:1049A00024D81D461C0AC04678440079400087443C
:1049B000031D1D1D24DD45767A206043704A0023C7
:1049C000009313540C206043E84A10180127C77263
:1049D000EA4A4878010700D5A1E01178042900D0FF
:1049E0009DE0400700D494E0384693E0DD48C821BC
:1049F0000180DD4808210180FEE748780022032875
:104A000016D0022800D1B4E00128134611D13DF799
:104A1000B2FF5F4959F7D0FA5E480A18069201AD15
:104A20005DA12846FEF7D8FD284602F0C3FE042209
:104A3000012306A92046FEF78FF997E0A00051490F
:104A40000F187E6C4437002E23D10A200543F52031
:104A500085434D4804221E23294657F7A9F8832190
:104A60004900018038607A266643454884195134EC
:104A70001025204629462A46FEF75CFA404A905DFA
:104A80000821014391553E68B01C21462A4659F73A
:104A90000DFB304657F7A5F80020386066E07A260F
:104AA0006643374885194F782F77284614300821F8
:104AB0000A46FEF73FFAA81C009010223946174616
:104AC000FEF738FA3DF757FF2D4B995D01220A4357
:104AD0009A556882204601F0C7FA297F0177698AD2
:104AE0004182E98AAA8A6B8B2D8B0583438382825C
:104AF000C182801C00993A4659F7D8FA204601F045
:104B0000B3FA57F76EF8A0001E4908180021816417
:104B10002CE0022002F016FF21201A490F54A000B9
:104B200018490E18346C4036002C1AD10A2005435F
:104B3000F5208543144804221E23294657F738F8E8
:104B4000044607703060801C8C4D691C072259F7A1
:104B5000ADFAA878012803D1E878F7210140217146
:104B60006770204657F73DF800983060002007B086
:104B7000F0BD1B200001054901220A54F6E7C0469A
:104B8000FA0BFD07040FFD07140E0000740CFD075F
:104B9000A0BB0D00A08601000D0A2B50494E3A25FE
:104BA0003036750D0A00000010B50C78092C04D1C0
:104BB0004878002807F07AFB01E006F0C7FC0020E7
:104BC00010BD0000EB2040000978B44A11540020C9
:104BD0007047C046F0B585B01D4610460C4657F7E5
:104BE0009CF9022861D102952F0A0C2501957D437D
:104BF000A848401903908770FF2F1AD00120039E08
:104C0000F0700420032157F756F92088F8494853DB
:104C1000607A3071701D0A340622214659F746FA2F
:104C20007A207843F34908187821415C3846FDF72B
:104C3000B1FF77208000994C00252552A58365801F
:104C400025810120049007F0A7FA002804D0012054
:104C500007F0E0F907F07EF9FF263046223004998C
:104C60002154D7204000205C052825D127707520CD
:104C70008949085C002802D0424802F09BFD01F0FF
:104C800025F9B0360320A0553F48082104220A2305
:104C900056F78EFF002101813C49C180049E868029
:104CA0003B49018056F79DFF47E07848C8210180C5
:104CB000774808210180FEE70398801C0078FF28D0
:104CC00038D0277007F04CF93C202949FEF770F8DE
:104CD000284801780029049E35D0284B18780328ED
:104CE00019D0B8006C4A1418E06C4C3400280ED16E
:104CF0000A2002990143F5208143DD7820480422EF
:104D0000022356F755FF457001990170206056F750
:104D100068FF0020206001F0D9F875205E49085C2A
:104D2000002802D0174802F045FDB1485C303DF73D
:104D3000F1FE02E004F008FA049E304602F0C6FDDF
:104D4000002005B0F0BD06700B4C1C206843215CB0
:104D5000FF29C2D020180169002901D038468847B0
:104D60006D1CF2E70031005002330050800FFD0748
:104D70005D5EFC0758DDFC0708D0FC070CDCFC0777
:104D80001A0E000004D7FC07030C0000FF1F0000F0
:104D900005020000FEB51C46104657F7BEF8032872
:104DA0002DD1200A0C2101914843914C2018FF2756
:104DB0004780394DE87BFEF727F8EB204000EF4EA7
:104DC000002102913154287E012805D132480299F0
:104DD000017633483DF706FD0420022157F76BF8B2
:104DE00038462230012535542020305C00280DD073
:104DF00007F09AF94320355407F044FA0DE02348B0
:104E0000C8210180224808210180FEE707F0A8F8A8
:104E100007F096FBB0370298F0551F4F022007F0BD
:104E2000BBF9002804D0022007F0F4F807F092F84C
:104E3000307E002806D002983076B5751948F060AB
:104E4000019870810025284602F040FD2120395C40
:104E5000012903D13D54042002F074FDD720400005
:104E6000305C082101430A2901D104F06DF925467F
:104E70005C352D68002D03D0686856F706FEF8E70C
:104E80005C3420463DF75FFE0020FEBD003100503F
:104E900002330050800FFD07040FFD07740CFD075F
:104EA000111111110000C409180A7A224243C348A3
:104EB0008018097878228154002070477CB51E0A3A
:104EC0000C2070434A4A1018C27A3446002A15D082
:104ED0000020019000907A207043B84A125C0120B3
:104EE00010400A88002A06D100287BD0881C694619
:104EF000082259F7FFF8002874D13EE00A88002AFA
:104F000020D000200222FDF7FBFE00286AD00546D3
:104F10007A225643A9488019294659F7C7F82046EE
:104F2000FDF7D0FE7920285C04285ED832490A18A3
:104F30009278AA2A59D1800008188A68C260501C49
:104F4000886052E0451D01790120002908D02A79A6
:104F50006B791B029A18012913D1294B9A4210D957
:104F600006222946FDF7CCFE00283BD001467A22D6
:104F700056439248801959F799F82046FDF7A2FE4A
:104F800033E01E48401C0240012921D1012080034A
:104F900082421DD10020FFF751F9002822D0064699
:104FA0000301083317480921042256F701FE04467D
:104FB000467017202070A01C0622294659F776F863
:104FC00020460830FFF73AF9204656F70AFE0CE073
:104FD000012901D1002A05D0FE200140022901D17A
:104FE0000320BDE72046FDF7A9FE00207CBDC0469A
:104FF000800FFD07FA0BFD076C09FD07FFBFFFFFE0
:10500000FFBF0000140D0000F0B589B01D46144626
:105010000878022827D0012835D0002840D14C48F4
:10502000067800211F2E009101D82020811B01AF9E
:10503000B81959F754F84648411C3846324659F7D2
:1050400035F833460A3318482946224656F7B0FD4C
:105050000446468000982070201D3946324659F794
:1050600025F820461AE010480A232946224656F71A
:105070009FFD7D2101810021C180102181800821B7
:105080004180022109E03248468C07480A2329461C
:10509000224656F78DFD46800121017056F7A1FD8D
:1050A000002009B0F0BDC0460B0E00000020704784
:1050B00010B51946E1200001062356F779FD0024BA
:1050C000848044800121017056F78BFD204610BD7D
:1050D0001CB51C46087801A9087006F081FF0198EC
:1050E0008006C00FBC21254A5054907D002802D074
:1050F000200A07F00BF900201CBDC04600207047B5
:1051000070B51D460C46087801280AD000280DD13C
:1051100062880F480270401C211DD2B258F7C6FFAA
:1051200002E060880A494884002600E048260A20F8
:105130000543F5208543074804220223294656F7F4
:1051400037FD46702178017056F74BFD002070BD89
:10515000F00FFD070D0E000080B5FF20B030E349D1
:10516000085C042809D1064809210422012356F7C6
:105170001FFD0221017056F734FD80BD740CFD0740
:10518000030D000010B51C46891D02201022FDF7FA
:10519000B7FD240A00280BD001467A22104660434E
:1051A000064B181858F782FF2046FDF78BFD02E0EA
:1051B0002046FDF7C3FD002010BDC046FA0BFD07D9
:1051C000F0B5BBB00C464878002801D0522500E06D
:1051D0005025207A2027152810D326460E363B4925
:1051E0001022304658F786FF002806D03849102292
:1051F000304658F77FFF002800D12A270B972778E1
:105200000420384304285ED10A951DA8782109900E
:1052100058F765FF0CA8412158F761FF2820205C52
:10522000FF38E1790891A37961792279E578A67848
:105230000790042F01D029A700E026A7009301A81A
:1052400066C00A980590069726A109980B9A089BB4
:10525000FEF7C2F92078042832D1207A00282FD016
:10526000607A02282CD30B34401EC5B22846214652
:10527000002815D00A781F2A03D9401E491C7E2A0F
:10528000F6D90CAE2A4F002D08D022783046394688
:10529000FEF7A2F96D1EB61C641CF4E720A405E01D
:1052A0000CA821462A4658F701FF22A41DAD284626
:1052B000FCF766FE2818801E0CAA2146FEF78CF922
:1052C0001DA802F077FA00203BB0F0BD07D2FC0722
:1052D000F7D1FC0752535000000000004144560033
:1052E000000000002825632920253032583A253057
:1052F00032583A253032583A253032583A25303231
:10530000583A253032582C25632C20547970653A50
:105310002025732C20525353493A25640D0A00006E
:105320002C205253503A307825730D0A00000000AB
:105330004BD9FC072C205253503A25730D0A00001C
:1053400070B50C78641E162C26D8C0467C4424798F
:105350006400A74417212421212121212121210B8F
:105360000BBBBB210E0E2E212121430006F06CFF4A
:10537000ACE05FA002F01EFAFF20B0305B490022D3
:105380000A54A3E0487800282FD05E48C821018045
:105390005D4808210180FEE706F0D8F896E04878DD
:1053A00000282AD05748C821018057480821018089
:1053B000FEE74878442800D088E045A002F0FAF9DA
:1053C000FF20B030494900220A54D7204000085C31
:1053D0000A287BD10020FDF741FC77E04878472878
:1053E00074D1180AFDF7AAFC70E0FDF70FFC56F720
:1053F000F8FB46480021C16368E0444C207900284E
:1054000002D08020607104E041480021C170414811
:105410000170D7204600354DA85D00280ED020260B
:10542000A05D01282BD1E07F02282DD0012839D1A1
:10543000A07F03F0E3FE0220E07733E006F010FDEA
:105440007420205C002802D034A002F0B3F90420BC
:105450000124214656F72FFDFDF732FB002801D02D
:1054600003F072FEFF20B2302C540A20A85575209C
:1054700080002C54B92040002B49295212E0FF2013
:10548000B030002129540AE0FDF77CFEFDF7FCFA5C
:10549000607F012801D103F057FE0020A0551E486F
:1054A00002F088F9214801894068214A1060516062
:1054B00020480178012907D100214160017006F0E0
:1054C000F5FC1D482221016006F01AFE002070BD87
:1054D000434F4E4E454354494F4E204641494C455B
:1054E000440D0A4552524F520D0A0000740CFD073C
:1054F0005343414E20434F4D504C4554450D0A4FA8
:105500004B0D0A000031005002330050040FFD071C
:105510005877FD07B477FD0737D7FC070D0A2B52E4
:10552000454144590D0A00004C04000028DCFC07EA
:1055300024000040540EFD071010005010B5104616
:1055400056F7EBFC002806D0DC48C8210180DC4877
:1055500008210180FEE70648092104220124234690
:1055600056F726FB047056F73CFB002010BDC046E2
:10557000020D000080B5104656F7CFFC012809D176
:10558000FDF79EFA002805D00420022156F793FC6F
:1055900003F0DAFD002080BD002070470020704736
:1055A000F8B51D4616460C46104656F7B6FC0028C0
:1055B00001D00020F8BDFD2001F0E2FE002811D04E
:1055C00007460F48042132460B4656F7F1FA290ADE
:1055D0000170E90A0DD1B9882288511A418056F725
:1055E00000FBE6E7B548C8210180B54808210180E5
:1055F000FEE7B248C8210180B14808210180FEE7DA
:105600000DFD000080B50878FE210140122901D16E
:10561000FEF7D0FA002080BDF8B51D4614460E46B0
:10562000104656F77AFC012819D000284DD11420D5
:1056300001F0A6FE002814D00095418B3288038B20
:105640005D1C0023092B34D00F46DF40FF0704D038
:10565000AFB27F1C97420BD0AD1C5B1CF2E702245B
:1056600034E09648C8210180954808210180FEE772
:10567000DFB2082F1DD8051D2D68002D28D02979EF
:10568000B942F9D16879831D8B480099224656F7B3
:105690008FFA07463088388000243C71687978801A
:1056A000781D6A79A91D58F701FD384656F799FA11
:1056B0000CE0814806230099224656F779FA318892
:1056C00001808021017156F78CFA00242046F8BD34
:1056D0000777009B190A41770088754A024000B29B
:1056E000C10B1940FF208143114307480125224681
:1056F0002B4656F75DFA077056F773FA204629468F
:1057000056F7D9FBE1E7C04602140000FEB51E467D
:1057100015460C46104656F700FC002807D02846D0
:1057200056F7FBFB401E414241414800FEBDFC20B4
:1057300001F026FE002813D08179238802AA0027D1
:10574000178001976A461780591AC9B213290ED0DB
:105750000D2917D102A902220A800A3001900FE018
:10576000DE48C8210180DE4808210180FEE702A84A
:1057700002210180300A4CF7E0F969460880019166
:10578000082007E002A901AA18464AF74AFD074681
:105790000298801D83B2484831462A4656F708FAD7
:1057A0000546208828802F7102A802886A80002A76
:1057B00003D0681D019958F779FC284656F711FA6D
:1057C0000020FEBDF0B585B01D4614460E461046BD
:1057D00056F7A3FB002801D0022063E0FD2001F072
:1057E000CFFD002823D0019004A900270F70308836
:1057F000FEF776FA034603A80780002B1ED002931B
:10580000BB1D2D482946224656F7D2F9044630885A
:105810002080678002982071002804D1601D03A9B0
:105820003A4658F743FC204656F7DBF939E0AB48D7
:10583000C8210180AA4808210180FEE7280A0090BB
:1058400004A807781420784317490A181279022A05
:105850000ED1085800881549884209D10098394668
:105860001F46FEF759FA3B4603A908800227C6E700
:1058700000200199085E95490140C00B0540FF20BA
:1058800085430D430B4804232946224656F790F9D9
:1058900047800099017056F7A4F90121204656F778
:1058A0000AFB002005B0F0BD40D0FC070229000033
:1058B000FF7F000004FD0000140C000000310050C8
:1058C0000233005000207047FEB51E4614460D46B8
:1058D000104656F722FB002807D0204656F71DFB3E
:1058E000401E414241414800FEBDEB480423314681
:1058F0002246029356F75CF90746FC2001F040FD72
:10590000002845D004468020B87028883880A179C6
:10591000401AC0B2801E0B283B4600D9D1E0320AA3
:10592000784400794000874405CC3ACCCCCC6ACC92
:1059300096CCCCC501926A88A98828881F46AB1DE1
:105940004AF77BFBB8702088D149014000B2C00BF8
:105950000640FF2086430E433F208002FC2208239E
:10596000314656F725F9044601984FF789F9002189
:1059700061602080687A00066060297A090408184E
:105980006060E979090208186060A979012232E0B3
:10599000BC48C8210180BC4808210180FEE7019273
:1059A0006A88A98828881F46AB1D4AF746FBB8704D
:1059B0002088B749014000B2C00B0640FF20864353
:1059C0000E434548FC220823314656F7F1F80446B9
:1059D00001984FF755F9002161602080687A000630
:1059E0006060297A090408186060E97909020818DA
:1059F0006060A9790222A2704018606026E00192DE
:105A00006A88A98828881F46AB1D4AF716FBB8701C
:105A100020889F49014000B2C00B0640FF2086430A
:105A20000E432B48FC220623314656F7C1F80446A4
:105A300001984FF725F90021A1802080E879000224
:105A4000A080A9790322A2704018A080204656F7B2
:105A5000C8F83B4635E001926A88A9882888AF1DBE
:105A600000933B464AF7E9FA0099887020888849F4
:105A7000014000B2C00B0640FF2086430E43A888B9
:105A8000001D83B21348FC22314656F791F80446B4
:105A900001984FF7F5F82080201DAA88394658F75D
:105AA00005FB2879E0700298A070204656F799F817
:105AB000009B06E0A879E97900229A70090208188B
:105AC0006081184656F78DF80020FEBDFF7F00006C
:105AD00002FC000003FC000001FC0000003100504B
:105AE00002330050F0B595B01C4615460F46FD2018
:105AF00001F046FC002812D0089009950CA9002658
:105B00000E703888FEF7ECF80546788800280DD02E
:105B10005C48C82101805C4808210180FEE75948A3
:105B2000C8210180584808210180FEE7002D7AD164
:105B3000200A04900CA8017814200391484353498B
:105B40000A181279022A37D108580088C249FF3151
:105B5000884231D1029400200B9006900A903E8832
:105B600030464AF7E1F90146079705908888B5B2B3
:105B700085421AD3C888854217D80DAF28463946C2
:105B80004AF7F1F9069B00930FA910AC3846079F1E
:105B900022464AF7DBFA2088761EAF4988420599EB
:105BA000E4D1691C88B288424BD03648C8210180B4
:105BB000354808210180FEE711961096388810A913
:105BC0004AF7D1F908201099085E002806D47A888F
:105BD000B9883888BB1D4AF730FA06463546002D8D
:105BE00021D100250898405F294A0240C10B21407D
:105BF000FF2081431143B888801D83B22548099A4C
:105C000055F7D6FF26460446801DBA88B91D58F7B9
:105C10004DFA03986080B88804992170A0802046CE
:105C2000344655F7DEFF1C4804232146099A55F7F0
:105C3000BFFF85703988018055F7D3FF002015B06C
:105C4000F0BD10A900250AAB2A464AF712FCB88815
:105C500002280BD1FA8810A84078800709D40220C6
:105C6000C0430242029C07D08125B8E70D25029C63
:105C7000B5E7012A029CF7D804980399FEF7BAF910
:105C8000ADE7C046003100500233005040D0FC0761
:105C9000FF7F00000AFD0000160C000080B5012106
:105CA00003F0BEF980BDE0B501F088FF01A801F066
:105CB000D5FE8CBDF0B587B00D46049088680830DD
:105CC00000260090314655F765FE01902846314682
:105CD00003F0A6F9434C0295022E7AD0FFF7E3FFBA
:105CE000A868020B3D490842039600D0521C6E681A
:105CF0003B48064000250592954234D00498002880
:105D000017D0304601F0F6FE002857D1002701F0E9
:105D10004BFFC00721D020880006F8D5CD48006889
:105D20000004F4D43048874248D07F1C56F755FB16
:105D3000EDE701F0F5FE002840D101F0B7FF0028A3
:105D40003CD1022001F0CCFF01204007304301F09C
:105D5000DBFF01F03FFF002830D120488019461CAE
:105D60006D1C059AC8E7019F3846009E314658F7DA
:105D7000B6F9029DAA682968384658F797F91B4B6F
:105D80001868411C0122D243101A19605860A96892
:105D90001A687A547918030ECB71030C8B71030ABD
:105DA0004B710871100EC870100C8870100A487082
:105DB000696806AB3846324601F020FF029D6868EC
:105DC00006490818401C686001F0B3FE039E761C6B
:105DD00082E7019855F759FE07B0F0BDFF0F0000AC
:105DE00000F0FFFF0800005080841E0018DCFC0754
:105DF000F0B58BB004464AF797F8024602909188B6
:105E0000A0B20026884223D3D188884220D80394A8
:105E100004AF39464AF7A7F80026009606AD07AC4E
:105E200038462946224633464AF790F90A4B2878E5
:105E300021881A46FF32914201D1022807D09942A7
:105E4000039C01D1022803D0641C029AD7E7039E69
:105E5000B0B20BB0F0BDC0460328000010B5BC20A6
:105E6000254900220A5425480A21042401232246F8
:105E700055F79EFE047055F7B4FE10BD70B511497C
:105E80000A88088801242043088008881E23984334
:105E90000880A5020C4845800525058005886D070A
:105EA000FCD480880D8814262E430A25AE430E802C
:105EB0000D88A5430D801A400C889C43A2180A80C7
:105EC00070BDC046220000500016005080B50A4840
:105ED000007800020A3081B208480422012355F7F5
:105EE00067FE0721017055F77CFEC8200449FCF7C6
:105EF0005FFF6849C87380BD740CFD07050E000084
:105F0000CD5EFC0710B51321C943074A002909D00B
:105F1000531834241B5D891C8342F7D15018332158
:105F2000405C10BD042010BD800FFD0710B501209E
:105F3000840206480460BFF34F8FBFF36F8F02F0F7
