:0200000407FCF7
:100000003080FC072501FC072D01FC074501FC079A
:1000100000000000000000000000000000000000E0
:100020000000000000000000000000005D01FC076F
:1000300000000000000000005F01FC076101FC07F8
:10004000AD07FC07E934FC07A526F0076301FC07B0
:100050006301FC076301FC077107FC076301FC07F0
:100060007D07FC076301FC073108FC073B08FC0720
:100070004508FC074F08FC075908FC076301FC070B
:10008000A509FC076301FC076301FC076301FC078A
:100090006301FC076301FC076301FC076301FC07C4
:0800A000000000008E070E00B5
:0200000407FCF7
:100110000348854600F00AFB00480047DD21FC0744
:100120003080FC070F4880470F4800470420714685
:10013000084203D0EFF309800C490847EFF3088029
:100140000A49084704207146084203D0EFF30980AA
:1001500007490847EFF3088005490847FEE7FEE72F
:10016000FEE7FEE7156AFC071101FC07B508FC076E
:100170009D08FC0770477047704700007FB5E64850
:100180006B460188428889186A46118001214C001B
:1001900022181546403DED8F065B5288AD19AA180E
:1001A000491CC9B21A530729F1D38189C08908189B
:1001B00081B2D981D888002821D01889002820D080
:1001C000988800281FD0588900281ED098890028B8
:1001D0001DD0588800281CD000291CD01888002861
:1001E0000BD00720062254001C5B8C4201D2214612
:1001F000D0B2521E52B2002AF5DA04B070BD03200C
:10020000FBE70420F9E70220F7E70520F5E70620E1
:10021000F3E70120F1E70720EFE7F0B595B0EFF342
:1002200010801190012080F31088BC48816B4A0730
:10023000520F69460A800A92816B0122C908C900DF
:100240008163B7498B8869464B800224B44B0021F7
:100250009980C16A09078B0F69468B801093C16A28
:100260000C2399430831C162052109070988090651
:10027000CB0F6946CB8005210907099309888023A4
:10028000194305231B071980A649898A4906CB0F04
:1002900069460B81A3490893898A40231943A14BDE
:1002A0009982016A09074B0F69464B810C93036AD7
:1002B0000E218B4303629D4D9B4868609F20A86080
:1002C0002888A04328809A4841680B071B0F69467D
:1002D0008B810B934168090909010831416041682C
:1002E00049064B0F6946CB810293416870239943BD
:1002F000603141608948403801688904CB0F694604
:100300000B820D9301684314194301600168CB0708
:10031000DB0F69464B820E9301681143016041680F
:100320008903CA0D69468A8203924168CA05D20DC3
:100330006946CA82049281688903CA0D69460A83A4
:100340000F928168CA05D20D69464A8301924168BD
:10035000784A11400322D203891841604168490A52
:100360004902FF31413141608168724A11400322E4
:10037000D203891881608168490A4902FF314131FD
:100380008160642000F014F9A88969468007C00FD5
:100390008883A8892043A881002400260225634879
:1003A000614F01880122114301800A2000F000F909
:1003B000614AA0203968114200D0761C401E3F1DC2
:1003C0000004000CF6D15948818A8904FCD16D1EC5
:1003D0002D062D0EE3D15149886B651CC208D20051
:1003E0006807400F02438A630A2000F0E1F86000CA
:1003F0004949ECB20E52082CCFD348480A99826B77
:10040000D208D2000A4382636946454A49889180EE
:1004100010998A00C16A0C2399431143C16209995A
:10042000CA01052109070988802399431143052240
:100430001207118008998A013A49898A4023994311
:100440001143384A91820C994A00016A0E2399435C
:100450001143016236480B994268120912010A439E
:10046000426002990A014168702399431143416037
:100470000D984103294840380068012252039043F7
:1004800008432649403908600E9809684908490020
:100490000143224840380160039842021F48403817
:1004A00040682449084010431C4A403A5060049870
:1004B0005268520A520202431848403842600F986C
:1004C00042021648403880680840144910434039B9
:1004D000886001988968490A490201430F484038F9
:1004E00081601198002800D0012080F3108815B099
:1004F000F0BD10B5114C2078002808D0FFF78DFE14
:10050000FFF73CFE0E4908700020207010BD5FF719
:100510002DF80120F9E7000098B7FC078010004093
:10052000001200402030005018B5FC070035005084
:1005300040200040FF01FCFFC0C0C0C0EC9AFC0797
:10054000EA9AFC0710B5FF22154901320A60BFF391
:100550004F8FBFF36F8F13490A6013490B68402414
:100560001B0A1B0223430B601049898A0021C30721
:1005700000D03521830702D57D231B021943430791
:1005800002D575231B041943000702D53D20000640
:10059000014306482038016301488038026010BDDD
:1005A00080E100E080E200E008E400E0A01000400C
:1005B00000280CD000BF00BF00BF00BF00BF00BFBD
:1005C00000BF00BF00BF00BF00BF401EF0D170479A
:1005D000421C0178401C0029FBD1801A704710B5DD
:1005E000002200E0521C835C8C5CA34201D1002BF2
:1005F000F8D1D8B2E1B2401A10BD03460A780270B1
:10060000401C491C002AF9D118467047F7B5009CD8
:100610000F4600262578641C002D05D000F02EF82A
:100620000068405DC007F5D12B2D02D02D2D18D0CC
:10063000641E39462046029A00F024F8002F04D0A8
:100640003968A14201D1009939607105022400295D
:100650000BDA4042002803DD06F0C8F90460A00769
:10066000FEBD012080020643E3E70028F8DA06F029
:10067000BDF904600048FEBDFFFFFF7F00487047E2
:10068000A86AFC07F7B582B0029C00272078641C9A
:1006900015460197302802D0002D15D015E020789E
:1006A0000127641C782804D0582802D0002D09D0D6
:1006B0000BE0002D01D0102D07D100271025207848
:1006C000641C02E0082500E00A250026009610E0E0
:1006D0000099012769430818020C294680B271432A
:1006E00000908E183804864201D3012001902078B2
:1006F000641C294600F02CF80028E9DA0398002849
:1007000005D0002F01D0641E00E0029C0460019817
:10071000002806D006F06AF902210160C81E05B063
:10072000F0BD009930040843F9E70000064C0125AC
:10073000064E05E0E36807CC2B430C3C9847103489
:10074000B442F7D3FFF7E8FCD477FC070478FC0742
:100750003A2800D23038202302469A43412A01D356
:1007600010463738884201D30020C043704700004C
:1007700001480121018070470E1500500A48011FF1
:100780000988CA0706D0028807239A43E54B9B7B5A
:1007900013430380490706D5018807229143E14AA4
:1007A000527C0A4302807047B810004070B55CF775
:1007B000E9FE1A4801884907FCD45CF7EEFED94CE3
:1007C000608F174D2880A08F801E164E70800720E6
:1007D00030805CF7D7FE30884007FCD45CF7DDFE44
:1007E0002889800703D02889032188432881E88845
:1007F00080210143E980E88904218843E881688AEF
:100800008007FCD541F78DFD206E07490860074839
:10081000016801684907FCD570BDC0460833005027
:100820000200005000160050080200401000004076
:1008300080B50A2000F01EF880BD80B50B2000F0C6
:1008400019F880BD80B50C2000F014F880BD80B58B
:100850000D2000F00FF880BD80B50E2000F00AF8E2
:1008600080BDE0B513460A46002100910A215CF7DD
:10087000C5FF8CBD10B504465DF796F8E0B2810067
:10088000054A89180969002901D0884710BD01214E
:1008900081401248016010BD589BFC070348C821E5
:1008A0000180034808210180FEE7C0460031005066
:1008B000023300506E48018904220A4302810188F4
:1008C00040220A430280054901220A604189044A04
:1008D00011408918091D41817047C04680E200E03F
:1008E000FC7F00007047000070B5554C8D4D2C4EBC
:1008F00020890F210140481E0B28F9D8784400793F
:10090000400087444B06052005232A0505050531CF
:10091000EEE7AA8D288E904232D2E96C9042E7D25F
:100920002289C0231340C02B03D13288920703D4FD
:10093000DEE7A28A9206DBD5421C2A86085C20806C
:10094000AA8D288EEAE703F0BBFDD1E76A6D002A85
:10095000CED0A08A9E21014003E06A6D002AC7D054
:10096000012120469047C3E703F0AAFDA08801219A
:100970008843A080E96D0029BAD0288F8847B7E75F
:10098000A08802218843A080A08880218843A0807D
:10099000A96D0029ACD0A88D8847A9E770BDC046D5
:1009A0007C10005080B55CF7F8FD0B480088C0064D
:1009B00011D50A488188C9070DD0018809060AD5D2
:1009C0000121818001888022914301805548806CFB
:1009D000002800D0804780BD040000500001005076
:1009E000F8B506462120144F3C5C002C1FD0012591
:1009F0003D8405F083FB442000213954B965002E65
:100A000004D00E480621002203F07AFD0C4E304639
:100A10005DF733FD30465DF7E5FCFF2002304821ED
:100A200078525B2080003D54284605F025FF601E6B
:100A300084412046F8BDC046BC98FC07F473FC070F
:100A40000010005080B500210A46FFF7DFFD80BD91
:100A5000074801880020090609D5064909680904E4
:100A600005D40548008801210140484248417047AB
:100A7000080000503000004020BAFC0770B539482B
:100A8000092104241823224658F782F805461B2022
:100A90002870FD26304660F73DF90021A982E96003
:100AA00029616C606E806870284658F78CF870BDBC
:100AB0001FB51446002202920192069A00921A462D
:100AC000234660F7CDFB04B010BD0000B0B515485B
:100AD000C27C1549D4B20C236343CD5CFF2D0AD0F0
:100AE000022C02D10322C274F4E7521CC274C8184B
:100AF000406880470EE0017D0C4ACCB21C23634362
:100B0000D45CFF2C08D0491C0175D318DB68002B7E
:100B1000F3D098470020B0BD0021C17401750120B9
:100B2000B0BDC046DC9AFC07E470FC07A06DFC0772
:100B300070B50C48092104240A23224658F728F8E6
:100B400005461B2028701426304660F7E3F8FF2185
:100B5000743129816C606E806870284658F733F8CC
:100B600070BDC0461B0D00001FB514460122029245
:100B7000044A0192069A00921A46234660F770FBD7
:100B800004B010BD086CFC0710B50E480921042202
:100B9000522357F7FDFF04462B2000212154E17218
:100BA000A172FF20083020810748E080A08061709A
:100BB00020460B3022460C320D21044B5FF7EAFF32
:100BC000204610BD0D0D00004C040000FC76FC0713
:100BD000B0B5174D2C68002C19D10E4809210422FC
:100BE0002C2357F7D5FF04462860412020840A486B
:100BF00020800025658020460A3011215AF747FBE6
:100C00002585E5846584E583A5832020E07620465C
:100C1000B0BDC046040D0000030A000080B5FFF718
:100C2000D7FF57F7D0FF02480021016080BDC046C2
:100C3000E496FC0710B50B4C2068002800D010BDCE
:100C4000FFF7A2FF20600C21017010BD10B5054C0C
:100C50002068002800D010BDFFF796FF20600D210E
:100C6000017010BDDC96FC0770B504467A20604325
:100C70000B490E187820315C012520462A465FF783
:100C800073FF204600F0E6FF0570317F4174B11C10
:100C9000401C10225AF7E2FA204600F013F870BD0B
:100CA0004098FC0780B500F0EBFFFF2805D07A21C3
:100CB0004143034840180C3080BD002080BDC04631
:100CC000B097FC0710B5044600F0C4FF57F77BFF50
:100CD000A000024900220A5010BDC0460497FC073C
:100CE00010B5044600F0B6FF002101702046FFF762
:100CF000E9FF20465FF7B4FF10BD0000FEB5029388
:100D000001920E468100114A57585518002F0AD1FA
:100D100001020A310E4804241E23224657F738FFE9
:100D2000074604702860BC1C102120465AF7AFFA11
:100D300020463146019A5AF791FA0298787038465F
:100D400057F741FF00202860FEBDC0460097FC0712
:100D5000140E0000B0B500280FD00246124882429F
:100D600012D823483830002423460A2B19D00568AE
:100D7000002D10D0001D5B1CF7E7EE48C821018054
:100D8000ED4808210180FEE7EA48C8210180EA48D1
:100D900008210180FEE701605C1CE0B2114600F012
:100DA00071FBE0B2B0BDC046FCFF3F00F8B50446A1
:100DB000401E09281AD8A000E0494718786B00287F
:100DC00014D0E14DA84211D03437D8482018401C27
:100DD0000426314658F765FA3D600823D34831466A
:100DE000324657F7D5FE047057F7EDFEF8BDC04602
:100DF000CC9BFC07FEB505460805090B002800D072
:100E0000491C002900D1012127480540FF2000246A
:100E1000D94F144E01918C4220D0284602F00EFE8C
:100E200000281BD10295002502F08CFEC0070CD0D3
:100E300038880006F8D530680004F5D40A488542A1
:100E40000BD06D1C58F78BFBEEE70298044908188D
:100E5000451C641C00200199DDE7FF2040B2FEBD67
:100E6000FF0F00003000004080841E007CB5144657
:100E70000D4606460C480840884202D128462146C5
:100E800008E061190A466A40120B05D001221203DC
:100E90008018091AFFF7AEFF01AB304629462246FB
:100EA00002F07EFE7CBDC04600F0FFFF10B501469B
:100EB00001200B4A914211D3121D91420ED8029C7F
:100EC000F231C8B2800049490918C86C002803D023
:100ED0004C3100220A6080470020207010BDC046BF
:100EE0000E040000E0B5C24B1B7E132B03D101ABF7
:100EF00002F0FAFD8CBD0020C0438CBD1FB5144626
:100F000005220292044A0192069A00921A4623464A
:100F100060F7A6F904B010BD306CFC07E0B502F034
:100F20001BFE01A802F03EFD02F09EFD8CBD0000FC
:100F300070B50B480424092122460B4657F728FEBA
:100F400005461B202870FC2630465FF7E3FE002193
:100F500029726C606E806870284657F734FE70BD49
:100F60001B0D00001FB5144604220292044A019290
:100F7000069A00921A46234660F772F904B010BD33
:100F8000586CFC07F8B50446184801680F20084063
:100F9000E071080F2071C8B20009A0710801000FAC
:100FA00060710803000FE0700802000FA0700805D0
:100FB000000F60700904090F217003210D021D222A
:100FC00001230B4F2946B847E0791C220026294609
:100FD0003346B847E0781B2229463346B847607944
:100FE0001A2231463346B847F8BDC046589BFC0725
:100FF00091D7F10710B5E04C207E032801D15DF7B1
:1010000057F814202076002002F09CF810BDC0464E
:10101000B0B50C464349884220D0434A90422AD07A
:10102000424988423BD12078401E092854D880008C
:10103000424909188A6B444B9A4269D0404882421F
:101040006BD13948042108230A4657F7A1FD2178BE
:1010500001706168416057F7B6FD5EE06268002A82
:1010600048D0334882424CD220782F49401804217E
:1010700058F7CDF851E02078411ECAB2092A32D87B
:1010800089002E4A5218936B2D4DAB4245D1383210
:101090002C4B59581160616800F0F4F93DE0531C85
:1010A000012198423CD30A32904239D8C01EC0B2C6
:1010B000411E8A0021498B18996B00292DD0204CA4
:1010C000A1422AD0204CA14227D038331D4C002504
:1010D000A5501D60884720E01648C82101801648A9
:1010E00008210180FEE71348C82101801248082129
:1010F0000180FEE70F48C82101800F4808210180C8
:10110000FEE70C48C82101800B4808210180FEE75A
:1011100038310C4A002313500B60049800210170F1
:101120000846B0BD010400000304000002040000F2
:10113000FDFF3F000031005002330050CC9BFC0704
:101140007F42FC070897FC077D42FC07EFF3108104
:10115000012080F31088084A1288120603D4074A37
:10116000138803431380002902D080F3108870474E
:10117000002080F3108870470800005008330050AA
:10118000A8488178491C81700178002900D07047F7
:1011900018490022CA7018490B780A70012B01D037
:1011A000012100E0022101707047C0469D4881780E
:1011B000002904D0491E8170090600D0704741788B
:1011C000002904D0002242700322114003E001787C
:1011D00000290AD0491E00220270C8B20128EDD1B0
:1011E00004480121C170044800E0002101707047EB
:1011F000DC9AFC0720BAFC0780BAFC0782B070B505
:10120000C2B00C4605464692479346AB4193012037
:10121000010201AE304622465BF7E0FB284631462C
:10122000FFF7EBF942B070BC01BC02B00047000010
:1012300080B5AE21894A515C002904D08000024962
:10124000085802F0D5F980BD9077FC07FEB5002460
:10125000E543002814D006460078002810D0002A64
:101260000ED00F46009205F0C1FB0190046002A968
:1012700030463A46FFF7CAF902990A78002A01D0A7
:101280002846FEBD019AB142FAD011680229F7D072
:101290000028F5D4009908602546F1E7B0B50C4662
:1012A0000025202D04D041F724FB60556D1CF8E784
:1012B0000020B0BDB0B5044609480A4D4022294679
:1012C00059F7CCFF483508483022294659F7C6FF60
:1012D0000648001B0649088014304880B0BDC0464F
:1012E00070ACFC07D017F207B0ACFC07B8ACFFFF3E
:1012F00078ACFC07B0B50446114D8C21284659F74F
:10130000C6FF88200349295203482880204600F060
:1013100019F8B0BD224300003512000010B5034695
:1013200007484218AA2494707A22514340180C307E
:10133000194659F793FF012000F004F810BDC0468C
:10134000B097FC0780B5024900F03AFE80BDC04668
:101350001478FC0707481E214180018803220A43B4
:101360000280018804220A430280A0480121C17042
:101370007047C04600160050DC9AFC07F8B50D46D1
:101380000446354EB06BF0631E48012100910160A8
:1013900001680029FCD11C480068B0634127F15D59
:1013A000002908D04020305CFFF700FD44200021D8
:1013B0003154F155B06BF16B411A706A814201D81A
:1013C00000281DD1E8B203281AD12C20315C2078E6
:1013D000884215D16178814212D1A17881420FD122
:1013E000B06A01280ADB009CF45500090749FFF7A1
:1013F000B1FC4421745440217054F8BD00F014F83D
:10140000F8BDC046FC0000401C0000402914FC0749
:1014100080B503480168EE48001D5BF7D5FD80BD2F
:101420001078FC07DC9AFC07B0B520200A4C002598
:10143000255405F03FFA09484560057004F020FE88
:1014400004F01CFC04F0B6F94420255404A002F07A
:10145000CFF841202554B0BDBC98FC072C9AFC075E
:101460004F4B0D0A0000000080B5054800F094FDC8
:1014700080BDC04680B5024900F0A2FD80BDC046D7
:101480002078FC0770B50C4605460C4EFFF7E0FAD5
:10149000002806D07019801C0421224657F7B7FE99
:1014A00070BDFFF753FE0421082330460A4657F764
:1014B0006FFB4460057057F786FB70BD01040000A8
:1014C0007047000070B514460D46104657F7A6FD4C
:1014D00001282FD1287801020831AA791648002A5C
:1014E0000CD089B20623224657F752FB0646A8784D
:1014F0005EF7EEFF3080A879307114E0AA8889B2D7
:10150000921D93B2224657F743FB0646A8785EF732
:10151000DFFF002131713080A8887080701DAA889B
:10152000E91D59F79BFE304657F74DFB0021204639
:1015300057F75FFD002070BD140C0000FD2801D09E
:101540000020704700487047A06DFC077047704747
:1015500080B5FFF7C5FB80BD10B50446891D02208C
:101560001022FFF79FFB00280BD001467A2220466D
:101570005043B34B181859F771FE2046FFF774FB20
:1015800010BD2046FFF7ACFB10BDC046F8B50446C1
:1015900080008F490F18FD6E6C37002D20D121027D
:1015A0000A31134804221E2357F7F2FA8321490017
:1015B000018038607A256543A148441951341026CA
:1015C0002046314632465FF78AFE9D4A505D08212B
:1015D000014351553D68A81C2146324659F73EFE4D
:1015E000284657F7F0FA00203860F8BDDC9AFC076F
:1015F000140E0000FEB505460C206843484A10183A
:101600002522825C2C46002A18D0002001900090F0
:101610007A2068438A4A125C012010400A88002A16
:1016200006D100285AD0881C6946082259F73AFE8C
:10163000002853D12046FFF717FBFEBD0A88002A79
:101640001DD000200222FFF72DFB002846D00646C1
:101650007A2255437A484019314659F7FFFD204612
:10166000FFF702FB7920305C0028E6D175488178CD
:10167000AA29E2D141684A1C42608160FEBDC17F57
:1016800006461F36727812025118B278F3781B02A0
:101690009A1812045118327973791B029A18807FB4
:1016A0005FF700FE01460320022903D311D004296D
:1016B00001D013E0012006223146FFF7F3FA00289B
:1016C0000CD001467A2255435D48401959F7C6FDB2
:1016D000B0E75C4D287B4007C70F03D12046FFF7DA
:1016E000FFFAFEBD3B0108330E480921042257F7DB
:1016F0004FFA0446477017202070A01C062231467E
:1017000059F7ACFD287B400706D520460830463502
:101710001022294659F7A2FD204657F754FAFEBD7C
:10172000589BFC07140D00005449C98E0180704776
:1017300080B552490A7D0270401C153159F78EFD63
:1017400080BDC0467D21C180002181801021418063
:101750000821018070470000F8B504467A26464308
:10176000374885194F782F772846143008210A46C4
:101770005FF7B5FDA81C00901022394617465FF7A9
:10178000AEFD41F7B6F82E4B995D01220A439A55FA
:101790006882204600F008FD297F0177698A41822E
:1017A000E98AAA8A6B8B2D8B058343838282C1824F
:1017B000801C00993A4659F751FD204600F0F4FC90
:1017C00057F701FAA0000249081800210167F8BD87
:1017D000DC9AFC077CB57A214143194844187820EB
:1017E000205CC00714D001AA002515706E46FF20AA
:1017F00030702046314600F067FA3078FF2808D173
:1018000086211048415C002902D18068401C09D122
:101810007CBD01A90978002903D00A49091886224C
:101820008D54054679202554A800064908184A68B1
:101830008260501C486020462946FFF76FFD7CBD42
:101840004098FC07B097FC0710B50C4601780129B9
:101850000BD000290ED14288084B1A751533011D93
:10186000D2B2184659F7FAFC02E040880349C8860C
:10187000002000E04820207010BDC046CC9BFC0733
:10188000002088804880012008707047F8B5032048
:101890000602062002220124314623465BF778FF28
:1018A00005F008F8154DA88AC00703D028465CF754
:1018B000EAFDF8E7124800214160017004F0B8FB2E
:1018C00001F0EAFE2120C0000E4F385C00280FD046
:1018D00085204000385C1422314623465BF758FFD0
:1018E00043208000385C0021132223465BF750FF21
:1018F0002220286104A001F07BFEF8BD00100050FA
:101900002C9AFC07BC98FC070D0A2B4157414B450C
:101910000D0A000080B559F78FFC80BD80B559F7DE
:1019200094FC80BD7047704770B505460469261D5C
:101930003068002805D0304641F7A4F857F795F8ED
:10194000F6E700202861204657F78FF870BD0000A9
:10195000F0B58BB01E4607920F46044610980690CD
:1019600000880890002101200246092913D0032590
:101970008540099020463446089ECE403B460127CC
:1019800037407E421F462E40324326460446099881
:10199000801C491CE9E70A92802030439E210140C7
:1019A000A08A03911D4902910190002000901C49DA
:1019B0000AAA132338464CF7EBFE0546002829D126
:1019C0000897202701210591384656F7D3FF09963D
:1019D0000646394659F75BFC266130461E301149F0
:1019E0006160A0600898008830830598E081142029
:1019F000E082A08A70800998C0030799084330806C
:101A0000069800887083301D41F734F8A08A0021C1
:101A100057F7EFFA28460BB0F0BDC046A06FFC07A1
:101A20000A1800008470FC0700487047A470FC0787
:101A3000FEB51F4616460C4614205EF765F80028D2
:101A400019D001972778082F02961BD80546418B9D
:101A5000008B3A4600F0E6F8002815D060788D2615
:101A6000802840D8082F11D0072F12D0062F12D16E
:101A7000082810D037E05C48C82101805B48082165
:101A80000180FEE781262EE082262CE0072802D086
:101A900029E0062827D32E1D35462D68002D0BD0B2
:101AA0002979B942F9D100223046294641F75AF83E
:101AB000284656F7DAFF60780830012156F75AFFBA
:101AC00005466178083159F7E2FB20782871607883
:101AD0006871A81D6278A11C59F7C0FB30462946E1
:101AE00040F7ECFF0026064802230199029A57F7B7
:101AF0004FF821780170467057F765F80020FEBD59
:101B000001140000F8B514460D46104657F786FA42
:101B100001283ED114205DF7F7FF002821D00746A9
:101B2000418B008B3E7F324600F07CF80090787F3E
:101B3000010208312A781848964219D16A7889B288
:101B4000931D224657F724F8074600203871009865
:101B5000388068787880781D6A78A91C59F77EFBF0
:101B600010E0C248C8210180C14808210180FEE779
:101B700089B20623224657F70BF8074680203871B2
:101B800000983880384657F71EF80021204657F74E
:101B900030FA0020F8BDC046140C0000F8B50F78EC
:101BA000092F19D20D4612A0C45DA01CC6B213485D
:101BB0001946334656F7ECFF0646287830707470A5
:101BC000B8000FA10958B01C224659F747FB304610
:101BD00056F7F9FF0020F8BD0348C82101800348EB
:101BE00008210180FEE7C04600310050023300505A
:101BF000070A0A0A0D0D080607000000031400007A
:101C00007976FC071674FC075774FC071674FC07FA
:101C10002174FC072F74FC07F276FC07EB76FC07B7
:101C2000986DFC07B0B58BB2411C00200446092C0E
:101C30000DD01D46E540ED0702D0A24202D0891C1E
:101C4000641CF4E7092A01D0481C00E0002080B29F
:101C5000B0BD000010B58200074B9958002909D18A
:101C60009C1801020A3105480422122356F790FFFE
:101C700001462060084610BD0497FC07180E0000BE
:101C800080B503281BD8800001A318588746C0469A
:101C9000A11CFC07A71CFC07AD1CFC07B31CFC0720
:101CA00019481E3007E018487D3004E016484630D9
:101CB00001E01548563059F7F5FA002801D0FF2009
:101CC00080BD002080BDC046F8B515460C460E49C3
:101CD0008E780027AA2E10D102780B7B13405A076A
:101CE00003D53A304631102202E071307D310722AF
:101CF00059F7D8FA002800D0FF27AA3E701E864167
:101D00002E702770F8BDC046B097FC0770B50C78F0
:101D1000A51E052D32D81C0A7D442D796D00AF44D7
:101D200002232D303E4C7A206043574A151888789C
:101D300078216854C0070CD071350C2060434A49A3
:101D40000E1831461F310622284659F787FAB07F10
:101D5000A8712046FFF73EFD0C2060434249081859
:101D600025210022425442E00C2060433E490918DC
:101D700025220020885404F067FC38E003F02AFD97
:101D800035E07A256543404C60193A30891C1722AA
:101D900059F764FA605D04210143615527E07A2513
:101DA0006543394E70196130891C1024224659F759
:101DB00055FA705D2043705519E07A206043324A2D
:101DC00014188B1C488A002808D020461E301C227C
:101DD000194659F743FA2078022106E0A01C1C227C
:101DE000194659F73BFA2078012101432170002060
:101DF00070BDC04610B50A78072A24D8180A920088
:101E000001A39A589746C046291EFC07471EFC07A7
:101E1000471EFC07471EFC07551EFC07651EFC07F6
:101E20005B1EFC07611EFC077A224243164B00240E
:101E30009C540C224243D94B9A1825230124D45494
:101E400002F0D2FC0EE05248C8210180514808211E
:101E50000180FEE702F00CFD04E0FFF797FB01E0D4
:101E6000FFF77AFC002010BD589BFC0700310050A2
:101E700002330050180A7A22424303488018097836
:101E800078228154002070474098FC0780B5180ADA
:101E9000FFF7B0FB002080BD80B5180AFFF75CFBA0
:101EA000002080BDF8B51E4614460D46104657F773
:101EB000B5F8012819D000284DD114205DF724FE73
:101EC000002814D00096418B2A88038B5E1C0023C7
:101ED000092B34D00F46DF40FF0704D0B7B27F1C78
:101EE00097420BD0B61C5B1CF2E7022434E0284872
:101EF000C8210180274808210180FEE7DFB2082FB2
:101F00001DD8061D3668002E28D03179B942F9D186
:101F10007079831D1C480099224656F739FE074602
:101F20002888388000243C7170797880781D727917
:101F3000B11D59F793F9384656F745FE0CE01248A3
:101F400006230099224656F723FE29880180802126
:101F5000017156F738FE00242046F8BD0777009936
:101F6000090A41775DF7EEFD014608480125224642
:101F70002B4656F70DFE077056F725FE20462946DC
:101F800057F737F8E7E7C046140C000002140000CA
:101F900000310050023300501CB5044600F007F831
:101FA00007CC01AB01F0A0FD01F091FD1CBDE0B537
:101FB00001F0D2FD01A801F0F5FC01F055FD8CBD4A
:101FC000F0B585B00C460290FFF7F1FFA06801055F
:101FD000020B002900D0521C00946068244E064079
:101FE0000024254D5B4F0192944237D0029800287F
:101FF0001AD0304601F022FD002834D10020039091
:1020000001F0A0FDC00723D028880006F8D5386865
:102010000004F5D419480399814224D00398401C48
:10202000039057F79CFAEBE701F048FD00281AD11E
:1020300001F00EFE002816D102205CF755F80120B1
:102040004007304301F01EFE01F096FD00280AD142
:1020500008488019461C641C019AC5E7009A07CA03
:1020600004AB01F09DFD01F032FD05B0F0BDC046AE
:1020700000F0FFFFFF0F00000800005080841E00EA
:1020800010B5BC20064900220A5406480A2104243F
:102090000123224656F77CFD047056F794FD10BDCF
:1020A000BC98FC07050E000010B50120840206480C
:1020B0000460BFF34F8FBFF36F8F02F003F9034843
:1020C00004600348046010BD80E100E080E200E0AD
:1020D00000E100E080B5042056F7A0FFC11E484291
:1020E000484180BD80B5103080B2022156F7FAFB1E
:1020F00080BD000070B5174EB06800F02DF835496E
:102100004A6E00234B661518084C2846214659F79D
:102110002BF8706106494143481901D0201A80B25A
:102120003061306808210143316070BD71020000E8
:102130008FFDFFFF80B506480021016001F0EEFB36
:102140000120C00703490A6882430A6080BDC04677
:10215000A4B9FC073000004080B50246C00B09D08E
:102160000E48C06A00210B4659F728F88905800AF5
:10217000401880BD0948C06A4243900A80BDC046ED
:1021800080B5FFF7E9FF80BD80B50449896A414306
:1021900003480818034958F7E7FF80BD589BFC0720
:1021A00020A1070040420F0010B501468000094AF7
:1021B0001418206F002800D010BD703409020A31B5
:1021C000054804221E2356F7E3FCFF210831018055
:1021D000206010BDDC9AFC07140E000000B59FB013
:1021E000052013900407C02011902083C648C82101
:1021F0001691018000264680C44808211491018070
:10220000C34F38881CAD28802888C046C04628881F
:102210000422D14308421096199201D03E8003E077
:10222000B88901218843B881B88B3B46B949014040
:1022300007201A90C0020818B883B74F3888149D39
:1022400028433880F88D06229043F8850126B00394
:10225000998B014399833888B04901403980788847
:102260000D921043A8437880618DAD4AFF32F88DFE
:1022700010403246B5020F26C9050B920F960C95F9
:1022800017D52843F885F88DA6490140D0030818D2
:10229000F885988B149908439883988B199DA843C7
:1022A0009883F88D9043F885988B402188439883D4
:1022B0001BE03103032252021043F885F88D0843D6
:1022C000F885988B149988439883988B04218843C8
:1022D00098837888944901407980F88D01210143E1
:1022E000F985199D608D4007FCD5988B03211291CB
:1022F000084398833988202211434020C04301407D
:102300003980198C1B92114301401984E18A80267F
:1023100031430140E182218EFF220A9291432186BE
:10232000218F2943182291432187218FA0220A431C
:10233000024022877D480580A0887D490140A18018
:102340007C4A0B98107100047B4908600D327B4871
:10235000811C0992104608915CF7ACFA0220159096
:102360005CF770FA76480068C1B20C20AA290146D1
:1023700000D029462288824388182080C046C04663
:1023800070480068704909885C23704D109A189352
:10239000EA526F4A118350610B98C046C0461298AA
:1023A000000207906B48001F00686B49884217962F
:1023B00000D0A4E00F980707042019970546654A46
:1023C0001118081FEC32904200D3CBE000681D903A
:1023D0001D9A3A40092003071D989A4217D1C0B2AE
:1023E0001D9A160AF7B2172841D0072843D014289F
:1023F00051D0162855D0062857D1544A1898105C49
:10240000C0001018BA0058F729FF18993EE0800F55
:102410000FD01D98514988420BD8284608302146D4
:1024200028311D9A8A4246D14A4969584C4A5180FE
:10243000C4E71D9838401A990907884203D1002043
:10244000C046C04611E01D9838400121C9078842A6
:102450000BD01D98384013994907884205D01D9824
:10246000384003214907884239D1281DA6E7394859
:102470002858562112E05D220E92344B985CC00021
:1024800018181030BA0058F7E9FE0E992F4A505C20
:102490008019505409E02F48285854212B4A505293
:1024A00003E02C48285829490865B8002818001D61
:1024B000179E199F82E7A11C1D9A8A4205D12549C2
:1024C00069585822214B995278E7214624311D9AA8
:1024D0008A4209D11F496958214A91806EE71D98A7
:1024E000401C28463ED069E7214620311D9A8A4289
:1024F00000D063E717496958194AD1805EE7582030
:10250000285A0C4D4CE0C0460031005002330050B8
:1025100004030050FFC3000052000050FFBF000042
:1025200000F0FFFFFF0F0000FFF900000002005065
:10253000FFF70000DC9AFC0780E200E0A8B7FC0788
:10254000D07FF807D47FF807D87FF8073496FC07C8
:10255000589BFC07D47EF807A5A5A5A54C420050C2
:10256000A000FC079F4A1899505C400850545D2019
:10257000115C490811545620115A00299A4D02D174
:102580000799E83111525821505A002808D197482C
:102590000068C0B2AA28304600D06E20914A50523E
:1025A00068875AF729FD7F206871904880699049B3
:1025B0008860099808995CF729FA8E4807688E4860
:1025C00000688E498842139B109E00D090E08C4892
:1025D0008C4958F75CFE1A9801028B4858F757FE51
:1025E00084480760FDF7C8FD88488949016089482B
:1025F00089493022199258F731FE88480027C7715F
:10260000877147710771C770877047703D210170EE
:10261000834884A14022189258F720FE9148C77140
:10262000877101264671119901711B99C170199921
:10263000817047700F9901708B480E9707708B4817
:102640008B4901608B488C4901608C498C4808603B
:102650008C483221109101708B48139901608B488E
:1026600006608B4801608B480D9901608A481A9971
:1026700001608A48149901608948502101608948A5
:10268000016089485E49016000F078FD5AF7E2FB7D
:102690005AF726FC5AF740FC099630020D9056482E
:1026A000006856498842179F514E37D07E480068CF
:1026B0007E498860B0683071010EF171010CB17112
:1026C000000A70710D98C03079490A46002819D067
:1026D000401E435C15782F46129E3740444EF71932
:1026E0003F795F406F40404D1770179F521CEDE7D8
:1026F00070486F495A02964200D968E732587250C2
:10270000361DF7E73046243069491C225BF7B8FADA
:10271000706A40F7F4F8384838490160FEF71AFE4D
:102720000B9800F0A1FD2878002801D06F7004E01C
:1027300061480021C170614801705B4800683FF743
:1027400089FD5D480E9D0571C57009988207106866
:102750000D9908431A92106059481A300C211991AA
:1027600058F795FD574F0D223A75384615305649A2
:1027700058F774FDFD8604275449384656F707FC80
:10278000059738464E4F294656F733FC38461430E5
:102790004F49062258F786FD002804D0388B1DA922
:1027A0008880786903E01DA84A4981804A481D90C5
:1027B0000D4D30461C301DA9062258F74FFD0E99CD
:1027C0007960B960F960297744480160142028765F
:1027D0005EF7CCFA2878002800D181E0812068706B
:1027E00083E0C0463496FC07DC9AFC07D07FF807EC
:1027F000A8B7FC0728BAFC079CB8FC076587341209
:1028000000ACFC079408000000B9FC072CBAFC07D8
:10281000CC70FC07D0B9FC0794BCF107ABB9FC073E
:102820005CBCFC072000800000C000000000040029
:1028300000002822000000000000040000F7C3F799
:102840007E00000030F007080000000000040000D7
:102850000000000000000000000000000000000078
:1028600000000000B3B9FC07CDB9FC0750B9FC0764
:102870002A17F20754B9FC076872FC0758B9FC071D
:102880004871FC07AAB9FC075CB9FC0760B9FC07F2
:1028900064B9FC0768B9FC076CB9FC0770B9FC07A0
:1028A00048B9FC0744B9FC074CB9FC0700020040DA
:1028B0002C9CFC0700B0FC0720BAFC0780BAFC0780
:1028C000589BFC07CC9BFC07FC76FC07F06BFC07D5
:1028D0002417F207234800000500F4353097FC0761
:1028E0000120F749C870F7490870099F0C99AE207C
:1028F000F54A1754AD201754F44E1B980E9A3254D3
:102900002520C0004C313152592080003252B32072
:10291000400032542120C00013903254EC48306300
:10292000EC48B08564200690B062F7754520B0820F
:10293000E948306130462C302B218170192080010C
:102940007062952040003018E4A11C2258F786FCE4
:102950002920C00009213154A3204000E64931520A
:102960000A9D28464A303018E4490D2258F776FC73
:1029700028466830375464350F987055D2480E9900
:1029800041600770DE48FFF707FB88200890DD48AC
:102990000188DD4A914204D10899405ADB498842B6
:1029A00002D00020FEF7A6FCFEF75EFD6022D848AC
:1029B000855A07466037D74BD7499D4202D17D8A59
:1029C0008D420ED0D24DAB52D44AD54B6A66C24826
:1029D000A866EB6679820E98388219997980FEF79D
:1029E00049FD0B9800020F90FEF73EFDB7480A30F4
:1029F000C7496231102258F731FCFFF79BFB0520D5
:102A0000FDF7A0FDC74816990180C74814990180B9
:102A10000998C603C5480C301990C54DA84F1A999E
:102A20000C962089000600D4B9E1086B304200D032
:102A3000B5E13888C00700D0B1E156F790FD00201D
:102A40000A9000F011FCE87B04280B9800D081E08C
:102A500000F00AFC00251D951DA8042148F738FC4C
:102A6000002876D00998B349086008680028FCD18E
:102A70001A98C069AE4B196C884201D21D64294670
:102A8000411ACA09197C182A01D8002961D00029E5
:102A900006D0A749486C401C486400F0C5FC58E0CB
:102AA000A34D2864A4490888039048880290888828
:102AB0000190C88800905420A04A105A9B4F38803B
:102AC0009F4839465CF7ACF80798FF309A4A11895D
:102AD0000140E9845189014029851089994D284098
:102AE00009994902401810815089284040185081A6
:102AF00015463888724F5CF7A7F904908C48C28C51
:102B00002989904B194011432981038D0246698917
:102B10008C48014019436981154651797F290DD0B0
:102B20000498421A51B2C9114A40511A49B20829AF
:102B300006DB6A6C521C6A6400F076FC04986871CB
:102B40007D4802994180019981800099C180039953
:102B50000180774D1B985D49085C002800D11CE17D
:102B6000886D022836D0002800D016E1FFF7B2FAAF
:102B70005649002800D110E1C420085AFFF7B2FAE4
:102B8000524A0699515C00290B9902D00999484094
:102B9000014600291ED11398105C002804D05C481F
:102BA0006949816301F08EFB684801F0A5FB684824
:102BB000686501F013FC852040004449085C14223C
:102BC00007990B9B5AF7E4FD2220624AD0601598C2
:102BD0003E49886501F062F83C4B17981A58908A74
:102BE00000283FD08C21595881423FD10492089946
:102BF0005858401C585006280A9A3CD3D0201958DF
:102C0000491C1950534A108809998843108010882C
:102C1000059988431080CC201958049DAA8A8918E8
:102C2000195019464831039100200A900864EFF3C7
:102C3000108072B6896B184668303FF73FFF62B666
:102C4000A98A16352846FEF799FB0A9803998863E6
:102C500003F02CF8002801D101F0C0FB344D1B4BD0
:102C60000A9A08E090201858421C04E0194648319E
:102C70000A9A0A64486490201A504420185C00287C
:102C80006AD0C420185AFFF72DFA002800D182E03C
:102C9000EFF3108072B60D49086F002800D079E07C
:102CA000C86C012800D075E00020C864222529489E
:102CB000C56062B601F092FB2648C5601C4D6AE013
:102CC00020BAFC0780BAFC072C9AFC07BC98FC07CA
:102CD0002B2B2B002B2B0000410045001107B75C6C
:102CE00049D204A34071A0B535853EB083070302E5
:102CF000F5FE0508434C76321C0E0000FC76FC07FE
:102D00001478FC07B097FC0735120000224300003E
:102D1000589BFC0757340000446500000000C409BC
:102D2000450001010031005002330050A8B7FC07F4
:102D3000DC9AFC07FC000040001500503496FC07AC
:102D4000006CFC0700FCFFFFA920FC07B470FC0727
:102D50005969FC07041000504820185C002890D0E6
:102D6000EFF3108072B6186F62B6002800D188E7C2
:102D7000D86F002800D084E7EFF3108072B61846B1
:102D800068303FF77FFEE349C86762B600F0B0FFE6
:102D9000E04B76E762B601F029FC59F791FFEFF3BB
:102DA000108072B61B98DB4A105C002854D0139830
:102DB000105C002845D0D848008AC0073ED1D06FAB
:102DC00000283ED117981058808A002839D13879C8
:102DD00002280E9802D0CB480068806A1D90FEF74A
:102DE00017FB00280E9800D035E155F7A0FC00280D
:102DF0000E9800D12FE1A08AC007059800D02AE1E3
:102E000038880028099800D025E1C648806A002843
:102E100003D0BC480068806A1D90B9781DA856F799
:102E20007EFA0028099800D115E1B9781DA848F765
:102E30004FFA002800D00DE101200CE190200E99FE
:102E40001150E64D2878002802D01798687003E0EA
:102E50000020F870AE4908701CA9002008703A796B
:102E6000022A02D0A7480068806A1D901998AF4ACC
:102E70005CF7A2F800287BD1AA48806A002803D01A
:102E8000A0480068806A1D9000F048FD1DA91998AF
:102E90005CF7C8F800286BD101205AF789FB1D9A0E
:102EA000002A08D01A98006AA1494018DA2803D8E5
:102EB000521E1D9200E000222E46A88FC84F39698D
:102EC000081878611A9BD86B954D28400843D86341
:102ED000D86B98490840B96989020143D9631CA895
:102EE00004210170D86B9449084079694905081894
:102EF000D8639248824200D3F5E0E849086B496BF9
:102F0000002358F75BF90903000D4118B869821CCA
:102F10008A4200D0481E7D4F39794A1E914145F7BB
:102F20003FFB8748C06A80471A9935460C9E086B5C
:102F30003042FCD00D99744A10680842FCD01068E9
:102F40001799884310606C480089452804D84621A9
:102F5000694A1181081A68663FF7B7F96A498868B3
:102F6000286608680006FCD52089179988432081C7
:102F7000674800780128159800D012981CA9097894
:102F8000042900D00846811E022955D2208A042730
:102F900038432082614908683843086057490889E6
:102FA0000125A843088111982083608D0F9A104253
:102FB00006D1534A1088189B18431B9B98431080D6
:102FC000088C189A10431B9A90430884A08CA8433D
:102FD000A0840D20FDF7ECFA608928430221884384
:102FE000608160894006FCD510986080A08AC00688
:102FF00003D54148801E1499018030BFA08AC006C5
:1030000002D53D48149901803D4A10881B9B184306
:103010001899C94308401080384A108C184308405A
:10302000108400F0ABF8704805703C490868B8435C
:103030000860984D354F07E0012805D12E49881EBC
:10304000149A028030BF0A8062B62A48169901801D
:103050001A99E6E404200428AF4900D0F1E69C2048
:103060000858002800D0ECE6086F002800D0E8E6F9
:1030700029480088800700D5E3E601F07BFAA649DD
:10308000002800D0DDE690254859022800D2D8E675
:1030900000200A9001F07EFA002800D1D1E61E48F7
:1030A000001F5BF79FF99C4A17995058002805D0DC
:1030B00055F7B3FD984A0A98179950500999880214
:1030C000194B1860BFF34F8FBFF36F8F0A985051A1
:1030D0009065D34D2878002801D08120B6E6F9709C
:1030E0000B480170B8E6034816990180024814990C
:1030F0000180FEE70031005002330050040300500D
:103100005200005058B9FC070002004020BAFC07EA
:1031100080BAFC07BC98FC070410005010ED00E0DA
:1031200000FCFFFF1CBEFC0780E100E01114FC075F
:10313000C8FEFFFFFF03E0FFFFFF1F0040420F003C
:1031400000BFFC071CB5044600F006FD01A800F016
:1031500029FC002C00D01CBD00F0B9FC1CBD0000F7
:1031600010B55D218048415C103000228A4204D2B3
:1031700018C81C600030521CF8E710BDFEB5164C94
:1031800001252580D74E727B1548811C1B205AF7DC
:1031900099FA144800270760FF206A305E49085CEE
:1031A0002022895C014306D103F084FB0E4847606E
:1031B000077002F063FD022030730C4801907D20FF
:1031C0004005009068465AF7A5FF00F0AFFAA089C5
:1031D0002843A081FEBDC04600030050DC9AFC07D6
:1031E000A8B7FC07000008402C9AFC070800010063
:1031F00003480188034A11408918091D018070475E
:1032000012000050FC7F0000F8B5044600260A4F6B
:10321000482E0FD0BD19E88AFD2801D10749696001
:103220005CF7F8FC002803D08268284621469047C6
:103230001836EDE7F8BDC0469496FC072C6FFC07E6
:1032400080B5014605480068002803D004A059F75E
:1032500025FD80BD03485BF7FAF880BD3C98FC076C
:10326000256300000010005080B5E049CA78012AAB
:103270000FD1094A002803D010884007FCD402E08F
:103280001088400705D40020C8700448283059F73A
:103290005DFE80BDDC9AFC0700160050589BFC07C1
:1032A00080B50A4859218900415C0A290CD1027A6B
:1032B00001210A4008D0B5225200835C002B03D1C3
:1032C000815403A000F094F980BDC046BC98FC076F
:1032D0002B434F4D4D414E44204D4F4445205355B7
:1032E00050504F525445440D0A00000080B50A4822
:1032F00059218900415C0A290CD1427A01210A40F6
:1033000008D0FF226C32835C002B03D1815403A0D0
:1033100000F06EF980BDC046BC98FC072B42494EB8
:10332000415259204D4F444520535550504F52540F
:1033300045440D0A0000000010B55CF751F95C210E
:103340000948415C00228A4204D218C81C6000303F
:10335000521CF8E7FFF704FF00F074FA5CF77EF9FF
:103360005CF790F910BDC0463496FC07704700002A
:10337000F0B58BB03022002181541F2212041F4B64
:103380001D68954301246204AA181A601D4B1E4D46
:1033900045611E4D1E4E1F4F1F4AC26106624362A9
:1033A000174A8262C5621D4A07604260E0048B4A88
:1033B000136883431360282903D001A84154491C92
:1033C000F9E789480068403001A9282257F746FFED
:1033D000864DAC74FFF7B0FF5CF7C8F82C74114849
:1033E0000088072101406974FDF783F829485CF7DC
:1033F00087F95CF70BF90BB0F0BDC04674000040D4
:103400005134FC074D34FC079D34FC0741F6F107AD
:10341000E508FC079934FC071DF6F1076D33FC073E
:10342000DC9AFC07B810004080B55CF7D9F8FFF7CC
:1034300097FE00F007FA5CF711F9FDF75AF8154806
:103440005CF73EF95CF7E2F880BDC04600207047AB
:103450007047000080B51F20000401218A07536FC8
:103460008343480418185067106807218843106088
:103470000748018808220A430280FFF75DFF0548DC
:103480005CF72EF95CF7C2F80520FDF75BF880BD0C
:103490000800005070ACFC0770470000022901D002
:1034A00001290AD100280FD0FF2811D00B48C821CC
:1034B00001800B4808210180FEE70848C8210180EF
:1034C000074808210180FEE7022901D10C2070473E
:1034D000E448807C002800D009207047003100506B
:1034E00002330050DC9AFC07FEB53C480168C9076E
:1034F00003D0016802220A430260012301684902E5
:1035000003D5990502680A4302601D0202935E0218
:10351000334F0195384608380468002C5CD02006EB
:103520000DD58020386047F77CFD5B208000FA498C
:10353000085C2D49096869180885FDF70BFFA0078D
:1035400003D50220386044F72AFF200709D5082058
:103550003860002044F7D7FE0420EE49C8735CF7BA
:1035600055F82C4203D03D60012044F7CCFE344294
:1035700002D03E6047F7BEFD600603D540203860AC
:1035800044F7BCFEE00603D51020386043F7F7FC93
:1035900060070FD504203860124A108802998843CA
:1035A000108056F743F83FF74BF8FDF7D3FE0020A5
:1035B000F149C873E0070AD03546029E3E6056F7CF
:1035C00051F847F72EFDF648C6732E46019DA0061A
:1035D000A0D5202038609DE7FEBDC0460002004017
:1035E00018000040083300504CB9FC07DC9AFC0777
:1035F00010B504460120FDF7F3F9002805D103A01A
:10360000214659F74BFB59F75BFB10BD0D0A25739B
:1036100000000000B0B50446FEF75CFD00282ED087
:10362000002C17D02046FCF7D3FF002812D0401CF6
:10363000002155F79FF900280CD005462146FCF7DC
:10364000DCFF0820002155F795F901464560104838
:103650003FF734FAFD203FF7B6F801460D48042243
:10366000072355F795FA01214170C04A927E0270F6
:10367000817181800621418055F7A5FAB0BD0720F0
:10368000FDF7D6FD0148FFF7B3FFB0BDF473FC07AB
:10369000CC9BFC0706FD000080B50320010206203C
:1036A000022200235AF774F8FF206A309A49085C16
:1036B000002804D00520002101230A4603E005204C
:1036C000012200210B465AF763F880BDFEB50121A7
:1036D0000290414001910B20C44303200602002CBC
:1036E00022D027460C378C480019FF21103145188D
:1036F000287B09280AD1F8B20A2157F735FD084678
:1037000000223146029B5AF743F8287B0A2809D148
:10371000F8B20A2157F728FD084600223146019BDE
:103720005AF736F8641CDAE7FEBDC046FEB5FFF76F
:10373000B3FF0B20C643032000020290012001903A
:10374000754F002E61D0BA19FF2108461C30135C5A
:103750005D1E0D2D2AD830460C30C0467D442D7993
:103760006D00AF44060606150E0E1A1D23232323F3
:103770002532C9431A02511889B2C0B20022134639
:1037800012E0032812D8C0B20F2200210B460BE032
:103790002831535CC0B2002205E0C0B2092201E02A
:1037A000C0B20A220023029959F7F2FF761CC8E73B
:1037B0002122D200BA5C002AF8D06A31795CC0B20A
:1037C000002920D000210A461BE02122D5007A5D85
:1037D000002AEBD02022BA5C6A31795CC0B2114376
:1037E0000DD114220299019B59F7D2FF785D002870
:1037F000DCD0124A1068022188431060D6E700220C
:103800000299019BD0E71322BFE701201D220C4E35
:10381000029C2146019BB04704201C220025214622
:103820002B46B0471B22284621462B46B047032093
:103830001A2229462B46B047FEBDC0461010005044
:1038400091D7F10780B55BF737FC5548807C00289D
:1038500002D1C120400100E00348044908605BF741
:10386000A5FC80BDDC9AFC07201800090010004070
:10387000F8B50446042835D860B21CA1095C1D4A7D
:10388000D1711DA1095C51701DA1095CD1701EA1EF
:103890000D5CFD201E4E2946B047FE202946B0474C
:1038A000FC202946B04724203D4E012131545920A7
:1038B0008000194A105C22217054FF276637D05DC2
:1038C00021217054002807D001280BD15DF7E6F9BB
:1038D00000251148C55503E00225284600F052FF97
:1038E0002320355403480470F8BDC046050201008A
:1038F000050000000878FC0700000303000000003A
:103900000D0501010D000000100C04041000000062
:103910003D0DF207DC9AFC07BC98FC07F8B5562071
:1039200011490E5A1148876A3046784310494018A9
:10393000104D294657F718FC0446EB4884873C365F
:103940007E430B483018294657F70EFC001D0B49E3
:1039500008612018C01D8861FEF7FEFB0849401869
:1039600080B255F78DFEF8BD3496FC07589BFC07D6
:1039700020A1070040420F00DC9AFC07A8B7FC0713
:10398000E204000005480188202291430180D649C5
:10399000097B0907490F81847047C0460012005017
:1039A000DC9AFC07F8B504461E4E3078002800D09B
:1039B000F8BD00F083F80028FAD1002528465AF710
:1039C00093FBFFF7DFFF9F20174FB8472846B84704
:1039D0000006070A284614498847000280B2C71922
:1039E000284611498847C0B23D185AF7C7FB002D39
:1039F000DED0EF20C2430D4811460C310ED08218A4
:103A0000F423D25895420A46F7D140180146E431D2
:103A10002CC92CC6E421405C2070F8BD04A00EC85F
:103A20000EC6F8BDDCB7FC0799E1F107AC6AFC07EC
:103A300000000000000000000000040010B5044673
:103A400000F03CF8002800D010BD00F001F900287B
:103A5000FAD102205AF748FB0120400704432046D0
:103A600000F010F9002010BDB0B500F027F80028D4
:103A700000D0B0BD00F0ECF80028FAD100F062F8F8
:103A8000044672480078142803D12007800F03D120
:103A9000EFE76006C00EECD000F010F80028E8D187
:103AA000012528465AF720FB8320044028022018CD
:103AB00000F0E8F800F060F8B0BDC04680B500F056
:103AC00041F80121014048420D21884380BD80B565
:103AD000FFF7F4FF002800D080BD00205AF704FB58
:103AE000B92000F0CFF880BDF8B51C4617460E4649
:103AF0000546FFF7E3FF002800D0F8BDB919534889
:103B00008068814200D9871B276002205AF7ECFAAF
:103B1000FFF738FF03200006064330465AF73CFB08
:103B2000002630465AF7E0FA2068864205D2002087
:103B30005AF732FBA855761CF6E75AF71FFB002010
:103B4000F8BDC04680B501205AF7CEFA0520000224
:103B500000F098F880B280BD80B5FFF713FF5AF7E8
:103B60000DFB00205AF7C0FAAB2000F08BF84B2079
:103B70008000FCF71DFD80BDB0B50025074C611C21
:103B8000A94205D06D1CFFF7DDFFC007F7D1691E04
:103B90000020A14200D9C043B0BDC0467F841E00B2
:103BA000F0B585B0009314460F46029000263046CB
:103BB0005AF79AFAFF2525488068C21BA24200D313
:103BC00022463D4314460192964239D2E019A8425A
:103BD00001D9E81B441CFFF771FF002833D100F026
:103BE00037F800282FD1039502205AF77DFAFFF706
:103BF000C9FE01256806074338465AF7CDFA00206A
:103C00005AF772FAA7B2FF2F00D92F020298049632
:103C10008619380405D030785AF7BEFA7F1E761C14
:103C2000F7E75AF7ABFAFFF7A7FF00280BD1049E7E
:103C3000A619019A941B280203990D184F1CC3E77B
:103C400000980660002005B0F0BDC046DCB7FC0758
:103C500010B5FFF733FF002812D1002420465AF791
:103C600043FA062000F00EF8FFF786FF002807D180
:103C7000FFF768FF800701D5204601E00B20C04315
:103C800040B210BD10B50446FFF77CFE20465AF73F
:103C900083FA04465AF772FA204610BDB0B5EFF326
:103CA000108072B6A825264C6059002801D062B653
:103CB000B0BD9C202058002814D0204694303EF7F8
:103CC000E1FE6051EC22A358818A5B18A350F022D8
:103CD000A3585B1CA350FB4A044B9365163001228A
:103CE00000F00EFC62B6B0BDDC9AFC075946FC073A
:103CF00070B5134DEE6FB08AFEF7F4F9B08A00F09C
:103D0000BFFA0446103884216850B28A3146163111
:103D1000A01D57F7A3FADC202958B28A8918295028
:103D2000E0202958491C295001206070A2800A20F7
:103D3000608000202070204654F745FF70BDC046CB
:103D4000BC98FC0770B50C460546FCF741FC0646DE
:103D50002046FCF73DFC301A28182146FCF73FFCB2
:103D60004142484170BD000080B58878002812D0DB
:103D70004868E5490860E348007E01461239022997
:103D800009D3801E012803D8002000F053FA02E076
:103D9000082000F061FA002080BDC046F0B59BB05D
:103DA000D848077E0820132F00D9C6E00D46897831
:103DB000002900D1C3E0D44E74680523002C1FD025
:103DC000F90600D4B9E0EA78B668B018802819D8A6
:103DD0000893BD488019291D57F740FAE878301834
:103DE000C94EB060844200D0A3E0C64B187F0021CA
:103DF000B54D8C4208D06A5C50401877491CF8E7F2
:103E000018469AE0072098E0132F6CD109A8FDF717
:103E1000B9F8FDF783F8B768F068002F65D000287F
:103E200063D11225402F7AD3A7490878702876D11C
:103E30004878512873D14C682046403030611F20AB
:103E400001030BA80C22FDF74DF81622002865D4BB
:103E50000BA800781425702861D10BA8407852284F
:103E60005DD11325002C5AD00D980C990790401A5B
:103E70004038844253D815460BA840220291FDF7E2
:103E800031F800284BD40BA8817800230124AA29FB
:103E9000059403930693049301975CD10BA90A78C8
:103EA00000230693702A51D149785129059C06991F
:103EB00003910491DD4E4ED1C0780490DA480C3065
:103EC0000BA90C31102257F7EDF90024002839D145
:103ED000D548C0691299884234D1002105980690CE
:103EE0000C46039136E008251EE0C21931694B1CCF
:103EF0000625934213D3914201D20F1AB760C949E4
:103F0000896F0918C8483A46FCF7B0FF002806D464
:103F1000B068F1680818F060022500E0154600203E
:103F2000B060F06800F086F9284600F095F97468F2
:103F3000B0680899A042084601D900F08DF9002028
:103F40001BB0F0BD06940598039003E0059C06980D
:103F500003900490B54E0BA840220799FCF7C2FFCE
:103F60000028DCD40BA881780025AA291AD10BA936
:103F70000A780025702A15D14978512912D1C678BE
:103F8000A9480C300BA90C31102257F78BF90021EE
:103F900000280BD1A448C069129A904206D1002192
:103FA0000D4605E0059905952E4601E0059D059114
:103FB000002C11D00BA8801C3E21FF2257F760F97E
:103FC0000698002813D1F2480299816705980543A5
:103FD00004960695079128E000290AD00BA8801CBA
:103FE0003E21FF2257F74CF90598002816D01525D9
:103FF0005CE0304604990840FF28DBD00498FF2895
:1040000001D1002ED6D00498002851D1FF2E4FD1D7
:104010000BA84021FF2257F733F9E5E7EE4807994F
:10402000816703980699014306910698002801D1FB
:10403000012401E00498441CE748007E062513286B
:1040400034D101210798FCF7D5FE00282ED10BA80A
:10405000C470754B59689A680C910D9219460C31D1
:1040600002460C32D8C9D8C220216F4B5A5C425448
:1040700019880180D8691290EF48007E132815D165
:10408000ED48816F0BA84022FCF7F0FE00280DD40C
:10409000E948816F64484030019A403A4031FCF76A
:1040A000E5FE0028614E00D432E738E75F4E36E780
:1040B0000BA8801C3E21FF2257F7E2F80498B0427B
:1040C00092D87DE7DC9AFC073097FC0780B58878AA
:1040D00000280DD08888002807D0D749097E1329E9
:1040E00006D8C90606D4082000E0052000F0B4F880
:1040F000002080BD812801D30720F7E74B494860A5
:10410000F6E7C046DC9AFC07589BFC071FB5887889
:10411000002800D182E04968080E8A0E042A10D8CF
:10412000E54A107689B29167002801D0012802D1B2
:104130003D497C319167FE220240122A01D10329B8
:1041400020D201461039022911D301461239022921
:104150000FD3FD281AD0FE2823D0FF2827D1FCF743
:1041600049FF324800214160816003200BE00820B4
:1041700009E00120FEF7E6FFDF4C207EC0061DD5DA
:1041800010201CE0112000F067F844E02748007F71
:10419000FF281DD02021F24A012353545CF760FD13
:1041A00039E0EF4C207F002816D004202AE00820B8
:1041B00000F052F8EA48142101762CE0082000F0C3
:1041C0004BF81A48002141608160C160217722E0EC
:1041D00017483EF7CBFA1EE003A8AA210170207E03
:1041E00013280ED101A8FCF7CDFEFCF797FEA06FB7
:1041F000811C03A80122FCF739FE010602D102202E
:1042000000E00620C0B200F027F8FCF7F3FE0748F4
:10421000002141608160002000F00CF8002004B013
:1042200010BDC046DC9AFC073097FC07589BFC0782
:104230001111111110B50446FC203EF7C4FA0146D5
:1042400004480422134654F7A3FC046054F7BBFC53
:1042500010BDC04604FC000010B50446FC203EF72B
:10426000B2FA014604480422134654F791FC8470C4
:1042700054F7A9FC10BDC04605FC0000704770470C
:1042800010B50446FD203EF79EFA0146A01D83B2FC
:104290000648042254F77CFC002800D010BD0448D6
:1042A000C8210180034808210180FEE706FD0000C7
:1042B000003100500233005080B590485AF7DDF8C5
:1042C00080BDC046F8B543208600E24FB85D59F77F
:1042D0007DFA0124002805D001F06CFAB85D0022B7
:1042E000214606E000257D6500F080F9B85D29468D
:1042F0002246FCF7B6FAF8BD70B504467F4D284655
:104300005AF756F8204801882168AA8980231A4361
:10431000AA81CAB21D4E32808AB2120A2A80090CC2
:10432000C9B2A980A9899943A9812168CA0E042329
:104330001340C900C90E1943A9812168C90F81839F
:104340002168002916D5490E202211402B8A93435B
:10435000591829822168490F022211402B8A934360
:104360005918298221790907890F018421790322AB
:104370000A408284A068D4490872E06848652069D0
:1043800088656069C86570BD7C100050C010005021
:10439000DC9AFC0710B5CC4A106500201087918686
:1043A000704904200860BFF34F8FBFF36F8F6E49D1
:1043B0000B8801241C430C800B8803430B80FF21D6
:1043C00009046A4B1C688C43117A8907090A611831
:1043D00019606749086010BDDC9AFC07B0B5C425B8
:1043E000E64C605BFDF77EFE00281AD0605BFFF7AD
:1043F00047FF002181804834E26E521CE26602468B
:10440000103AEFF3108372B6A26362B6216461645E
:10441000A164AD49294ACA65801D0821FFF7BAFF8A
:10442000B0BD0120E064EFF3108072B6002000F010
:10443000B1F862B6B0BDC046DC9AFC0770B5802505
:10444000E24E7459002C35D0D4217258521C72504F
:10445000A18A0818A082C421715A091A89B280B2AF
:1044600007291ED8CC21725810187050D02031580E
:10447000491C3150EFF3108072B6715930466830E4
:104480003EF71CFB62B600207051A18A163420460C
:10449000FCF774FF01F00AFC00280BD1FFF79EFF28
:1044A00070BD1034F049054ACA652018801D0821E6
:1044B000FFF770FF70BDC046DC9AFC073D44FC0767
:1044C00070B5E948828E048F036D0C49944208D27E
:1044D0008D8AED070ED00D88661C06871D55344663
:1044E000F4E78A8801239A438A80C16D002901D0AC
:1044F000008F884770BDC046DC9AFC070010005052
:1045000010B50B460146D848838500240486012A4D
:1045100007D0002A22D11448001F1A4659F79EFFDF
:1045200010BD104B04221A60C164BFF34F8FBFF35C
:104530006F8F0D490B8802241C430C800B8880244C
:104540001C430C80FF210904084B1C688C43007A33
:104550008007000A201818600548026010BDC04698
:10456000DC9AFC0780E100E00410005000E400E069
:1045700000E100E006490A880120520606D50A88B3
:10458000920603D50988C90700D100207047C046AC
:104590001410005010B5044600280AD02120C00095
:1045A000EC49085C002818D00F48006802218843B5
:1045B00016E0FFF7DFFF002801D0002412E02120E1
:1045C000C000E449095C0848002903D001680222C0
:1045D000914301608088C00701D1012402E02220BC
:1045E00001490860204610BD1010005080B5F44805
:1045F000416D01290BD09C214158012907D8016D3B
:10460000012904D100210165012002F035F980BDA6
:1046100010B5002811D0E420E94C2158491C215044
:10462000E06F002806D0EFF3108072B6E06F54F709
:10463000F4FA62B60020E06710BDE820F4490A5899
:10464000521C0A504820085C002801D0FFF750FB9C
:1046500010BDC046BC98FC07B0B5ED4C25464835AA
:10466000286E54F7DAFA00202866686D00281ED0FC
:10467000EFF3108072B6204694303EF703FAA8217B
:10468000605062B6F0202258521C2250F42022586A
:10469000521C2250EC22A3586058818A5B18A35008
:1046A000714A044B936516300122FFF729FFFFF78B
:1046B0009DFFB0BD5946FC0780B56B4B9A6589B22A
:1046C0000122FFF71DFF80BDDC9AFC07F8B5FF252E
:1046D0002F466837CE4EF05D002802D0FCF7B6FAC0
:1046E00001E0FCF7A7FA0446A3204000315CE17228
:1046F000325C95204000311820460C3056F7AEFD54
:1047000028466430315C00290DD0F25D002A0AD0C1
:104710002B22A154325C28464830311820462C30D8
:1047200056F79CFD02E02B20002121542520C000DB
:10473000305AE080A080F05D002809D0012060722E
:10474000FCF784FA54F73FFA0D48002101600DE0B0
:1047500003206072FCF76EFA54F735FA084800211E
:104760000160042054F75AFC032803D004200221DE
:1047700054F73FFC663501207055F8BDBC98FC0726
:10478000DC96FC07F8B5054659208600F44FFCF787
:104790001FFA0446BD5545700320207011491C3195
:1047A000201D062256F75AFD2A20002525544120B7
:1047B0002084A57620460A30102156F768FD204651
:1047C00054F701FA02480560F8BDC046BC98FC07E2
:1047D000E496FC0780B503491C31062256F73EFDDE
:1047E00080BDC046A8B7FC07F8B504460878002885
:1047F00011D1487801070ED41A49097804290AD141
:104800000125400701D5284600E00220FFF730F8D7
:10481000252015490D54A00013490E18B56E6836B1
:10482000002D18D121020A31104804221E2354F70A
:10483000AFF90546012404703060801C094F791CD3
:10484000072256F70BFDB878012803D1F878F72135
:10485000014029716C70284654F7B5F9002030608A
:10486000F8BDC0460878FC07DC9AFC07140E00006F
:10487000B0B586B0044648780022032815D0022837
:1048800019D00128134611D13EF733F80E4956F7D7
:104890006BFC0E480A1805926D460DA12846FCF7E0
:1048A000ADFC2846FEF7A4FE0422012305A92046FC
:1048B000FCF724FA04E0B3204000024901220A5424
:1048C00006B0B0BDBC98FC07A0BB0D00A0860100DF
:1048D0000D0A2B50494E3A253036750D0A0000005E
:1048E000F8B50C4605460B20C643F94F002E11D0F3
:1048F000B819FF2110314018017BA14208D132467E
:104900000C3200210173D0B201230A4658F740FF50
:10491000761CEBE77819FF2110314454F8BDC046EE
:1049200070B504463420EA4D295C00290FD00026DA
:104930002E544220285CFCF739FA4320295C0029D8
:1049400005D02E5401F048FFFF2066302E54012080
:10495000E07570BDBC98FC0770B504465920800016
:10496000DB4E305C0A2801D0022828D1FF206630B7
:10497000305C002823D1A07A0221014303291ED1F3
:10498000FDF7A8FB00281AD1E07A01280FD10025F5
:104990002046294601F0A8FB81B264390A4A9142B7
:1049A0000CD80005000C0A2156F7DEFB00E0054894
:1049B0002521C9007052FFF789FE0125E57570BDFC
:1049C000BC98FC074C040000540B0000B0B5044632
:1049D00059208000BE4D285C0A2801D0022816D13B
:1049E000FF206630285C012811D1A07A0221014302
:1049F00003290CD1FDF76EFB002808D15CF74EF9B6
:104A0000FF2066300021295401200002E082B0BD61
:104A1000BC98FC07FEB50D46009013484768006837
:104A200001A98F8001900524002012A6002C0BD430
:104A300001A90A5DC0B228183146FCF7DFFB284601
:104A4000FBF7C6FD641EF1E7401EC0B22818F9034B
:104A500001D407A100E005A1032256F7FFFB0120C6
:104A60000099C875FEBDC046240000402C520000CD
:104A70002C500000253032583A0000007CB5044626
:104A8000C07A032816D000283ED10D46214E716A07
:104A90001F4848437D21C90056F77CFB0246B06A97
:104AA0000A214143336B00911EA12846FCF7A6FB67
:104AB00001252AE00021204601F016FB7D21C900D6
:104AC0004843134956F750FB124D686202212046B5
:104AD00001F00AFB0A2156F747FBA8622068617BB8
:104AE0004018FBF7AFFF2C216854010C2A462C32EA
:104AF0009170010A51702863A07A0125022804D11F
:104B000005A0FEF775FD00E00025E5757CBDC046FB
:104B100071020000BC98FC072B45534320534551BC
:104B20000D0A000025692025782025690D0A00005E
:104B300010B504460068A17A012907D1FEF76AFD85
:104B400087204000624901220A5405E0801CFEF7DC
:104B50004FFD5748FEF74CFD0120E07510BDC046E3
:104B6000BC98FC07BFB50446FD205AF7CDFF8088EE
:104B7000801D80B25BF77BFC00280BD001A95BF79E
:104B8000B5FC00280DD03648C821018035480821E1
:104B90000180FEE73248C8210180324808210180A7
:104BA000FEE701A8007803AD02AA29465BF789F960
:104BB0002888002807D0029800280BD00078C0076A
:104BC0000FD1002549E02648C82101802548082149
:104BD0000180FEE72248C821018022480821018087
:104BE000FEE7FDF777FA05462068A17A012907D18B
:104BF000FEF710FD87204000DB4901220A5405E042
:104C0000801CFEF7F5FC2A48FEF7F2FC002D0CD0C4
:104C100058F79CFF144D284659F72FFCA88AC00767
:104C200005D0284659F72FFCF8E7012515E00125A6
:104C30002902CD480184A17A02290BD0592189008B
:104C4000415C0A2906D1017A294003D08721490015
:104C5000455402E00020FBF7C3FEE575BFBDC0462A
:104C600000310050023300500010005010B50446CF
:104C7000807A012808D12068FEF7CCFC872040000C
:104C8000B94901220A5410E02020FC49085C0028A0
:104C900004D001F047FA01F0E9FC06E02068801C2E
:104CA000FEF7A6FC0248FEF7A3FC0120E07510BD4C
:104CB0000274FC0710B50446FDF70CFA002804D076
:104CC0002121EE4A0120505400E00020E07510BD83
:104CD000BC98FC07FEB50446C07A022811D00D46E8
:104CE000002848D1002D4DD0344EB7782846FBF728
:104CF0006FFC2818AA2F47D18621735C34A10125A7
:104D000045E0207B617B22680026029651180191C4
:104D1000101802AA3146FCF799FA012500282F46FF
:104D2000314608D10298FF2803D001282F4631468A
:104D300001D1C1B20027009102AA01983146FCF7C7
:104D400085FA029901292A4600D8324600282846C9
:104D500000D11046002813D1002F11D10098FF2850
:104D600019D116488278AA2A01D186228154284670
:104D7000FCF7E8FA20E01849184A2846FCF73EFA02
:104D8000002519E0012517E00DA101250EA32A46F3
:104D9000FCF734FA10E0012601280CD1074882788C
:104DA000AA2A08D18622835CCFB2BB4203D08154A9
:104DB0002846FCF7C7FA3546E575FEBDB097FC07F7
:104DC00025642C25730D0A003C656D7074793E00D6
:104DD00025642C25640D0A007676FC070574FC0713
:104DE000BCB50446C07A01280CD1207B216800257F
:104DF0000195081801AA2946FCF728FA002804D0D2
:104E0000E575BCBD0020E075BCBD0198012806D049
:104E1000FF28F5D101252846FCF76CFAF0E7064893
:104E20000021817008307F2156F731FA012528468C
:104E3000FCF788FAE4E7C046B097FC07F0B589B004
:104E40000C460546FDF746F90121E975E97A042982
:104E50000DD000297AD1444883894289C189807D57
:104E60000091019042A12046FCF7C8F975E0089036
:104E700000272846394601F037F9049081B2062907
:104E800002D33748814200D3EF75069101212846AD
:104E900001F02AF9039080B2059080087D2800D3A4
:104EA000EF7502262846314601F01EF984B2642CC3
:104EB00002D32C48844200D3EF7507970A2738465F
:104EC00060431921069A514356F74EF90690029411
:104ED00020463946079F56F747F9002904D106981E
:104EE000401E0599814200D9EF750321284601F043
:104EF000FBF804460004800C00D0EF752640704299
:104F000070410899084324D0E87D002823D001216E
:104F10000C40154DAC750298E8810398A88104985F
:104F20006881002E0E4603D02E76002001F0E6FBAD
:104F3000002C12D02F760D4862300A3510222946F7
:104F400056F78CF93046FCF795FA06E00020E87534
:104F500003E0102000E00E20287609B0F0BDC04626
:104F6000810C0000017D0000BC98FC07589BFC07E9
:104F700025692025692025692025690D0A00000082
:104F8000F0B585B00446C07A032813D000281DD19F
:104F9000FF2002460A32394DAB5C2122D200AA5CC6
:104FA0000C30285C009036A508462946FCF726F907
:104FB00001200CE000252046294601F095F8010665
:104FC000490E07D00E202076E57501E00020E0753F
:104FD00005B0F0BDC0B2411E02468A412121C90080
:104FE000264E7254002836D001212046049101F04B
:104FF0007BF807460221204601F076F80146F8B218
:105000000C28DFD8CAB20D2ADCD20292FF22134646
:105010000C33F1540A32B754432292000392B15434
:1050200085214D0077550E21FFF75AFC0D2102987E
:10503000FFF756FC705D03210902142200252B4660
:1050400058F7A6FB0398305C132229462B4658F7E5
:105050009FFB0498BBE7FF2738460A30305C29469F
:10506000FFF73EFC0C37F05D2946FFF739FC432083
:105070008000355485204000355499E7BC98FC07E2
:1050800025692025692025690D0A0000B0B5044670
:10509000FDF720F8002815D00BA0FEF7A9FAFF2095
:1050A0006630DC4906220A540B480A2104220223F6
:1050B00053F76EFD132141700125057053F783FDF1
:1050C0002802E082B0BDC046444953434F4E4E458E
:1050D0004354494E470D0A00040E0000B0B50C467B
:1050E0000546FCF7F7FF034603A100222046FCF724
:1050F00085F80120E875B0BD25642C25640000000A
:10510000F0B5BBB00D46044626AF4B21384656F7E6
:10511000BEF8E07A022824D0012842D1207B216801
:1051200008180026079607AA3146FCF78FF80028D2
:105130003AD10798012837D1049489490E3126A81D
:105140001B2256F78BF80024864E2F461B2C2ED0A0
:1051500026A8025D38463146FCF750F8BF1C641C97
:10516000F4E7607B21680A187B492846FCF746F87B
:105170000026002D69D006972846FBF729FA9628C5
:1051800063D106984430069028468B300021734F37
:1051900004295DD07A5CAA5C491C3B2AF8D0002621
:1051A00053E00020E07551E00D2020764DE02846C8
:1051B000FBF70EFA3B210691295469496D3126A867
:1051C000192256F74BF82846FBF702FA2F1800244D
:1051D000644E192C08D026A8025D38463146FCF7EB
:1051E0000DF8BF1C641CF4E72846FBF7F1F906999B
:1051F00029545B49463126A8102256F72FF8284635
:10520000FBF7E6F92F180024564E102C08D026A8DC
:10521000025D38463146FBF7F1FFBF1C641CF4E722
:105220002846FBF7D5F9069F2F5486204C490E5C83
:105230008C682846FBF7CCF9009428184AA132461E
:105240003B46FBF7DBFF0126049CE6753BB0F0BD57
:10525000017800263029F8D14078FE21014030291C
:10526000F3D1049439A8002484702246952C1DDCC7
:1052700000200592042804D0395C401C8C42F9D1EE
:10528000641C295D39A801702919497841700026EC
:105290000796102107AAFBF7D9FF0028D4D126A82A
:1052A0000799059A8154521CA41CDFE707AD6221BF
:1052B000284655F7ECFFA81C26AF1B22394655F7A8
:1052C000CDFF2846613039461B31192255F7C6FFFC
:1052D00028463A3034371022394655F7BFFF15209B
:1052E000287006980178059101790391C17802919F
:1052F000877844783AAEFF20307039AA2846314684
:10530000FCF7E2FC2006390408180299090240184B
:105310000399401832780021FF2A069100D01146E7
:105320008C000F4A9668174608373851792429555A
:1053300054188627059BE3559478AA2C00D0069E26
:105340008642049C00D80646701C50602846FBF735
:10535000E5FF012679E7C0467676FC07946DFC07E9
:10536000B097FC070775FC072530325825632530B8
:105370003858000010B50A46044603491046FBF7AA
:105380003DFF0020E07510BD0574FC07FEB50F461B
:1053900004460025294600F0A7FEC6B20C2E01D90E
:1053A000E575FEBDE07A012811D1C2488019FF21C0
:1053B0001031405C401E0328F3D8304658F706FAF7
:1053C0000246DD493846FBF719FF0125E8E70125CC
:1053D0002046294600F088FEB6498A19FF2739463B
:1053E0001031515C0429DCD1C1B2012907D0002958
:1053F000D7D101920290304658F7BAF904E00192F1
:105400000290304658F7BCF91C3702980199C855EC
:10541000C6E7C046BC98FC07F0B585B00446C07A24
:10542000012845D0002814D10D4604940B20C74311
:105430004C4C4DA6002F38D0E019FF211C31435CA5
:105440001C2B04D0284631462A46FBF7D7FE7F1C8A
:10545000F0E700262046314600F046FE07460121CF
:105460002046049100F040FE0346C5B2E07A0328CE
:1054700001D1042D1CD1FFB23A49CA19FF21019173
:10548000103103920291525C1C2A0BD00B2F09D8C9
:105490001B2D07D8062F05D0052F03D0042F09D8C0
:1054A000022F07D00C20207602E001200499C87555
:1054B00005B0F0BD2E4A1288D205920F0DD0022FF2
:1054C000F0D0521E022A08D8D202120A0093294BA9
:1054D000D340DAB2009B9742E4D06A1E032A09D275
:1054E0000198C0431902081881B2002238461D46AF
:1054F000134611E0042D18D11D46032807D10221BF
:10550000204600F0F1FDC0B2401E46424641032055
:10551000010200223846334658F73AF903980299B7
:10552000401805700498E075C2E7092D01D00A2DD6
:10553000BED1009303200602FCF7CCFD093D0028F4
:1055400005D06B426B4100223846314605E0681EAB
:1055500085410022384631462B4658F719F9009DFF
:10556000DCE7C046BC98FC07257325303264200078
:105570001200005005010A007CB50446B320460025
:10558000934DA85D00280FD0207B21680818FBF7F9
:1055900059FA0021A9550190287801A90422012572
:1055A0002B46FBF7ABFB00E00025E5757CBDC04654
:1055B000BCB50446C07A01280AD000281AD11A487E
:1055C00002785D4B08461946FBF718FE012012E0F1
:1055D000207B216808180025019501AA2946FBF7C0
:1055E00035FE002802D10198052806D30E2020762A
:1055F000E575BCBD0020E075BCBDFCF76BFD002867
:1056000001D00F20F3E70198C0B207490978814221
:1056100003D0FEF72DF90020A0752520284900228F
:105620000A540125E4E7C0460878FC07F8B50446AB
:105630000025294600F058FD00062CD02D20C00082
:10564000FF210231624E3152FEF770F84320800094
:10565000305C58F7BBF8002806D12120C000305C30
:10566000002801D0144801E001251448144FB86403
:10567000284601F073F82120C000305C002804D0D7
:10568000104801680222914301603878002808D050
:10569000812078700AE02D20C0004D4900220A5276
:1056A00004E009480121C170084801700120E0753B
:1056B000F8BDC046BC98FC077161FC075D69FC073A
:1056C000DC9AFC071010005020BAFC0780BAFC07D7
:1056D00010B50446C07A002811D00021204600F001
:1056E00003FDC0B2411E02468A41AD210B4B5A5404
:1056F000A17A02290FD100280AD00CA009E0AD2020
:10570000064A125C0C4B08461946FBF777FD02E08F
:1057100003A0FDF76DFF0120E07510BD2C9AFC077A
:105720002B4543484F204F46460D0A002B45434822
:105730004F204F4E0D0A00003175FC0710B504468E
:10574000002100F0D1FCC0B2411E8841AE21024AC6
:1057500050540120E07510BD2C9AFC0710B50A4684
:10576000044603A11046FBF749FD0120E07510BD7A
:10577000436F64654C657373204441313435333174
:105780002D303120765F362E3338302E32302E36A3
:105790003620000080B502483CF7E8FF80BDC046D7
:1057A0001111111110B5044600F020FC0120E07524
:1057B00010BD000080B5FD48416D002900D080BDBE
:1057C000012101654165022001F056F880BDC04607
:1057D000BC98FC07F0B585B00C46F04941180B2980
:1057E00032D9EF494118092900D97FE0880001A189
:1057F000085887461D58FC07975BFC07C559FC07EE
:10580000975BFC07975BFC07975BFC07D359FC078A
:10581000975BFC07975BFC075F59FC07FF2066302E
:10582000E2490A5C032A04D100220A54E448FDF745
:10583000DFFE20780D2800D0ADE16088E149884284
:1058400000D0A8E1607863E0880001A1085887468D
:105850008158FC07975BFC07975BFC070159FC0725
:10586000975BFC07975BFC071B59FC07975BFC07E2
:10587000975BFC076759FC07975BFC079559FC078A
:10588000FD203CF7A0FF0146CA480422AD2353F790
:105890007FF90546C8483DF7F5F8002700283E4641
:1058A00002D0466853F7E1F820780C214143C34801
:1058B0004018007F2870608868803046FAF788FEBC
:1058C000AF71401CA880EC1D019787B2204631467D
:1058D0003A4655F7C3FC3819401E01990170002E55
:1058E00002D0304653F7C1F8284668E0AD498842F7
:1058F00000D1CEE0AC49884200D04CE100BF4AE183
:1059000020880F2800D1F7E00A2800D043E1A078D2
:10591000002800D1F7E00020F6E06088801E0E2805
:1059200000D938E14000C046784480884000874470
:105930000E00320132013201320104013201320122
:105940003201EE003201090132010E01F700FF20A1
:105950006A30E449085C002801D000F073FBA1889C
:10596000A01D0222BAE066889D48082519462B46EC
:1059700053F70EF9002181806288428022780C233F
:1059800053438E4AD218127F0270022E00D0032198
:10599000817114E02D20C000D24900220A54FF205A
:1059A0006630085C801E022800D994E08048FB30F5
:1059B00009210422012353F7EBF80221017053F768
:1059C00002F9E8E0C74848302188CA1E8167C267EB
:1059D000E1E0A51D7C491022284655F763FC00280C
:1059E00004D16088BF494880FDF75AFC77491022EE
:1059F000284655F757FC002802D16088B9498880AD
:105A000073491022284655F74DFC002809D16088BB
:105A1000B449C88004A901220A80401C80B200F069
:105A2000B7FE6C491022284655F73CFC00280FD1E0
:105A30006088AC4EB08303A901220A80401C80B26A
:105A400000F0A6FEFF20023048217052FDF74EFC08
:105A500061491022284655F725FC002802D16088AC
:105A6000A04948835D491022284655F71BFC0028B1
:105A700000D090E060889B4CE08302A901220A805C
:105A8000401C80B200F084FEFF20023048216052AA
:105A900081E0A088934DE988884213D121781229AA
:105AA00010D14348082104220C2353F771F8212117
:105AB000C900018000210181C180A988818053F73C
:105AC00082F8A088A98B88420BD12020285C00286E
:105AD00061D0618837E022792168601D00F004F907
:105AE00059E0E98B884256D1A079022847D0012895
:105AF00051D14820012144E04120800079490A58D1
:105B0000521C0A5047E00120FEF782FD43E0E18885
:105B1000C82274488152A179C90721D1002122E00D
:105B2000A079E17909020818012834D149206D498A
:105B3000085C00282CD001202BE0A079C00716D1EA
